{"contracts/KlunkazMain.sol":{"KlunkazMain":{"abi":[{"anonymous":false,"inputs":[{"indexed":true,"internalType":"address","name":"owner","type":"address"},{"indexed":true,"internalType":"address","name":"approved","type":"address"},{"indexed":true,"internalType":"uint256","name":"tokenId","type":"uint256"}],"name":"Approval","type":"event"},{"anonymous":false,"inputs":[{"indexed":true,"internalType":"address","name":"owner","type":"address"},{"indexed":true,"internalType":"address","name":"operator","type":"address"},{"indexed":false,"internalType":"bool","name":"approved","type":"bool"}],"name":"ApprovalForAll","type":"event"},{"anonymous":false,"inputs":[{"indexed":true,"internalType":"uint256","name":"id","type":"uint256"},{"indexed":false,"internalType":"bool","name":"isInsured","type":"bool"}],"name":"BikeInsuranceUpdated","type":"event"},{"anonymous":false,"inputs":[{"indexed":true,"internalType":"uint256","name":"id","type":"uint256"},{"indexed":true,"internalType":"address","name":"owner","type":"address"},{"indexed":false,"internalType":"uint256","name":"price","type":"uint256"}],"name":"BikeListed","type":"event"},{"anonymous":false,"inputs":[{"indexed":true,"internalType":"uint256","name":"bikeId","type":"uint256"},{"indexed":true,"internalType":"address","name":"renter","type":"address"},{"indexed":false,"internalType":"uint256","name":"duration","type":"uint256"},{"indexed":false,"internalType":"uint256","name":"totalPrice","type":"uint256"}],"name":"BikeRented","type":"event"},{"anonymous":false,"inputs":[{"indexed":true,"internalType":"uint256","name":"id","type":"uint256"},{"indexed":true,"internalType":"address","name":"oldOwner","type":"address"},{"indexed":true,"internalType":"address","name":"newOwner","type":"address"},{"indexed":false,"internalType":"uint256","name":"price","type":"uint256"}],"name":"BikeResold","type":"event"},{"anonymous":false,"inputs":[{"indexed":true,"internalType":"uint256","name":"id","type":"uint256"},{"indexed":true,"internalType":"address","name":"oldOwner","type":"address"},{"indexed":true,"internalType":"address","name":"newOwner","type":"address"},{"indexed":false,"internalType":"uint256","name":"price","type":"uint256"}],"name":"BikeSold","type":"event"},{"anonymous":false,"inputs":[{"indexed":true,"internalType":"uint256","name":"id","type":"uint256"},{"indexed":false,"internalType":"bool","name":"isStolen","type":"bool"}],"name":"BikeStatusUpdated","type":"event"},{"anonymous":false,"inputs":[{"indexed":true,"internalType":"uint256","name":"transactionId","type":"uint256"},{"indexed":true,"internalType":"address","name":"by","type":"address"},{"indexed":false,"internalType":"string","name":"reason","type":"string"}],"name":"DisputeRaised","type":"event"},{"anonymous":false,"inputs":[{"indexed":true,"internalType":"uint256","name":"bikeId","type":"uint256"},{"indexed":false,"internalType":"enum Types.ListingType","name":"listingType","type":"uint8"}],"name":"ListingTypeUpdated","type":"event"},{"anonymous":false,"inputs":[{"indexed":true,"internalType":"uint256","name":"bikeId","type":"uint256"},{"indexed":false,"internalType":"string","name":"details","type":"string"},{"indexed":false,"internalType":"uint256","name":"timestamp","type":"uint256"}],"name":"MaintenanceAdded","type":"event"},{"anonymous":false,"inputs":[{"indexed":true,"internalType":"address","name":"previousOwner","type":"address"},{"indexed":true,"internalType":"address","name":"newOwner","type":"address"}],"name":"OwnershipTransferred","type":"event"},{"anonymous":false,"inputs":[{"indexed":true,"internalType":"uint256","name":"bikeId","type":"uint256"},{"indexed":false,"internalType":"uint256","name":"newPrice","type":"uint256"}],"name":"PriceUpdated","type":"event"},{"anonymous":false,"inputs":[{"indexed":true,"internalType":"address","name":"user","type":"address"},{"indexed":false,"internalType":"string","name":"name","type":"string"},{"indexed":false,"internalType":"string","name":"location","type":"string"}],"name":"ProfileUpdated","type":"event"},{"anonymous":false,"inputs":[{"indexed":true,"internalType":"uint256","name":"bikeId","type":"uint256"},{"indexed":true,"internalType":"address","name":"renter","type":"address"}],"name":"RentalEnded","type":"event"},{"anonymous":false,"inputs":[{"indexed":true,"internalType":"uint256","name":"bikeId","type":"uint256"},{"indexed":false,"internalType":"uint256","name":"newPrice","type":"uint256"}],"name":"RentalPriceUpdated","type":"event"},{"anonymous":false,"inputs":[{"indexed":true,"internalType":"uint256","name":"productId","type":"uint256"},{"indexed":true,"internalType":"address","name":"reviewer","type":"address"},{"indexed":false,"internalType":"uint256","name":"rating","type":"uint256"},{"indexed":false,"internalType":"string","name":"comment","type":"string"}],"name":"ReviewAdded","type":"event"},{"anonymous":false,"inputs":[{"indexed":true,"internalType":"uint256","name":"productId","type":"uint256"},{"indexed":true,"internalType":"uint256","name":"reviewIndex","type":"uint256"}],"name":"ReviewDeleted","type":"event"},{"anonymous":false,"inputs":[{"indexed":true,"internalType":"uint256","name":"productId","type":"uint256"},{"indexed":true,"internalType":"uint256","name":"reviewIndex","type":"uint256"},{"indexed":true,"internalType":"address","name":"liker","type":"address"},{"indexed":false,"internalType":"uint256","name":"likes","type":"uint256"}],"name":"ReviewLiked","type":"event"},{"anonymous":false,"inputs":[{"indexed":true,"internalType":"uint256","name":"bikeId","type":"uint256"},{"indexed":false,"internalType":"uint256","name":"amount","type":"uint256"}],"name":"SecurityDepositUpdated","type":"event"},{"anonymous":false,"inputs":[{"indexed":true,"internalType":"uint256","name":"bikeId","type":"uint256"},{"indexed":true,"internalType":"address","name":"deviceAddress","type":"address"}],"name":"TrackerRegistered","type":"event"},{"anonymous":false,"inputs":[{"indexed":true,"internalType":"uint256","name":"transactionId","type":"uint256"},{"indexed":true,"internalType":"uint256","name":"bikeId","type":"uint256"},{"indexed":false,"internalType":"enum Types.TransactionType","name":"transactionType","type":"uint8"},{"indexed":true,"internalType":"address","name":"from","type":"address"},{"indexed":false,"internalType":"address","name":"to","type":"address"}],"name":"TransactionCreated","type":"event"},{"anonymous":false,"inputs":[{"indexed":true,"internalType":"address","name":"from","type":"address"},{"indexed":true,"internalType":"address","name":"to","type":"address"},{"indexed":true,"internalType":"uint256","name":"tokenId","type":"uint256"}],"name":"Transfer","type":"event"},{"anonymous":false,"inputs":[{"indexed":true,"internalType":"address","name":"user","type":"address"}],"name":"UserVerified","type":"event"},{"inputs":[{"internalType":"uint256","name":"bikeId","type":"uint256"},{"internalType":"string","name":"details","type":"string"}],"name":"addMaintenance","outputs":[],"stateMutability":"nonpayable","type":"function"},{"inputs":[{"internalType":"uint256","name":"productId","type":"uint256"},{"internalType":"uint256","name":"rating","type":"uint256"},{"internalType":"string","name":"comment","type":"string"}],"name":"addReview","outputs":[],"stateMutability":"nonpayable","type":"function"},{"inputs":[{"internalType":"address","name":"to","type":"address"},{"internalType":"uint256","name":"tokenId","type":"uint256"}],"name":"approve","outputs":[],"stateMutability":"nonpayable","type":"function"},{"inputs":[{"internalType":"address","name":"owner","type":"address"}],"name":"balanceOf","outputs":[{"internalType":"uint256","name":"","type":"uint256"}],"stateMutability":"view","type":"function"},{"inputs":[],"name":"bikeIndex","outputs":[{"internalType":"uint256","name":"","type":"uint256"}],"stateMutability":"view","type":"function"},{"inputs":[{"internalType":"uint256","name":"productId","type":"uint256"},{"internalType":"uint256","name":"reviewIndex","type":"uint256"}],"name":"deleteReview","outputs":[],"stateMutability":"nonpayable","type":"function"},{"inputs":[{"internalType":"uint256","name":"bikeId","type":"uint256"}],"name":"endRental","outputs":[],"stateMutability":"nonpayable","type":"function"},{"inputs":[],"name":"getAllBikes","outputs":[{"components":[{"internalType":"uint256","name":"productID","type":"uint256"},{"internalType":"address","name":"owner","type":"address"},{"internalType":"uint256","name":"price","type":"uint256"},{"components":[{"internalType":"string","name":"bikeBrand","type":"string"},{"internalType":"string","name":"bikeTitle","type":"string"},{"internalType":"string","name":"bikeSize","type":"string"},{"internalType":"string","name":"bikeColor","type":"string"},{"internalType":"string","name":"bikeFrame","type":"string"},{"internalType":"string","name":"bikeFork","type":"string"},{"internalType":"string","name":"bikeShock","type":"string"},{"internalType":"enum Types.BikeCondition","name":"condition","type":"uint8"},{"internalType":"uint256","name":"manufactureYear","type":"uint256"},{"internalType":"uint256","name":"lastServiceDate","type":"uint256"},{"internalType":"string","name":"serialNumber","type":"string"},{"internalType":"bool","name":"hasWarranty","type":"bool"}],"internalType":"struct Types.BikeDetails","name":"details","type":"tuple"},{"components":[{"internalType":"string","name":"category","type":"string"},{"internalType":"string","name":"images","type":"string"},{"internalType":"string","name":"bikeAddress","type":"string"},{"internalType":"string","name":"bikeFeatures","type":"string"},{"internalType":"bool","name":"isStolen","type":"bool"},{"internalType":"bool","name":"isInsured","type":"bool"},{"internalType":"enum Types.ListingType","name":"listingType","type":"uint8"},{"internalType":"uint256","name":"rentalPrice","type":"uint256"},{"internalType":"bool","name":"isRented","type":"bool"},{"internalType":"address","name":"currentRenter","type":"address"},{"internalType":"uint256","name":"rentalEndTime","type":"uint256"},{"internalType":"uint256","name":"securityDeposit","type":"uint256"},{"internalType":"uint256[]","name":"maintenanceHistory","type":"uint256[]"},{"internalType":"bool","name":"requiresVerification","type":"bool"},{"internalType":"enum Types.RentalDuration","name":"preferredRentalDuration","type":"uint8"},{"internalType":"uint256","name":"insuranceExpiryDate","type":"uint256"},{"internalType":"string[]","name":"modifications","type":"string[]"},{"internalType":"uint256","name":"totalRentals","type":"uint256"}],"internalType":"struct Types.BikeMetadata","name":"metadata","type":"tuple"},{"internalType":"address[]","name":"reviewers","type":"address[]"},{"internalType":"string[]","name":"reviews","type":"string[]"},{"internalType":"uint256","name":"createdAt","type":"uint256"},{"internalType":"uint256","name":"lastUpdated","type":"uint256"},{"internalType":"uint256","name":"viewCount","type":"uint256"}],"internalType":"struct Types.Bike[]","name":"","type":"tuple[]"}],"stateMutability":"view","type":"function"},{"inputs":[{"internalType":"uint256","name":"tokenId","type":"uint256"}],"name":"getApproved","outputs":[{"internalType":"address","name":"","type":"address"}],"stateMutability":"view","type":"function"},{"inputs":[{"internalType":"uint256","name":"bikeId","type":"uint256"}],"name":"getBikeDetails","outputs":[{"components":[{"internalType":"string","name":"bikeBrand","type":"string"},{"internalType":"string","name":"bikeTitle","type":"string"},{"internalType":"string","name":"bikeSize","type":"string"},{"internalType":"string","name":"bikeColor","type":"string"},{"internalType":"string","name":"bikeFrame","type":"string"},{"internalType":"string","name":"bikeFork","type":"string"},{"internalType":"string","name":"bikeShock","type":"string"},{"internalType":"enum Types.BikeCondition","name":"condition","type":"uint8"},{"internalType":"uint256","name":"manufactureYear","type":"uint256"},{"internalType":"uint256","name":"lastServiceDate","type":"uint256"},{"internalType":"string","name":"serialNumber","type":"string"},{"internalType":"bool","name":"hasWarranty","type":"bool"}],"internalType":"struct Types.BikeDetails","name":"","type":"tuple"}],"stateMutability":"view","type":"function"},{"inputs":[{"internalType":"uint256","name":"bikeId","type":"uint256"}],"name":"getBikeMetadata","outputs":[{"components":[{"internalType":"string","name":"category","type":"string"},{"internalType":"string","name":"images","type":"string"},{"internalType":"string","name":"bikeAddress","type":"string"},{"internalType":"string","name":"bikeFeatures","type":"string"},{"internalType":"bool","name":"isStolen","type":"bool"},{"internalType":"bool","name":"isInsured","type":"bool"},{"internalType":"enum Types.ListingType","name":"listingType","type":"uint8"},{"internalType":"uint256","name":"rentalPrice","type":"uint256"},{"internalType":"bool","name":"isRented","type":"bool"},{"internalType":"address","name":"currentRenter","type":"address"},{"internalType":"uint256","name":"rentalEndTime","type":"uint256"},{"internalType":"uint256","name":"securityDeposit","type":"uint256"},{"internalType":"uint256[]","name":"maintenanceHistory","type":"uint256[]"},{"internalType":"bool","name":"requiresVerification","type":"bool"},{"internalType":"enum Types.RentalDuration","name":"preferredRentalDuration","type":"uint8"},{"internalType":"uint256","name":"insuranceExpiryDate","type":"uint256"},{"internalType":"string[]","name":"modifications","type":"string[]"},{"internalType":"uint256","name":"totalRentals","type":"uint256"}],"internalType":"struct Types.BikeMetadata","name":"","type":"tuple"}],"stateMutability":"view","type":"function"},{"inputs":[{"internalType":"uint256","name":"id","type":"uint256"}],"name":"getBikeView","outputs":[{"components":[{"internalType":"uint256","name":"productID","type":"uint256"},{"internalType":"address","name":"owner","type":"address"},{"internalType":"uint256","name":"price","type":"uint256"},{"components":[{"internalType":"string","name":"bikeBrand","type":"string"},{"internalType":"string","name":"bikeTitle","type":"string"},{"internalType":"string","name":"bikeSize","type":"string"},{"internalType":"string","name":"bikeColor","type":"string"},{"internalType":"string","name":"bikeFrame","type":"string"},{"internalType":"string","name":"bikeFork","type":"string"},{"internalType":"string","name":"bikeShock","type":"string"},{"internalType":"enum Types.BikeCondition","name":"condition","type":"uint8"},{"internalType":"uint256","name":"manufactureYear","type":"uint256"},{"internalType":"uint256","name":"lastServiceDate","type":"uint256"},{"internalType":"string","name":"serialNumber","type":"string"},{"internalType":"bool","name":"hasWarranty","type":"bool"}],"internalType":"struct Types.BikeDetails","name":"details","type":"tuple"},{"components":[{"internalType":"string","name":"category","type":"string"},{"internalType":"string","name":"images","type":"string"},{"internalType":"string","name":"bikeAddress","type":"string"},{"internalType":"string","name":"bikeFeatures","type":"string"},{"internalType":"bool","name":"isStolen","type":"bool"},{"internalType":"bool","name":"isInsured","type":"bool"},{"internalType":"enum Types.ListingType","name":"listingType","type":"uint8"},{"internalType":"uint256","name":"rentalPrice","type":"uint256"},{"internalType":"bool","name":"isRented","type":"bool"},{"internalType":"address","name":"currentRenter","type":"address"},{"internalType":"uint256","name":"rentalEndTime","type":"uint256"},{"internalType":"uint256","name":"securityDeposit","type":"uint256"},{"internalType":"uint256[]","name":"maintenanceHistory","type":"uint256[]"},{"internalType":"bool","name":"requiresVerification","type":"bool"},{"internalType":"enum Types.RentalDuration","name":"preferredRentalDuration","type":"uint8"},{"internalType":"uint256","name":"insuranceExpiryDate","type":"uint256"},{"internalType":"string[]","name":"modifications","type":"string[]"},{"internalType":"uint256","name":"totalRentals","type":"uint256"}],"internalType":"struct Types.BikeMetadata","name":"metadata","type":"tuple"},{"internalType":"address[]","name":"reviewers","type":"address[]"},{"internalType":"string[]","name":"reviews","type":"string[]"},{"internalType":"uint256","name":"createdAt","type":"uint256"},{"internalType":"uint256","name":"lastUpdated","type":"uint256"},{"internalType":"uint256","name":"viewCount","type":"uint256"}],"internalType":"struct Types.Bike","name":"","type":"tuple"}],"stateMutability":"view","type":"function"},{"inputs":[],"name":"getHighestRatedProduct","outputs":[{"internalType":"uint256","name":"","type":"uint256"}],"stateMutability":"view","type":"function"},{"inputs":[{"internalType":"uint256","name":"productId","type":"uint256"}],"name":"getProductReviews","outputs":[{"components":[{"internalType":"address","name":"reviewer","type":"address"},{"internalType":"uint256","name":"productId","type":"uint256"},{"internalType":"uint256","name":"rating","type":"uint256"},{"internalType":"string","name":"comment","type":"string"},{"internalType":"uint256","name":"likes","type":"uint256"},{"internalType":"uint256","name":"timestamp","type":"uint256"},{"internalType":"bool","name":"isVerifiedPurchase","type":"bool"},{"internalType":"string[]","name":"images","type":"string[]"},{"internalType":"uint256[]","name":"helpfulVotes","type":"uint256[]"}],"internalType":"struct Types.Review[]","name":"","type":"tuple[]"}],"stateMutability":"view","type":"function"},{"inputs":[{"internalType":"uint256","name":"bikeId","type":"uint256"},{"internalType":"address","name":"renter","type":"address"}],"name":"getRentalHistory","outputs":[{"internalType":"uint256[]","name":"","type":"uint256[]"}],"stateMutability":"view","type":"function"},{"inputs":[{"internalType":"address","name":"user","type":"address"}],"name":"getUserReviews","outputs":[{"internalType":"uint256[]","name":"","type":"uint256[]"}],"stateMutability":"view","type":"function"},{"inputs":[{"internalType":"address","name":"user","type":"address"}],"name":"getUserTransactions","outputs":[{"components":[{"internalType":"uint256","name":"transactionId","type":"uint256"},{"internalType":"uint256","name":"bikeId","type":"uint256"},{"internalType":"enum Types.TransactionType","name":"transactionType","type":"uint8"},{"internalType":"enum Types.TransactionStatus","name":"status","type":"uint8"},{"internalType":"address","name":"from","type":"address"},{"internalType":"address","name":"to","type":"address"},{"internalType":"uint256","name":"amount","type":"uint256"},{"internalType":"uint256","name":"timestamp","type":"uint256"},{"internalType":"string","name":"details","type":"string"},{"internalType":"bool","name":"isRefunded","type":"bool"},{"internalType":"string","name":"disputeReason","type":"string"}],"internalType":"struct Types.Transaction[]","name":"","type":"tuple[]"}],"stateMutability":"view","type":"function"},{"inputs":[{"internalType":"uint256","name":"productId","type":"uint256"},{"internalType":"uint256","name":"reviewIndex","type":"uint256"},{"internalType":"address","name":"user","type":"address"}],"name":"hasLikedReview","outputs":[{"internalType":"bool","name":"","type":"bool"}],"stateMutability":"view","type":"function"},{"inputs":[{"internalType":"uint256","name":"bikeId","type":"uint256"}],"name":"insureBike","outputs":[],"stateMutability":"payable","type":"function"},{"inputs":[{"internalType":"address","name":"owner","type":"address"},{"internalType":"address","name":"operator","type":"address"}],"name":"isApprovedForAll","outputs":[{"internalType":"bool","name":"","type":"bool"}],"stateMutability":"view","type":"function"},{"inputs":[{"internalType":"uint256","name":"productId","type":"uint256"},{"internalType":"uint256","name":"reviewIndex","type":"uint256"}],"name":"likeReview","outputs":[],"stateMutability":"nonpayable","type":"function"},{"inputs":[{"internalType":"uint256","name":"price","type":"uint256"},{"components":[{"internalType":"string","name":"bikeBrand","type":"string"},{"internalType":"string","name":"bikeTitle","type":"string"},{"internalType":"string","name":"bikeSize","type":"string"},{"internalType":"string","name":"bikeColor","type":"string"},{"internalType":"string","name":"bikeFrame","type":"string"},{"internalType":"string","name":"bikeFork","type":"string"},{"internalType":"string","name":"bikeShock","type":"string"},{"internalType":"enum Types.BikeCondition","name":"condition","type":"uint8"},{"internalType":"uint256","name":"manufactureYear","type":"uint256"},{"internalType":"uint256","name":"lastServiceDate","type":"uint256"},{"internalType":"string","name":"serialNumber","type":"string"},{"internalType":"bool","name":"hasWarranty","type":"bool"}],"internalType":"struct Types.BikeDetails","name":"details","type":"tuple"},{"components":[{"internalType":"string","name":"category","type":"string"},{"internalType":"string","name":"images","type":"string"},{"internalType":"string","name":"bikeAddress","type":"string"},{"internalType":"string","name":"bikeFeatures","type":"string"},{"internalType":"bool","name":"isStolen","type":"bool"},{"internalType":"bool","name":"isInsured","type":"bool"},{"internalType":"enum Types.ListingType","name":"listingType","type":"uint8"},{"internalType":"uint256","name":"rentalPrice","type":"uint256"},{"internalType":"bool","name":"isRented","type":"bool"},{"internalType":"address","name":"currentRenter","type":"address"},{"internalType":"uint256","name":"rentalEndTime","type":"uint256"},{"internalType":"uint256","name":"securityDeposit","type":"uint256"},{"internalType":"uint256[]","name":"maintenanceHistory","type":"uint256[]"},{"internalType":"bool","name":"requiresVerification","type":"bool"},{"internalType":"enum Types.RentalDuration","name":"preferredRentalDuration","type":"uint8"},{"internalType":"uint256","name":"insuranceExpiryDate","type":"uint256"},{"internalType":"string[]","name":"modifications","type":"string[]"},{"internalType":"uint256","name":"totalRentals","type":"uint256"}],"internalType":"struct Types.BikeMetadata","name":"metadata","type":"tuple"},{"internalType":"enum Types.ListingType","name":"listingType","type":"uint8"},{"internalType":"uint256","name":"rentalPrice","type":"uint256"}],"name":"listBike","outputs":[{"internalType":"uint256","name":"","type":"uint256"}],"stateMutability":"nonpayable","type":"function"},{"inputs":[{"internalType":"uint256","name":"bikeId","type":"uint256"}],"name":"markAsStolen","outputs":[],"stateMutability":"nonpayable","type":"function"},{"inputs":[],"name":"name","outputs":[{"internalType":"string","name":"","type":"string"}],"stateMutability":"view","type":"function"},{"inputs":[],"name":"owner","outputs":[{"internalType":"address","name":"","type":"address"}],"stateMutability":"view","type":"function"},{"inputs":[{"internalType":"uint256","name":"tokenId","type":"uint256"}],"name":"ownerOf","outputs":[{"internalType":"address","name":"","type":"address"}],"stateMutability":"view","type":"function"},{"inputs":[{"internalType":"uint256","name":"transactionId","type":"uint256"},{"internalType":"string","name":"reason","type":"string"}],"name":"raiseDispute","outputs":[],"stateMutability":"nonpayable","type":"function"},{"inputs":[{"internalType":"uint256","name":"bikeId","type":"uint256"},{"internalType":"address","name":"deviceAddress","type":"address"}],"name":"registerTracker","outputs":[],"stateMutability":"nonpayable","type":"function"},{"inputs":[],"name":"renounceOwnership","outputs":[],"stateMutability":"nonpayable","type":"function"},{"inputs":[{"internalType":"uint256","name":"bikeId","type":"uint256"},{"internalType":"uint256","name":"durationInDays","type":"uint256"}],"name":"rentBike","outputs":[],"stateMutability":"payable","type":"function"},{"inputs":[],"name":"reviewsCounter","outputs":[{"internalType":"uint256","name":"","type":"uint256"}],"stateMutability":"view","type":"function"},{"inputs":[{"internalType":"address","name":"from","type":"address"},{"internalType":"address","name":"to","type":"address"},{"internalType":"uint256","name":"tokenId","type":"uint256"}],"name":"safeTransferFrom","outputs":[],"stateMutability":"nonpayable","type":"function"},{"inputs":[{"internalType":"address","name":"from","type":"address"},{"internalType":"address","name":"to","type":"address"},{"internalType":"uint256","name":"tokenId","type":"uint256"},{"internalType":"bytes","name":"data","type":"bytes"}],"name":"safeTransferFrom","outputs":[],"stateMutability":"nonpayable","type":"function"},{"inputs":[{"internalType":"address","name":"operator","type":"address"},{"internalType":"bool","name":"approved","type":"bool"}],"name":"setApprovalForAll","outputs":[],"stateMutability":"nonpayable","type":"function"},{"inputs":[{"internalType":"bytes4","name":"interfaceId","type":"bytes4"}],"name":"supportsInterface","outputs":[{"internalType":"bool","name":"","type":"bool"}],"stateMutability":"view","type":"function"},{"inputs":[],"name":"symbol","outputs":[{"internalType":"string","name":"","type":"string"}],"stateMutability":"view","type":"function"},{"inputs":[{"internalType":"uint256","name":"tokenId","type":"uint256"}],"name":"tokenURI","outputs":[{"internalType":"string","name":"","type":"string"}],"stateMutability":"view","type":"function"},{"inputs":[{"internalType":"address","name":"from","type":"address"},{"internalType":"address","name":"to","type":"address"},{"internalType":"uint256","name":"tokenId","type":"uint256"}],"name":"transferFrom","outputs":[],"stateMutability":"nonpayable","type":"function"},{"inputs":[{"internalType":"address","name":"newOwner","type":"address"}],"name":"transferOwnership","outputs":[],"stateMutability":"nonpayable","type":"function"},{"inputs":[{"internalType":"uint256","name":"bikeId","type":"uint256"}],"name":"unflagBikeAsStolen","outputs":[],"stateMutability":"nonpayable","type":"function"},{"inputs":[{"internalType":"uint256","name":"bikeId","type":"uint256"},{"internalType":"enum Types.ListingType","name":"newListingType","type":"uint8"},{"internalType":"uint256","name":"rentalPrice","type":"uint256"}],"name":"updateListingType","outputs":[],"stateMutability":"nonpayable","type":"function"},{"inputs":[{"internalType":"uint256","name":"bikeId","type":"uint256"},{"internalType":"uint256","name":"newPrice","type":"uint256"}],"name":"updatePrice","outputs":[],"stateMutability":"nonpayable","type":"function"},{"inputs":[{"internalType":"string","name":"name","type":"string"},{"internalType":"string","name":"email","type":"string"},{"internalType":"string","name":"location","type":"string"},{"internalType":"string","name":"bio","type":"string"}],"name":"updateProfile","outputs":[],"stateMutability":"nonpayable","type":"function"},{"inputs":[{"internalType":"uint256","name":"bikeId","type":"uint256"},{"internalType":"uint256","name":"newPrice","type":"uint256"}],"name":"updateRentalPrice","outputs":[],"stateMutability":"nonpayable","type":"function"},{"inputs":[{"internalType":"uint256","name":"bikeId","type":"uint256"},{"internalType":"uint256","name":"amount","type":"uint256"}],"name":"updateSecurityDeposit","outputs":[],"stateMutability":"nonpayable","type":"function"},{"inputs":[{"internalType":"address","name":"user","type":"address"}],"name":"verifyUser","outputs":[],"stateMutability":"nonpayable","type":"function"}],"evm":{"bytecode":{"linkReferences":{},"object":"60806040523462000027575b6200001562000036565b604051616165620004da823961616590f35b62000030600080fd5b6200000b565b6200004062000147565b565b50634e487b7160e01b600052604160045260246000fd5b90601f01601f191681019081106001600160401b038211176200007b57604052565b6200008562000042565b604052565b90620000406200009960405190565b928362000059565b602090620000c2906001600160401b038111620000c657601f01601f191690565b0190565b620000d062000042565b601f01601f191690565b90620000f0620000ea83620000a1565b6200008a565b918252565b620001016007620000da565b6625b63ab735b0bd60c91b602082015290565b6200011e620000f5565b90565b6200012d6004620000da565b634b4c4e4b60e01b602082015290565b6200011e62000121565b620000406200015562000114565b6200015f6200013d565b6200004091906200017091620001c7565b620000403362000477565b6200011e6200011e6200011e9290565b6200011e60016200017b565b90600019905b9181191691161790565b90620001bb6200011e620001c3926200017b565b825462000197565b9055565b90620001d391620003e7565b62000040620001e16200018b565b6006620001a7565b50634e487b7160e01b600052602260045260246000fd5b906001600283049216801562000227575b60208310146200021d57565b62000040620001e9565b91607f169162000211565b9160001960089290920291821b911b6200019d565b91906200025c6200011e620001c3936200017b565b90835462000232565b620000409160009162000247565b8181106200027f575050565b806200028f600060019362000265565b0162000273565b9190601f8111620002a657505050565b620002ba6200004093600052602060002090565b906020601f840181900483019310620002de575b6020601f90910104019062000273565b9091508190620002ce565b90620002f3815190565b906001600160401b038211620003cb575b6200031c8262000315855462000200565b8562000296565b602090601f83116001146200035b57620001c39291600091836200034f575b5050600019600883021c1916906002021790565b0151905038806200033b565b601f198316916200037185600052602060002090565b9260005b818110620003b25750916002939185600196941062000398575b50505002019055565b01516000196008601f8516021c191690553880806200038f565b9193602060018192878701518155019501920162000375565b620003d562000042565b62000304565b906200004091620002e9565b90620003f962000040926000620003db565b6001620003db565b6200011e905b6001600160a01b031690565b6200011e905462000401565b906001600160a01b03906200019d565b6200011e9062000407906001600160a01b031682565b6200011e906200042f565b6200011e9062000445565b906200046f6200011e620001c39262000450565b82546200041f565b62000483600762000413565b90620004918160076200045b565b620004c8620004c17f8be0079c531659141344cd1fd0a4f28419497f9722a3daafe3b4186f6b6457e09362000450565b9162000450565b91620004d360405190565b600090a356fe60806040526004361015610018575b610016600080fd5b005b60003560e01c806301ffc9a7146103b057806306fdde03146103a7578063081812fc1461039e578063095ea7b31461039557806318d0e8b21461038c57806323b872dd1461038357806324d41a031461037a57806338025500146103715780633e9e27aa1461036857806342842e0e1461035f57806346a4237b146103565780634d8131201461034d5780634f26c4a11461034457806356bc082e1461033b57806358560ea5146103325780635aef573c146103295780636352211e1461032057806370a0823114610317578063715018a61461030e578063774c0cda1461030557806379e0efe1146102fc57806382367b2d146102f3578063844ce562146102ea5780638da5cb5b146102e157806390abcd98146102d85780639483f25c146102cf57806395d89b41146102c657806397491d6f146102bd5780639e3699eb146102b4578063a22cb465146102ab578063a3007b1f146102a2578063a786de1814610299578063acfc78fa14610290578063b114d46114610287578063b88d4fde1461027e578063c87b56dd14610275578063cdc31ac21461026c578063d07b446014610263578063e3511b2c1461025a578063e5a54e8f14610251578063e985e9c514610248578063ef9253991461023f578063efaf9d1914610236578063f2fde38b1461022d578063fbe7b215146102245763fee618f60361000e5761021f61199e565b61000e565b5061021f611963565b5061021f611930565b5061021f61191c565b5061021f6118e6565b5061021f611762565b5061021f611712565b5061021f6116ea565b5061021f6116c2565b5061021f611657565b5061021f61161c565b5061021f6115f1565b5061021f611588565b5061021f61155d565b5061021f611548565b5061021f61151e565b5061021f6114f6565b5061021f611489565b5061021f611462565b5061021f611438565b5061021f61140d565b5061021f61132c565b5061021f6112f8565b5061021f6112ce565b5061021f611284565b5061021f61125c565b5061021f6111f5565b5061021f6111bd565b5061021f611193565b5061021f611169565b5061021f611141565b5061021f6110bf565b5061021f610fc3565b5061021f610f98565b5061021f610f33565b5061021f610efd565b5061021f610dc2565b5061021f610d9a565b5061021f610c1b565b5061021f610741565b5061021f6106f1565b5061021f61067d565b5061021f6105cc565b5061021f61053b565b5061021f6104c8565b5061021f610408565b600080fd5b6001600160e01b031981165b036103b957565b905035906103de826103be565b565b906103f4916020818303126103f7576103d1565b90565b6103ff600080fd5b6103d1565b9052565b503461043c575b6104386104256104203660046103e0565b611be9565b6040515b91829182901515815260200190565b0390f35b610444600080fd5b61040f565b600091031261045457565b6103de600080fd5b60005b83811061046f5750506000910152565b818101518382015260200161045f565b601f01601f191690565b6104aa61047f6020936104b39361049e815190565b80835293849260200190565b9586910161045c565b0190565b60208082526103f492910190610489565b50346104f2575b6104da366004610449565b6104386104e5611e79565b6040515b918291826104b7565b6104fa600080fd5b6104cf565b806103ca565b905035906103de826104ff565b906103f491602081830312156105055761052a600080fd5b610505565b6001600160a01b031690565b5034610572575b610438610558610553366004610512565b61209d565b604051918291826001600160a01b03909116815260200190565b61057a600080fd5b610542565b6001600160a01b0381166103ca565b905035906103de8261057f565b91906103f4906040848203126105bf575b6105b6818561058e565b93602001610505565b6105c7600080fd5b6105ac565b50346105ec575b6105e76105e136600461059b565b90612032565b604051005b6105f4600080fd5b6105d3565b906103f4916020818303121561058e57610611600080fd5b61058e565b9061063661062f610625845190565b8084529260200190565b9260200190565b9060005b8181106106475750505090565b90919261066461065d6001928651815260200190565b9460200190565b92910161063a565b60208082526103f492910190610616565b50346106a6575b61043861069a6106953660046105f9565b615dd8565b6040519182918261066c565b6106ae600080fd5b610684565b90916060828403126106e4575b6103f46106cd848461058e565b936106db816020860161058e565b93604001610505565b6106ec600080fd5b6106c0565b503461070c575b6105e76107063660046106b3565b91612171565b610714600080fd5b6106f8565b91906103f490604084820312610734575b6105b68185610505565b61073c600080fd5b61072a565b503461075c575b6105e7610756366004610719565b90615a10565b610764600080fd5b610748565b50634e487b7160e01b600052602160045260246000fd5b6005111561078a57565b6103de610769565b906103de82610780565b6103f490610792565b6104049061079c565b906103f4906101608061089c61085461084261083061081e61080c6107fa6107e88c60006101808d019101518c6000818403910152610489565b60208d01518b820360208d0152610489565b60408c01518a820360408c0152610489565b60608b015189820360608b0152610489565b60808a015188820360808a0152610489565b60a089015187820360a0890152610489565b60c088015186820360c0880152610489565b61086660e088015160e08701906107a5565b610877610100880151610100870152565b610888610120880151610120870152565b610140870151858203610140870152610489565b9401511515910152565b6002111561078a57565b906103de826108a6565b6103f4906108b0565b610404906108ba565b6003111561078a57565b906103de826108cc565b6103f4906108d6565b610404906108e0565b906103f491610489565b90610912610908835190565b8083529160200190565b90816109246020830284019460200190565b926000915b83831061093857505050505090565b9091929394602061095b610954838560019503875289516108f2565b9760200190565b9301930191939290610929565b906103f49061022080610aa6610a606109d06109be6109ac61099a610240890160008c01518a820360008c0152610489565b60208b015189820360208b0152610489565b60408a015188820360408a0152610489565b60608901518782036060890152610489565b60808881015115159087015260a0888101511515908701526109fa60c089015160c08801906108c3565b610a0960e089015160e0880152565b61010088810151151590870152610120808901516001600160a01b031690870152610a3b610140890151610140880152565b610a4c610160890151610160880152565b610180880151868203610180880152610616565b6101a087810151151590860152610a816101c08801516101c08701906108e9565b610a926101e08801516101e0870152565b6102008701518582036102008701526108fc565b940151910152565b90610abd61062f610625845190565b9060005b818110610ace5750505090565b909192610aed61065d60019286516001600160a01b0316815260200190565b929101610ac1565b805182526020808201516001600160a01b031690830152906103f49061012080610b7d610b6b610b59610b476101408701610b3560408b015160408a0152565b60608a015188820360608a01526107ae565b60808901518782036080890152610968565b60a088015186820360a0880152610aae565b60c087015185820360c08701526108fc565b94610b8d60e082015160e0860152565b610b9e610100820151610100860152565b0151910152565b906103f491610af5565b90610bbb610908835190565b9081610bcd6020830284019460200190565b926000915b838310610be157505050505090565b90919293946020610bfd61095483856001950387528951610ba5565b9301930191939290610bd2565b60208082526103f492910190610baf565b5034610c44575b610c2d366004610449565b610438610c38615bd0565b60405191829182610c0a565b610c4c600080fd5b610c22565b50634e487b7160e01b600052604160045260246000fd5b90601f01601f191681019081106001600160401b03821117610c8957604052565b610c91610c51565b604052565b906103de610ca360405190565b9283610c68565b6104b36020916001600160401b038111610cc857601f01601f191690565b61047f610c51565b90826000939282370152565b9291906103de91610cf4610cef83610caa565b610c96565b9482865260208601918382011115610cd057610d0e600080fd5b610cd0565b906103f49181601f82011215610d2f575b602081359101610cdc565b610d37600080fd5b610d24565b9091606082840312610d8d575b6103f4610d568484610505565b93610d648160208601610505565b936040810135906001600160401b038211610d80575b01610d13565b610d88600080fd5b610d7a565b610d95600080fd5b610d49565b5034610db5575b6105e7610daf366004610d3c565b91615055565b610dbd600080fd5b610da1565b5034610ddd575b6105e7610dd73660046106b3565b9161218e565b610de5600080fd5b610dc9565b80516001600160a01b031682526103f491610100610e75610e396101208401610e1860208701516020870152565b610e2760408701516040870152565b60608601518582036060870152610489565b610e4860808601516080860152565b610e5760a086015160a0860152565b60c08581015115159085015260e085015184820360e08601526108fc565b92015190610100818403910152610616565b906103f491610dea565b90610e9d610908835190565b9081610eaf6020830284019460200190565b926000915b838310610ec357505050505090565b90919293946020610edf61095483856001950387528951610e87565b9301930191939290610eb4565b60208082526103f492910190610e91565b5034610f26575b610438610f1a610f15366004610512565b615d74565b60405191829182610eec565b610f2e600080fd5b610f04565b5034610f4d575b6105e7610f483660046105f9565b614877565b610f55600080fd5b610f3a565b9091606082840312610f8b575b6103f4610f748484610505565b93610f828160208601610505565b9360400161058e565b610f93600080fd5b610f67565b5034610fb6575b610438610425610fb0366004610f5a565b91615db9565b610fbe600080fd5b610f9f565b5034610fdd575b6105e7610fd8366004610512565b614b4d565b610fe5600080fd5b610fca565b9081610180910312610ff95790565b6103f4600080fd5b9081610240910312610ff95790565b600211156103b957565b905035906103de82611010565b919060a0838203126110b2575b61103e8184610505565b9261105e8260208301356001600160401b0381116110a5575b8301610fea565b926103f46110818460408501356001600160401b038111611098575b8501611001565b9361108f816060860161101a565b93608001610505565b6110a0600080fd5b61107a565b6110ad600080fd5b611057565b6110ba600080fd5b611034565b50346110f1575b6104386110e06110d7366004611027565b93929092613bef565b6040515b9182918290815260200190565b6110f9600080fd5b6110c6565b91906103f490604084820312611134575b6111198185610505565b936020810135906001600160401b038211610d805701610d13565b61113c600080fd5b61110f565b503461115c575b6105e76111563660046110fe565b90614a7d565b611164600080fd5b611148565b5034611186575b610438610558611181366004610512565b611d44565b61118e600080fd5b611170565b50346111b0575b6104386110e06111ab3660046105f9565b611cbb565b6111b8600080fd5b61119a565b50346111d7575b6111cf366004610449565b6105e7611a0c565b6111df600080fd5b6111c4565b60208082526103f492910190610af5565b503461121e575b61043861121261120d366004610512565b6131f0565b604051918291826111e4565b611226600080fd5b6111fc565b91906103f49060408482031261124f575b6112468185610505565b9360200161058e565b611257600080fd5b61123c565b5034611277575b6105e761127136600461122b565b90614c48565b61127f600080fd5b611263565b503461129f575b6105e7611299366004610719565b90615587565b6112a7600080fd5b61128b565b6103f4916008021c81565b906103f491546112ac565b6103f4600060096112b7565b50346112eb575b6112e0366004610449565b6104386110e06112c2565b6112f3600080fd5b6112d5565b503461131f575b61130a366004610449565b6104386105586007546001600160a01b031690565b611327600080fd5b6112ff565b5034611347575b6105e7611341366004610719565b906154e5565b61134f600080fd5b611333565b608081830312611400575b61137b8282356001600160401b0381116113f3575b8301610d13565b926103f461139e8460208501356001600160401b0381116113e6575b8501610d13565b936113be8160408601356001600160401b0381116113d9575b8601610d13565b936060810135906001600160401b038211610d805701610d13565b6113e1600080fd5b6113b7565b6113ee600080fd5b611397565b6113fb600080fd5b611374565b611408600080fd5b61135f565b503461142b575b6105e7611422366004611354565b9291909161478f565b611433600080fd5b611414565b5034611455575b61144a366004610449565b6104386104e5611e83565b61145d600080fd5b61143f565b503461147c575b6105e7611477366004610512565b614680565b611484600080fd5b611469565b50346114a3575b6105e761149e366004610512565b614c04565b6114ab600080fd5b611490565b8015156103ca565b905035906103de826114b0565b91906103f4906040848203126114e9575b6114e0818561058e565b936020016114b8565b6114f1600080fd5b6114d6565b5034611511575b6105e761150b3660046114c5565b906120ca565b611519600080fd5b6114fd565b503461153b575b611530366004610449565b6104386110e061600f565b611543600080fd5b611525565b506105e7611557366004610719565b90614519565b503461157b575b61043861069a61157536600461122b565b90615d99565b611583600080fd5b611564565b50346115a3575b6105e761159d366004610719565b90615265565b6115ab600080fd5b61158f565b6080818303126115e4575b6115c5828261058e565b926103f46115d6846020850161058e565b936113be8160408601610505565b6115ec600080fd5b6115bb565b503461160f575b6105e76116063660046115b0565b9291909161219e565b611617600080fd5b6115f8565b5034611639575b6104386104e5611634366004610512565b611ef3565b611641600080fd5b611623565b60208082526103f492910190610968565b5034611680575b61043861167461166f366004610512565b6160f2565b60405191829182611646565b611688600080fd5b61165e565b90916060828403126116b5575b6103f46116a78484610505565b936106db816020860161101a565b6116bd600080fd5b61169a565b50346116dd575b6105e76116d736600461168d565b9161538e565b6116e5600080fd5b6116c9565b5034611705575b6105e76116ff366004610719565b90614969565b61170d600080fd5b6116f1565b503461172d575b6105e76117273660046110fe565b906148e3565b611735600080fd5b611719565b91906103f490604084820312611755575b611246818561058e565b61175d600080fd5b61174b565b5034611780575b61043861042561177a36600461173a565b906120ea565b611788600080fd5b611769565b6004111561078a57565b906103de8261178d565b6103f490611797565b610404906117a1565b805182526103f49161014061185161016083016117d560208601516020860152565b6117e7604086015160408601906107a5565b6117f9606086015160608601906117aa565b6080858101516001600160a01b03169085015260a0858101516001600160a01b03169085015261182e60c086015160c0860152565b61183d60e086015160e0860152565b610100850151848203610100860152610489565b6101208085015115159084015292015190610140818403910152610489565b906103f4916117b3565b90611886610908835190565b90816118986020830284019460200190565b926000915b8383106118ac57505050505090565b909192939460206118c861095483856001950387528951611870565b930193019193929061189d565b60208082526103f49291019061187a565b503461190f575b6104386119036118fe3660046105f9565b615f87565b604051918291826118d5565b611917600080fd5b6118ed565b506105e761192b366004610512565b614cf0565b503461194a575b6105e76119453660046105f9565b611b2d565b611952600080fd5b611937565b6103f4600060086112b7565b5034611980575b611975366004610449565b6104386110e0611957565b611988600080fd5b61196a565b60208082526103f4929101906107ae565b50346119c7575b6104386119bb6119b6366004610512565b6160d2565b6040519182918261198d565b6119cf600080fd5b6119a5565b6119dc611a68565b6103de6119fa565b61052f6103f46103f49290565b6103f4906119e4565b6103de611a0760006119f1565b611b8c565b6103de6119d4565b15611a1b57565b60405162461bcd60e51b815280611a64600482016020808252818101527f4f776e61626c653a2063616c6c6572206973206e6f7420746865206f776e6572604082015260600190565b0390fd5b6103de611a7d6007546001600160a01b031690565b611a96611a893361052f565b916001600160a01b031690565b14611a14565b6103de90611aa8611a68565b611b08565b15611ab457565b60405162461bcd60e51b815260206004820152602660248201527f4f776e61626c653a206e6577206f776e657220697320746865207a65726f206160448201526564647265737360d01b6064820152608490fd5b6103de90611a07611b1c61052f60006119f1565b6001600160a01b0383161415611aad565b6103de90611a9c565b906001600160a01b03905b9181191691161790565b6103f49061052f906001600160a01b031682565b6103f490611b4b565b6103f490611b5f565b90611b816103f4611b8892611b68565b8254611b36565b9055565b6007546001600160a01b031690611ba4816007611b71565b611bd7611bd17f8be0079c531659141344cd1fd0a4f28419497f9722a3daafe3b4186f6b6457e093611b68565b91611b68565b91611be160405190565b80805b0390a3565b6380ac58cd60e01b6001600160e01b0319821614908115611c19575b8115611c0f575090565b6103f491506126a7565b6001600160e01b03198116635b5e139f60e01b149150611c05565b15611c3b57565b60405162461bcd60e51b815260206004820152602960248201527f4552433732313a2061646472657373207a65726f206973206e6f7420612076616044820152683634b21037bbb732b960b91b6064820152608490fd5b90611c9c90611b68565b600052602052604060002090565b6103f49081565b6103f49054611caa565b611cf36103f491611cca600090565b50611cec611cdb61052f60006119f1565b6001600160a01b0383161415611c34565b6003611c92565b611cb1565b15611cff57565b60405162461bcd60e51b815260206004820152601860248201527f4552433732313a20696e76616c696420746f6b656e20494400000000000000006044820152606490fd5b611d519060005b5061223e565b6103f4611d6161052f60006119f1565b6001600160a01b0383161415611cf8565b50634e487b7160e01b600052602260045260246000fd5b9060016002830492168015611dac575b6020831014611da457565b6103de611d72565b91607f1691611d99565b600052602060002090565b80546000939291611dde611dd483611d89565b8085529360200190565b9160018116908115611e305750600114611df757505050565b611e0a9192939450600052602060002090565b916000925b818410611e1c5750500190565b805484840152602090930192600101611e0f565b92949550505060ff1916825215156020020190565b906103f491611dc1565b906103de611e6992611e6060405190565b93848092611e45565b0383610c68565b6103f490611e4f565b6103f46000611e70565b6103f46001611e70565b6103f46103f46103f49290565b90611ea7610cef83610caa565b918252565b6103f46000611e9a565b6103f4611eac565b6104b3611ed692602092611ed0815190565b94859290565b9384910161045c565b611eed906103f49392611ebe565b90611ebe565b611efc8161240e565b611f04611f62565b8051600090611f19611f1583611e8d565b9190565b11159050611f58576103f4611f4c91611f346103f49461261b565b90611f3e60405190565b938492602084019283611edf565b90810382520382610c68565b50506103f4611eb6565b6103f4611eb6565b15611f7157565b60405162461bcd60e51b815260206004820152602160248201527f4552433732313a20617070726f76616c20746f2063757272656e74206f776e656044820152603960f91b6064820152608490fd5b15611fc757565b60405162461bcd60e51b815260206004820152603d60248201527f4552433732313a20617070726f76652063616c6c6572206973206e6f7420746f60448201527f6b656e206f776e6572206f7220617070726f76656420666f7220616c6c0000006064820152608490fd5b906103de9161207d61204383611d44565b6120616001600160a01b0382166001600160a01b0385161415611f6a565b336001600160a01b0382168114918215612082575b5050611fc0565b6122bf565b61208c92506120ea565b3880612076565b90611c9c90611e8d565b6120bd6103f4916120ac600090565b506120b68161240e565b6004612093565b546001600160a01b031690565b6103de919033612398565b6103f4905b60ff1690565b6103f490546120d5565b6103f49161210561210a926120fd600090565b506005611c92565b611c92565b6120e0565b1561211657565b60405162461bcd60e51b815260206004820152602d60248201527f4552433732313a2063616c6c6572206973206e6f7420746f6b656e206f776e6560448201526c1c881bdc88185c1c1c9bdd9959609a1b6064820152608490fd5b6103de9291906121896121848433612255565b61210f565b6128a7565b90916103de9261219c611eb6565b925b6103de939291906121b26121848433612255565b61221f565b156121be57565b6040515b62461bcd60e51b815260206004820152603260248201527f4552433732313a207472616e7366657220746f206e6f6e20455243373231526560448201527131b2b4bb32b91034b6b83632b6b2b73a32b960711b6064820152608490fd5b916103de9391612239936122348383836128a7565b6124c6565b6121b7565b6120bd6103f49161224d600090565b506002612093565b61225e82611d44565b916001600160a01b0383166001600160a01b038316149283156122ab575b50821561228857505090565b6122a791925061229a611a899161209d565b926001600160a01b031690565b1490565b6122b891935082906120ea565b913861227c565b906122d4826122cf836004612093565b611b71565b6122dd81611d44565b9161231a61231461230e7f8c5be1e5ebec7d5bd14f71427d1e84f3dd0314c0f7b2291e5b200ac8c7c3b92595611b68565b92611b68565b92611e8d565b9261232460405190565b80805b0390a4565b1561233357565b60405162461bcd60e51b815260206004820152601960248201527f4552433732313a20617070726f766520746f2063616c6c6572000000000000006044820152606490fd5b9060ff90611b41565b906123916103f4611b8892151590565b8254612378565b6123b66001600160a01b0383166001600160a01b038316141561232c565b6123ce836123c984612105856005611c92565b612381565b611be46124046123fe7f17307eab39ab6107e8899845ad3d59bd9653f200f220920489ca2b5937696c3193611b68565b93611b68565b9361042960405190565b61241a6103de9161241f565b611cf8565b61242a906000611d4b565b61243a611a8961052f60006119f1565b141590565b905051906103de826103be565b906103f4916020818303121561243f57612464600080fd5b61243f565b6001600160a01b0391821681529116602082015260408101919091526080606082018190526103f492910190610489565b506040513d6000823e3d90fd5b3d156124c1576124b63d611e9a565b903d6000602084013e565b606090565b929091906124d3836125b4565b156125ab5761251860006124f06124eb602096611b68565b611b68565b9261252363150b7a02916125013390565b9661250b60405190565b998a988997889660e01b90565b865260048601612469565b03925af16000918161257b575b506125615761253d6124a7565b805161254c611f156000611e8d565b03612559576040516121c2565b805190602001fd5b6122a7630a85bd0160e11b5b916001600160e01b03191690565b61259d91925060203d81116125a4575b6125958183610c68565b81019061244c565b9038612530565b503d61258b565b50505050600190565b3b6125c2611f156000611e8d565b1190565b369037565b906103de6125e16125db84611e9a565b93610caa565b601f1901602084016125c6565b50634e487b7160e01b600052601260045260246000fd5b811561260f570490565b6126176125ee565b0490565b612624816126b7565b906126346001926104b384611e8d565b918061263f846125cb565b936020018401905b612652575b50505090565b6126869060001901926f181899199a1a9b1b9c1cb0b131b232b360811b600a82061a8453612680600a611e8d565b90612605565b9081612695611f156000611e8d565b146126a257909181612647565b61264c565b6122a76301ffc9a760e01b61256d565b6126c16000611e8d565b907a184f03e93ff9f4daa797ed6e38ed64bf6a1f0100000000000000006126e781611e8d565b821015612839575b506d04ee2d6d415b85acef810000000061270881611e8d565b821015612817575b50662386f26fc1000061272281611e8d565b8210156127f5575b506305f5e10061273981611e8d565b8210156127d3575b5061271061274e81611e8d565b8210156127b1575b50606461276281611e8d565b82101561278f575b50612778611f15600a611e8d565b10156127815790565b6103f4906104b36001611e8d565b6127aa9161268061279f92611e8d565b916104b36002611e8d565b903861276a565b6127cc916126806127c192611e8d565b916104b36004611e8d565b9038612756565b6127ee916126806127e392611e8d565b916104b36008611e8d565b9038612741565b6128109161268061280592611e8d565b916104b36010611e8d565b903861272a565b6128329161268061282792611e8d565b916104b36020611e8d565b9038612710565b6128549161268061284992611e8d565b916104b36040611e8d565b90386126ef565b1561286257565b60405162461bcd60e51b815260206004820152601c60248201527f43616e6e6f74207472616e73666572207768696c652072656e746564000000006044820152606490fd5b61290560026128ff85600b6128d96128d46128d06006600f6128c98787612093565b01016120e0565b1590565b61285b565b6128e4828888612a5e565b6128fa8760016128f48585612093565b01611b71565b612093565b01611cb1565b9261232761293f6129396129397f795a7cd0147ddd0af2300c79dd7f62f6e26226534db92eab141cd37d3f49286694611e8d565b94611b68565b946110e460405190565b1561295057565b60405162461bcd60e51b815260206004820152602560248201527f4552433732313a207472616e736665722066726f6d20696e636f72726563742060448201526437bbb732b960d91b6064820152608490fd5b156129aa57565b60405162461bcd60e51b8152602060048201526024808201527f4552433732313a207472616e7366657220746f20746865207a65726f206164646044820152637265737360e01b6064820152608490fd5b916001600160a01b0360089290920291821b911b611b41565b9190612a256103f4611b8893611b68565b9083546129fb565b6103de91600091612a14565b0390565b9060001990611b41565b90612a576103f4611b8892611e8d565b8254612a3d565b9190612a84612a6c83611d44565b612a7e6001600160a01b038616611a89565b14612949565b612ad76000612aa9612a9861052f836119f1565b6001600160a01b03851614156129a3565b612ac7612ab585611d44565b612a7e6001600160a01b038816611a89565b612ad2846004612093565b612a2d565b612b17612ae46001611e8d565b612b07612b0d846003612105612afa8a83611c92565b612b0787612a3983611cb1565b90612a47565b916104b383611cb1565b612b26816122cf846002612093565b61231a61231461230e7fddf252ad1be2c89b69c2b068fc378daa952ba7f163c4a11628f55a4df523b3ef95611b68565b6103f4610140610c96565b6103f4610180610c96565b612b74612b61565b9060608252602080808080808080808080808d0160608152016060815201606081520160608152016060815201606081520160008152016000815201600081520160605b8152016000905250565b6103f4612b6c565b6103f4610240610c96565b612bdd612bca565b9060608252602082016060815260200160608152602001606081526020016000815260200160008152602001600081526020016000815260200160008152602001600081526020016000815260200160008152602001606081526020016000815260200160008152602001600081526020016060815260200160009052565b6103f4612bd5565b612c6c612b56565b906000825260208080808080808080808b0160008152016000815201612c90612bc2565b815201612c9b612c5c565b8152016060815201606081520160008152016000612bb8565b6103f4612c64565b9061040490610792565b906103de612dcf600b612cd7612b61565b94612ce8612ce482611e4f565b8752565b612cfe612cf760018301611e4f565b6020880152565b612d14612d0d60028301611e4f565b6040880152565b612d2a612d2360038301611e4f565b6060880152565b612d40612d3960048301611e4f565b6080880152565b612d56612d4f60058301611e4f565b60a0880152565b612d6c612d6560068301611e4f565b60c0880152565b612d84612d7b600783016120e0565b60e08801612cbc565b612d9b612d9360088301611cb1565b610100880152565b612db2612daa60098301611cb1565b610120880152565b612dc9612dc1600a8301611e4f565b610140880152565b016120e0565b1515610160840152565b6103f49060081c6120da565b6103f49054612dd9565b6103f49060101c6120da565b6103f49054612def565b90610404906108b0565b6103f49060081c61052f565b6103f49054612e0f565b90612e40612e34610625845490565b92600052602060002090565b9060005b818110612e515750505090565b909192612e75612e6e600192612e6687611cb1565b815260200190565b9460010190565b929101612e44565b906103f491612e25565b906103de611e6992612e9860405190565b93848092612e7d565b90610404906108d6565b602080916001600160401b038111612ec257020190565b612eca610c51565b020190565b90611ea7610cef83612eab565b90612ee5825490565b612eee81612ecf565b92612f026020850191600052602060002090565b6000915b838310612f135750505050565b600160208192612f2285611e70565b815201920192019190612f06565b906103de6130af600d612f41612bca565b94612f4e612ce482611e4f565b612f5d612cf760018301611e4f565b612f6c612d0d60028301611e4f565b612f7b612d2360038301611e4f565b612f93612f8a600483016120e0565b15156080880152565b612fab612fa260048301612de5565b151560a0880152565b612fc3612fba60048301612dfb565b60c08801612e05565b612fd9612fd260058301611cb1565b60e0880152565b612ff2612fe8600683016120e0565b1515610100880152565b61301261300160068301612e1b565b6001600160a01b0316610120880152565b613021612dc160078301611cb1565b61303861303060088301611cb1565b610160880152565b61304f61304760098301612e87565b610180880152565b61306861305e600a83016120e0565b15156101a0880152565b613081613077600a8301612de5565b6101c08801612ea1565b613098613090600b8301611cb1565b6101e0880152565b6128ff6130a7600c8301612edc565b610200880152565b610220840152565b906130c6612e34610625845490565b9060005b8181106130d75750505090565b909192613105612e6e6001926130f487546001600160a01b031690565b6001600160a01b0316815260200190565b9291016130ca565b906103f4916130b7565b906103de611e699261312860405190565b9384809261310d565b906103de6131df6021613142612b56565b9461314f612ce482611cb1565b61317661316660018301546001600160a01b031690565b6001600160a01b03166020880152565b613185612d0d60028301611cb1565b613194612d2360038301612cc6565b6131a3612d39600f8301612f30565b6131b2612d4f601d8301613117565b6131c1612d65601e8301612edc565b6131d0612fd2601f8301611cb1565b6128ff612d9360208301611cb1565b610120840152565b6103f490613131565b6132056103f4916131ff612cb4565b5061320a565b6131e7565b6103f490616109565b1561321a57565b60405162461bcd60e51b815260206004820152601c60248201527f5072696365206d7573742062652067726561746572207468616e2030000000006044820152606490fd5b1561326657565b60405162461bcd60e51b815260206004820152602360248201527f52656e74616c207072696365206d75737420626520677265617465722074686160448201526206e20360ec1b6064820152608490fd5b50634e487b7160e01b600052600060045260246000fd5b903590601e193682900301821215613311575b0160208135916001600160401b038311613304575b019136829003831361045457565b61330c600080fd5b6132f6565b613319600080fd5b6132e1565b9160001960089290920291821b911b611b41565b91906133436103f4611b8893611e8d565b90835461331e565b6103de91600091613332565b818110613362575050565b80613370600060019361334b565b01613357565b9190601f811161338557505050565b6133976103de93600052602060002090565b906020601f8401819004830193106133ba575b6020601f909101045b0190613357565b90915081906133aa565b600019600883021c1916906002021790565b91906001600160401b038211613494575b6133fb826133f58554611d89565b85613376565b600090601f831160011461342957611b8892916000918361341e575b50506133c4565b013590503880613417565b601f1983169161343e85600052602060002090565b92815b81811061347c57509160029391856001969410613462575b50505002019055565b0135600019601f84166008021c19165b9055388080613459565b91936020600181928787013581550195019201613441565b61349c610c51565b6133e7565b906103de92916133d6565b600511156103b957565b356103f4816134ac565b906123916103f4611b889261079c565b356103f4816104ff565b356103f4816114b0565b6103de91906135de9061016090600b906135088161350287806132ce565b916134a1565b61351c6001820161350260208801886132ce565b6135306002820161350260408801886132ce565b6135446003820161350260608801886132ce565b6135586004820161350260808801886132ce565b61356c6005820161350260a08801886132ce565b6135806006820161350260c08801886132ce565b6135996007820161359360e088016134b6565b906134c0565b6135ad60088201612b0761010088016134d0565b6135c160098201612b0761012088016134d0565b6135d6600a82016135026101408801886132ce565b0192016134da565b90612381565b906103de916134e4565b9061ff009060081b611b41565b9061360b6103f4611b8892151590565b82546135ee565b356103f481611010565b9062ff00009060101b611b41565b9061363a6103f4611b88926108ba565b825461361c565b356103f48161057f565b90610100600160a81b039060081b611b41565b9061366e6103f4611b8892611b68565b825461364b565b903590601e1936829003018212156136ba575b0160208135916001600160401b0383116136ad575b0191602082023603831361045457565b6136b5600080fd5b61369d565b6136c2600080fd5b613688565b50634e487b7160e01b600052601160045260246000fd5b818102929181159184041417156136f157565b6103de6136c7565b9061370c90600019906020036008021c90565b8154169055565b909182811061372157505050565b6103de929061372f90612e34565b9081019101613357565b906103de91600160401b8211613755575b805490828155613713565b61375d610c51565b61374a565b909161378d612e3461377360019390565b946001600160401b0386116137be575b6103f48686613739565b92049160005b8381106137a05750505050565b60019060206137b16103f4866134d0565b9401938184015501613793565b6137c6610c51565b613783565b906103de9291613762565b600311156103b957565b356103f4816137d6565b9061360b6103f4611b88926108e0565b9060009161381861381082600052602060002090565b9283546133c4565b905555565b919290602082101561387557601f841160011461383f57611b889293506133c4565b50906138706103de93600161386761385c85600052602060002090565b92601f602091010490565b82019101613357565b6137fa565b506138ae829361388c600194600052602060002090565b6133b36020601f860104820192601f8616806138b6575b50601f602091010490565b600202179055565b6138c2908886036136f9565b386138a3565b929091602090600160401b831161391d575b10156139115760208110156138f257611b88916133c4565b60019160ff191661390884600052602060002090565b55600202019055565b60019150600202019055565b613925610c51565b6138da565b90815461393681611d89565b9081831161395f575b81831061394d575b50505050565b6139569361381d565b38808080613947565b61396b838383876138c8565b61393f565b60006103de9161392a565b6103de91156139705761398c6132b7565b613970565b81811061399c575050565b806139aa600060019361397b565b01613991565b90918281106139be57505050565b6103de92906139cc90612e34565b9081019101613991565b906103de91600160401b82116139f2575b8054908281556139b0565b6139fa610c51565b6139e7565b90613a0a83836139d6565b613a1381612e34565b906000925b848410613a26575050505050565b6001602082613a40613a398495876132ce565b90886134a1565b01930193019291613a18565b906103de92916139ff565b6103de9190612b079061022090600d90613a758161350287806132ce565b613a896001820161350260208801886132ce565b613a9d6002820161350260408801886132ce565b613ab16003820161350260608801886132ce565b613af460048201613acd613ac7608089016134da565b82612381565b613ae2613adc60a089016134da565b826135fb565b613aee60c08801613612565b9061362a565b613b0760058201612b0760e088016134d0565b613b3160068201613b1e613ac761010089016134da565b613b2b6101208801613641565b9061365e565b613b4560078201612b0761014088016134d0565b613b5960088201612b0761016088016134d0565b613b7460098201613b6e610180880188613675565b916137cb565b613b9e600a8201613b8b613ac76101a089016134da565b613b986101c088016137e0565b906137ea565b613bb2600b8201612b076101e088016134d0565b613bcd600c8201613bc7610200880188613675565b91613a4c565b0192016134d0565b906103de91613a57565b6020810192916103de91906108c3565b909392916000613c08613c0182611e8d565b8411613213565b600194613c14866108b0565b613c1d866108b0565b14613d4d575b613c2b616117565b96613c3788600b612093565b90613c4489858401612a47565b338098830190613c5391611b71565b613c608660028401612a47565b613c6d90600383016135e4565b600f0192613c7b9084613bd5565b613c88856004850161362a565b613c959060058401612a47565b60068201613ca38282612381565b613cac826119f1565b613cb59161365e565b613cbe90611e8d565b613cca91600701612a47565b7f7bdb5fda3c85bc6ad44ee77339210335f0d676769e9d0684d59f0848871d2a1f92613cf585611e8d565b93613d008592611b68565b92613d0a60405190565b908152602090a37f67d4c4fc54b59b0c047b4bb8edbbf1ec91de3457c643770b0dc36791e9966e1390613d3c60405190565b613d47819282613bdf565b0390a290565b613d60613d5983611e8d565b821161325f565b613c23565b90613d7791613d72614579565b6141ef565b6103de6145ab565b15613d8657565b60405162461bcd60e51b815260206004820152600c60248201526b139bdd08199bdc881c995b9d60a21b6044820152606490fd5b15613dc157565b60405162461bcd60e51b815260206004820152601060248201526f10dd5c9c995b9d1b1e481c995b9d195960821b6044820152606490fd5b15613e0057565b60405162461bcd60e51b815260206004820152601060248201526f26b0b935b2b21030b99039ba37b632b760811b6044820152606490fd5b15613e3f57565b60405162461bcd60e51b8152602060048201526011602482015270155cd95c881b9bdd081d995c9a599a5959607a1b6044820152606490fd5b919082018092116136f157565b15613e8c57565b60405162461bcd60e51b8152602060048201526014602482015273125b9cdd59999a58da595b9d081c185e5b595b9d60621b6044820152606490fd5b6001906000198114613ed8570190565b6104b36136c7565b6103f4610160610c96565b9061040490611797565b613eff600b611e9a565b6a109a5ad9481c995b9d185b60aa1b602082015290565b6103f4613ef5565b6103f49051610792565b6103f49051611797565b9061360b6103f4611b88926117a1565b9062010000600160b01b039060101b611b41565b90613f666103f4611b8892611b68565b8254613f42565b90613f76815190565b906001600160401b038211614026575b613f94826133f58554611d89565b602090601f8311600114613fc157611b88929160009183613fb65750506133c4565b015190503880613417565b601f19831691613fd685600052602060002090565b9260005b81811061400e57509160029391856001969410613ffa5750505002019055565b01516000196008601f8516021c1916613472565b91936020600181928787015181550195019201613fda565b61402e610c51565b613f86565b906103de91613f6d565b6103de9190614108906101409060089061405981612b07875190565b61406b60018201612b07602088015190565b6140b06002820161408761408160408901613f1e565b826134c0565b61409c61409660608901613f28565b82613f32565b60808701516001600160a01b031690613f56565b6140d1600382016140cb60a08801516001600160a01b031690565b90611b71565b6140e360048201612b0760c088015190565b6140f560058201612b0760e088015190565b61410e6006820161410861010088015190565b90614033565b614123600782016135de610120880151151590565b0192015190565b906103de9161403d565b50634e487b7160e01b600052603260045260246000fd5b61416b600191614159815490565b84101561417457600052602060002090565b91020190600090565b611db6614134565b9061419f6103de92805490600160401b8210156141a5575b60018201815561414b565b90613332565b6141ad610c51565b614194565b9081526040810192916103de9160200152565b9160206103de9294936141e0604082019660008301906107a5565b01906001600160a01b03169052565b6141f88161320a565b6013810190600f810161420a83612dfb565b9261422960019461422361421d876108b0565b916108b0565b14613d7f565b61425061424b6128d0600685019361210a6142466128d0876120e0565b613dba565b613df9565b61425c600a83016120e0565b6144fc575b8561426e60058401611cb1565b90614278916136de565b9561428560088401611cb1565b34906142919089613e78565b111561429c90613e85565b6142a6600a611cb1565b6142af90613ec8565b936142bb85600a612a47565b85339101926142d184546001600160a01b031690565b9442916000966142df613ee0565b906142ea8a8a840152565b6142f58c6020840152565b6143028b60408401612cbc565b61430f8b60608401613eeb565b6001600160a01b03861660808301526001600160a01b031660a08201526143378c60c0830152565b6143428460e0830152565b61434a613f16565b610100820152871515610120820152614361611eb6565b610140820152614372896013612093565b9061437c9161412a565b8760148161438a8783611c92565b906143949161417c565b87546001600160a01b03166143a891611c92565b906143b29161417c565b836143bd8a83612381565b6143c69161365e565b6143d262015180611e8d565b6143dc90856136de565b6143e69083613e78565b6143f291600701612a47565b816143fe896011612093565b9061440891611c92565b906144129161417c565b82546001600160a01b031661442690611b68565b61442f90611b68565b96848080808c80159c6144a69a61447e9e6144f3575bf1156144e6575b6144767ffb3232f7d0f99292ecf3d4fda4d4cb1be33f6418db95f43818ab53203cfd468b91611e8d565b978892611b68565b98899361449661448d60405190565b928392836141b2565b0390a3546001600160a01b031690565b6144d07f956c30bd2866f35f10c562d4d1da7f87808eed3d7817dca81b52acd1b2c637f192611e8d565b926123276144dd60405190565b928392836141c5565b6144ee61249a565b61444c565b506108fc614445565b61451461450f6006612dc9336012611c92565b613e38565b614261565b906103de91613d65565b6103f46002611e8d565b1561453457565b60405162461bcd60e51b815260206004820152601f60248201527f5265656e7472616e637947756172643a207265656e7472616e742063616c6c006044820152606490fd5b6103de6145866006611cb1565b61459a614591614523565b9182141561452d565b6006612a47565b6103f46001611e8d565b6103de61459a6145a1565b156145bd57565b60405162461bcd60e51b8152602060048201526012602482015271109a5ad9481a5cc81b9bdd081c995b9d195960721b6044820152606490fd5b156145fe57565b60405162461bcd60e51b815260206004820152600e60248201526d139bdd08185d5d1a1bdc9a5e995960921b6044820152606490fd5b1561463b57565b60405162461bcd60e51b815260206004820152601760248201527f52656e74616c20706572696f64206e6f7420656e6465640000000000000000006044820152606490fd5b61472561468c8261320a565b614720600f82016146dd60068201936146ac6146a7866120e0565b6145b6565b6146c461052f6001339301546001600160a01b031690565b6001600160a01b03821614908115614752575b506145f7565b6007016146fa426146f3611f156103f485611cb1565b1015614634565b612b0760006147098186612381565b61471b614715826119f1565b8661365e565b611e8d565b612e1b565b611bd7611bd17ff9bbd47d9659083aa5b016ffd346aca413549aace523513f610200aeed1e1dd493611e8d565b9050614763611a8961052f87612e1b565b14386146d7565b60408082526103f493919261478191840190610489565b916020818403910152610489565b923392916147d391906003906147c06147ac6103f4886012611c92565b916147b78984614033565b60018301614033565b6147cd8560028301614033565b01614033565b6147fd7f6eb3a1c6a4675ba92d44e090515b1ceea358f26565d2854df0c99c3f5eaf985092611b68565b9261481361480a60405190565b9283928361476a565b0390a2565b6103de90614824611a68565b61483c60016006614836846012611c92565b01612381565b6148667fa6625d2d26e786e2f473111bea4b2fcdbbf1863d883a2359989ce3a103d2972a91611b68565b9061487060405190565b8080614813565b6103de90614818565b1561488757565b60405162461bcd60e51b81526020600482015260126024820152712737ba103a3432903134b5b29037bbb732b960711b6044820152606490fd5b929160206148de6103de9360408701908782036000890152610489565b940152565b61491e6009600f6148f38461320a565b61491961490a60018301546001600160a01b031690565b61491333611a89565b14614880565b010190565b61492942809261417c565b6149537fbeb5421e5f84e7e8a5cb8d83d85e1460bfca8f34de4a49ed3b39f629a93b9faf92611e8d565b9261481361496060405190565b928392836148c1565b614998826008600f61497a8561320a565b61499161490a60018301546001600160a01b031690565b0101612a47565b6148136149c57fc2663c5ae35a0c1178b32c0b261b64322cfbc9d22cc8be0398a154656d52d34192611e8d565b926110e460405190565b6103f49060101c61052f565b6103f490546149cf565b156149ec57565b60405162461bcd60e51b815260206004820152601b60248201527f4e6f7420696e766f6c76656420696e207472616e73616374696f6e00000000006044820152606490fd5b15614a3857565b60405162461bcd60e51b815260206004820152601960248201527f5472616e73616374696f6e206e6f7420636f6d706c65746564000000000000006044820152606490fd5b614a8b6103f4826013612093565b90614aeb3392614abe6002820191614aa561052f846149db565b6001600160a01b03871614908115614b25575b506149e5565b614ae3614aca82612de5565b614add614ad76001611797565b91611797565b14614a31565b600390613f32565b611be4614b1b6123fe7f1b84372106d77c6daea0dda35bbc0229d10a83f58ec89909288492519368234193611e8d565b936104e960405190565b60030154614b3c91506001600160a01b031661052f565b6001600160a01b0386161438614ab8565b600f90614b81614b5c8261320a565b614b7361490a60018301546001600160a01b031690565b600460019485920101612381565b614813614bae7f31c7437140229c226a4acaed438f62c68da03165f12e02a33d2754c8632461eb92611e8d565b9261042960405190565b15614bbf57565b60405162461bcd60e51b815260206004820152601c60248201527f42696b65206973206e6f74206d61726b65642061732073746f6c656e000000006044820152606490fd5b6004600f614c118361320a565b614c2861490a60018301546001600160a01b031690565b010190614c3c614c37836120e0565b614bb8565b614b8160008093612381565b90614c6861490a6001614c5a8561320a565b01546001600160a01b031690565b614c77816122cf84600f612093565b611bd7611bd17f2c507bd5f7ce8a766341b3b97146350a897966b95b50aa0f7db93ad6dd57916793611e8d565b15614cab57565b60405162461bcd60e51b815260206004820152601760248201527f42696b6520697320616c726561647920696e73757265640000000000000000006044820152606490fd5b6004600f614cfd8361320a565b614d1461490a60018301546001600160a01b031690565b010190614d2b614d266128d084612de5565b614ca4565b614d37600180936135fb565b614813614bae7f897ccba9ad8d1ac8a46ca954e71e2470f4bc81ccc69ca1d61f40210156c64e6792611e8d565b15614d6b57565b60405162461bcd60e51b815260206004820152601e60248201527f526174696e67206d757374206265206265747765656e203120616e64203500006044820152606490fd5b15614db757565b60405162461bcd60e51b815260206004820152601760248201527f436f6d6d656e742063616e6e6f7420626520656d7074790000000000000000006044820152606490fd5b60005b828110614e0b57505050565b606082820152602001614dff565b906103de614e2f614e2984612ecf565b93612eab565b601f190160208401614dfc565b906103de6125e1614e2984612ecf565b6103f4610120610c96565b61416b600991614159815490565b614e90614e84614e73845190565b93614e7e85856139d6565b60200190565b91600052602060002090565b6000915b838310614ea15750505050565b6001602082614eb8614eb284955190565b86614033565b01920192019190614e94565b906103de91614e65565b6001614ef8612e34614ede855190565b946001600160401b038611614f28575b614e7e8686613739565b92049160005b838110614f0b5750505050565b6001906020614f1b6103f4865190565b9401938184015501614efe565b614f30610c51565b614eee565b906103de91614ece565b6103de9190614fea9061010090600890614f64816140cb87516001600160a01b031690565b614f7660018201612b07602088015190565b614f8860028201612b07604088015190565b614f9a60038201614108606088015190565b614fac60048201612b07608088015190565b614fbe60058201612b0760a088015190565b614fd2600682016135de60c0880151151590565b61412360078201614fe460e088015190565b90614ec4565b90614f35565b6103de929115614f3f576150026132b7565b614f3f565b9061502a6103de92805490600160401b821015615030575b600182018155614e57565b90614ff0565b615038610c51565b61501f565b9081526040602082018190526103f492910190610489565b60019161506183611e8d565b811015806151bd575b61507390614d64565b83519260009361508285611e8d565b1061508c90614db0565b33934261509882611e8d565b916150a283614e19565b906150ac84614e3c565b926150b5614e4c565b6001600160a01b038a1683820152946150cf896020880152565b6150da886040880152565b606086018b9052608086015260a0850152151560c084015260e083015261010082015261510884600c612093565b9061511291615007565b8261511e85600d611c92565b906151289161417c565b61513383600e612093565b9081018261514082611cb1565b9061514a91613e78565b61515391612a47565b60020161515f81611cb1565b61516890613ec8565b61517191612a47565b7f4beb3faed0901f48c8eaa53db80247f723ddeb08676b6badb9ee2f191d1ac2df9161519c90611e8d565b926151a690611b68565b936151b060405190565b918291611be4918361503d565b506150736151cb6005611e8d565b821115905061506a565b156151dc57565b60405162461bcd60e51b815260206004820152601560248201527414995d9a595dc8191bd95cc81b9bdd08195e1a5cdd605a1b6044820152606490fd5b1561522057565b60405162461bcd60e51b815260206004820152601960248201527f416c7265616479206c696b6564207468697320726576696577000000000000006044820152606490fd5b90600c906152876152806103f461527c8686612093565b5490565b82106151d5565b6153086004615301836152d5876010976128fa6152a8856128fa858d612093565b996152c36152be6128d061210a339e8f90611c92565b615219565b6152ed886152da886152d58888612093565b614e57565b5001612b076152e882611cb1565b613ec8565b6123c98b612105886128fa88600196612093565b5001611cb1565b9261232761293f61293961533c7fc58deae63c2d94e1502a392380f59901dc4cd3c3bbc40308b6189decf09671d594611e8d565b94611e8d565b1561534957565b60405162461bcd60e51b815260206004820152601f60248201527f43616e6e6f74206368616e67652074797065207768696c652072656e746564006044820152606490fd5b90918260046153f292600f6153a28661320a565b6153b961490a60018301546001600160a01b031690565b01906153d26153cd6128d0600685016120e0565b615342565b6153dc60016108b0565b6153e5856108b0565b14615432575b500161362a565b61481361541f7f67d4c4fc54b59b0c047b4bb8edbbf1ec91de3457c643770b0dc36791e9966e1392611e8d565b9261542960405190565b91829182613bdf565b61544c90615443613d596000611e8d565b60058301612a47565b386153eb565b1561545957565b60405162461bcd60e51b81526020600482015260146024820152734e6f7420612072656e74616c206c697374696e6760601b6044820152606490fd5b1561549c57565b60405162461bcd60e51b815280611a64600482016020808252818101527f43616e6e6f7420757064617465207072696365207768696c652072656e746564604082015260600190565b61555a826005600f6154f68561320a565b61550d61490a60018301546001600160a01b031690565b0161553061551d60048301612dfb565b61552a61421d60016108b0565b14615452565b61553d613c016000611e8d565b61555461554f6128d0600684016120e0565b615495565b01612a47565b6148136149c57fa396b937eacb736072f5b3d5d325cf506bf4a7d5fc645bbbeb1a58ed6e8d70e292611e8d565b6155cc8260026155968461320a565b6155ad61490a60018301546001600160a01b031690565b6155ba613c016000611e8d565b61555461554f6128d0601584016120e0565b6148136149c57f945c1c4e99aa89f648fbfe3df471b916f719e16d960fcec0737d4d56bd69683892611e8d565b1561560057565b60405162461bcd60e51b8152602060048201526024808201527f596f752063616e206f6e6c792064656c65746520796f7572206f776e207265766044820152636965777360e01b6064820152608490fd5b919082039182116136f157565b600190801561566b570390565b612a396136c7565b6103f49054611d89565b9080821461575a5761568e81615673565b906001600160401b03821161574d575b6156ac826133f58554611d89565b600090601f83116001146156d957611b889291600091836156ce5750506133c4565b015490503880613417565b906156ee601f19841692600052602060002090565b906156fe85600052602060002090565b92815b818110615735575091600293918560019694106157215750505002019055565b01546000196008601f8516021c1916613472565b91936001806020928787015481550195019201615701565b615755610c51565b61569e565b5050565b906103de9161567d565b81811461575a57615788614e8461577d845490565b93611db685856139d6565b6000915b8383106157995750505050565b600180826157a882948661575e565b0192019201919061578c565b906103de91615768565b81811461575a5760016157ef612e346157d5855490565b946001600160401b038611615823575b611db68686613739565b9204918154916000925b848410615807575050505050565b6001615811819290565b920193845492818501550192906157f9565b61582b610c51565b6157e5565b906103de916157be565b90808203615846575050565b6103de916008908190615864816140cb86546001600160a01b031690565b61587760018201612b0760018701611cb1565b61588a60028201612b0760028701611cb1565b61589b60038201600386019061575e565b6158ae60048201612b0760048701611cb1565b6158c160058201612b0760058701611cb1565b6158d4600682016135de600687016120e0565b6158e56007820160078601906157b4565b01910190615830565b6103de92911561583a576159006132b7565b61583a565b50634e487b7160e01b600052603160045260246000fd5b60006103de916139d6565b6103de911561591c576159386132b7565b61591c565b60006103de91613739565b6103de911561593d576159596132b7565b61593d565b60008082556103de91600890615977836001830161334b565b615984836002830161334b565b615991836003830161397b565b61599e836004830161334b565b6159ab836005830161334b565b8260068201556159be8360078301615927565b01615948565b6103de911561595e576159d56132b7565b61595e565b60016159e4825490565b8015615a03575b0390615a006159fa8383614e57565b906159c4565b55565b615a0b615905565b6159eb565b600c9291615a276152806103f461527c8588612093565b615a5b615a4c6000615a3d846152d5878a612093565b5001546001600160a01b031690565b615a5533611a89565b146155f9565b615aab6002615a6e6103f485600e612093565b615a99615a8383615301876152d58a8d612093565b612b076001840191615a9483611cb1565b615651565b01612b07615aa682611cb1565b61565e565b805b615aba61527c8487612093565b615ad26103f4600192615acc84611e8d565b90615651565b821015615b1a57906152e8615b00615b1593615afa615af4612314898c612093565b85613e78565b90614e57565b50615b0f836152d5888b612093565b906158ee565b615aad565b5050909192615b2f6103f484615b3493612093565b6159da565b611bd7615b617ffe09911b3ec9652ef94a11286713bd397f2fb090f28c62303451d8040ff62c6293611e8d565b91611e8d565b60005b828110615b7657505050565b602090615b81612cb4565b8184015201615b6a565b906103de615b9b614e2984612ecf565b601f190160208401615b67565b9060208091615bb5845190565b811015615bc3575b02010190565b615bcb614134565b615bbd565b615be2615bdd6008611cb1565b615b8b565b600180615bee81611e8d565b905b615bf957505090565b615c066103f46008611cb1565b8111615c5557615c4f81615c49615c1d859461320a565b615c38615c32615c2c87611e8d565b85615651565b916131e7565b615c428289615ba8565b5286615ba8565b50613ec8565b90615bf0565b505090565b906103de615d056008615c6b614e4c565b94615c8d615c8082546001600160a01b031690565b6001600160a01b03168752565b615c9c612cf760018301611cb1565b615cab612d0d60028301611cb1565b615cba612d2360038301611e4f565b615cc9612d3960048301611cb1565b615cd8612d4f60058301611cb1565b615cf0615ce7600683016120e0565b151560c0880152565b615cff612fd260078301612edc565b01612e87565b610100840152565b6103f490615c5a565b90615d1f825490565b615d2881612ecf565b92615d3c6020850191600052602060002090565b6000915b838310615d4d5750505050565b60096020600192615d5d85615d0d565b815201920192019190615d40565b6103f490615d16565b615d8b6103f491615d83606090565b50600c612093565b615d6b565b6103f490612e87565b6103f491612105615db492615dac606090565b506011612093565b615d90565b9161210561210a926128fa6103f495615dd0600090565b506010612093565b615db46103f491615de7606090565b50600d611c92565b615df7613ee0565b90600082526020808080808080808080808c016000815201600081520160008152016000815201600081520160008152016000815201606081520160008152016060905250565b6103f4615def565b60005b828110615e5557505050565b602090615e60615e3e565b8184015201615e49565b906103de615e7a614e2984612ecf565b601f190160208401615e46565b906103de615f766008615e98613ee0565b94615ea5612ce482611cb1565b615eb4612cf760018301611cb1565b615ecc615ec3600283016120e0565b60408801612cbc565b615ee4615edb60028301612de5565b60608801613eeb565b615f03615ef3600283016149db565b6001600160a01b03166080880152565b615f2a615f1a60038301546001600160a01b031690565b6001600160a01b031660a0880152565b615f39612d6560048301611cb1565b615f48612fd260058301611cb1565b615f57612d9360068301611e4f565b615f70615f66600783016120e0565b1515610120880152565b01611e4f565b610140840152565b6103f490615e87565b6103f4615f9e91615f96606090565b506014611c92565b615fae615fa9825490565b615e6a565b90615fb96000611e8d565b615fc46103f4835490565b811015615c555761600a90615ff5615ff06013615fea615fe4858861414b565b906112b7565b90612093565b615f7e565b615fff8286615ba8565b52615c498185615ba8565b615fb9565b600061601a81611e8d565b90816001809261602982611e8d565b915b616037575b5050505090565b6160446103f46008611cb1565b82116160c4578161605a6103f48694600e612093565b600281019061606882611cb1565b616074611f1586611e8d565b1161608b575b505061608590613ec8565b9161602b565b61609e6160a49394956126809201611cb1565b91611cb1565b8381116160b6575b908185939261607a565b9094509150836160856160ac565b616030565b6103f490612cc6565b60036160e36103f4926131ff612bc2565b016160c9565b6103f490612f30565b600f6161036103f4926131ff612c5c565b016160e9565b6103f46103f491600b612093565b6161246152e86008611cb1565b6103f4816008612a4756fea264697066735822122030929d06bf0058c1ec04ef13ef549c1850fbd99bf7b8baf07fcb386b3441d44364736f6c63430008110033","opcodes":"PUSH1 0x80 PUSH1 0x40 MSTORE CALLVALUE PUSH3 0x27 JUMPI JUMPDEST PUSH3 0x15 PUSH3 0x36 JUMP JUMPDEST PUSH1 0x40 MLOAD PUSH2 0x6165 PUSH3 0x4DA DUP3 CODECOPY PUSH2 0x6165 SWAP1 RETURN JUMPDEST PUSH3 0x30 PUSH1 0x0 DUP1 REVERT JUMPDEST PUSH3 0xB JUMP JUMPDEST PUSH3 0x40 PUSH3 0x147 JUMP JUMPDEST JUMP JUMPDEST POP PUSH4 0x4E487B71 PUSH1 0xE0 SHL PUSH1 0x0 MSTORE PUSH1 0x41 PUSH1 0x4 MSTORE PUSH1 0x24 PUSH1 0x0 REVERT JUMPDEST SWAP1 PUSH1 0x1F ADD PUSH1 0x1F NOT AND DUP2 ADD SWAP1 DUP2 LT PUSH1 0x1 PUSH1 0x1 PUSH1 0x40 SHL SUB DUP3 GT OR PUSH3 0x7B JUMPI PUSH1 0x40 MSTORE JUMP JUMPDEST PUSH3 0x85 PUSH3 0x42 JUMP JUMPDEST PUSH1 0x40 MSTORE JUMP JUMPDEST SWAP1 PUSH3 0x40 PUSH3 0x99 PUSH1 0x40 MLOAD SWAP1 JUMP JUMPDEST SWAP3 DUP4 PUSH3 0x59 JUMP JUMPDEST PUSH1 0x20 SWAP1 PUSH3 0xC2 SWAP1 PUSH1 0x1 PUSH1 0x1 PUSH1 0x40 SHL SUB DUP2 GT PUSH3 0xC6 JUMPI PUSH1 0x1F ADD PUSH1 0x1F NOT AND SWAP1 JUMP JUMPDEST ADD SWAP1 JUMP JUMPDEST PUSH3 0xD0 PUSH3 0x42 JUMP JUMPDEST PUSH1 0x1F ADD PUSH1 0x1F NOT AND SWAP1 JUMP JUMPDEST SWAP1 PUSH3 0xF0 PUSH3 0xEA DUP4 PUSH3 0xA1 JUMP JUMPDEST PUSH3 0x8A JUMP JUMPDEST SWAP2 DUP3 MSTORE JUMP JUMPDEST PUSH3 0x101 PUSH1 0x7 PUSH3 0xDA JUMP JUMPDEST PUSH7 0x25B63AB735B0BD PUSH1 0xC9 SHL PUSH1 0x20 DUP3 ADD MSTORE SWAP1 JUMP JUMPDEST PUSH3 0x11E PUSH3 0xF5 JUMP JUMPDEST SWAP1 JUMP JUMPDEST PUSH3 0x12D PUSH1 0x4 PUSH3 0xDA JUMP JUMPDEST PUSH4 0x4B4C4E4B PUSH1 0xE0 SHL PUSH1 0x20 DUP3 ADD MSTORE SWAP1 JUMP JUMPDEST PUSH3 0x11E PUSH3 0x121 JUMP JUMPDEST PUSH3 0x40 PUSH3 0x155 PUSH3 0x114 JUMP JUMPDEST PUSH3 0x15F PUSH3 0x13D JUMP JUMPDEST PUSH3 0x40 SWAP2 SWAP1 PUSH3 0x170 SWAP2 PUSH3 0x1C7 JUMP JUMPDEST PUSH3 0x40 CALLER PUSH3 0x477 JUMP JUMPDEST PUSH3 0x11E PUSH3 0x11E PUSH3 0x11E SWAP3 SWAP1 JUMP JUMPDEST PUSH3 0x11E PUSH1 0x1 PUSH3 0x17B JUMP JUMPDEST SWAP1 PUSH1 0x0 NOT SWAP1 JUMPDEST SWAP2 DUP2 NOT AND SWAP2 AND OR SWAP1 JUMP JUMPDEST SWAP1 PUSH3 0x1BB PUSH3 0x11E PUSH3 0x1C3 SWAP3 PUSH3 0x17B JUMP JUMPDEST DUP3 SLOAD PUSH3 0x197 JUMP JUMPDEST SWAP1 SSTORE JUMP JUMPDEST SWAP1 PUSH3 0x1D3 SWAP2 PUSH3 0x3E7 JUMP JUMPDEST PUSH3 0x40 PUSH3 0x1E1 PUSH3 0x18B JUMP JUMPDEST PUSH1 0x6 PUSH3 0x1A7 JUMP JUMPDEST POP PUSH4 0x4E487B71 PUSH1 0xE0 SHL PUSH1 0x0 MSTORE PUSH1 0x22 PUSH1 0x4 MSTORE PUSH1 0x24 PUSH1 0x0 REVERT JUMPDEST SWAP1 PUSH1 0x1 PUSH1 0x2 DUP4 DIV SWAP3 AND DUP1 ISZERO PUSH3 0x227 JUMPI JUMPDEST PUSH1 0x20 DUP4 LT EQ PUSH3 0x21D JUMPI JUMP JUMPDEST PUSH3 0x40 PUSH3 0x1E9 JUMP JUMPDEST SWAP2 PUSH1 0x7F AND SWAP2 PUSH3 0x211 JUMP JUMPDEST SWAP2 PUSH1 0x0 NOT PUSH1 0x8 SWAP3 SWAP1 SWAP3 MUL SWAP2 DUP3 SHL SWAP2 SHL PUSH3 0x19D JUMP JUMPDEST SWAP2 SWAP1 PUSH3 0x25C PUSH3 0x11E PUSH3 0x1C3 SWAP4 PUSH3 0x17B JUMP JUMPDEST SWAP1 DUP4 SLOAD PUSH3 0x232 JUMP JUMPDEST PUSH3 0x40 SWAP2 PUSH1 0x0 SWAP2 PUSH3 0x247 JUMP JUMPDEST DUP2 DUP2 LT PUSH3 0x27F JUMPI POP POP JUMP JUMPDEST DUP1 PUSH3 0x28F PUSH1 0x0 PUSH1 0x1 SWAP4 PUSH3 0x265 JUMP JUMPDEST ADD PUSH3 0x273 JUMP JUMPDEST SWAP2 SWAP1 PUSH1 0x1F DUP2 GT PUSH3 0x2A6 JUMPI POP POP POP JUMP JUMPDEST PUSH3 0x2BA PUSH3 0x40 SWAP4 PUSH1 0x0 MSTORE PUSH1 0x20 PUSH1 0x0 KECCAK256 SWAP1 JUMP JUMPDEST SWAP1 PUSH1 0x20 PUSH1 0x1F DUP5 ADD DUP2 SWAP1 DIV DUP4 ADD SWAP4 LT PUSH3 0x2DE JUMPI JUMPDEST PUSH1 0x20 PUSH1 0x1F SWAP1 SWAP2 ADD DIV ADD SWAP1 PUSH3 0x273 JUMP JUMPDEST SWAP1 SWAP2 POP DUP2 SWAP1 PUSH3 0x2CE JUMP JUMPDEST SWAP1 PUSH3 0x2F3 DUP2 MLOAD SWAP1 JUMP JUMPDEST SWAP1 PUSH1 0x1 PUSH1 0x1 PUSH1 0x40 SHL SUB DUP3 GT PUSH3 0x3CB JUMPI JUMPDEST PUSH3 0x31C DUP3 PUSH3 0x315 DUP6 SLOAD PUSH3 0x200 JUMP JUMPDEST DUP6 PUSH3 0x296 JUMP JUMPDEST PUSH1 0x20 SWAP1 PUSH1 0x1F DUP4 GT PUSH1 0x1 EQ PUSH3 0x35B JUMPI PUSH3 0x1C3 SWAP3 SWAP2 PUSH1 0x0 SWAP2 DUP4 PUSH3 0x34F JUMPI JUMPDEST POP POP PUSH1 0x0 NOT PUSH1 0x8 DUP4 MUL SHR NOT AND SWAP1 PUSH1 0x2 MUL OR SWAP1 JUMP JUMPDEST ADD MLOAD SWAP1 POP CODESIZE DUP1 PUSH3 0x33B JUMP JUMPDEST PUSH1 0x1F NOT DUP4 AND SWAP2 PUSH3 0x371 DUP6 PUSH1 0x0 MSTORE PUSH1 0x20 PUSH1 0x0 KECCAK256 SWAP1 JUMP JUMPDEST SWAP3 PUSH1 0x0 JUMPDEST DUP2 DUP2 LT PUSH3 0x3B2 JUMPI POP SWAP2 PUSH1 0x2 SWAP4 SWAP2 DUP6 PUSH1 0x1 SWAP7 SWAP5 LT PUSH3 0x398 JUMPI JUMPDEST POP POP POP MUL ADD SWAP1 SSTORE JUMP JUMPDEST ADD MLOAD PUSH1 0x0 NOT PUSH1 0x8 PUSH1 0x1F DUP6 AND MUL SHR NOT AND SWAP1 SSTORE CODESIZE DUP1 DUP1 PUSH3 0x38F JUMP JUMPDEST SWAP2 SWAP4 PUSH1 0x20 PUSH1 0x1 DUP2 SWAP3 DUP8 DUP8 ADD MLOAD DUP2 SSTORE ADD SWAP6 ADD SWAP3 ADD PUSH3 0x375 JUMP JUMPDEST PUSH3 0x3D5 PUSH3 0x42 JUMP JUMPDEST PUSH3 0x304 JUMP JUMPDEST SWAP1 PUSH3 0x40 SWAP2 PUSH3 0x2E9 JUMP JUMPDEST SWAP1 PUSH3 0x3F9 PUSH3 0x40 SWAP3 PUSH1 0x0 PUSH3 0x3DB JUMP JUMPDEST PUSH1 0x1 PUSH3 0x3DB JUMP JUMPDEST PUSH3 0x11E SWAP1 JUMPDEST PUSH1 0x1 PUSH1 0x1 PUSH1 0xA0 SHL SUB AND SWAP1 JUMP JUMPDEST PUSH3 0x11E SWAP1 SLOAD PUSH3 0x401 JUMP JUMPDEST SWAP1 PUSH1 0x1 PUSH1 0x1 PUSH1 0xA0 SHL SUB SWAP1 PUSH3 0x19D JUMP JUMPDEST PUSH3 0x11E SWAP1 PUSH3 0x407 SWAP1 PUSH1 0x1 PUSH1 0x1 PUSH1 0xA0 SHL SUB AND DUP3 JUMP JUMPDEST PUSH3 0x11E SWAP1 PUSH3 0x42F JUMP JUMPDEST PUSH3 0x11E SWAP1 PUSH3 0x445 JUMP JUMPDEST SWAP1 PUSH3 0x46F PUSH3 0x11E PUSH3 0x1C3 SWAP3 PUSH3 0x450 JUMP JUMPDEST DUP3 SLOAD PUSH3 0x41F JUMP JUMPDEST PUSH3 0x483 PUSH1 0x7 PUSH3 0x413 JUMP JUMPDEST SWAP1 PUSH3 0x491 DUP2 PUSH1 0x7 PUSH3 0x45B JUMP JUMPDEST PUSH3 0x4C8 PUSH3 0x4C1 PUSH32 0x8BE0079C531659141344CD1FD0A4F28419497F9722A3DAAFE3B4186F6B6457E0 SWAP4 PUSH3 0x450 JUMP JUMPDEST SWAP2 PUSH3 0x450 JUMP JUMPDEST SWAP2 PUSH3 0x4D3 PUSH1 0x40 MLOAD SWAP1 JUMP JUMPDEST PUSH1 0x0 SWAP1 LOG3 JUMP INVALID PUSH1 0x80 PUSH1 0x40 MSTORE PUSH1 0x4 CALLDATASIZE LT ISZERO PUSH2 0x18 JUMPI JUMPDEST PUSH2 0x16 PUSH1 0x0 DUP1 REVERT JUMPDEST STOP JUMPDEST PUSH1 0x0 CALLDATALOAD PUSH1 0xE0 SHR DUP1 PUSH4 0x1FFC9A7 EQ PUSH2 0x3B0 JUMPI DUP1 PUSH4 0x6FDDE03 EQ PUSH2 0x3A7 JUMPI DUP1 PUSH4 0x81812FC EQ PUSH2 0x39E JUMPI DUP1 PUSH4 0x95EA7B3 EQ PUSH2 0x395 JUMPI DUP1 PUSH4 0x18D0E8B2 EQ PUSH2 0x38C JUMPI DUP1 PUSH4 0x23B872DD EQ PUSH2 0x383 JUMPI DUP1 PUSH4 0x24D41A03 EQ PUSH2 0x37A JUMPI DUP1 PUSH4 0x38025500 EQ PUSH2 0x371 JUMPI DUP1 PUSH4 0x3E9E27AA EQ PUSH2 0x368 JUMPI DUP1 PUSH4 0x42842E0E EQ PUSH2 0x35F JUMPI DUP1 PUSH4 0x46A4237B EQ PUSH2 0x356 JUMPI DUP1 PUSH4 0x4D813120 EQ PUSH2 0x34D JUMPI DUP1 PUSH4 0x4F26C4A1 EQ PUSH2 0x344 JUMPI DUP1 PUSH4 0x56BC082E EQ PUSH2 0x33B JUMPI DUP1 PUSH4 0x58560EA5 EQ PUSH2 0x332 JUMPI DUP1 PUSH4 0x5AEF573C EQ PUSH2 0x329 JUMPI DUP1 PUSH4 0x6352211E EQ PUSH2 0x320 JUMPI DUP1 PUSH4 0x70A08231 EQ PUSH2 0x317 JUMPI DUP1 PUSH4 0x715018A6 EQ PUSH2 0x30E JUMPI DUP1 PUSH4 0x774C0CDA EQ PUSH2 0x305 JUMPI DUP1 PUSH4 0x79E0EFE1 EQ PUSH2 0x2FC JUMPI DUP1 PUSH4 0x82367B2D EQ PUSH2 0x2F3 JUMPI DUP1 PUSH4 0x844CE562 EQ PUSH2 0x2EA JUMPI DUP1 PUSH4 0x8DA5CB5B EQ PUSH2 0x2E1 JUMPI DUP1 PUSH4 0x90ABCD98 EQ PUSH2 0x2D8 JUMPI DUP1 PUSH4 0x9483F25C EQ PUSH2 0x2CF JUMPI DUP1 PUSH4 0x95D89B41 EQ PUSH2 0x2C6 JUMPI DUP1 PUSH4 0x97491D6F EQ PUSH2 0x2BD JUMPI DUP1 PUSH4 0x9E3699EB EQ PUSH2 0x2B4 JUMPI DUP1 PUSH4 0xA22CB465 EQ PUSH2 0x2AB JUMPI DUP1 PUSH4 0xA3007B1F EQ PUSH2 0x2A2 JUMPI DUP1 PUSH4 0xA786DE18 EQ PUSH2 0x299 JUMPI DUP1 PUSH4 0xACFC78FA EQ PUSH2 0x290 JUMPI DUP1 PUSH4 0xB114D461 EQ PUSH2 0x287 JUMPI DUP1 PUSH4 0xB88D4FDE EQ PUSH2 0x27E JUMPI DUP1 PUSH4 0xC87B56DD EQ PUSH2 0x275 JUMPI DUP1 PUSH4 0xCDC31AC2 EQ PUSH2 0x26C JUMPI DUP1 PUSH4 0xD07B4460 EQ PUSH2 0x263 JUMPI DUP1 PUSH4 0xE3511B2C EQ PUSH2 0x25A JUMPI DUP1 PUSH4 0xE5A54E8F EQ PUSH2 0x251 JUMPI DUP1 PUSH4 0xE985E9C5 EQ PUSH2 0x248 JUMPI DUP1 PUSH4 0xEF925399 EQ PUSH2 0x23F JUMPI DUP1 PUSH4 0xEFAF9D19 EQ PUSH2 0x236 JUMPI DUP1 PUSH4 0xF2FDE38B EQ PUSH2 0x22D JUMPI DUP1 PUSH4 0xFBE7B215 EQ PUSH2 0x224 JUMPI PUSH4 0xFEE618F6 SUB PUSH2 0xE JUMPI PUSH2 0x21F PUSH2 0x199E JUMP JUMPDEST PUSH2 0xE JUMP JUMPDEST POP PUSH2 0x21F PUSH2 0x1963 JUMP JUMPDEST POP PUSH2 0x21F PUSH2 0x1930 JUMP JUMPDEST POP PUSH2 0x21F PUSH2 0x191C JUMP JUMPDEST POP PUSH2 0x21F PUSH2 0x18E6 JUMP JUMPDEST POP PUSH2 0x21F PUSH2 0x1762 JUMP JUMPDEST POP PUSH2 0x21F PUSH2 0x1712 JUMP JUMPDEST POP PUSH2 0x21F PUSH2 0x16EA JUMP JUMPDEST POP PUSH2 0x21F PUSH2 0x16C2 JUMP JUMPDEST POP PUSH2 0x21F PUSH2 0x1657 JUMP JUMPDEST POP PUSH2 0x21F PUSH2 0x161C JUMP JUMPDEST POP PUSH2 0x21F PUSH2 0x15F1 JUMP JUMPDEST POP PUSH2 0x21F PUSH2 0x1588 JUMP JUMPDEST POP PUSH2 0x21F PUSH2 0x155D JUMP JUMPDEST POP PUSH2 0x21F PUSH2 0x1548 JUMP JUMPDEST POP PUSH2 0x21F PUSH2 0x151E JUMP JUMPDEST POP PUSH2 0x21F PUSH2 0x14F6 JUMP JUMPDEST POP PUSH2 0x21F PUSH2 0x1489 JUMP JUMPDEST POP PUSH2 0x21F PUSH2 0x1462 JUMP JUMPDEST POP PUSH2 0x21F PUSH2 0x1438 JUMP JUMPDEST POP PUSH2 0x21F PUSH2 0x140D JUMP JUMPDEST POP PUSH2 0x21F PUSH2 0x132C JUMP JUMPDEST POP PUSH2 0x21F PUSH2 0x12F8 JUMP JUMPDEST POP PUSH2 0x21F PUSH2 0x12CE JUMP JUMPDEST POP PUSH2 0x21F PUSH2 0x1284 JUMP JUMPDEST POP PUSH2 0x21F PUSH2 0x125C JUMP JUMPDEST POP PUSH2 0x21F PUSH2 0x11F5 JUMP JUMPDEST POP PUSH2 0x21F PUSH2 0x11BD JUMP JUMPDEST POP PUSH2 0x21F PUSH2 0x1193 JUMP JUMPDEST POP PUSH2 0x21F PUSH2 0x1169 JUMP JUMPDEST POP PUSH2 0x21F PUSH2 0x1141 JUMP JUMPDEST POP PUSH2 0x21F PUSH2 0x10BF JUMP JUMPDEST POP PUSH2 0x21F PUSH2 0xFC3 JUMP JUMPDEST POP PUSH2 0x21F PUSH2 0xF98 JUMP JUMPDEST POP PUSH2 0x21F PUSH2 0xF33 JUMP JUMPDEST POP PUSH2 0x21F PUSH2 0xEFD JUMP JUMPDEST POP PUSH2 0x21F PUSH2 0xDC2 JUMP JUMPDEST POP PUSH2 0x21F PUSH2 0xD9A JUMP JUMPDEST POP PUSH2 0x21F PUSH2 0xC1B JUMP JUMPDEST POP PUSH2 0x21F PUSH2 0x741 JUMP JUMPDEST POP PUSH2 0x21F PUSH2 0x6F1 JUMP JUMPDEST POP PUSH2 0x21F PUSH2 0x67D JUMP JUMPDEST POP PUSH2 0x21F PUSH2 0x5CC JUMP JUMPDEST POP PUSH2 0x21F PUSH2 0x53B JUMP JUMPDEST POP PUSH2 0x21F PUSH2 0x4C8 JUMP JUMPDEST POP PUSH2 0x21F PUSH2 0x408 JUMP JUMPDEST PUSH1 0x0 DUP1 REVERT JUMPDEST PUSH1 0x1 PUSH1 0x1 PUSH1 0xE0 SHL SUB NOT DUP2 AND JUMPDEST SUB PUSH2 0x3B9 JUMPI JUMP JUMPDEST SWAP1 POP CALLDATALOAD SWAP1 PUSH2 0x3DE DUP3 PUSH2 0x3BE JUMP JUMPDEST JUMP JUMPDEST SWAP1 PUSH2 0x3F4 SWAP2 PUSH1 0x20 DUP2 DUP4 SUB SLT PUSH2 0x3F7 JUMPI PUSH2 0x3D1 JUMP JUMPDEST SWAP1 JUMP JUMPDEST PUSH2 0x3FF PUSH1 0x0 DUP1 REVERT JUMPDEST PUSH2 0x3D1 JUMP JUMPDEST SWAP1 MSTORE JUMP JUMPDEST POP CALLVALUE PUSH2 0x43C JUMPI JUMPDEST PUSH2 0x438 PUSH2 0x425 PUSH2 0x420 CALLDATASIZE PUSH1 0x4 PUSH2 0x3E0 JUMP JUMPDEST PUSH2 0x1BE9 JUMP JUMPDEST PUSH1 0x40 MLOAD JUMPDEST SWAP2 DUP3 SWAP2 DUP3 SWAP1 ISZERO ISZERO DUP2 MSTORE PUSH1 0x20 ADD SWAP1 JUMP JUMPDEST SUB SWAP1 RETURN JUMPDEST PUSH2 0x444 PUSH1 0x0 DUP1 REVERT JUMPDEST PUSH2 0x40F JUMP JUMPDEST PUSH1 0x0 SWAP2 SUB SLT PUSH2 0x454 JUMPI JUMP JUMPDEST PUSH2 0x3DE PUSH1 0x0 DUP1 REVERT JUMPDEST PUSH1 0x0 JUMPDEST DUP4 DUP2 LT PUSH2 0x46F JUMPI POP POP PUSH1 0x0 SWAP2 ADD MSTORE JUMP JUMPDEST DUP2 DUP2 ADD MLOAD DUP4 DUP3 ADD MSTORE PUSH1 0x20 ADD PUSH2 0x45F JUMP JUMPDEST PUSH1 0x1F ADD PUSH1 0x1F NOT AND SWAP1 JUMP JUMPDEST PUSH2 0x4AA PUSH2 0x47F PUSH1 0x20 SWAP4 PUSH2 0x4B3 SWAP4 PUSH2 0x49E DUP2 MLOAD SWAP1 JUMP JUMPDEST DUP1 DUP4 MSTORE SWAP4 DUP5 SWAP3 PUSH1 0x20 ADD SWAP1 JUMP JUMPDEST SWAP6 DUP7 SWAP2 ADD PUSH2 0x45C JUMP JUMPDEST ADD SWAP1 JUMP JUMPDEST PUSH1 0x20 DUP1 DUP3 MSTORE PUSH2 0x3F4 SWAP3 SWAP2 ADD SWAP1 PUSH2 0x489 JUMP JUMPDEST POP CALLVALUE PUSH2 0x4F2 JUMPI JUMPDEST PUSH2 0x4DA CALLDATASIZE PUSH1 0x4 PUSH2 0x449 JUMP JUMPDEST PUSH2 0x438 PUSH2 0x4E5 PUSH2 0x1E79 JUMP JUMPDEST PUSH1 0x40 MLOAD JUMPDEST SWAP2 DUP3 SWAP2 DUP3 PUSH2 0x4B7 JUMP JUMPDEST PUSH2 0x4FA PUSH1 0x0 DUP1 REVERT JUMPDEST PUSH2 0x4CF JUMP JUMPDEST DUP1 PUSH2 0x3CA JUMP JUMPDEST SWAP1 POP CALLDATALOAD SWAP1 PUSH2 0x3DE DUP3 PUSH2 0x4FF JUMP JUMPDEST SWAP1 PUSH2 0x3F4 SWAP2 PUSH1 0x20 DUP2 DUP4 SUB SLT ISZERO PUSH2 0x505 JUMPI PUSH2 0x52A PUSH1 0x0 DUP1 REVERT JUMPDEST PUSH2 0x505 JUMP JUMPDEST PUSH1 0x1 PUSH1 0x1 PUSH1 0xA0 SHL SUB AND SWAP1 JUMP JUMPDEST POP CALLVALUE PUSH2 0x572 JUMPI JUMPDEST PUSH2 0x438 PUSH2 0x558 PUSH2 0x553 CALLDATASIZE PUSH1 0x4 PUSH2 0x512 JUMP JUMPDEST PUSH2 0x209D JUMP JUMPDEST PUSH1 0x40 MLOAD SWAP2 DUP3 SWAP2 DUP3 PUSH1 0x1 PUSH1 0x1 PUSH1 0xA0 SHL SUB SWAP1 SWAP2 AND DUP2 MSTORE PUSH1 0x20 ADD SWAP1 JUMP JUMPDEST PUSH2 0x57A PUSH1 0x0 DUP1 REVERT JUMPDEST PUSH2 0x542 JUMP JUMPDEST PUSH1 0x1 PUSH1 0x1 PUSH1 0xA0 SHL SUB DUP2 AND PUSH2 0x3CA JUMP JUMPDEST SWAP1 POP CALLDATALOAD SWAP1 PUSH2 0x3DE DUP3 PUSH2 0x57F JUMP JUMPDEST SWAP2 SWAP1 PUSH2 0x3F4 SWAP1 PUSH1 0x40 DUP5 DUP3 SUB SLT PUSH2 0x5BF JUMPI JUMPDEST PUSH2 0x5B6 DUP2 DUP6 PUSH2 0x58E JUMP JUMPDEST SWAP4 PUSH1 0x20 ADD PUSH2 0x505 JUMP JUMPDEST PUSH2 0x5C7 PUSH1 0x0 DUP1 REVERT JUMPDEST PUSH2 0x5AC JUMP JUMPDEST POP CALLVALUE PUSH2 0x5EC JUMPI JUMPDEST PUSH2 0x5E7 PUSH2 0x5E1 CALLDATASIZE PUSH1 0x4 PUSH2 0x59B JUMP JUMPDEST SWAP1 PUSH2 0x2032 JUMP JUMPDEST PUSH1 0x40 MLOAD STOP JUMPDEST PUSH2 0x5F4 PUSH1 0x0 DUP1 REVERT JUMPDEST PUSH2 0x5D3 JUMP JUMPDEST SWAP1 PUSH2 0x3F4 SWAP2 PUSH1 0x20 DUP2 DUP4 SUB SLT ISZERO PUSH2 0x58E JUMPI PUSH2 0x611 PUSH1 0x0 DUP1 REVERT JUMPDEST PUSH2 0x58E JUMP JUMPDEST SWAP1 PUSH2 0x636 PUSH2 0x62F PUSH2 0x625 DUP5 MLOAD SWAP1 JUMP JUMPDEST DUP1 DUP5 MSTORE SWAP3 PUSH1 0x20 ADD SWAP1 JUMP JUMPDEST SWAP3 PUSH1 0x20 ADD SWAP1 JUMP JUMPDEST SWAP1 PUSH1 0x0 JUMPDEST DUP2 DUP2 LT PUSH2 0x647 JUMPI POP POP POP SWAP1 JUMP JUMPDEST SWAP1 SWAP2 SWAP3 PUSH2 0x664 PUSH2 0x65D PUSH1 0x1 SWAP3 DUP7 MLOAD DUP2 MSTORE PUSH1 0x20 ADD SWAP1 JUMP JUMPDEST SWAP5 PUSH1 0x20 ADD SWAP1 JUMP JUMPDEST SWAP3 SWAP2 ADD PUSH2 0x63A JUMP JUMPDEST PUSH1 0x20 DUP1 DUP3 MSTORE PUSH2 0x3F4 SWAP3 SWAP2 ADD SWAP1 PUSH2 0x616 JUMP JUMPDEST POP CALLVALUE PUSH2 0x6A6 JUMPI JUMPDEST PUSH2 0x438 PUSH2 0x69A PUSH2 0x695 CALLDATASIZE PUSH1 0x4 PUSH2 0x5F9 JUMP JUMPDEST PUSH2 0x5DD8 JUMP JUMPDEST PUSH1 0x40 MLOAD SWAP2 DUP3 SWAP2 DUP3 PUSH2 0x66C JUMP JUMPDEST PUSH2 0x6AE PUSH1 0x0 DUP1 REVERT JUMPDEST PUSH2 0x684 JUMP JUMPDEST SWAP1 SWAP2 PUSH1 0x60 DUP3 DUP5 SUB SLT PUSH2 0x6E4 JUMPI JUMPDEST PUSH2 0x3F4 PUSH2 0x6CD DUP5 DUP5 PUSH2 0x58E JUMP JUMPDEST SWAP4 PUSH2 0x6DB DUP2 PUSH1 0x20 DUP7 ADD PUSH2 0x58E JUMP JUMPDEST SWAP4 PUSH1 0x40 ADD PUSH2 0x505 JUMP JUMPDEST PUSH2 0x6EC PUSH1 0x0 DUP1 REVERT JUMPDEST PUSH2 0x6C0 JUMP JUMPDEST POP CALLVALUE PUSH2 0x70C JUMPI JUMPDEST PUSH2 0x5E7 PUSH2 0x706 CALLDATASIZE PUSH1 0x4 PUSH2 0x6B3 JUMP JUMPDEST SWAP2 PUSH2 0x2171 JUMP JUMPDEST PUSH2 0x714 PUSH1 0x0 DUP1 REVERT JUMPDEST PUSH2 0x6F8 JUMP JUMPDEST SWAP2 SWAP1 PUSH2 0x3F4 SWAP1 PUSH1 0x40 DUP5 DUP3 SUB SLT PUSH2 0x734 JUMPI JUMPDEST PUSH2 0x5B6 DUP2 DUP6 PUSH2 0x505 JUMP JUMPDEST PUSH2 0x73C PUSH1 0x0 DUP1 REVERT JUMPDEST PUSH2 0x72A JUMP JUMPDEST POP CALLVALUE PUSH2 0x75C JUMPI JUMPDEST PUSH2 0x5E7 PUSH2 0x756 CALLDATASIZE PUSH1 0x4 PUSH2 0x719 JUMP JUMPDEST SWAP1 PUSH2 0x5A10 JUMP JUMPDEST PUSH2 0x764 PUSH1 0x0 DUP1 REVERT JUMPDEST PUSH2 0x748 JUMP JUMPDEST POP PUSH4 0x4E487B71 PUSH1 0xE0 SHL PUSH1 0x0 MSTORE PUSH1 0x21 PUSH1 0x4 MSTORE PUSH1 0x24 PUSH1 0x0 REVERT JUMPDEST PUSH1 0x5 GT ISZERO PUSH2 0x78A JUMPI JUMP JUMPDEST PUSH2 0x3DE PUSH2 0x769 JUMP JUMPDEST SWAP1 PUSH2 0x3DE DUP3 PUSH2 0x780 JUMP JUMPDEST PUSH2 0x3F4 SWAP1 PUSH2 0x792 JUMP JUMPDEST PUSH2 0x404 SWAP1 PUSH2 0x79C JUMP JUMPDEST SWAP1 PUSH2 0x3F4 SWAP1 PUSH2 0x160 DUP1 PUSH2 0x89C PUSH2 0x854 PUSH2 0x842 PUSH2 0x830 PUSH2 0x81E PUSH2 0x80C PUSH2 0x7FA PUSH2 0x7E8 DUP13 PUSH1 0x0 PUSH2 0x180 DUP14 ADD SWAP2 ADD MLOAD DUP13 PUSH1 0x0 DUP2 DUP5 SUB SWAP2 ADD MSTORE PUSH2 0x489 JUMP JUMPDEST PUSH1 0x20 DUP14 ADD MLOAD DUP12 DUP3 SUB PUSH1 0x20 DUP14 ADD MSTORE PUSH2 0x489 JUMP JUMPDEST PUSH1 0x40 DUP13 ADD MLOAD DUP11 DUP3 SUB PUSH1 0x40 DUP13 ADD MSTORE PUSH2 0x489 JUMP JUMPDEST PUSH1 0x60 DUP12 ADD MLOAD DUP10 DUP3 SUB PUSH1 0x60 DUP12 ADD MSTORE PUSH2 0x489 JUMP JUMPDEST PUSH1 0x80 DUP11 ADD MLOAD DUP9 DUP3 SUB PUSH1 0x80 DUP11 ADD MSTORE PUSH2 0x489 JUMP JUMPDEST PUSH1 0xA0 DUP10 ADD MLOAD DUP8 DUP3 SUB PUSH1 0xA0 DUP10 ADD MSTORE PUSH2 0x489 JUMP JUMPDEST PUSH1 0xC0 DUP9 ADD MLOAD DUP7 DUP3 SUB PUSH1 0xC0 DUP9 ADD MSTORE PUSH2 0x489 JUMP JUMPDEST PUSH2 0x866 PUSH1 0xE0 DUP9 ADD MLOAD PUSH1 0xE0 DUP8 ADD SWAP1 PUSH2 0x7A5 JUMP JUMPDEST PUSH2 0x877 PUSH2 0x100 DUP9 ADD MLOAD PUSH2 0x100 DUP8 ADD MSTORE JUMP JUMPDEST PUSH2 0x888 PUSH2 0x120 DUP9 ADD MLOAD PUSH2 0x120 DUP8 ADD MSTORE JUMP JUMPDEST PUSH2 0x140 DUP8 ADD MLOAD DUP6 DUP3 SUB PUSH2 0x140 DUP8 ADD MSTORE PUSH2 0x489 JUMP JUMPDEST SWAP5 ADD MLOAD ISZERO ISZERO SWAP2 ADD MSTORE JUMP JUMPDEST PUSH1 0x2 GT ISZERO PUSH2 0x78A JUMPI JUMP JUMPDEST SWAP1 PUSH2 0x3DE DUP3 PUSH2 0x8A6 JUMP JUMPDEST PUSH2 0x3F4 SWAP1 PUSH2 0x8B0 JUMP JUMPDEST PUSH2 0x404 SWAP1 PUSH2 0x8BA JUMP JUMPDEST PUSH1 0x3 GT ISZERO PUSH2 0x78A JUMPI JUMP JUMPDEST SWAP1 PUSH2 0x3DE DUP3 PUSH2 0x8CC JUMP JUMPDEST PUSH2 0x3F4 SWAP1 PUSH2 0x8D6 JUMP JUMPDEST PUSH2 0x404 SWAP1 PUSH2 0x8E0 JUMP JUMPDEST SWAP1 PUSH2 0x3F4 SWAP2 PUSH2 0x489 JUMP JUMPDEST SWAP1 PUSH2 0x912 PUSH2 0x908 DUP4 MLOAD SWAP1 JUMP JUMPDEST DUP1 DUP4 MSTORE SWAP2 PUSH1 0x20 ADD SWAP1 JUMP JUMPDEST SWAP1 DUP2 PUSH2 0x924 PUSH1 0x20 DUP4 MUL DUP5 ADD SWAP5 PUSH1 0x20 ADD SWAP1 JUMP JUMPDEST SWAP3 PUSH1 0x0 SWAP2 JUMPDEST DUP4 DUP4 LT PUSH2 0x938 JUMPI POP POP POP POP POP SWAP1 JUMP JUMPDEST SWAP1 SWAP2 SWAP3 SWAP4 SWAP5 PUSH1 0x20 PUSH2 0x95B PUSH2 0x954 DUP4 DUP6 PUSH1 0x1 SWAP6 SUB DUP8 MSTORE DUP10 MLOAD PUSH2 0x8F2 JUMP JUMPDEST SWAP8 PUSH1 0x20 ADD SWAP1 JUMP JUMPDEST SWAP4 ADD SWAP4 ADD SWAP2 SWAP4 SWAP3 SWAP1 PUSH2 0x929 JUMP JUMPDEST SWAP1 PUSH2 0x3F4 SWAP1 PUSH2 0x220 DUP1 PUSH2 0xAA6 PUSH2 0xA60 PUSH2 0x9D0 PUSH2 0x9BE PUSH2 0x9AC PUSH2 0x99A PUSH2 0x240 DUP10 ADD PUSH1 0x0 DUP13 ADD MLOAD DUP11 DUP3 SUB PUSH1 0x0 DUP13 ADD MSTORE PUSH2 0x489 JUMP JUMPDEST PUSH1 0x20 DUP12 ADD MLOAD DUP10 DUP3 SUB PUSH1 0x20 DUP12 ADD MSTORE PUSH2 0x489 JUMP JUMPDEST PUSH1 0x40 DUP11 ADD MLOAD DUP9 DUP3 SUB PUSH1 0x40 DUP11 ADD MSTORE PUSH2 0x489 JUMP JUMPDEST PUSH1 0x60 DUP10 ADD MLOAD DUP8 DUP3 SUB PUSH1 0x60 DUP10 ADD MSTORE PUSH2 0x489 JUMP JUMPDEST PUSH1 0x80 DUP9 DUP2 ADD MLOAD ISZERO ISZERO SWAP1 DUP8 ADD MSTORE PUSH1 0xA0 DUP9 DUP2 ADD MLOAD ISZERO ISZERO SWAP1 DUP8 ADD MSTORE PUSH2 0x9FA PUSH1 0xC0 DUP10 ADD MLOAD PUSH1 0xC0 DUP9 ADD SWAP1 PUSH2 0x8C3 JUMP JUMPDEST PUSH2 0xA09 PUSH1 0xE0 DUP10 ADD MLOAD PUSH1 0xE0 DUP9 ADD MSTORE JUMP JUMPDEST PUSH2 0x100 DUP9 DUP2 ADD MLOAD ISZERO ISZERO SWAP1 DUP8 ADD MSTORE PUSH2 0x120 DUP1 DUP10 ADD MLOAD PUSH1 0x1 PUSH1 0x1 PUSH1 0xA0 SHL SUB AND SWAP1 DUP8 ADD MSTORE PUSH2 0xA3B PUSH2 0x140 DUP10 ADD MLOAD PUSH2 0x140 DUP9 ADD MSTORE JUMP JUMPDEST PUSH2 0xA4C PUSH2 0x160 DUP10 ADD MLOAD PUSH2 0x160 DUP9 ADD MSTORE JUMP JUMPDEST PUSH2 0x180 DUP9 ADD MLOAD DUP7 DUP3 SUB PUSH2 0x180 DUP9 ADD MSTORE PUSH2 0x616 JUMP JUMPDEST PUSH2 0x1A0 DUP8 DUP2 ADD MLOAD ISZERO ISZERO SWAP1 DUP7 ADD MSTORE PUSH2 0xA81 PUSH2 0x1C0 DUP9 ADD MLOAD PUSH2 0x1C0 DUP8 ADD SWAP1 PUSH2 0x8E9 JUMP JUMPDEST PUSH2 0xA92 PUSH2 0x1E0 DUP9 ADD MLOAD PUSH2 0x1E0 DUP8 ADD MSTORE JUMP JUMPDEST PUSH2 0x200 DUP8 ADD MLOAD DUP6 DUP3 SUB PUSH2 0x200 DUP8 ADD MSTORE PUSH2 0x8FC JUMP JUMPDEST SWAP5 ADD MLOAD SWAP2 ADD MSTORE JUMP JUMPDEST SWAP1 PUSH2 0xABD PUSH2 0x62F PUSH2 0x625 DUP5 MLOAD SWAP1 JUMP JUMPDEST SWAP1 PUSH1 0x0 JUMPDEST DUP2 DUP2 LT PUSH2 0xACE JUMPI POP POP POP SWAP1 JUMP JUMPDEST SWAP1 SWAP2 SWAP3 PUSH2 0xAED PUSH2 0x65D PUSH1 0x1 SWAP3 DUP7 MLOAD PUSH1 0x1 PUSH1 0x1 PUSH1 0xA0 SHL SUB AND DUP2 MSTORE PUSH1 0x20 ADD SWAP1 JUMP JUMPDEST SWAP3 SWAP2 ADD PUSH2 0xAC1 JUMP JUMPDEST DUP1 MLOAD DUP3 MSTORE PUSH1 0x20 DUP1 DUP3 ADD MLOAD PUSH1 0x1 PUSH1 0x1 PUSH1 0xA0 SHL SUB AND SWAP1 DUP4 ADD MSTORE SWAP1 PUSH2 0x3F4 SWAP1 PUSH2 0x120 DUP1 PUSH2 0xB7D PUSH2 0xB6B PUSH2 0xB59 PUSH2 0xB47 PUSH2 0x140 DUP8 ADD PUSH2 0xB35 PUSH1 0x40 DUP12 ADD MLOAD PUSH1 0x40 DUP11 ADD MSTORE JUMP JUMPDEST PUSH1 0x60 DUP11 ADD MLOAD DUP9 DUP3 SUB PUSH1 0x60 DUP11 ADD MSTORE PUSH2 0x7AE JUMP JUMPDEST PUSH1 0x80 DUP10 ADD MLOAD DUP8 DUP3 SUB PUSH1 0x80 DUP10 ADD MSTORE PUSH2 0x968 JUMP JUMPDEST PUSH1 0xA0 DUP9 ADD MLOAD DUP7 DUP3 SUB PUSH1 0xA0 DUP9 ADD MSTORE PUSH2 0xAAE JUMP JUMPDEST PUSH1 0xC0 DUP8 ADD MLOAD DUP6 DUP3 SUB PUSH1 0xC0 DUP8 ADD MSTORE PUSH2 0x8FC JUMP JUMPDEST SWAP5 PUSH2 0xB8D PUSH1 0xE0 DUP3 ADD MLOAD PUSH1 0xE0 DUP7 ADD MSTORE JUMP JUMPDEST PUSH2 0xB9E PUSH2 0x100 DUP3 ADD MLOAD PUSH2 0x100 DUP7 ADD MSTORE JUMP JUMPDEST ADD MLOAD SWAP2 ADD MSTORE JUMP JUMPDEST SWAP1 PUSH2 0x3F4 SWAP2 PUSH2 0xAF5 JUMP JUMPDEST SWAP1 PUSH2 0xBBB PUSH2 0x908 DUP4 MLOAD SWAP1 JUMP JUMPDEST SWAP1 DUP2 PUSH2 0xBCD PUSH1 0x20 DUP4 MUL DUP5 ADD SWAP5 PUSH1 0x20 ADD SWAP1 JUMP JUMPDEST SWAP3 PUSH1 0x0 SWAP2 JUMPDEST DUP4 DUP4 LT PUSH2 0xBE1 JUMPI POP POP POP POP POP SWAP1 JUMP JUMPDEST SWAP1 SWAP2 SWAP3 SWAP4 SWAP5 PUSH1 0x20 PUSH2 0xBFD PUSH2 0x954 DUP4 DUP6 PUSH1 0x1 SWAP6 SUB DUP8 MSTORE DUP10 MLOAD PUSH2 0xBA5 JUMP JUMPDEST SWAP4 ADD SWAP4 ADD SWAP2 SWAP4 SWAP3 SWAP1 PUSH2 0xBD2 JUMP JUMPDEST PUSH1 0x20 DUP1 DUP3 MSTORE PUSH2 0x3F4 SWAP3 SWAP2 ADD SWAP1 PUSH2 0xBAF JUMP JUMPDEST POP CALLVALUE PUSH2 0xC44 JUMPI JUMPDEST PUSH2 0xC2D CALLDATASIZE PUSH1 0x4 PUSH2 0x449 JUMP JUMPDEST PUSH2 0x438 PUSH2 0xC38 PUSH2 0x5BD0 JUMP JUMPDEST PUSH1 0x40 MLOAD SWAP2 DUP3 SWAP2 DUP3 PUSH2 0xC0A JUMP JUMPDEST PUSH2 0xC4C PUSH1 0x0 DUP1 REVERT JUMPDEST PUSH2 0xC22 JUMP JUMPDEST POP PUSH4 0x4E487B71 PUSH1 0xE0 SHL PUSH1 0x0 MSTORE PUSH1 0x41 PUSH1 0x4 MSTORE PUSH1 0x24 PUSH1 0x0 REVERT JUMPDEST SWAP1 PUSH1 0x1F ADD PUSH1 0x1F NOT AND DUP2 ADD SWAP1 DUP2 LT PUSH1 0x1 PUSH1 0x1 PUSH1 0x40 SHL SUB DUP3 GT OR PUSH2 0xC89 JUMPI PUSH1 0x40 MSTORE JUMP JUMPDEST PUSH2 0xC91 PUSH2 0xC51 JUMP JUMPDEST PUSH1 0x40 MSTORE JUMP JUMPDEST SWAP1 PUSH2 0x3DE PUSH2 0xCA3 PUSH1 0x40 MLOAD SWAP1 JUMP JUMPDEST SWAP3 DUP4 PUSH2 0xC68 JUMP JUMPDEST PUSH2 0x4B3 PUSH1 0x20 SWAP2 PUSH1 0x1 PUSH1 0x1 PUSH1 0x40 SHL SUB DUP2 GT PUSH2 0xCC8 JUMPI PUSH1 0x1F ADD PUSH1 0x1F NOT AND SWAP1 JUMP JUMPDEST PUSH2 0x47F PUSH2 0xC51 JUMP JUMPDEST SWAP1 DUP3 PUSH1 0x0 SWAP4 SWAP3 DUP3 CALLDATACOPY ADD MSTORE JUMP JUMPDEST SWAP3 SWAP2 SWAP1 PUSH2 0x3DE SWAP2 PUSH2 0xCF4 PUSH2 0xCEF DUP4 PUSH2 0xCAA JUMP JUMPDEST PUSH2 0xC96 JUMP JUMPDEST SWAP5 DUP3 DUP7 MSTORE PUSH1 0x20 DUP7 ADD SWAP2 DUP4 DUP3 ADD GT ISZERO PUSH2 0xCD0 JUMPI PUSH2 0xD0E PUSH1 0x0 DUP1 REVERT JUMPDEST PUSH2 0xCD0 JUMP JUMPDEST SWAP1 PUSH2 0x3F4 SWAP2 DUP2 PUSH1 0x1F DUP3 ADD SLT ISZERO PUSH2 0xD2F JUMPI JUMPDEST PUSH1 0x20 DUP2 CALLDATALOAD SWAP2 ADD PUSH2 0xCDC JUMP JUMPDEST PUSH2 0xD37 PUSH1 0x0 DUP1 REVERT JUMPDEST PUSH2 0xD24 JUMP JUMPDEST SWAP1 SWAP2 PUSH1 0x60 DUP3 DUP5 SUB SLT PUSH2 0xD8D JUMPI JUMPDEST PUSH2 0x3F4 PUSH2 0xD56 DUP5 DUP5 PUSH2 0x505 JUMP JUMPDEST SWAP4 PUSH2 0xD64 DUP2 PUSH1 0x20 DUP7 ADD PUSH2 0x505 JUMP JUMPDEST SWAP4 PUSH1 0x40 DUP2 ADD CALLDATALOAD SWAP1 PUSH1 0x1 PUSH1 0x1 PUSH1 0x40 SHL SUB DUP3 GT PUSH2 0xD80 JUMPI JUMPDEST ADD PUSH2 0xD13 JUMP JUMPDEST PUSH2 0xD88 PUSH1 0x0 DUP1 REVERT JUMPDEST PUSH2 0xD7A JUMP JUMPDEST PUSH2 0xD95 PUSH1 0x0 DUP1 REVERT JUMPDEST PUSH2 0xD49 JUMP JUMPDEST POP CALLVALUE PUSH2 0xDB5 JUMPI JUMPDEST PUSH2 0x5E7 PUSH2 0xDAF CALLDATASIZE PUSH1 0x4 PUSH2 0xD3C JUMP JUMPDEST SWAP2 PUSH2 0x5055 JUMP JUMPDEST PUSH2 0xDBD PUSH1 0x0 DUP1 REVERT JUMPDEST PUSH2 0xDA1 JUMP JUMPDEST POP CALLVALUE PUSH2 0xDDD JUMPI JUMPDEST PUSH2 0x5E7 PUSH2 0xDD7 CALLDATASIZE PUSH1 0x4 PUSH2 0x6B3 JUMP JUMPDEST SWAP2 PUSH2 0x218E JUMP JUMPDEST PUSH2 0xDE5 PUSH1 0x0 DUP1 REVERT JUMPDEST PUSH2 0xDC9 JUMP JUMPDEST DUP1 MLOAD PUSH1 0x1 PUSH1 0x1 PUSH1 0xA0 SHL SUB AND DUP3 MSTORE PUSH2 0x3F4 SWAP2 PUSH2 0x100 PUSH2 0xE75 PUSH2 0xE39 PUSH2 0x120 DUP5 ADD PUSH2 0xE18 PUSH1 0x20 DUP8 ADD MLOAD PUSH1 0x20 DUP8 ADD MSTORE JUMP JUMPDEST PUSH2 0xE27 PUSH1 0x40 DUP8 ADD MLOAD PUSH1 0x40 DUP8 ADD MSTORE JUMP JUMPDEST PUSH1 0x60 DUP7 ADD MLOAD DUP6 DUP3 SUB PUSH1 0x60 DUP8 ADD MSTORE PUSH2 0x489 JUMP JUMPDEST PUSH2 0xE48 PUSH1 0x80 DUP7 ADD MLOAD PUSH1 0x80 DUP7 ADD MSTORE JUMP JUMPDEST PUSH2 0xE57 PUSH1 0xA0 DUP7 ADD MLOAD PUSH1 0xA0 DUP7 ADD MSTORE JUMP JUMPDEST PUSH1 0xC0 DUP6 DUP2 ADD MLOAD ISZERO ISZERO SWAP1 DUP6 ADD MSTORE PUSH1 0xE0 DUP6 ADD MLOAD DUP5 DUP3 SUB PUSH1 0xE0 DUP7 ADD MSTORE PUSH2 0x8FC JUMP JUMPDEST SWAP3 ADD MLOAD SWAP1 PUSH2 0x100 DUP2 DUP5 SUB SWAP2 ADD MSTORE PUSH2 0x616 JUMP JUMPDEST SWAP1 PUSH2 0x3F4 SWAP2 PUSH2 0xDEA JUMP JUMPDEST SWAP1 PUSH2 0xE9D PUSH2 0x908 DUP4 MLOAD SWAP1 JUMP JUMPDEST SWAP1 DUP2 PUSH2 0xEAF PUSH1 0x20 DUP4 MUL DUP5 ADD SWAP5 PUSH1 0x20 ADD SWAP1 JUMP JUMPDEST SWAP3 PUSH1 0x0 SWAP2 JUMPDEST DUP4 DUP4 LT PUSH2 0xEC3 JUMPI POP POP POP POP POP SWAP1 JUMP JUMPDEST SWAP1 SWAP2 SWAP3 SWAP4 SWAP5 PUSH1 0x20 PUSH2 0xEDF PUSH2 0x954 DUP4 DUP6 PUSH1 0x1 SWAP6 SUB DUP8 MSTORE DUP10 MLOAD PUSH2 0xE87 JUMP JUMPDEST SWAP4 ADD SWAP4 ADD SWAP2 SWAP4 SWAP3 SWAP1 PUSH2 0xEB4 JUMP JUMPDEST PUSH1 0x20 DUP1 DUP3 MSTORE PUSH2 0x3F4 SWAP3 SWAP2 ADD SWAP1 PUSH2 0xE91 JUMP JUMPDEST POP CALLVALUE PUSH2 0xF26 JUMPI JUMPDEST PUSH2 0x438 PUSH2 0xF1A PUSH2 0xF15 CALLDATASIZE PUSH1 0x4 PUSH2 0x512 JUMP JUMPDEST PUSH2 0x5D74 JUMP JUMPDEST PUSH1 0x40 MLOAD SWAP2 DUP3 SWAP2 DUP3 PUSH2 0xEEC JUMP JUMPDEST PUSH2 0xF2E PUSH1 0x0 DUP1 REVERT JUMPDEST PUSH2 0xF04 JUMP JUMPDEST POP CALLVALUE PUSH2 0xF4D JUMPI JUMPDEST PUSH2 0x5E7 PUSH2 0xF48 CALLDATASIZE PUSH1 0x4 PUSH2 0x5F9 JUMP JUMPDEST PUSH2 0x4877 JUMP JUMPDEST PUSH2 0xF55 PUSH1 0x0 DUP1 REVERT JUMPDEST PUSH2 0xF3A JUMP JUMPDEST SWAP1 SWAP2 PUSH1 0x60 DUP3 DUP5 SUB SLT PUSH2 0xF8B JUMPI JUMPDEST PUSH2 0x3F4 PUSH2 0xF74 DUP5 DUP5 PUSH2 0x505 JUMP JUMPDEST SWAP4 PUSH2 0xF82 DUP2 PUSH1 0x20 DUP7 ADD PUSH2 0x505 JUMP JUMPDEST SWAP4 PUSH1 0x40 ADD PUSH2 0x58E JUMP JUMPDEST PUSH2 0xF93 PUSH1 0x0 DUP1 REVERT JUMPDEST PUSH2 0xF67 JUMP JUMPDEST POP CALLVALUE PUSH2 0xFB6 JUMPI JUMPDEST PUSH2 0x438 PUSH2 0x425 PUSH2 0xFB0 CALLDATASIZE PUSH1 0x4 PUSH2 0xF5A JUMP JUMPDEST SWAP2 PUSH2 0x5DB9 JUMP JUMPDEST PUSH2 0xFBE PUSH1 0x0 DUP1 REVERT JUMPDEST PUSH2 0xF9F JUMP JUMPDEST POP CALLVALUE PUSH2 0xFDD JUMPI JUMPDEST PUSH2 0x5E7 PUSH2 0xFD8 CALLDATASIZE PUSH1 0x4 PUSH2 0x512 JUMP JUMPDEST PUSH2 0x4B4D JUMP JUMPDEST PUSH2 0xFE5 PUSH1 0x0 DUP1 REVERT JUMPDEST PUSH2 0xFCA JUMP JUMPDEST SWAP1 DUP2 PUSH2 0x180 SWAP2 SUB SLT PUSH2 0xFF9 JUMPI SWAP1 JUMP JUMPDEST PUSH2 0x3F4 PUSH1 0x0 DUP1 REVERT JUMPDEST SWAP1 DUP2 PUSH2 0x240 SWAP2 SUB SLT PUSH2 0xFF9 JUMPI SWAP1 JUMP JUMPDEST PUSH1 0x2 GT ISZERO PUSH2 0x3B9 JUMPI JUMP JUMPDEST SWAP1 POP CALLDATALOAD SWAP1 PUSH2 0x3DE DUP3 PUSH2 0x1010 JUMP JUMPDEST SWAP2 SWAP1 PUSH1 0xA0 DUP4 DUP3 SUB SLT PUSH2 0x10B2 JUMPI JUMPDEST PUSH2 0x103E DUP2 DUP5 PUSH2 0x505 JUMP JUMPDEST SWAP3 PUSH2 0x105E DUP3 PUSH1 0x20 DUP4 ADD CALLDATALOAD PUSH1 0x1 PUSH1 0x1 PUSH1 0x40 SHL SUB DUP2 GT PUSH2 0x10A5 JUMPI JUMPDEST DUP4 ADD PUSH2 0xFEA JUMP JUMPDEST SWAP3 PUSH2 0x3F4 PUSH2 0x1081 DUP5 PUSH1 0x40 DUP6 ADD CALLDATALOAD PUSH1 0x1 PUSH1 0x1 PUSH1 0x40 SHL SUB DUP2 GT PUSH2 0x1098 JUMPI JUMPDEST DUP6 ADD PUSH2 0x1001 JUMP JUMPDEST SWAP4 PUSH2 0x108F DUP2 PUSH1 0x60 DUP7 ADD PUSH2 0x101A JUMP JUMPDEST SWAP4 PUSH1 0x80 ADD PUSH2 0x505 JUMP JUMPDEST PUSH2 0x10A0 PUSH1 0x0 DUP1 REVERT JUMPDEST PUSH2 0x107A JUMP JUMPDEST PUSH2 0x10AD PUSH1 0x0 DUP1 REVERT JUMPDEST PUSH2 0x1057 JUMP JUMPDEST PUSH2 0x10BA PUSH1 0x0 DUP1 REVERT JUMPDEST PUSH2 0x1034 JUMP JUMPDEST POP CALLVALUE PUSH2 0x10F1 JUMPI JUMPDEST PUSH2 0x438 PUSH2 0x10E0 PUSH2 0x10D7 CALLDATASIZE PUSH1 0x4 PUSH2 0x1027 JUMP JUMPDEST SWAP4 SWAP3 SWAP1 SWAP3 PUSH2 0x3BEF JUMP JUMPDEST PUSH1 0x40 MLOAD JUMPDEST SWAP2 DUP3 SWAP2 DUP3 SWAP1 DUP2 MSTORE PUSH1 0x20 ADD SWAP1 JUMP JUMPDEST PUSH2 0x10F9 PUSH1 0x0 DUP1 REVERT JUMPDEST PUSH2 0x10C6 JUMP JUMPDEST SWAP2 SWAP1 PUSH2 0x3F4 SWAP1 PUSH1 0x40 DUP5 DUP3 SUB SLT PUSH2 0x1134 JUMPI JUMPDEST PUSH2 0x1119 DUP2 DUP6 PUSH2 0x505 JUMP JUMPDEST SWAP4 PUSH1 0x20 DUP2 ADD CALLDATALOAD SWAP1 PUSH1 0x1 PUSH1 0x1 PUSH1 0x40 SHL SUB DUP3 GT PUSH2 0xD80 JUMPI ADD PUSH2 0xD13 JUMP JUMPDEST PUSH2 0x113C PUSH1 0x0 DUP1 REVERT JUMPDEST PUSH2 0x110F JUMP JUMPDEST POP CALLVALUE PUSH2 0x115C JUMPI JUMPDEST PUSH2 0x5E7 PUSH2 0x1156 CALLDATASIZE PUSH1 0x4 PUSH2 0x10FE JUMP JUMPDEST SWAP1 PUSH2 0x4A7D JUMP JUMPDEST PUSH2 0x1164 PUSH1 0x0 DUP1 REVERT JUMPDEST PUSH2 0x1148 JUMP JUMPDEST POP CALLVALUE PUSH2 0x1186 JUMPI JUMPDEST PUSH2 0x438 PUSH2 0x558 PUSH2 0x1181 CALLDATASIZE PUSH1 0x4 PUSH2 0x512 JUMP JUMPDEST PUSH2 0x1D44 JUMP JUMPDEST PUSH2 0x118E PUSH1 0x0 DUP1 REVERT JUMPDEST PUSH2 0x1170 JUMP JUMPDEST POP CALLVALUE PUSH2 0x11B0 JUMPI JUMPDEST PUSH2 0x438 PUSH2 0x10E0 PUSH2 0x11AB CALLDATASIZE PUSH1 0x4 PUSH2 0x5F9 JUMP JUMPDEST PUSH2 0x1CBB JUMP JUMPDEST PUSH2 0x11B8 PUSH1 0x0 DUP1 REVERT JUMPDEST PUSH2 0x119A JUMP JUMPDEST POP CALLVALUE PUSH2 0x11D7 JUMPI JUMPDEST PUSH2 0x11CF CALLDATASIZE PUSH1 0x4 PUSH2 0x449 JUMP JUMPDEST PUSH2 0x5E7 PUSH2 0x1A0C JUMP JUMPDEST PUSH2 0x11DF PUSH1 0x0 DUP1 REVERT JUMPDEST PUSH2 0x11C4 JUMP JUMPDEST PUSH1 0x20 DUP1 DUP3 MSTORE PUSH2 0x3F4 SWAP3 SWAP2 ADD SWAP1 PUSH2 0xAF5 JUMP JUMPDEST POP CALLVALUE PUSH2 0x121E JUMPI JUMPDEST PUSH2 0x438 PUSH2 0x1212 PUSH2 0x120D CALLDATASIZE PUSH1 0x4 PUSH2 0x512 JUMP JUMPDEST PUSH2 0x31F0 JUMP JUMPDEST PUSH1 0x40 MLOAD SWAP2 DUP3 SWAP2 DUP3 PUSH2 0x11E4 JUMP JUMPDEST PUSH2 0x1226 PUSH1 0x0 DUP1 REVERT JUMPDEST PUSH2 0x11FC JUMP JUMPDEST SWAP2 SWAP1 PUSH2 0x3F4 SWAP1 PUSH1 0x40 DUP5 DUP3 SUB SLT PUSH2 0x124F JUMPI JUMPDEST PUSH2 0x1246 DUP2 DUP6 PUSH2 0x505 JUMP JUMPDEST SWAP4 PUSH1 0x20 ADD PUSH2 0x58E JUMP JUMPDEST PUSH2 0x1257 PUSH1 0x0 DUP1 REVERT JUMPDEST PUSH2 0x123C JUMP JUMPDEST POP CALLVALUE PUSH2 0x1277 JUMPI JUMPDEST PUSH2 0x5E7 PUSH2 0x1271 CALLDATASIZE PUSH1 0x4 PUSH2 0x122B JUMP JUMPDEST SWAP1 PUSH2 0x4C48 JUMP JUMPDEST PUSH2 0x127F PUSH1 0x0 DUP1 REVERT JUMPDEST PUSH2 0x1263 JUMP JUMPDEST POP CALLVALUE PUSH2 0x129F JUMPI JUMPDEST PUSH2 0x5E7 PUSH2 0x1299 CALLDATASIZE PUSH1 0x4 PUSH2 0x719 JUMP JUMPDEST SWAP1 PUSH2 0x5587 JUMP JUMPDEST PUSH2 0x12A7 PUSH1 0x0 DUP1 REVERT JUMPDEST PUSH2 0x128B JUMP JUMPDEST PUSH2 0x3F4 SWAP2 PUSH1 0x8 MUL SHR DUP2 JUMP JUMPDEST SWAP1 PUSH2 0x3F4 SWAP2 SLOAD PUSH2 0x12AC JUMP JUMPDEST PUSH2 0x3F4 PUSH1 0x0 PUSH1 0x9 PUSH2 0x12B7 JUMP JUMPDEST POP CALLVALUE PUSH2 0x12EB JUMPI JUMPDEST PUSH2 0x12E0 CALLDATASIZE PUSH1 0x4 PUSH2 0x449 JUMP JUMPDEST PUSH2 0x438 PUSH2 0x10E0 PUSH2 0x12C2 JUMP JUMPDEST PUSH2 0x12F3 PUSH1 0x0 DUP1 REVERT JUMPDEST PUSH2 0x12D5 JUMP JUMPDEST POP CALLVALUE PUSH2 0x131F JUMPI JUMPDEST PUSH2 0x130A CALLDATASIZE PUSH1 0x4 PUSH2 0x449 JUMP JUMPDEST PUSH2 0x438 PUSH2 0x558 PUSH1 0x7 SLOAD PUSH1 0x1 PUSH1 0x1 PUSH1 0xA0 SHL SUB AND SWAP1 JUMP JUMPDEST PUSH2 0x1327 PUSH1 0x0 DUP1 REVERT JUMPDEST PUSH2 0x12FF JUMP JUMPDEST POP CALLVALUE PUSH2 0x1347 JUMPI JUMPDEST PUSH2 0x5E7 PUSH2 0x1341 CALLDATASIZE PUSH1 0x4 PUSH2 0x719 JUMP JUMPDEST SWAP1 PUSH2 0x54E5 JUMP JUMPDEST PUSH2 0x134F PUSH1 0x0 DUP1 REVERT JUMPDEST PUSH2 0x1333 JUMP JUMPDEST PUSH1 0x80 DUP2 DUP4 SUB SLT PUSH2 0x1400 JUMPI JUMPDEST PUSH2 0x137B DUP3 DUP3 CALLDATALOAD PUSH1 0x1 PUSH1 0x1 PUSH1 0x40 SHL SUB DUP2 GT PUSH2 0x13F3 JUMPI JUMPDEST DUP4 ADD PUSH2 0xD13 JUMP JUMPDEST SWAP3 PUSH2 0x3F4 PUSH2 0x139E DUP5 PUSH1 0x20 DUP6 ADD CALLDATALOAD PUSH1 0x1 PUSH1 0x1 PUSH1 0x40 SHL SUB DUP2 GT PUSH2 0x13E6 JUMPI JUMPDEST DUP6 ADD PUSH2 0xD13 JUMP JUMPDEST SWAP4 PUSH2 0x13BE DUP2 PUSH1 0x40 DUP7 ADD CALLDATALOAD PUSH1 0x1 PUSH1 0x1 PUSH1 0x40 SHL SUB DUP2 GT PUSH2 0x13D9 JUMPI JUMPDEST DUP7 ADD PUSH2 0xD13 JUMP JUMPDEST SWAP4 PUSH1 0x60 DUP2 ADD CALLDATALOAD SWAP1 PUSH1 0x1 PUSH1 0x1 PUSH1 0x40 SHL SUB DUP3 GT PUSH2 0xD80 JUMPI ADD PUSH2 0xD13 JUMP JUMPDEST PUSH2 0x13E1 PUSH1 0x0 DUP1 REVERT JUMPDEST PUSH2 0x13B7 JUMP JUMPDEST PUSH2 0x13EE PUSH1 0x0 DUP1 REVERT JUMPDEST PUSH2 0x1397 JUMP JUMPDEST PUSH2 0x13FB PUSH1 0x0 DUP1 REVERT JUMPDEST PUSH2 0x1374 JUMP JUMPDEST PUSH2 0x1408 PUSH1 0x0 DUP1 REVERT JUMPDEST PUSH2 0x135F JUMP JUMPDEST POP CALLVALUE PUSH2 0x142B JUMPI JUMPDEST PUSH2 0x5E7 PUSH2 0x1422 CALLDATASIZE PUSH1 0x4 PUSH2 0x1354 JUMP JUMPDEST SWAP3 SWAP2 SWAP1 SWAP2 PUSH2 0x478F JUMP JUMPDEST PUSH2 0x1433 PUSH1 0x0 DUP1 REVERT JUMPDEST PUSH2 0x1414 JUMP JUMPDEST POP CALLVALUE PUSH2 0x1455 JUMPI JUMPDEST PUSH2 0x144A CALLDATASIZE PUSH1 0x4 PUSH2 0x449 JUMP JUMPDEST PUSH2 0x438 PUSH2 0x4E5 PUSH2 0x1E83 JUMP JUMPDEST PUSH2 0x145D PUSH1 0x0 DUP1 REVERT JUMPDEST PUSH2 0x143F JUMP JUMPDEST POP CALLVALUE PUSH2 0x147C JUMPI JUMPDEST PUSH2 0x5E7 PUSH2 0x1477 CALLDATASIZE PUSH1 0x4 PUSH2 0x512 JUMP JUMPDEST PUSH2 0x4680 JUMP JUMPDEST PUSH2 0x1484 PUSH1 0x0 DUP1 REVERT JUMPDEST PUSH2 0x1469 JUMP JUMPDEST POP CALLVALUE PUSH2 0x14A3 JUMPI JUMPDEST PUSH2 0x5E7 PUSH2 0x149E CALLDATASIZE PUSH1 0x4 PUSH2 0x512 JUMP JUMPDEST PUSH2 0x4C04 JUMP JUMPDEST PUSH2 0x14AB PUSH1 0x0 DUP1 REVERT JUMPDEST PUSH2 0x1490 JUMP JUMPDEST DUP1 ISZERO ISZERO PUSH2 0x3CA JUMP JUMPDEST SWAP1 POP CALLDATALOAD SWAP1 PUSH2 0x3DE DUP3 PUSH2 0x14B0 JUMP JUMPDEST SWAP2 SWAP1 PUSH2 0x3F4 SWAP1 PUSH1 0x40 DUP5 DUP3 SUB SLT PUSH2 0x14E9 JUMPI JUMPDEST PUSH2 0x14E0 DUP2 DUP6 PUSH2 0x58E JUMP JUMPDEST SWAP4 PUSH1 0x20 ADD PUSH2 0x14B8 JUMP JUMPDEST PUSH2 0x14F1 PUSH1 0x0 DUP1 REVERT JUMPDEST PUSH2 0x14D6 JUMP JUMPDEST POP CALLVALUE PUSH2 0x1511 JUMPI JUMPDEST PUSH2 0x5E7 PUSH2 0x150B CALLDATASIZE PUSH1 0x4 PUSH2 0x14C5 JUMP JUMPDEST SWAP1 PUSH2 0x20CA JUMP JUMPDEST PUSH2 0x1519 PUSH1 0x0 DUP1 REVERT JUMPDEST PUSH2 0x14FD JUMP JUMPDEST POP CALLVALUE PUSH2 0x153B JUMPI JUMPDEST PUSH2 0x1530 CALLDATASIZE PUSH1 0x4 PUSH2 0x449 JUMP JUMPDEST PUSH2 0x438 PUSH2 0x10E0 PUSH2 0x600F JUMP JUMPDEST PUSH2 0x1543 PUSH1 0x0 DUP1 REVERT JUMPDEST PUSH2 0x1525 JUMP JUMPDEST POP PUSH2 0x5E7 PUSH2 0x1557 CALLDATASIZE PUSH1 0x4 PUSH2 0x719 JUMP JUMPDEST SWAP1 PUSH2 0x4519 JUMP JUMPDEST POP CALLVALUE PUSH2 0x157B JUMPI JUMPDEST PUSH2 0x438 PUSH2 0x69A PUSH2 0x1575 CALLDATASIZE PUSH1 0x4 PUSH2 0x122B JUMP JUMPDEST SWAP1 PUSH2 0x5D99 JUMP JUMPDEST PUSH2 0x1583 PUSH1 0x0 DUP1 REVERT JUMPDEST PUSH2 0x1564 JUMP JUMPDEST POP CALLVALUE PUSH2 0x15A3 JUMPI JUMPDEST PUSH2 0x5E7 PUSH2 0x159D CALLDATASIZE PUSH1 0x4 PUSH2 0x719 JUMP JUMPDEST SWAP1 PUSH2 0x5265 JUMP JUMPDEST PUSH2 0x15AB PUSH1 0x0 DUP1 REVERT JUMPDEST PUSH2 0x158F JUMP JUMPDEST PUSH1 0x80 DUP2 DUP4 SUB SLT PUSH2 0x15E4 JUMPI JUMPDEST PUSH2 0x15C5 DUP3 DUP3 PUSH2 0x58E JUMP JUMPDEST SWAP3 PUSH2 0x3F4 PUSH2 0x15D6 DUP5 PUSH1 0x20 DUP6 ADD PUSH2 0x58E JUMP JUMPDEST SWAP4 PUSH2 0x13BE DUP2 PUSH1 0x40 DUP7 ADD PUSH2 0x505 JUMP JUMPDEST PUSH2 0x15EC PUSH1 0x0 DUP1 REVERT JUMPDEST PUSH2 0x15BB JUMP JUMPDEST POP CALLVALUE PUSH2 0x160F JUMPI JUMPDEST PUSH2 0x5E7 PUSH2 0x1606 CALLDATASIZE PUSH1 0x4 PUSH2 0x15B0 JUMP JUMPDEST SWAP3 SWAP2 SWAP1 SWAP2 PUSH2 0x219E JUMP JUMPDEST PUSH2 0x1617 PUSH1 0x0 DUP1 REVERT JUMPDEST PUSH2 0x15F8 JUMP JUMPDEST POP CALLVALUE PUSH2 0x1639 JUMPI JUMPDEST PUSH2 0x438 PUSH2 0x4E5 PUSH2 0x1634 CALLDATASIZE PUSH1 0x4 PUSH2 0x512 JUMP JUMPDEST PUSH2 0x1EF3 JUMP JUMPDEST PUSH2 0x1641 PUSH1 0x0 DUP1 REVERT JUMPDEST PUSH2 0x1623 JUMP JUMPDEST PUSH1 0x20 DUP1 DUP3 MSTORE PUSH2 0x3F4 SWAP3 SWAP2 ADD SWAP1 PUSH2 0x968 JUMP JUMPDEST POP CALLVALUE PUSH2 0x1680 JUMPI JUMPDEST PUSH2 0x438 PUSH2 0x1674 PUSH2 0x166F CALLDATASIZE PUSH1 0x4 PUSH2 0x512 JUMP JUMPDEST PUSH2 0x60F2 JUMP JUMPDEST PUSH1 0x40 MLOAD SWAP2 DUP3 SWAP2 DUP3 PUSH2 0x1646 JUMP JUMPDEST PUSH2 0x1688 PUSH1 0x0 DUP1 REVERT JUMPDEST PUSH2 0x165E JUMP JUMPDEST SWAP1 SWAP2 PUSH1 0x60 DUP3 DUP5 SUB SLT PUSH2 0x16B5 JUMPI JUMPDEST PUSH2 0x3F4 PUSH2 0x16A7 DUP5 DUP5 PUSH2 0x505 JUMP JUMPDEST SWAP4 PUSH2 0x6DB DUP2 PUSH1 0x20 DUP7 ADD PUSH2 0x101A JUMP JUMPDEST PUSH2 0x16BD PUSH1 0x0 DUP1 REVERT JUMPDEST PUSH2 0x169A JUMP JUMPDEST POP CALLVALUE PUSH2 0x16DD JUMPI JUMPDEST PUSH2 0x5E7 PUSH2 0x16D7 CALLDATASIZE PUSH1 0x4 PUSH2 0x168D JUMP JUMPDEST SWAP2 PUSH2 0x538E JUMP JUMPDEST PUSH2 0x16E5 PUSH1 0x0 DUP1 REVERT JUMPDEST PUSH2 0x16C9 JUMP JUMPDEST POP CALLVALUE PUSH2 0x1705 JUMPI JUMPDEST PUSH2 0x5E7 PUSH2 0x16FF CALLDATASIZE PUSH1 0x4 PUSH2 0x719 JUMP JUMPDEST SWAP1 PUSH2 0x4969 JUMP JUMPDEST PUSH2 0x170D PUSH1 0x0 DUP1 REVERT JUMPDEST PUSH2 0x16F1 JUMP JUMPDEST POP CALLVALUE PUSH2 0x172D JUMPI JUMPDEST PUSH2 0x5E7 PUSH2 0x1727 CALLDATASIZE PUSH1 0x4 PUSH2 0x10FE JUMP JUMPDEST SWAP1 PUSH2 0x48E3 JUMP JUMPDEST PUSH2 0x1735 PUSH1 0x0 DUP1 REVERT JUMPDEST PUSH2 0x1719 JUMP JUMPDEST SWAP2 SWAP1 PUSH2 0x3F4 SWAP1 PUSH1 0x40 DUP5 DUP3 SUB SLT PUSH2 0x1755 JUMPI JUMPDEST PUSH2 0x1246 DUP2 DUP6 PUSH2 0x58E JUMP JUMPDEST PUSH2 0x175D PUSH1 0x0 DUP1 REVERT JUMPDEST PUSH2 0x174B JUMP JUMPDEST POP CALLVALUE PUSH2 0x1780 JUMPI JUMPDEST PUSH2 0x438 PUSH2 0x425 PUSH2 0x177A CALLDATASIZE PUSH1 0x4 PUSH2 0x173A JUMP JUMPDEST SWAP1 PUSH2 0x20EA JUMP JUMPDEST PUSH2 0x1788 PUSH1 0x0 DUP1 REVERT JUMPDEST PUSH2 0x1769 JUMP JUMPDEST PUSH1 0x4 GT ISZERO PUSH2 0x78A JUMPI JUMP JUMPDEST SWAP1 PUSH2 0x3DE DUP3 PUSH2 0x178D JUMP JUMPDEST PUSH2 0x3F4 SWAP1 PUSH2 0x1797 JUMP JUMPDEST PUSH2 0x404 SWAP1 PUSH2 0x17A1 JUMP JUMPDEST DUP1 MLOAD DUP3 MSTORE PUSH2 0x3F4 SWAP2 PUSH2 0x140 PUSH2 0x1851 PUSH2 0x160 DUP4 ADD PUSH2 0x17D5 PUSH1 0x20 DUP7 ADD MLOAD PUSH1 0x20 DUP7 ADD MSTORE JUMP JUMPDEST PUSH2 0x17E7 PUSH1 0x40 DUP7 ADD MLOAD PUSH1 0x40 DUP7 ADD SWAP1 PUSH2 0x7A5 JUMP JUMPDEST PUSH2 0x17F9 PUSH1 0x60 DUP7 ADD MLOAD PUSH1 0x60 DUP7 ADD SWAP1 PUSH2 0x17AA JUMP JUMPDEST PUSH1 0x80 DUP6 DUP2 ADD MLOAD PUSH1 0x1 PUSH1 0x1 PUSH1 0xA0 SHL SUB AND SWAP1 DUP6 ADD MSTORE PUSH1 0xA0 DUP6 DUP2 ADD MLOAD PUSH1 0x1 PUSH1 0x1 PUSH1 0xA0 SHL SUB AND SWAP1 DUP6 ADD MSTORE PUSH2 0x182E PUSH1 0xC0 DUP7 ADD MLOAD PUSH1 0xC0 DUP7 ADD MSTORE JUMP JUMPDEST PUSH2 0x183D PUSH1 0xE0 DUP7 ADD MLOAD PUSH1 0xE0 DUP7 ADD MSTORE JUMP JUMPDEST PUSH2 0x100 DUP6 ADD MLOAD DUP5 DUP3 SUB PUSH2 0x100 DUP7 ADD MSTORE PUSH2 0x489 JUMP JUMPDEST PUSH2 0x120 DUP1 DUP6 ADD MLOAD ISZERO ISZERO SWAP1 DUP5 ADD MSTORE SWAP3 ADD MLOAD SWAP1 PUSH2 0x140 DUP2 DUP5 SUB SWAP2 ADD MSTORE PUSH2 0x489 JUMP JUMPDEST SWAP1 PUSH2 0x3F4 SWAP2 PUSH2 0x17B3 JUMP JUMPDEST SWAP1 PUSH2 0x1886 PUSH2 0x908 DUP4 MLOAD SWAP1 JUMP JUMPDEST SWAP1 DUP2 PUSH2 0x1898 PUSH1 0x20 DUP4 MUL DUP5 ADD SWAP5 PUSH1 0x20 ADD SWAP1 JUMP JUMPDEST SWAP3 PUSH1 0x0 SWAP2 JUMPDEST DUP4 DUP4 LT PUSH2 0x18AC JUMPI POP POP POP POP POP SWAP1 JUMP JUMPDEST SWAP1 SWAP2 SWAP3 SWAP4 SWAP5 PUSH1 0x20 PUSH2 0x18C8 PUSH2 0x954 DUP4 DUP6 PUSH1 0x1 SWAP6 SUB DUP8 MSTORE DUP10 MLOAD PUSH2 0x1870 JUMP JUMPDEST SWAP4 ADD SWAP4 ADD SWAP2 SWAP4 SWAP3 SWAP1 PUSH2 0x189D JUMP JUMPDEST PUSH1 0x20 DUP1 DUP3 MSTORE PUSH2 0x3F4 SWAP3 SWAP2 ADD SWAP1 PUSH2 0x187A JUMP JUMPDEST POP CALLVALUE PUSH2 0x190F JUMPI JUMPDEST PUSH2 0x438 PUSH2 0x1903 PUSH2 0x18FE CALLDATASIZE PUSH1 0x4 PUSH2 0x5F9 JUMP JUMPDEST PUSH2 0x5F87 JUMP JUMPDEST PUSH1 0x40 MLOAD SWAP2 DUP3 SWAP2 DUP3 PUSH2 0x18D5 JUMP JUMPDEST PUSH2 0x1917 PUSH1 0x0 DUP1 REVERT JUMPDEST PUSH2 0x18ED JUMP JUMPDEST POP PUSH2 0x5E7 PUSH2 0x192B CALLDATASIZE PUSH1 0x4 PUSH2 0x512 JUMP JUMPDEST PUSH2 0x4CF0 JUMP JUMPDEST POP CALLVALUE PUSH2 0x194A JUMPI JUMPDEST PUSH2 0x5E7 PUSH2 0x1945 CALLDATASIZE PUSH1 0x4 PUSH2 0x5F9 JUMP JUMPDEST PUSH2 0x1B2D JUMP JUMPDEST PUSH2 0x1952 PUSH1 0x0 DUP1 REVERT JUMPDEST PUSH2 0x1937 JUMP JUMPDEST PUSH2 0x3F4 PUSH1 0x0 PUSH1 0x8 PUSH2 0x12B7 JUMP JUMPDEST POP CALLVALUE PUSH2 0x1980 JUMPI JUMPDEST PUSH2 0x1975 CALLDATASIZE PUSH1 0x4 PUSH2 0x449 JUMP JUMPDEST PUSH2 0x438 PUSH2 0x10E0 PUSH2 0x1957 JUMP JUMPDEST PUSH2 0x1988 PUSH1 0x0 DUP1 REVERT JUMPDEST PUSH2 0x196A JUMP JUMPDEST PUSH1 0x20 DUP1 DUP3 MSTORE PUSH2 0x3F4 SWAP3 SWAP2 ADD SWAP1 PUSH2 0x7AE JUMP JUMPDEST POP CALLVALUE PUSH2 0x19C7 JUMPI JUMPDEST PUSH2 0x438 PUSH2 0x19BB PUSH2 0x19B6 CALLDATASIZE PUSH1 0x4 PUSH2 0x512 JUMP JUMPDEST PUSH2 0x60D2 JUMP JUMPDEST PUSH1 0x40 MLOAD SWAP2 DUP3 SWAP2 DUP3 PUSH2 0x198D JUMP JUMPDEST PUSH2 0x19CF PUSH1 0x0 DUP1 REVERT JUMPDEST PUSH2 0x19A5 JUMP JUMPDEST PUSH2 0x19DC PUSH2 0x1A68 JUMP JUMPDEST PUSH2 0x3DE PUSH2 0x19FA JUMP JUMPDEST PUSH2 0x52F PUSH2 0x3F4 PUSH2 0x3F4 SWAP3 SWAP1 JUMP JUMPDEST PUSH2 0x3F4 SWAP1 PUSH2 0x19E4 JUMP JUMPDEST PUSH2 0x3DE PUSH2 0x1A07 PUSH1 0x0 PUSH2 0x19F1 JUMP JUMPDEST PUSH2 0x1B8C JUMP JUMPDEST PUSH2 0x3DE PUSH2 0x19D4 JUMP JUMPDEST ISZERO PUSH2 0x1A1B JUMPI JUMP JUMPDEST PUSH1 0x40 MLOAD PUSH3 0x461BCD PUSH1 0xE5 SHL DUP2 MSTORE DUP1 PUSH2 0x1A64 PUSH1 0x4 DUP3 ADD PUSH1 0x20 DUP1 DUP3 MSTORE DUP2 DUP2 ADD MSTORE PUSH32 0x4F776E61626C653A2063616C6C6572206973206E6F7420746865206F776E6572 PUSH1 0x40 DUP3 ADD MSTORE PUSH1 0x60 ADD SWAP1 JUMP JUMPDEST SUB SWAP1 REVERT JUMPDEST PUSH2 0x3DE PUSH2 0x1A7D PUSH1 0x7 SLOAD PUSH1 0x1 PUSH1 0x1 PUSH1 0xA0 SHL SUB AND SWAP1 JUMP JUMPDEST PUSH2 0x1A96 PUSH2 0x1A89 CALLER PUSH2 0x52F JUMP JUMPDEST SWAP2 PUSH1 0x1 PUSH1 0x1 PUSH1 0xA0 SHL SUB AND SWAP1 JUMP JUMPDEST EQ PUSH2 0x1A14 JUMP JUMPDEST PUSH2 0x3DE SWAP1 PUSH2 0x1AA8 PUSH2 0x1A68 JUMP JUMPDEST PUSH2 0x1B08 JUMP JUMPDEST ISZERO PUSH2 0x1AB4 JUMPI JUMP JUMPDEST PUSH1 0x40 MLOAD PUSH3 0x461BCD PUSH1 0xE5 SHL DUP2 MSTORE PUSH1 0x20 PUSH1 0x4 DUP3 ADD MSTORE PUSH1 0x26 PUSH1 0x24 DUP3 ADD MSTORE PUSH32 0x4F776E61626C653A206E6577206F776E657220697320746865207A65726F2061 PUSH1 0x44 DUP3 ADD MSTORE PUSH6 0x646472657373 PUSH1 0xD0 SHL PUSH1 0x64 DUP3 ADD MSTORE PUSH1 0x84 SWAP1 REVERT JUMPDEST PUSH2 0x3DE SWAP1 PUSH2 0x1A07 PUSH2 0x1B1C PUSH2 0x52F PUSH1 0x0 PUSH2 0x19F1 JUMP JUMPDEST PUSH1 0x1 PUSH1 0x1 PUSH1 0xA0 SHL SUB DUP4 AND EQ ISZERO PUSH2 0x1AAD JUMP JUMPDEST PUSH2 0x3DE SWAP1 PUSH2 0x1A9C JUMP JUMPDEST SWAP1 PUSH1 0x1 PUSH1 0x1 PUSH1 0xA0 SHL SUB SWAP1 JUMPDEST SWAP2 DUP2 NOT AND SWAP2 AND OR SWAP1 JUMP JUMPDEST PUSH2 0x3F4 SWAP1 PUSH2 0x52F SWAP1 PUSH1 0x1 PUSH1 0x1 PUSH1 0xA0 SHL SUB AND DUP3 JUMP JUMPDEST PUSH2 0x3F4 SWAP1 PUSH2 0x1B4B JUMP JUMPDEST PUSH2 0x3F4 SWAP1 PUSH2 0x1B5F JUMP JUMPDEST SWAP1 PUSH2 0x1B81 PUSH2 0x3F4 PUSH2 0x1B88 SWAP3 PUSH2 0x1B68 JUMP JUMPDEST DUP3 SLOAD PUSH2 0x1B36 JUMP JUMPDEST SWAP1 SSTORE JUMP JUMPDEST PUSH1 0x7 SLOAD PUSH1 0x1 PUSH1 0x1 PUSH1 0xA0 SHL SUB AND SWAP1 PUSH2 0x1BA4 DUP2 PUSH1 0x7 PUSH2 0x1B71 JUMP JUMPDEST PUSH2 0x1BD7 PUSH2 0x1BD1 PUSH32 0x8BE0079C531659141344CD1FD0A4F28419497F9722A3DAAFE3B4186F6B6457E0 SWAP4 PUSH2 0x1B68 JUMP JUMPDEST SWAP2 PUSH2 0x1B68 JUMP JUMPDEST SWAP2 PUSH2 0x1BE1 PUSH1 0x40 MLOAD SWAP1 JUMP JUMPDEST DUP1 DUP1 JUMPDEST SUB SWAP1 LOG3 JUMP JUMPDEST PUSH4 0x80AC58CD PUSH1 0xE0 SHL PUSH1 0x1 PUSH1 0x1 PUSH1 0xE0 SHL SUB NOT DUP3 AND EQ SWAP1 DUP2 ISZERO PUSH2 0x1C19 JUMPI JUMPDEST DUP2 ISZERO PUSH2 0x1C0F JUMPI POP SWAP1 JUMP JUMPDEST PUSH2 0x3F4 SWAP2 POP PUSH2 0x26A7 JUMP JUMPDEST PUSH1 0x1 PUSH1 0x1 PUSH1 0xE0 SHL SUB NOT DUP2 AND PUSH4 0x5B5E139F PUSH1 0xE0 SHL EQ SWAP2 POP PUSH2 0x1C05 JUMP JUMPDEST ISZERO PUSH2 0x1C3B JUMPI JUMP JUMPDEST PUSH1 0x40 MLOAD PUSH3 0x461BCD PUSH1 0xE5 SHL DUP2 MSTORE PUSH1 0x20 PUSH1 0x4 DUP3 ADD MSTORE PUSH1 0x29 PUSH1 0x24 DUP3 ADD MSTORE PUSH32 0x4552433732313A2061646472657373207A65726F206973206E6F742061207661 PUSH1 0x44 DUP3 ADD MSTORE PUSH9 0x3634B21037BBB732B9 PUSH1 0xB9 SHL PUSH1 0x64 DUP3 ADD MSTORE PUSH1 0x84 SWAP1 REVERT JUMPDEST SWAP1 PUSH2 0x1C9C SWAP1 PUSH2 0x1B68 JUMP JUMPDEST PUSH1 0x0 MSTORE PUSH1 0x20 MSTORE PUSH1 0x40 PUSH1 0x0 KECCAK256 SWAP1 JUMP JUMPDEST PUSH2 0x3F4 SWAP1 DUP2 JUMP JUMPDEST PUSH2 0x3F4 SWAP1 SLOAD PUSH2 0x1CAA JUMP JUMPDEST PUSH2 0x1CF3 PUSH2 0x3F4 SWAP2 PUSH2 0x1CCA PUSH1 0x0 SWAP1 JUMP JUMPDEST POP PUSH2 0x1CEC PUSH2 0x1CDB PUSH2 0x52F PUSH1 0x0 PUSH2 0x19F1 JUMP JUMPDEST PUSH1 0x1 PUSH1 0x1 PUSH1 0xA0 SHL SUB DUP4 AND EQ ISZERO PUSH2 0x1C34 JUMP JUMPDEST PUSH1 0x3 PUSH2 0x1C92 JUMP JUMPDEST PUSH2 0x1CB1 JUMP JUMPDEST ISZERO PUSH2 0x1CFF JUMPI JUMP JUMPDEST PUSH1 0x40 MLOAD PUSH3 0x461BCD PUSH1 0xE5 SHL DUP2 MSTORE PUSH1 0x20 PUSH1 0x4 DUP3 ADD MSTORE PUSH1 0x18 PUSH1 0x24 DUP3 ADD MSTORE PUSH32 0x4552433732313A20696E76616C696420746F6B656E2049440000000000000000 PUSH1 0x44 DUP3 ADD MSTORE PUSH1 0x64 SWAP1 REVERT JUMPDEST PUSH2 0x1D51 SWAP1 PUSH1 0x0 JUMPDEST POP PUSH2 0x223E JUMP JUMPDEST PUSH2 0x3F4 PUSH2 0x1D61 PUSH2 0x52F PUSH1 0x0 PUSH2 0x19F1 JUMP JUMPDEST PUSH1 0x1 PUSH1 0x1 PUSH1 0xA0 SHL SUB DUP4 AND EQ ISZERO PUSH2 0x1CF8 JUMP JUMPDEST POP PUSH4 0x4E487B71 PUSH1 0xE0 SHL PUSH1 0x0 MSTORE PUSH1 0x22 PUSH1 0x4 MSTORE PUSH1 0x24 PUSH1 0x0 REVERT JUMPDEST SWAP1 PUSH1 0x1 PUSH1 0x2 DUP4 DIV SWAP3 AND DUP1 ISZERO PUSH2 0x1DAC JUMPI JUMPDEST PUSH1 0x20 DUP4 LT EQ PUSH2 0x1DA4 JUMPI JUMP JUMPDEST PUSH2 0x3DE PUSH2 0x1D72 JUMP JUMPDEST SWAP2 PUSH1 0x7F AND SWAP2 PUSH2 0x1D99 JUMP JUMPDEST PUSH1 0x0 MSTORE PUSH1 0x20 PUSH1 0x0 KECCAK256 SWAP1 JUMP JUMPDEST DUP1 SLOAD PUSH1 0x0 SWAP4 SWAP3 SWAP2 PUSH2 0x1DDE PUSH2 0x1DD4 DUP4 PUSH2 0x1D89 JUMP JUMPDEST DUP1 DUP6 MSTORE SWAP4 PUSH1 0x20 ADD SWAP1 JUMP JUMPDEST SWAP2 PUSH1 0x1 DUP2 AND SWAP1 DUP2 ISZERO PUSH2 0x1E30 JUMPI POP PUSH1 0x1 EQ PUSH2 0x1DF7 JUMPI POP POP POP JUMP JUMPDEST PUSH2 0x1E0A SWAP2 SWAP3 SWAP4 SWAP5 POP PUSH1 0x0 MSTORE PUSH1 0x20 PUSH1 0x0 KECCAK256 SWAP1 JUMP JUMPDEST SWAP2 PUSH1 0x0 SWAP3 JUMPDEST DUP2 DUP5 LT PUSH2 0x1E1C JUMPI POP POP ADD SWAP1 JUMP JUMPDEST DUP1 SLOAD DUP5 DUP5 ADD MSTORE PUSH1 0x20 SWAP1 SWAP4 ADD SWAP3 PUSH1 0x1 ADD PUSH2 0x1E0F JUMP JUMPDEST SWAP3 SWAP5 SWAP6 POP POP POP PUSH1 0xFF NOT AND DUP3 MSTORE ISZERO ISZERO PUSH1 0x20 MUL ADD SWAP1 JUMP JUMPDEST SWAP1 PUSH2 0x3F4 SWAP2 PUSH2 0x1DC1 JUMP JUMPDEST SWAP1 PUSH2 0x3DE PUSH2 0x1E69 SWAP3 PUSH2 0x1E60 PUSH1 0x40 MLOAD SWAP1 JUMP JUMPDEST SWAP4 DUP5 DUP1 SWAP3 PUSH2 0x1E45 JUMP JUMPDEST SUB DUP4 PUSH2 0xC68 JUMP JUMPDEST PUSH2 0x3F4 SWAP1 PUSH2 0x1E4F JUMP JUMPDEST PUSH2 0x3F4 PUSH1 0x0 PUSH2 0x1E70 JUMP JUMPDEST PUSH2 0x3F4 PUSH1 0x1 PUSH2 0x1E70 JUMP JUMPDEST PUSH2 0x3F4 PUSH2 0x3F4 PUSH2 0x3F4 SWAP3 SWAP1 JUMP JUMPDEST SWAP1 PUSH2 0x1EA7 PUSH2 0xCEF DUP4 PUSH2 0xCAA JUMP JUMPDEST SWAP2 DUP3 MSTORE JUMP JUMPDEST PUSH2 0x3F4 PUSH1 0x0 PUSH2 0x1E9A JUMP JUMPDEST PUSH2 0x3F4 PUSH2 0x1EAC JUMP JUMPDEST PUSH2 0x4B3 PUSH2 0x1ED6 SWAP3 PUSH1 0x20 SWAP3 PUSH2 0x1ED0 DUP2 MLOAD SWAP1 JUMP JUMPDEST SWAP5 DUP6 SWAP3 SWAP1 JUMP JUMPDEST SWAP4 DUP5 SWAP2 ADD PUSH2 0x45C JUMP JUMPDEST PUSH2 0x1EED SWAP1 PUSH2 0x3F4 SWAP4 SWAP3 PUSH2 0x1EBE JUMP JUMPDEST SWAP1 PUSH2 0x1EBE JUMP JUMPDEST PUSH2 0x1EFC DUP2 PUSH2 0x240E JUMP JUMPDEST PUSH2 0x1F04 PUSH2 0x1F62 JUMP JUMPDEST DUP1 MLOAD PUSH1 0x0 SWAP1 PUSH2 0x1F19 PUSH2 0x1F15 DUP4 PUSH2 0x1E8D JUMP JUMPDEST SWAP2 SWAP1 JUMP JUMPDEST GT ISZERO SWAP1 POP PUSH2 0x1F58 JUMPI PUSH2 0x3F4 PUSH2 0x1F4C SWAP2 PUSH2 0x1F34 PUSH2 0x3F4 SWAP5 PUSH2 0x261B JUMP JUMPDEST SWAP1 PUSH2 0x1F3E PUSH1 0x40 MLOAD SWAP1 JUMP JUMPDEST SWAP4 DUP5 SWAP3 PUSH1 0x20 DUP5 ADD SWAP3 DUP4 PUSH2 0x1EDF JUMP JUMPDEST SWAP1 DUP2 SUB DUP3 MSTORE SUB DUP3 PUSH2 0xC68 JUMP JUMPDEST POP POP PUSH2 0x3F4 PUSH2 0x1EB6 JUMP JUMPDEST PUSH2 0x3F4 PUSH2 0x1EB6 JUMP JUMPDEST ISZERO PUSH2 0x1F71 JUMPI JUMP JUMPDEST PUSH1 0x40 MLOAD PUSH3 0x461BCD PUSH1 0xE5 SHL DUP2 MSTORE PUSH1 0x20 PUSH1 0x4 DUP3 ADD MSTORE PUSH1 0x21 PUSH1 0x24 DUP3 ADD MSTORE PUSH32 0x4552433732313A20617070726F76616C20746F2063757272656E74206F776E65 PUSH1 0x44 DUP3 ADD MSTORE PUSH1 0x39 PUSH1 0xF9 SHL PUSH1 0x64 DUP3 ADD MSTORE PUSH1 0x84 SWAP1 REVERT JUMPDEST ISZERO PUSH2 0x1FC7 JUMPI JUMP JUMPDEST PUSH1 0x40 MLOAD PUSH3 0x461BCD PUSH1 0xE5 SHL DUP2 MSTORE PUSH1 0x20 PUSH1 0x4 DUP3 ADD MSTORE PUSH1 0x3D PUSH1 0x24 DUP3 ADD MSTORE PUSH32 0x4552433732313A20617070726F76652063616C6C6572206973206E6F7420746F PUSH1 0x44 DUP3 ADD MSTORE PUSH32 0x6B656E206F776E6572206F7220617070726F76656420666F7220616C6C000000 PUSH1 0x64 DUP3 ADD MSTORE PUSH1 0x84 SWAP1 REVERT JUMPDEST SWAP1 PUSH2 0x3DE SWAP2 PUSH2 0x207D PUSH2 0x2043 DUP4 PUSH2 0x1D44 JUMP JUMPDEST PUSH2 0x2061 PUSH1 0x1 PUSH1 0x1 PUSH1 0xA0 SHL SUB DUP3 AND PUSH1 0x1 PUSH1 0x1 PUSH1 0xA0 SHL SUB DUP6 AND EQ ISZERO PUSH2 0x1F6A JUMP JUMPDEST CALLER PUSH1 0x1 PUSH1 0x1 PUSH1 0xA0 SHL SUB DUP3 AND DUP2 EQ SWAP2 DUP3 ISZERO PUSH2 0x2082 JUMPI JUMPDEST POP POP PUSH2 0x1FC0 JUMP JUMPDEST PUSH2 0x22BF JUMP JUMPDEST PUSH2 0x208C SWAP3 POP PUSH2 0x20EA JUMP JUMPDEST CODESIZE DUP1 PUSH2 0x2076 JUMP JUMPDEST SWAP1 PUSH2 0x1C9C SWAP1 PUSH2 0x1E8D JUMP JUMPDEST PUSH2 0x20BD PUSH2 0x3F4 SWAP2 PUSH2 0x20AC PUSH1 0x0 SWAP1 JUMP JUMPDEST POP PUSH2 0x20B6 DUP2 PUSH2 0x240E JUMP JUMPDEST PUSH1 0x4 PUSH2 0x2093 JUMP JUMPDEST SLOAD PUSH1 0x1 PUSH1 0x1 PUSH1 0xA0 SHL SUB AND SWAP1 JUMP JUMPDEST PUSH2 0x3DE SWAP2 SWAP1 CALLER PUSH2 0x2398 JUMP JUMPDEST PUSH2 0x3F4 SWAP1 JUMPDEST PUSH1 0xFF AND SWAP1 JUMP JUMPDEST PUSH2 0x3F4 SWAP1 SLOAD PUSH2 0x20D5 JUMP JUMPDEST PUSH2 0x3F4 SWAP2 PUSH2 0x2105 PUSH2 0x210A SWAP3 PUSH2 0x20FD PUSH1 0x0 SWAP1 JUMP JUMPDEST POP PUSH1 0x5 PUSH2 0x1C92 JUMP JUMPDEST PUSH2 0x1C92 JUMP JUMPDEST PUSH2 0x20E0 JUMP JUMPDEST ISZERO PUSH2 0x2116 JUMPI JUMP JUMPDEST PUSH1 0x40 MLOAD PUSH3 0x461BCD PUSH1 0xE5 SHL DUP2 MSTORE PUSH1 0x20 PUSH1 0x4 DUP3 ADD MSTORE PUSH1 0x2D PUSH1 0x24 DUP3 ADD MSTORE PUSH32 0x4552433732313A2063616C6C6572206973206E6F7420746F6B656E206F776E65 PUSH1 0x44 DUP3 ADD MSTORE PUSH13 0x1C881BDC88185C1C1C9BDD9959 PUSH1 0x9A SHL PUSH1 0x64 DUP3 ADD MSTORE PUSH1 0x84 SWAP1 REVERT JUMPDEST PUSH2 0x3DE SWAP3 SWAP2 SWAP1 PUSH2 0x2189 PUSH2 0x2184 DUP5 CALLER PUSH2 0x2255 JUMP JUMPDEST PUSH2 0x210F JUMP JUMPDEST PUSH2 0x28A7 JUMP JUMPDEST SWAP1 SWAP2 PUSH2 0x3DE SWAP3 PUSH2 0x219C PUSH2 0x1EB6 JUMP JUMPDEST SWAP3 JUMPDEST PUSH2 0x3DE SWAP4 SWAP3 SWAP2 SWAP1 PUSH2 0x21B2 PUSH2 0x2184 DUP5 CALLER PUSH2 0x2255 JUMP JUMPDEST PUSH2 0x221F JUMP JUMPDEST ISZERO PUSH2 0x21BE JUMPI JUMP JUMPDEST PUSH1 0x40 MLOAD JUMPDEST PUSH3 0x461BCD PUSH1 0xE5 SHL DUP2 MSTORE PUSH1 0x20 PUSH1 0x4 DUP3 ADD MSTORE PUSH1 0x32 PUSH1 0x24 DUP3 ADD MSTORE PUSH32 0x4552433732313A207472616E7366657220746F206E6F6E204552433732315265 PUSH1 0x44 DUP3 ADD MSTORE PUSH18 0x31B2B4BB32B91034B6B83632B6B2B73A32B9 PUSH1 0x71 SHL PUSH1 0x64 DUP3 ADD MSTORE PUSH1 0x84 SWAP1 REVERT JUMPDEST SWAP2 PUSH2 0x3DE SWAP4 SWAP2 PUSH2 0x2239 SWAP4 PUSH2 0x2234 DUP4 DUP4 DUP4 PUSH2 0x28A7 JUMP JUMPDEST PUSH2 0x24C6 JUMP JUMPDEST PUSH2 0x21B7 JUMP JUMPDEST PUSH2 0x20BD PUSH2 0x3F4 SWAP2 PUSH2 0x224D PUSH1 0x0 SWAP1 JUMP JUMPDEST POP PUSH1 0x2 PUSH2 0x2093 JUMP JUMPDEST PUSH2 0x225E DUP3 PUSH2 0x1D44 JUMP JUMPDEST SWAP2 PUSH1 0x1 PUSH1 0x1 PUSH1 0xA0 SHL SUB DUP4 AND PUSH1 0x1 PUSH1 0x1 PUSH1 0xA0 SHL SUB DUP4 AND EQ SWAP3 DUP4 ISZERO PUSH2 0x22AB JUMPI JUMPDEST POP DUP3 ISZERO PUSH2 0x2288 JUMPI POP POP SWAP1 JUMP JUMPDEST PUSH2 0x22A7 SWAP2 SWAP3 POP PUSH2 0x229A PUSH2 0x1A89 SWAP2 PUSH2 0x209D JUMP JUMPDEST SWAP3 PUSH1 0x1 PUSH1 0x1 PUSH1 0xA0 SHL SUB AND SWAP1 JUMP JUMPDEST EQ SWAP1 JUMP JUMPDEST PUSH2 0x22B8 SWAP2 SWAP4 POP DUP3 SWAP1 PUSH2 0x20EA JUMP JUMPDEST SWAP2 CODESIZE PUSH2 0x227C JUMP JUMPDEST SWAP1 PUSH2 0x22D4 DUP3 PUSH2 0x22CF DUP4 PUSH1 0x4 PUSH2 0x2093 JUMP JUMPDEST PUSH2 0x1B71 JUMP JUMPDEST PUSH2 0x22DD DUP2 PUSH2 0x1D44 JUMP JUMPDEST SWAP2 PUSH2 0x231A PUSH2 0x2314 PUSH2 0x230E PUSH32 0x8C5BE1E5EBEC7D5BD14F71427D1E84F3DD0314C0F7B2291E5B200AC8C7C3B925 SWAP6 PUSH2 0x1B68 JUMP JUMPDEST SWAP3 PUSH2 0x1B68 JUMP JUMPDEST SWAP3 PUSH2 0x1E8D JUMP JUMPDEST SWAP3 PUSH2 0x2324 PUSH1 0x40 MLOAD SWAP1 JUMP JUMPDEST DUP1 DUP1 JUMPDEST SUB SWAP1 LOG4 JUMP JUMPDEST ISZERO PUSH2 0x2333 JUMPI JUMP JUMPDEST PUSH1 0x40 MLOAD PUSH3 0x461BCD PUSH1 0xE5 SHL DUP2 MSTORE PUSH1 0x20 PUSH1 0x4 DUP3 ADD MSTORE PUSH1 0x19 PUSH1 0x24 DUP3 ADD MSTORE PUSH32 0x4552433732313A20617070726F766520746F2063616C6C657200000000000000 PUSH1 0x44 DUP3 ADD MSTORE PUSH1 0x64 SWAP1 REVERT JUMPDEST SWAP1 PUSH1 0xFF SWAP1 PUSH2 0x1B41 JUMP JUMPDEST SWAP1 PUSH2 0x2391 PUSH2 0x3F4 PUSH2 0x1B88 SWAP3 ISZERO ISZERO SWAP1 JUMP JUMPDEST DUP3 SLOAD PUSH2 0x2378 JUMP JUMPDEST PUSH2 0x23B6 PUSH1 0x1 PUSH1 0x1 PUSH1 0xA0 SHL SUB DUP4 AND PUSH1 0x1 PUSH1 0x1 PUSH1 0xA0 SHL SUB DUP4 AND EQ ISZERO PUSH2 0x232C JUMP JUMPDEST PUSH2 0x23CE DUP4 PUSH2 0x23C9 DUP5 PUSH2 0x2105 DUP6 PUSH1 0x5 PUSH2 0x1C92 JUMP JUMPDEST PUSH2 0x2381 JUMP JUMPDEST PUSH2 0x1BE4 PUSH2 0x2404 PUSH2 0x23FE PUSH32 0x17307EAB39AB6107E8899845AD3D59BD9653F200F220920489CA2B5937696C31 SWAP4 PUSH2 0x1B68 JUMP JUMPDEST SWAP4 PUSH2 0x1B68 JUMP JUMPDEST SWAP4 PUSH2 0x429 PUSH1 0x40 MLOAD SWAP1 JUMP JUMPDEST PUSH2 0x241A PUSH2 0x3DE SWAP2 PUSH2 0x241F JUMP JUMPDEST PUSH2 0x1CF8 JUMP JUMPDEST PUSH2 0x242A SWAP1 PUSH1 0x0 PUSH2 0x1D4B JUMP JUMPDEST PUSH2 0x243A PUSH2 0x1A89 PUSH2 0x52F PUSH1 0x0 PUSH2 0x19F1 JUMP JUMPDEST EQ ISZERO SWAP1 JUMP JUMPDEST SWAP1 POP MLOAD SWAP1 PUSH2 0x3DE DUP3 PUSH2 0x3BE JUMP JUMPDEST SWAP1 PUSH2 0x3F4 SWAP2 PUSH1 0x20 DUP2 DUP4 SUB SLT ISZERO PUSH2 0x243F JUMPI PUSH2 0x2464 PUSH1 0x0 DUP1 REVERT JUMPDEST PUSH2 0x243F JUMP JUMPDEST PUSH1 0x1 PUSH1 0x1 PUSH1 0xA0 SHL SUB SWAP2 DUP3 AND DUP2 MSTORE SWAP2 AND PUSH1 0x20 DUP3 ADD MSTORE PUSH1 0x40 DUP2 ADD SWAP2 SWAP1 SWAP2 MSTORE PUSH1 0x80 PUSH1 0x60 DUP3 ADD DUP2 SWAP1 MSTORE PUSH2 0x3F4 SWAP3 SWAP2 ADD SWAP1 PUSH2 0x489 JUMP JUMPDEST POP PUSH1 0x40 MLOAD RETURNDATASIZE PUSH1 0x0 DUP3 RETURNDATACOPY RETURNDATASIZE SWAP1 REVERT JUMPDEST RETURNDATASIZE ISZERO PUSH2 0x24C1 JUMPI PUSH2 0x24B6 RETURNDATASIZE PUSH2 0x1E9A JUMP JUMPDEST SWAP1 RETURNDATASIZE PUSH1 0x0 PUSH1 0x20 DUP5 ADD RETURNDATACOPY JUMP JUMPDEST PUSH1 0x60 SWAP1 JUMP JUMPDEST SWAP3 SWAP1 SWAP2 SWAP1 PUSH2 0x24D3 DUP4 PUSH2 0x25B4 JUMP JUMPDEST ISZERO PUSH2 0x25AB JUMPI PUSH2 0x2518 PUSH1 0x0 PUSH2 0x24F0 PUSH2 0x24EB PUSH1 0x20 SWAP7 PUSH2 0x1B68 JUMP JUMPDEST PUSH2 0x1B68 JUMP JUMPDEST SWAP3 PUSH2 0x2523 PUSH4 0x150B7A02 SWAP2 PUSH2 0x2501 CALLER SWAP1 JUMP JUMPDEST SWAP7 PUSH2 0x250B PUSH1 0x40 MLOAD SWAP1 JUMP JUMPDEST SWAP10 DUP11 SWAP9 DUP10 SWAP8 DUP9 SWAP7 PUSH1 0xE0 SHL SWAP1 JUMP JUMPDEST DUP7 MSTORE PUSH1 0x4 DUP7 ADD PUSH2 0x2469 JUMP JUMPDEST SUB SWAP3 GAS CALL PUSH1 0x0 SWAP2 DUP2 PUSH2 0x257B JUMPI JUMPDEST POP PUSH2 0x2561 JUMPI PUSH2 0x253D PUSH2 0x24A7 JUMP JUMPDEST DUP1 MLOAD PUSH2 0x254C PUSH2 0x1F15 PUSH1 0x0 PUSH2 0x1E8D JUMP JUMPDEST SUB PUSH2 0x2559 JUMPI PUSH1 0x40 MLOAD PUSH2 0x21C2 JUMP JUMPDEST DUP1 MLOAD SWAP1 PUSH1 0x20 ADD REVERT JUMPDEST PUSH2 0x22A7 PUSH4 0xA85BD01 PUSH1 0xE1 SHL JUMPDEST SWAP2 PUSH1 0x1 PUSH1 0x1 PUSH1 0xE0 SHL SUB NOT AND SWAP1 JUMP JUMPDEST PUSH2 0x259D SWAP2 SWAP3 POP PUSH1 0x20 RETURNDATASIZE DUP2 GT PUSH2 0x25A4 JUMPI JUMPDEST PUSH2 0x2595 DUP2 DUP4 PUSH2 0xC68 JUMP JUMPDEST DUP2 ADD SWAP1 PUSH2 0x244C JUMP JUMPDEST SWAP1 CODESIZE PUSH2 0x2530 JUMP JUMPDEST POP RETURNDATASIZE PUSH2 0x258B JUMP JUMPDEST POP POP POP POP PUSH1 0x1 SWAP1 JUMP JUMPDEST EXTCODESIZE PUSH2 0x25C2 PUSH2 0x1F15 PUSH1 0x0 PUSH2 0x1E8D JUMP JUMPDEST GT SWAP1 JUMP JUMPDEST CALLDATASIZE SWAP1 CALLDATACOPY JUMP JUMPDEST SWAP1 PUSH2 0x3DE PUSH2 0x25E1 PUSH2 0x25DB DUP5 PUSH2 0x1E9A JUMP JUMPDEST SWAP4 PUSH2 0xCAA JUMP JUMPDEST PUSH1 0x1F NOT ADD PUSH1 0x20 DUP5 ADD PUSH2 0x25C6 JUMP JUMPDEST POP PUSH4 0x4E487B71 PUSH1 0xE0 SHL PUSH1 0x0 MSTORE PUSH1 0x12 PUSH1 0x4 MSTORE PUSH1 0x24 PUSH1 0x0 REVERT JUMPDEST DUP2 ISZERO PUSH2 0x260F JUMPI DIV SWAP1 JUMP JUMPDEST PUSH2 0x2617 PUSH2 0x25EE JUMP JUMPDEST DIV SWAP1 JUMP JUMPDEST PUSH2 0x2624 DUP2 PUSH2 0x26B7 JUMP JUMPDEST SWAP1 PUSH2 0x2634 PUSH1 0x1 SWAP3 PUSH2 0x4B3 DUP5 PUSH2 0x1E8D JUMP JUMPDEST SWAP2 DUP1 PUSH2 0x263F DUP5 PUSH2 0x25CB JUMP JUMPDEST SWAP4 PUSH1 0x20 ADD DUP5 ADD SWAP1 JUMPDEST PUSH2 0x2652 JUMPI JUMPDEST POP POP POP SWAP1 JUMP JUMPDEST PUSH2 0x2686 SWAP1 PUSH1 0x0 NOT ADD SWAP3 PUSH16 0x181899199A1A9B1B9C1CB0B131B232B3 PUSH1 0x81 SHL PUSH1 0xA DUP3 MOD BYTE DUP5 MSTORE8 PUSH2 0x2680 PUSH1 0xA PUSH2 0x1E8D JUMP JUMPDEST SWAP1 PUSH2 0x2605 JUMP JUMPDEST SWAP1 DUP2 PUSH2 0x2695 PUSH2 0x1F15 PUSH1 0x0 PUSH2 0x1E8D JUMP JUMPDEST EQ PUSH2 0x26A2 JUMPI SWAP1 SWAP2 DUP2 PUSH2 0x2647 JUMP JUMPDEST PUSH2 0x264C JUMP JUMPDEST PUSH2 0x22A7 PUSH4 0x1FFC9A7 PUSH1 0xE0 SHL PUSH2 0x256D JUMP JUMPDEST PUSH2 0x26C1 PUSH1 0x0 PUSH2 0x1E8D JUMP JUMPDEST SWAP1 PUSH27 0x184F03E93FF9F4DAA797ED6E38ED64BF6A1F010000000000000000 PUSH2 0x26E7 DUP2 PUSH2 0x1E8D JUMP JUMPDEST DUP3 LT ISZERO PUSH2 0x2839 JUMPI JUMPDEST POP PUSH14 0x4EE2D6D415B85ACEF8100000000 PUSH2 0x2708 DUP2 PUSH2 0x1E8D JUMP JUMPDEST DUP3 LT ISZERO PUSH2 0x2817 JUMPI JUMPDEST POP PUSH7 0x2386F26FC10000 PUSH2 0x2722 DUP2 PUSH2 0x1E8D JUMP JUMPDEST DUP3 LT ISZERO PUSH2 0x27F5 JUMPI JUMPDEST POP PUSH4 0x5F5E100 PUSH2 0x2739 DUP2 PUSH2 0x1E8D JUMP JUMPDEST DUP3 LT ISZERO PUSH2 0x27D3 JUMPI JUMPDEST POP PUSH2 0x2710 PUSH2 0x274E DUP2 PUSH2 0x1E8D JUMP JUMPDEST DUP3 LT ISZERO PUSH2 0x27B1 JUMPI JUMPDEST POP PUSH1 0x64 PUSH2 0x2762 DUP2 PUSH2 0x1E8D JUMP JUMPDEST DUP3 LT ISZERO PUSH2 0x278F JUMPI JUMPDEST POP PUSH2 0x2778 PUSH2 0x1F15 PUSH1 0xA PUSH2 0x1E8D JUMP JUMPDEST LT ISZERO PUSH2 0x2781 JUMPI SWAP1 JUMP JUMPDEST PUSH2 0x3F4 SWAP1 PUSH2 0x4B3 PUSH1 0x1 PUSH2 0x1E8D JUMP JUMPDEST PUSH2 0x27AA SWAP2 PUSH2 0x2680 PUSH2 0x279F SWAP3 PUSH2 0x1E8D JUMP JUMPDEST SWAP2 PUSH2 0x4B3 PUSH1 0x2 PUSH2 0x1E8D JUMP JUMPDEST SWAP1 CODESIZE PUSH2 0x276A JUMP JUMPDEST PUSH2 0x27CC SWAP2 PUSH2 0x2680 PUSH2 0x27C1 SWAP3 PUSH2 0x1E8D JUMP JUMPDEST SWAP2 PUSH2 0x4B3 PUSH1 0x4 PUSH2 0x1E8D JUMP JUMPDEST SWAP1 CODESIZE PUSH2 0x2756 JUMP JUMPDEST PUSH2 0x27EE SWAP2 PUSH2 0x2680 PUSH2 0x27E3 SWAP3 PUSH2 0x1E8D JUMP JUMPDEST SWAP2 PUSH2 0x4B3 PUSH1 0x8 PUSH2 0x1E8D JUMP JUMPDEST SWAP1 CODESIZE PUSH2 0x2741 JUMP JUMPDEST PUSH2 0x2810 SWAP2 PUSH2 0x2680 PUSH2 0x2805 SWAP3 PUSH2 0x1E8D JUMP JUMPDEST SWAP2 PUSH2 0x4B3 PUSH1 0x10 PUSH2 0x1E8D JUMP JUMPDEST SWAP1 CODESIZE PUSH2 0x272A JUMP JUMPDEST PUSH2 0x2832 SWAP2 PUSH2 0x2680 PUSH2 0x2827 SWAP3 PUSH2 0x1E8D JUMP JUMPDEST SWAP2 PUSH2 0x4B3 PUSH1 0x20 PUSH2 0x1E8D JUMP JUMPDEST SWAP1 CODESIZE PUSH2 0x2710 JUMP JUMPDEST PUSH2 0x2854 SWAP2 PUSH2 0x2680 PUSH2 0x2849 SWAP3 PUSH2 0x1E8D JUMP JUMPDEST SWAP2 PUSH2 0x4B3 PUSH1 0x40 PUSH2 0x1E8D JUMP JUMPDEST SWAP1 CODESIZE PUSH2 0x26EF JUMP JUMPDEST ISZERO PUSH2 0x2862 JUMPI JUMP JUMPDEST PUSH1 0x40 MLOAD PUSH3 0x461BCD PUSH1 0xE5 SHL DUP2 MSTORE PUSH1 0x20 PUSH1 0x4 DUP3 ADD MSTORE PUSH1 0x1C PUSH1 0x24 DUP3 ADD MSTORE PUSH32 0x43616E6E6F74207472616E73666572207768696C652072656E74656400000000 PUSH1 0x44 DUP3 ADD MSTORE PUSH1 0x64 SWAP1 REVERT JUMPDEST PUSH2 0x2905 PUSH1 0x2 PUSH2 0x28FF DUP6 PUSH1 0xB PUSH2 0x28D9 PUSH2 0x28D4 PUSH2 0x28D0 PUSH1 0x6 PUSH1 0xF PUSH2 0x28C9 DUP8 DUP8 PUSH2 0x2093 JUMP JUMPDEST ADD ADD PUSH2 0x20E0 JUMP JUMPDEST ISZERO SWAP1 JUMP JUMPDEST PUSH2 0x285B JUMP JUMPDEST PUSH2 0x28E4 DUP3 DUP9 DUP9 PUSH2 0x2A5E JUMP JUMPDEST PUSH2 0x28FA DUP8 PUSH1 0x1 PUSH2 0x28F4 DUP6 DUP6 PUSH2 0x2093 JUMP JUMPDEST ADD PUSH2 0x1B71 JUMP JUMPDEST PUSH2 0x2093 JUMP JUMPDEST ADD PUSH2 0x1CB1 JUMP JUMPDEST SWAP3 PUSH2 0x2327 PUSH2 0x293F PUSH2 0x2939 PUSH2 0x2939 PUSH32 0x795A7CD0147DDD0AF2300C79DD7F62F6E26226534DB92EAB141CD37D3F492866 SWAP5 PUSH2 0x1E8D JUMP JUMPDEST SWAP5 PUSH2 0x1B68 JUMP JUMPDEST SWAP5 PUSH2 0x10E4 PUSH1 0x40 MLOAD SWAP1 JUMP JUMPDEST ISZERO PUSH2 0x2950 JUMPI JUMP JUMPDEST PUSH1 0x40 MLOAD PUSH3 0x461BCD PUSH1 0xE5 SHL DUP2 MSTORE PUSH1 0x20 PUSH1 0x4 DUP3 ADD MSTORE PUSH1 0x25 PUSH1 0x24 DUP3 ADD MSTORE PUSH32 0x4552433732313A207472616E736665722066726F6D20696E636F727265637420 PUSH1 0x44 DUP3 ADD MSTORE PUSH5 0x37BBB732B9 PUSH1 0xD9 SHL PUSH1 0x64 DUP3 ADD MSTORE PUSH1 0x84 SWAP1 REVERT JUMPDEST ISZERO PUSH2 0x29AA JUMPI JUMP JUMPDEST PUSH1 0x40 MLOAD PUSH3 0x461BCD PUSH1 0xE5 SHL DUP2 MSTORE PUSH1 0x20 PUSH1 0x4 DUP3 ADD MSTORE PUSH1 0x24 DUP1 DUP3 ADD MSTORE PUSH32 0x4552433732313A207472616E7366657220746F20746865207A65726F20616464 PUSH1 0x44 DUP3 ADD MSTORE PUSH4 0x72657373 PUSH1 0xE0 SHL PUSH1 0x64 DUP3 ADD MSTORE PUSH1 0x84 SWAP1 REVERT JUMPDEST SWAP2 PUSH1 0x1 PUSH1 0x1 PUSH1 0xA0 SHL SUB PUSH1 0x8 SWAP3 SWAP1 SWAP3 MUL SWAP2 DUP3 SHL SWAP2 SHL PUSH2 0x1B41 JUMP JUMPDEST SWAP2 SWAP1 PUSH2 0x2A25 PUSH2 0x3F4 PUSH2 0x1B88 SWAP4 PUSH2 0x1B68 JUMP JUMPDEST SWAP1 DUP4 SLOAD PUSH2 0x29FB JUMP JUMPDEST PUSH2 0x3DE SWAP2 PUSH1 0x0 SWAP2 PUSH2 0x2A14 JUMP JUMPDEST SUB SWAP1 JUMP JUMPDEST SWAP1 PUSH1 0x0 NOT SWAP1 PUSH2 0x1B41 JUMP JUMPDEST SWAP1 PUSH2 0x2A57 PUSH2 0x3F4 PUSH2 0x1B88 SWAP3 PUSH2 0x1E8D JUMP JUMPDEST DUP3 SLOAD PUSH2 0x2A3D JUMP JUMPDEST SWAP2 SWAP1 PUSH2 0x2A84 PUSH2 0x2A6C DUP4 PUSH2 0x1D44 JUMP JUMPDEST PUSH2 0x2A7E PUSH1 0x1 PUSH1 0x1 PUSH1 0xA0 SHL SUB DUP7 AND PUSH2 0x1A89 JUMP JUMPDEST EQ PUSH2 0x2949 JUMP JUMPDEST PUSH2 0x2AD7 PUSH1 0x0 PUSH2 0x2AA9 PUSH2 0x2A98 PUSH2 0x52F DUP4 PUSH2 0x19F1 JUMP JUMPDEST PUSH1 0x1 PUSH1 0x1 PUSH1 0xA0 SHL SUB DUP6 AND EQ ISZERO PUSH2 0x29A3 JUMP JUMPDEST PUSH2 0x2AC7 PUSH2 0x2AB5 DUP6 PUSH2 0x1D44 JUMP JUMPDEST PUSH2 0x2A7E PUSH1 0x1 PUSH1 0x1 PUSH1 0xA0 SHL SUB DUP9 AND PUSH2 0x1A89 JUMP JUMPDEST PUSH2 0x2AD2 DUP5 PUSH1 0x4 PUSH2 0x2093 JUMP JUMPDEST PUSH2 0x2A2D JUMP JUMPDEST PUSH2 0x2B17 PUSH2 0x2AE4 PUSH1 0x1 PUSH2 0x1E8D JUMP JUMPDEST PUSH2 0x2B07 PUSH2 0x2B0D DUP5 PUSH1 0x3 PUSH2 0x2105 PUSH2 0x2AFA DUP11 DUP4 PUSH2 0x1C92 JUMP JUMPDEST PUSH2 0x2B07 DUP8 PUSH2 0x2A39 DUP4 PUSH2 0x1CB1 JUMP JUMPDEST SWAP1 PUSH2 0x2A47 JUMP JUMPDEST SWAP2 PUSH2 0x4B3 DUP4 PUSH2 0x1CB1 JUMP JUMPDEST PUSH2 0x2B26 DUP2 PUSH2 0x22CF DUP5 PUSH1 0x2 PUSH2 0x2093 JUMP JUMPDEST PUSH2 0x231A PUSH2 0x2314 PUSH2 0x230E PUSH32 0xDDF252AD1BE2C89B69C2B068FC378DAA952BA7F163C4A11628F55A4DF523B3EF SWAP6 PUSH2 0x1B68 JUMP JUMPDEST PUSH2 0x3F4 PUSH2 0x140 PUSH2 0xC96 JUMP JUMPDEST PUSH2 0x3F4 PUSH2 0x180 PUSH2 0xC96 JUMP JUMPDEST PUSH2 0x2B74 PUSH2 0x2B61 JUMP JUMPDEST SWAP1 PUSH1 0x60 DUP3 MSTORE PUSH1 0x20 DUP1 DUP1 DUP1 DUP1 DUP1 DUP1 DUP1 DUP1 DUP1 DUP1 DUP1 DUP14 ADD PUSH1 0x60 DUP2 MSTORE ADD PUSH1 0x60 DUP2 MSTORE ADD PUSH1 0x60 DUP2 MSTORE ADD PUSH1 0x60 DUP2 MSTORE ADD PUSH1 0x60 DUP2 MSTORE ADD PUSH1 0x60 DUP2 MSTORE ADD PUSH1 0x0 DUP2 MSTORE ADD PUSH1 0x0 DUP2 MSTORE ADD PUSH1 0x0 DUP2 MSTORE ADD PUSH1 0x60 JUMPDEST DUP2 MSTORE ADD PUSH1 0x0 SWAP1 MSTORE POP JUMP JUMPDEST PUSH2 0x3F4 PUSH2 0x2B6C JUMP JUMPDEST PUSH2 0x3F4 PUSH2 0x240 PUSH2 0xC96 JUMP JUMPDEST PUSH2 0x2BDD PUSH2 0x2BCA JUMP JUMPDEST SWAP1 PUSH1 0x60 DUP3 MSTORE PUSH1 0x20 DUP3 ADD PUSH1 0x60 DUP2 MSTORE PUSH1 0x20 ADD PUSH1 0x60 DUP2 MSTORE PUSH1 0x20 ADD PUSH1 0x60 DUP2 MSTORE PUSH1 0x20 ADD PUSH1 0x0 DUP2 MSTORE PUSH1 0x20 ADD PUSH1 0x0 DUP2 MSTORE PUSH1 0x20 ADD PUSH1 0x0 DUP2 MSTORE PUSH1 0x20 ADD PUSH1 0x0 DUP2 MSTORE PUSH1 0x20 ADD PUSH1 0x0 DUP2 MSTORE PUSH1 0x20 ADD PUSH1 0x0 DUP2 MSTORE PUSH1 0x20 ADD PUSH1 0x0 DUP2 MSTORE PUSH1 0x20 ADD PUSH1 0x0 DUP2 MSTORE PUSH1 0x20 ADD PUSH1 0x60 DUP2 MSTORE PUSH1 0x20 ADD PUSH1 0x0 DUP2 MSTORE PUSH1 0x20 ADD PUSH1 0x0 DUP2 MSTORE PUSH1 0x20 ADD PUSH1 0x0 DUP2 MSTORE PUSH1 0x20 ADD PUSH1 0x60 DUP2 MSTORE PUSH1 0x20 ADD PUSH1 0x0 SWAP1 MSTORE JUMP JUMPDEST PUSH2 0x3F4 PUSH2 0x2BD5 JUMP JUMPDEST PUSH2 0x2C6C PUSH2 0x2B56 JUMP JUMPDEST SWAP1 PUSH1 0x0 DUP3 MSTORE PUSH1 0x20 DUP1 DUP1 DUP1 DUP1 DUP1 DUP1 DUP1 DUP1 DUP1 DUP12 ADD PUSH1 0x0 DUP2 MSTORE ADD PUSH1 0x0 DUP2 MSTORE ADD PUSH2 0x2C90 PUSH2 0x2BC2 JUMP JUMPDEST DUP2 MSTORE ADD PUSH2 0x2C9B PUSH2 0x2C5C JUMP JUMPDEST DUP2 MSTORE ADD PUSH1 0x60 DUP2 MSTORE ADD PUSH1 0x60 DUP2 MSTORE ADD PUSH1 0x0 DUP2 MSTORE ADD PUSH1 0x0 PUSH2 0x2BB8 JUMP JUMPDEST PUSH2 0x3F4 PUSH2 0x2C64 JUMP JUMPDEST SWAP1 PUSH2 0x404 SWAP1 PUSH2 0x792 JUMP JUMPDEST SWAP1 PUSH2 0x3DE PUSH2 0x2DCF PUSH1 0xB PUSH2 0x2CD7 PUSH2 0x2B61 JUMP JUMPDEST SWAP5 PUSH2 0x2CE8 PUSH2 0x2CE4 DUP3 PUSH2 0x1E4F JUMP JUMPDEST DUP8 MSTORE JUMP JUMPDEST PUSH2 0x2CFE PUSH2 0x2CF7 PUSH1 0x1 DUP4 ADD PUSH2 0x1E4F JUMP JUMPDEST PUSH1 0x20 DUP9 ADD MSTORE JUMP JUMPDEST PUSH2 0x2D14 PUSH2 0x2D0D PUSH1 0x2 DUP4 ADD PUSH2 0x1E4F JUMP JUMPDEST PUSH1 0x40 DUP9 ADD MSTORE JUMP JUMPDEST PUSH2 0x2D2A PUSH2 0x2D23 PUSH1 0x3 DUP4 ADD PUSH2 0x1E4F JUMP JUMPDEST PUSH1 0x60 DUP9 ADD MSTORE JUMP JUMPDEST PUSH2 0x2D40 PUSH2 0x2D39 PUSH1 0x4 DUP4 ADD PUSH2 0x1E4F JUMP JUMPDEST PUSH1 0x80 DUP9 ADD MSTORE JUMP JUMPDEST PUSH2 0x2D56 PUSH2 0x2D4F PUSH1 0x5 DUP4 ADD PUSH2 0x1E4F JUMP JUMPDEST PUSH1 0xA0 DUP9 ADD MSTORE JUMP JUMPDEST PUSH2 0x2D6C PUSH2 0x2D65 PUSH1 0x6 DUP4 ADD PUSH2 0x1E4F JUMP JUMPDEST PUSH1 0xC0 DUP9 ADD MSTORE JUMP JUMPDEST PUSH2 0x2D84 PUSH2 0x2D7B PUSH1 0x7 DUP4 ADD PUSH2 0x20E0 JUMP JUMPDEST PUSH1 0xE0 DUP9 ADD PUSH2 0x2CBC JUMP JUMPDEST PUSH2 0x2D9B PUSH2 0x2D93 PUSH1 0x8 DUP4 ADD PUSH2 0x1CB1 JUMP JUMPDEST PUSH2 0x100 DUP9 ADD MSTORE JUMP JUMPDEST PUSH2 0x2DB2 PUSH2 0x2DAA PUSH1 0x9 DUP4 ADD PUSH2 0x1CB1 JUMP JUMPDEST PUSH2 0x120 DUP9 ADD MSTORE JUMP JUMPDEST PUSH2 0x2DC9 PUSH2 0x2DC1 PUSH1 0xA DUP4 ADD PUSH2 0x1E4F JUMP JUMPDEST PUSH2 0x140 DUP9 ADD MSTORE JUMP JUMPDEST ADD PUSH2 0x20E0 JUMP JUMPDEST ISZERO ISZERO PUSH2 0x160 DUP5 ADD MSTORE JUMP JUMPDEST PUSH2 0x3F4 SWAP1 PUSH1 0x8 SHR PUSH2 0x20DA JUMP JUMPDEST PUSH2 0x3F4 SWAP1 SLOAD PUSH2 0x2DD9 JUMP JUMPDEST PUSH2 0x3F4 SWAP1 PUSH1 0x10 SHR PUSH2 0x20DA JUMP JUMPDEST PUSH2 0x3F4 SWAP1 SLOAD PUSH2 0x2DEF JUMP JUMPDEST SWAP1 PUSH2 0x404 SWAP1 PUSH2 0x8B0 JUMP JUMPDEST PUSH2 0x3F4 SWAP1 PUSH1 0x8 SHR PUSH2 0x52F JUMP JUMPDEST PUSH2 0x3F4 SWAP1 SLOAD PUSH2 0x2E0F JUMP JUMPDEST SWAP1 PUSH2 0x2E40 PUSH2 0x2E34 PUSH2 0x625 DUP5 SLOAD SWAP1 JUMP JUMPDEST SWAP3 PUSH1 0x0 MSTORE PUSH1 0x20 PUSH1 0x0 KECCAK256 SWAP1 JUMP JUMPDEST SWAP1 PUSH1 0x0 JUMPDEST DUP2 DUP2 LT PUSH2 0x2E51 JUMPI POP POP POP SWAP1 JUMP JUMPDEST SWAP1 SWAP2 SWAP3 PUSH2 0x2E75 PUSH2 0x2E6E PUSH1 0x1 SWAP3 PUSH2 0x2E66 DUP8 PUSH2 0x1CB1 JUMP JUMPDEST DUP2 MSTORE PUSH1 0x20 ADD SWAP1 JUMP JUMPDEST SWAP5 PUSH1 0x1 ADD SWAP1 JUMP JUMPDEST SWAP3 SWAP2 ADD PUSH2 0x2E44 JUMP JUMPDEST SWAP1 PUSH2 0x3F4 SWAP2 PUSH2 0x2E25 JUMP JUMPDEST SWAP1 PUSH2 0x3DE PUSH2 0x1E69 SWAP3 PUSH2 0x2E98 PUSH1 0x40 MLOAD SWAP1 JUMP JUMPDEST SWAP4 DUP5 DUP1 SWAP3 PUSH2 0x2E7D JUMP JUMPDEST SWAP1 PUSH2 0x404 SWAP1 PUSH2 0x8D6 JUMP JUMPDEST PUSH1 0x20 DUP1 SWAP2 PUSH1 0x1 PUSH1 0x1 PUSH1 0x40 SHL SUB DUP2 GT PUSH2 0x2EC2 JUMPI MUL ADD SWAP1 JUMP JUMPDEST PUSH2 0x2ECA PUSH2 0xC51 JUMP JUMPDEST MUL ADD SWAP1 JUMP JUMPDEST SWAP1 PUSH2 0x1EA7 PUSH2 0xCEF DUP4 PUSH2 0x2EAB JUMP JUMPDEST SWAP1 PUSH2 0x2EE5 DUP3 SLOAD SWAP1 JUMP JUMPDEST PUSH2 0x2EEE DUP2 PUSH2 0x2ECF JUMP JUMPDEST SWAP3 PUSH2 0x2F02 PUSH1 0x20 DUP6 ADD SWAP2 PUSH1 0x0 MSTORE PUSH1 0x20 PUSH1 0x0 KECCAK256 SWAP1 JUMP JUMPDEST PUSH1 0x0 SWAP2 JUMPDEST DUP4 DUP4 LT PUSH2 0x2F13 JUMPI POP POP POP POP JUMP JUMPDEST PUSH1 0x1 PUSH1 0x20 DUP2 SWAP3 PUSH2 0x2F22 DUP6 PUSH2 0x1E70 JUMP JUMPDEST DUP2 MSTORE ADD SWAP3 ADD SWAP3 ADD SWAP2 SWAP1 PUSH2 0x2F06 JUMP JUMPDEST SWAP1 PUSH2 0x3DE PUSH2 0x30AF PUSH1 0xD PUSH2 0x2F41 PUSH2 0x2BCA JUMP JUMPDEST SWAP5 PUSH2 0x2F4E PUSH2 0x2CE4 DUP3 PUSH2 0x1E4F JUMP JUMPDEST PUSH2 0x2F5D PUSH2 0x2CF7 PUSH1 0x1 DUP4 ADD PUSH2 0x1E4F JUMP JUMPDEST PUSH2 0x2F6C PUSH2 0x2D0D PUSH1 0x2 DUP4 ADD PUSH2 0x1E4F JUMP JUMPDEST PUSH2 0x2F7B PUSH2 0x2D23 PUSH1 0x3 DUP4 ADD PUSH2 0x1E4F JUMP JUMPDEST PUSH2 0x2F93 PUSH2 0x2F8A PUSH1 0x4 DUP4 ADD PUSH2 0x20E0 JUMP JUMPDEST ISZERO ISZERO PUSH1 0x80 DUP9 ADD MSTORE JUMP JUMPDEST PUSH2 0x2FAB PUSH2 0x2FA2 PUSH1 0x4 DUP4 ADD PUSH2 0x2DE5 JUMP JUMPDEST ISZERO ISZERO PUSH1 0xA0 DUP9 ADD MSTORE JUMP JUMPDEST PUSH2 0x2FC3 PUSH2 0x2FBA PUSH1 0x4 DUP4 ADD PUSH2 0x2DFB JUMP JUMPDEST PUSH1 0xC0 DUP9 ADD PUSH2 0x2E05 JUMP JUMPDEST PUSH2 0x2FD9 PUSH2 0x2FD2 PUSH1 0x5 DUP4 ADD PUSH2 0x1CB1 JUMP JUMPDEST PUSH1 0xE0 DUP9 ADD MSTORE JUMP JUMPDEST PUSH2 0x2FF2 PUSH2 0x2FE8 PUSH1 0x6 DUP4 ADD PUSH2 0x20E0 JUMP JUMPDEST ISZERO ISZERO PUSH2 0x100 DUP9 ADD MSTORE JUMP JUMPDEST PUSH2 0x3012 PUSH2 0x3001 PUSH1 0x6 DUP4 ADD PUSH2 0x2E1B JUMP JUMPDEST PUSH1 0x1 PUSH1 0x1 PUSH1 0xA0 SHL SUB AND PUSH2 0x120 DUP9 ADD MSTORE JUMP JUMPDEST PUSH2 0x3021 PUSH2 0x2DC1 PUSH1 0x7 DUP4 ADD PUSH2 0x1CB1 JUMP JUMPDEST PUSH2 0x3038 PUSH2 0x3030 PUSH1 0x8 DUP4 ADD PUSH2 0x1CB1 JUMP JUMPDEST PUSH2 0x160 DUP9 ADD MSTORE JUMP JUMPDEST PUSH2 0x304F PUSH2 0x3047 PUSH1 0x9 DUP4 ADD PUSH2 0x2E87 JUMP JUMPDEST PUSH2 0x180 DUP9 ADD MSTORE JUMP JUMPDEST PUSH2 0x3068 PUSH2 0x305E PUSH1 0xA DUP4 ADD PUSH2 0x20E0 JUMP JUMPDEST ISZERO ISZERO PUSH2 0x1A0 DUP9 ADD MSTORE JUMP JUMPDEST PUSH2 0x3081 PUSH2 0x3077 PUSH1 0xA DUP4 ADD PUSH2 0x2DE5 JUMP JUMPDEST PUSH2 0x1C0 DUP9 ADD PUSH2 0x2EA1 JUMP JUMPDEST PUSH2 0x3098 PUSH2 0x3090 PUSH1 0xB DUP4 ADD PUSH2 0x1CB1 JUMP JUMPDEST PUSH2 0x1E0 DUP9 ADD MSTORE JUMP JUMPDEST PUSH2 0x28FF PUSH2 0x30A7 PUSH1 0xC DUP4 ADD PUSH2 0x2EDC JUMP JUMPDEST PUSH2 0x200 DUP9 ADD MSTORE JUMP JUMPDEST PUSH2 0x220 DUP5 ADD MSTORE JUMP JUMPDEST SWAP1 PUSH2 0x30C6 PUSH2 0x2E34 PUSH2 0x625 DUP5 SLOAD SWAP1 JUMP JUMPDEST SWAP1 PUSH1 0x0 JUMPDEST DUP2 DUP2 LT PUSH2 0x30D7 JUMPI POP POP POP SWAP1 JUMP JUMPDEST SWAP1 SWAP2 SWAP3 PUSH2 0x3105 PUSH2 0x2E6E PUSH1 0x1 SWAP3 PUSH2 0x30F4 DUP8 SLOAD PUSH1 0x1 PUSH1 0x1 PUSH1 0xA0 SHL SUB AND SWAP1 JUMP JUMPDEST PUSH1 0x1 PUSH1 0x1 PUSH1 0xA0 SHL SUB AND DUP2 MSTORE PUSH1 0x20 ADD SWAP1 JUMP JUMPDEST SWAP3 SWAP2 ADD PUSH2 0x30CA JUMP JUMPDEST SWAP1 PUSH2 0x3F4 SWAP2 PUSH2 0x30B7 JUMP JUMPDEST SWAP1 PUSH2 0x3DE PUSH2 0x1E69 SWAP3 PUSH2 0x3128 PUSH1 0x40 MLOAD SWAP1 JUMP JUMPDEST SWAP4 DUP5 DUP1 SWAP3 PUSH2 0x310D JUMP JUMPDEST SWAP1 PUSH2 0x3DE PUSH2 0x31DF PUSH1 0x21 PUSH2 0x3142 PUSH2 0x2B56 JUMP JUMPDEST SWAP5 PUSH2 0x314F PUSH2 0x2CE4 DUP3 PUSH2 0x1CB1 JUMP JUMPDEST PUSH2 0x3176 PUSH2 0x3166 PUSH1 0x1 DUP4 ADD SLOAD PUSH1 0x1 PUSH1 0x1 PUSH1 0xA0 SHL SUB AND SWAP1 JUMP JUMPDEST PUSH1 0x1 PUSH1 0x1 PUSH1 0xA0 SHL SUB AND PUSH1 0x20 DUP9 ADD MSTORE JUMP JUMPDEST PUSH2 0x3185 PUSH2 0x2D0D PUSH1 0x2 DUP4 ADD PUSH2 0x1CB1 JUMP JUMPDEST PUSH2 0x3194 PUSH2 0x2D23 PUSH1 0x3 DUP4 ADD PUSH2 0x2CC6 JUMP JUMPDEST PUSH2 0x31A3 PUSH2 0x2D39 PUSH1 0xF DUP4 ADD PUSH2 0x2F30 JUMP JUMPDEST PUSH2 0x31B2 PUSH2 0x2D4F PUSH1 0x1D DUP4 ADD PUSH2 0x3117 JUMP JUMPDEST PUSH2 0x31C1 PUSH2 0x2D65 PUSH1 0x1E DUP4 ADD PUSH2 0x2EDC JUMP JUMPDEST PUSH2 0x31D0 PUSH2 0x2FD2 PUSH1 0x1F DUP4 ADD PUSH2 0x1CB1 JUMP JUMPDEST PUSH2 0x28FF PUSH2 0x2D93 PUSH1 0x20 DUP4 ADD PUSH2 0x1CB1 JUMP JUMPDEST PUSH2 0x120 DUP5 ADD MSTORE JUMP JUMPDEST PUSH2 0x3F4 SWAP1 PUSH2 0x3131 JUMP JUMPDEST PUSH2 0x3205 PUSH2 0x3F4 SWAP2 PUSH2 0x31FF PUSH2 0x2CB4 JUMP JUMPDEST POP PUSH2 0x320A JUMP JUMPDEST PUSH2 0x31E7 JUMP JUMPDEST PUSH2 0x3F4 SWAP1 PUSH2 0x6109 JUMP JUMPDEST ISZERO PUSH2 0x321A JUMPI JUMP JUMPDEST PUSH1 0x40 MLOAD PUSH3 0x461BCD PUSH1 0xE5 SHL DUP2 MSTORE PUSH1 0x20 PUSH1 0x4 DUP3 ADD MSTORE PUSH1 0x1C PUSH1 0x24 DUP3 ADD MSTORE PUSH32 0x5072696365206D7573742062652067726561746572207468616E203000000000 PUSH1 0x44 DUP3 ADD MSTORE PUSH1 0x64 SWAP1 REVERT JUMPDEST ISZERO PUSH2 0x3266 JUMPI JUMP JUMPDEST PUSH1 0x40 MLOAD PUSH3 0x461BCD PUSH1 0xE5 SHL DUP2 MSTORE PUSH1 0x20 PUSH1 0x4 DUP3 ADD MSTORE PUSH1 0x23 PUSH1 0x24 DUP3 ADD MSTORE PUSH32 0x52656E74616C207072696365206D757374206265206772656174657220746861 PUSH1 0x44 DUP3 ADD MSTORE PUSH3 0x6E203 PUSH1 0xEC SHL PUSH1 0x64 DUP3 ADD MSTORE PUSH1 0x84 SWAP1 REVERT JUMPDEST POP PUSH4 0x4E487B71 PUSH1 0xE0 SHL PUSH1 0x0 MSTORE PUSH1 0x0 PUSH1 0x4 MSTORE PUSH1 0x24 PUSH1 0x0 REVERT JUMPDEST SWAP1 CALLDATALOAD SWAP1 PUSH1 0x1E NOT CALLDATASIZE DUP3 SWAP1 SUB ADD DUP3 SLT ISZERO PUSH2 0x3311 JUMPI JUMPDEST ADD PUSH1 0x20 DUP2 CALLDATALOAD SWAP2 PUSH1 0x1 PUSH1 0x1 PUSH1 0x40 SHL SUB DUP4 GT PUSH2 0x3304 JUMPI JUMPDEST ADD SWAP2 CALLDATASIZE DUP3 SWAP1 SUB DUP4 SGT PUSH2 0x454 JUMPI JUMP JUMPDEST PUSH2 0x330C PUSH1 0x0 DUP1 REVERT JUMPDEST PUSH2 0x32F6 JUMP JUMPDEST PUSH2 0x3319 PUSH1 0x0 DUP1 REVERT JUMPDEST PUSH2 0x32E1 JUMP JUMPDEST SWAP2 PUSH1 0x0 NOT PUSH1 0x8 SWAP3 SWAP1 SWAP3 MUL SWAP2 DUP3 SHL SWAP2 SHL PUSH2 0x1B41 JUMP JUMPDEST SWAP2 SWAP1 PUSH2 0x3343 PUSH2 0x3F4 PUSH2 0x1B88 SWAP4 PUSH2 0x1E8D JUMP JUMPDEST SWAP1 DUP4 SLOAD PUSH2 0x331E JUMP JUMPDEST PUSH2 0x3DE SWAP2 PUSH1 0x0 SWAP2 PUSH2 0x3332 JUMP JUMPDEST DUP2 DUP2 LT PUSH2 0x3362 JUMPI POP POP JUMP JUMPDEST DUP1 PUSH2 0x3370 PUSH1 0x0 PUSH1 0x1 SWAP4 PUSH2 0x334B JUMP JUMPDEST ADD PUSH2 0x3357 JUMP JUMPDEST SWAP2 SWAP1 PUSH1 0x1F DUP2 GT PUSH2 0x3385 JUMPI POP POP POP JUMP JUMPDEST PUSH2 0x3397 PUSH2 0x3DE SWAP4 PUSH1 0x0 MSTORE PUSH1 0x20 PUSH1 0x0 KECCAK256 SWAP1 JUMP JUMPDEST SWAP1 PUSH1 0x20 PUSH1 0x1F DUP5 ADD DUP2 SWAP1 DIV DUP4 ADD SWAP4 LT PUSH2 0x33BA JUMPI JUMPDEST PUSH1 0x20 PUSH1 0x1F SWAP1 SWAP2 ADD DIV JUMPDEST ADD SWAP1 PUSH2 0x3357 JUMP JUMPDEST SWAP1 SWAP2 POP DUP2 SWAP1 PUSH2 0x33AA JUMP JUMPDEST PUSH1 0x0 NOT PUSH1 0x8 DUP4 MUL SHR NOT AND SWAP1 PUSH1 0x2 MUL OR SWAP1 JUMP JUMPDEST SWAP2 SWAP1 PUSH1 0x1 PUSH1 0x1 PUSH1 0x40 SHL SUB DUP3 GT PUSH2 0x3494 JUMPI JUMPDEST PUSH2 0x33FB DUP3 PUSH2 0x33F5 DUP6 SLOAD PUSH2 0x1D89 JUMP JUMPDEST DUP6 PUSH2 0x3376 JUMP JUMPDEST PUSH1 0x0 SWAP1 PUSH1 0x1F DUP4 GT PUSH1 0x1 EQ PUSH2 0x3429 JUMPI PUSH2 0x1B88 SWAP3 SWAP2 PUSH1 0x0 SWAP2 DUP4 PUSH2 0x341E JUMPI JUMPDEST POP POP PUSH2 0x33C4 JUMP JUMPDEST ADD CALLDATALOAD SWAP1 POP CODESIZE DUP1 PUSH2 0x3417 JUMP JUMPDEST PUSH1 0x1F NOT DUP4 AND SWAP2 PUSH2 0x343E DUP6 PUSH1 0x0 MSTORE PUSH1 0x20 PUSH1 0x0 KECCAK256 SWAP1 JUMP JUMPDEST SWAP3 DUP2 JUMPDEST DUP2 DUP2 LT PUSH2 0x347C JUMPI POP SWAP2 PUSH1 0x2 SWAP4 SWAP2 DUP6 PUSH1 0x1 SWAP7 SWAP5 LT PUSH2 0x3462 JUMPI JUMPDEST POP POP POP MUL ADD SWAP1 SSTORE JUMP JUMPDEST ADD CALLDATALOAD PUSH1 0x0 NOT PUSH1 0x1F DUP5 AND PUSH1 0x8 MUL SHR NOT AND JUMPDEST SWAP1 SSTORE CODESIZE DUP1 DUP1 PUSH2 0x3459 JUMP JUMPDEST SWAP2 SWAP4 PUSH1 0x20 PUSH1 0x1 DUP2 SWAP3 DUP8 DUP8 ADD CALLDATALOAD DUP2 SSTORE ADD SWAP6 ADD SWAP3 ADD PUSH2 0x3441 JUMP JUMPDEST PUSH2 0x349C PUSH2 0xC51 JUMP JUMPDEST PUSH2 0x33E7 JUMP JUMPDEST SWAP1 PUSH2 0x3DE SWAP3 SWAP2 PUSH2 0x33D6 JUMP JUMPDEST PUSH1 0x5 GT ISZERO PUSH2 0x3B9 JUMPI JUMP JUMPDEST CALLDATALOAD PUSH2 0x3F4 DUP2 PUSH2 0x34AC JUMP JUMPDEST SWAP1 PUSH2 0x2391 PUSH2 0x3F4 PUSH2 0x1B88 SWAP3 PUSH2 0x79C JUMP JUMPDEST CALLDATALOAD PUSH2 0x3F4 DUP2 PUSH2 0x4FF JUMP JUMPDEST CALLDATALOAD PUSH2 0x3F4 DUP2 PUSH2 0x14B0 JUMP JUMPDEST PUSH2 0x3DE SWAP2 SWAP1 PUSH2 0x35DE SWAP1 PUSH2 0x160 SWAP1 PUSH1 0xB SWAP1 PUSH2 0x3508 DUP2 PUSH2 0x3502 DUP8 DUP1 PUSH2 0x32CE JUMP JUMPDEST SWAP2 PUSH2 0x34A1 JUMP JUMPDEST PUSH2 0x351C PUSH1 0x1 DUP3 ADD PUSH2 0x3502 PUSH1 0x20 DUP9 ADD DUP9 PUSH2 0x32CE JUMP JUMPDEST PUSH2 0x3530 PUSH1 0x2 DUP3 ADD PUSH2 0x3502 PUSH1 0x40 DUP9 ADD DUP9 PUSH2 0x32CE JUMP JUMPDEST PUSH2 0x3544 PUSH1 0x3 DUP3 ADD PUSH2 0x3502 PUSH1 0x60 DUP9 ADD DUP9 PUSH2 0x32CE JUMP JUMPDEST PUSH2 0x3558 PUSH1 0x4 DUP3 ADD PUSH2 0x3502 PUSH1 0x80 DUP9 ADD DUP9 PUSH2 0x32CE JUMP JUMPDEST PUSH2 0x356C PUSH1 0x5 DUP3 ADD PUSH2 0x3502 PUSH1 0xA0 DUP9 ADD DUP9 PUSH2 0x32CE JUMP JUMPDEST PUSH2 0x3580 PUSH1 0x6 DUP3 ADD PUSH2 0x3502 PUSH1 0xC0 DUP9 ADD DUP9 PUSH2 0x32CE JUMP JUMPDEST PUSH2 0x3599 PUSH1 0x7 DUP3 ADD PUSH2 0x3593 PUSH1 0xE0 DUP9 ADD PUSH2 0x34B6 JUMP JUMPDEST SWAP1 PUSH2 0x34C0 JUMP JUMPDEST PUSH2 0x35AD PUSH1 0x8 DUP3 ADD PUSH2 0x2B07 PUSH2 0x100 DUP9 ADD PUSH2 0x34D0 JUMP JUMPDEST PUSH2 0x35C1 PUSH1 0x9 DUP3 ADD PUSH2 0x2B07 PUSH2 0x120 DUP9 ADD PUSH2 0x34D0 JUMP JUMPDEST PUSH2 0x35D6 PUSH1 0xA DUP3 ADD PUSH2 0x3502 PUSH2 0x140 DUP9 ADD DUP9 PUSH2 0x32CE JUMP JUMPDEST ADD SWAP3 ADD PUSH2 0x34DA JUMP JUMPDEST SWAP1 PUSH2 0x2381 JUMP JUMPDEST SWAP1 PUSH2 0x3DE SWAP2 PUSH2 0x34E4 JUMP JUMPDEST SWAP1 PUSH2 0xFF00 SWAP1 PUSH1 0x8 SHL PUSH2 0x1B41 JUMP JUMPDEST SWAP1 PUSH2 0x360B PUSH2 0x3F4 PUSH2 0x1B88 SWAP3 ISZERO ISZERO SWAP1 JUMP JUMPDEST DUP3 SLOAD PUSH2 0x35EE JUMP JUMPDEST CALLDATALOAD PUSH2 0x3F4 DUP2 PUSH2 0x1010 JUMP JUMPDEST SWAP1 PUSH3 0xFF0000 SWAP1 PUSH1 0x10 SHL PUSH2 0x1B41 JUMP JUMPDEST SWAP1 PUSH2 0x363A PUSH2 0x3F4 PUSH2 0x1B88 SWAP3 PUSH2 0x8BA JUMP JUMPDEST DUP3 SLOAD PUSH2 0x361C JUMP JUMPDEST CALLDATALOAD PUSH2 0x3F4 DUP2 PUSH2 0x57F JUMP JUMPDEST SWAP1 PUSH2 0x100 PUSH1 0x1 PUSH1 0xA8 SHL SUB SWAP1 PUSH1 0x8 SHL PUSH2 0x1B41 JUMP JUMPDEST SWAP1 PUSH2 0x366E PUSH2 0x3F4 PUSH2 0x1B88 SWAP3 PUSH2 0x1B68 JUMP JUMPDEST DUP3 SLOAD PUSH2 0x364B JUMP JUMPDEST SWAP1 CALLDATALOAD SWAP1 PUSH1 0x1E NOT CALLDATASIZE DUP3 SWAP1 SUB ADD DUP3 SLT ISZERO PUSH2 0x36BA JUMPI JUMPDEST ADD PUSH1 0x20 DUP2 CALLDATALOAD SWAP2 PUSH1 0x1 PUSH1 0x1 PUSH1 0x40 SHL SUB DUP4 GT PUSH2 0x36AD JUMPI JUMPDEST ADD SWAP2 PUSH1 0x20 DUP3 MUL CALLDATASIZE SUB DUP4 SGT PUSH2 0x454 JUMPI JUMP JUMPDEST PUSH2 0x36B5 PUSH1 0x0 DUP1 REVERT JUMPDEST PUSH2 0x369D JUMP JUMPDEST PUSH2 0x36C2 PUSH1 0x0 DUP1 REVERT JUMPDEST PUSH2 0x3688 JUMP JUMPDEST POP PUSH4 0x4E487B71 PUSH1 0xE0 SHL PUSH1 0x0 MSTORE PUSH1 0x11 PUSH1 0x4 MSTORE PUSH1 0x24 PUSH1 0x0 REVERT JUMPDEST DUP2 DUP2 MUL SWAP3 SWAP2 DUP2 ISZERO SWAP2 DUP5 DIV EQ OR ISZERO PUSH2 0x36F1 JUMPI JUMP JUMPDEST PUSH2 0x3DE PUSH2 0x36C7 JUMP JUMPDEST SWAP1 PUSH2 0x370C SWAP1 PUSH1 0x0 NOT SWAP1 PUSH1 0x20 SUB PUSH1 0x8 MUL SHR SWAP1 JUMP JUMPDEST DUP2 SLOAD AND SWAP1 SSTORE JUMP JUMPDEST SWAP1 SWAP2 DUP3 DUP2 LT PUSH2 0x3721 JUMPI POP POP POP JUMP JUMPDEST PUSH2 0x3DE SWAP3 SWAP1 PUSH2 0x372F SWAP1 PUSH2 0x2E34 JUMP JUMPDEST SWAP1 DUP2 ADD SWAP2 ADD PUSH2 0x3357 JUMP JUMPDEST SWAP1 PUSH2 0x3DE SWAP2 PUSH1 0x1 PUSH1 0x40 SHL DUP3 GT PUSH2 0x3755 JUMPI JUMPDEST DUP1 SLOAD SWAP1 DUP3 DUP2 SSTORE PUSH2 0x3713 JUMP JUMPDEST PUSH2 0x375D PUSH2 0xC51 JUMP JUMPDEST PUSH2 0x374A JUMP JUMPDEST SWAP1 SWAP2 PUSH2 0x378D PUSH2 0x2E34 PUSH2 0x3773 PUSH1 0x1 SWAP4 SWAP1 JUMP JUMPDEST SWAP5 PUSH1 0x1 PUSH1 0x1 PUSH1 0x40 SHL SUB DUP7 GT PUSH2 0x37BE JUMPI JUMPDEST PUSH2 0x3F4 DUP7 DUP7 PUSH2 0x3739 JUMP JUMPDEST SWAP3 DIV SWAP2 PUSH1 0x0 JUMPDEST DUP4 DUP2 LT PUSH2 0x37A0 JUMPI POP POP POP POP JUMP JUMPDEST PUSH1 0x1 SWAP1 PUSH1 0x20 PUSH2 0x37B1 PUSH2 0x3F4 DUP7 PUSH2 0x34D0 JUMP JUMPDEST SWAP5 ADD SWAP4 DUP2 DUP5 ADD SSTORE ADD PUSH2 0x3793 JUMP JUMPDEST PUSH2 0x37C6 PUSH2 0xC51 JUMP JUMPDEST PUSH2 0x3783 JUMP JUMPDEST SWAP1 PUSH2 0x3DE SWAP3 SWAP2 PUSH2 0x3762 JUMP JUMPDEST PUSH1 0x3 GT ISZERO PUSH2 0x3B9 JUMPI JUMP JUMPDEST CALLDATALOAD PUSH2 0x3F4 DUP2 PUSH2 0x37D6 JUMP JUMPDEST SWAP1 PUSH2 0x360B PUSH2 0x3F4 PUSH2 0x1B88 SWAP3 PUSH2 0x8E0 JUMP JUMPDEST SWAP1 PUSH1 0x0 SWAP2 PUSH2 0x3818 PUSH2 0x3810 DUP3 PUSH1 0x0 MSTORE PUSH1 0x20 PUSH1 0x0 KECCAK256 SWAP1 JUMP JUMPDEST SWAP3 DUP4 SLOAD PUSH2 0x33C4 JUMP JUMPDEST SWAP1 SSTORE SSTORE JUMP JUMPDEST SWAP2 SWAP3 SWAP1 PUSH1 0x20 DUP3 LT ISZERO PUSH2 0x3875 JUMPI PUSH1 0x1F DUP5 GT PUSH1 0x1 EQ PUSH2 0x383F JUMPI PUSH2 0x1B88 SWAP3 SWAP4 POP PUSH2 0x33C4 JUMP JUMPDEST POP SWAP1 PUSH2 0x3870 PUSH2 0x3DE SWAP4 PUSH1 0x1 PUSH2 0x3867 PUSH2 0x385C DUP6 PUSH1 0x0 MSTORE PUSH1 0x20 PUSH1 0x0 KECCAK256 SWAP1 JUMP JUMPDEST SWAP3 PUSH1 0x1F PUSH1 0x20 SWAP2 ADD DIV SWAP1 JUMP JUMPDEST DUP3 ADD SWAP2 ADD PUSH2 0x3357 JUMP JUMPDEST PUSH2 0x37FA JUMP JUMPDEST POP PUSH2 0x38AE DUP3 SWAP4 PUSH2 0x388C PUSH1 0x1 SWAP5 PUSH1 0x0 MSTORE PUSH1 0x20 PUSH1 0x0 KECCAK256 SWAP1 JUMP JUMPDEST PUSH2 0x33B3 PUSH1 0x20 PUSH1 0x1F DUP7 ADD DIV DUP3 ADD SWAP3 PUSH1 0x1F DUP7 AND DUP1 PUSH2 0x38B6 JUMPI JUMPDEST POP PUSH1 0x1F PUSH1 0x20 SWAP2 ADD DIV SWAP1 JUMP JUMPDEST PUSH1 0x2 MUL OR SWAP1 SSTORE JUMP JUMPDEST PUSH2 0x38C2 SWAP1 DUP9 DUP7 SUB PUSH2 0x36F9 JUMP JUMPDEST CODESIZE PUSH2 0x38A3 JUMP JUMPDEST SWAP3 SWAP1 SWAP2 PUSH1 0x20 SWAP1 PUSH1 0x1 PUSH1 0x40 SHL DUP4 GT PUSH2 0x391D JUMPI JUMPDEST LT ISZERO PUSH2 0x3911 JUMPI PUSH1 0x20 DUP2 LT ISZERO PUSH2 0x38F2 JUMPI PUSH2 0x1B88 SWAP2 PUSH2 0x33C4 JUMP JUMPDEST PUSH1 0x1 SWAP2 PUSH1 0xFF NOT AND PUSH2 0x3908 DUP5 PUSH1 0x0 MSTORE PUSH1 0x20 PUSH1 0x0 KECCAK256 SWAP1 JUMP JUMPDEST SSTORE PUSH1 0x2 MUL ADD SWAP1 SSTORE JUMP JUMPDEST PUSH1 0x1 SWAP2 POP PUSH1 0x2 MUL ADD SWAP1 SSTORE JUMP JUMPDEST PUSH2 0x3925 PUSH2 0xC51 JUMP JUMPDEST PUSH2 0x38DA JUMP JUMPDEST SWAP1 DUP2 SLOAD PUSH2 0x3936 DUP2 PUSH2 0x1D89 JUMP JUMPDEST SWAP1 DUP2 DUP4 GT PUSH2 0x395F JUMPI JUMPDEST DUP2 DUP4 LT PUSH2 0x394D JUMPI JUMPDEST POP POP POP POP JUMP JUMPDEST PUSH2 0x3956 SWAP4 PUSH2 0x381D JUMP JUMPDEST CODESIZE DUP1 DUP1 DUP1 PUSH2 0x3947 JUMP JUMPDEST PUSH2 0x396B DUP4 DUP4 DUP4 DUP8 PUSH2 0x38C8 JUMP JUMPDEST PUSH2 0x393F JUMP JUMPDEST PUSH1 0x0 PUSH2 0x3DE SWAP2 PUSH2 0x392A JUMP JUMPDEST PUSH2 0x3DE SWAP2 ISZERO PUSH2 0x3970 JUMPI PUSH2 0x398C PUSH2 0x32B7 JUMP JUMPDEST PUSH2 0x3970 JUMP JUMPDEST DUP2 DUP2 LT PUSH2 0x399C JUMPI POP POP JUMP JUMPDEST DUP1 PUSH2 0x39AA PUSH1 0x0 PUSH1 0x1 SWAP4 PUSH2 0x397B JUMP JUMPDEST ADD PUSH2 0x3991 JUMP JUMPDEST SWAP1 SWAP2 DUP3 DUP2 LT PUSH2 0x39BE JUMPI POP POP POP JUMP JUMPDEST PUSH2 0x3DE SWAP3 SWAP1 PUSH2 0x39CC SWAP1 PUSH2 0x2E34 JUMP JUMPDEST SWAP1 DUP2 ADD SWAP2 ADD PUSH2 0x3991 JUMP JUMPDEST SWAP1 PUSH2 0x3DE SWAP2 PUSH1 0x1 PUSH1 0x40 SHL DUP3 GT PUSH2 0x39F2 JUMPI JUMPDEST DUP1 SLOAD SWAP1 DUP3 DUP2 SSTORE PUSH2 0x39B0 JUMP JUMPDEST PUSH2 0x39FA PUSH2 0xC51 JUMP JUMPDEST PUSH2 0x39E7 JUMP JUMPDEST SWAP1 PUSH2 0x3A0A DUP4 DUP4 PUSH2 0x39D6 JUMP JUMPDEST PUSH2 0x3A13 DUP2 PUSH2 0x2E34 JUMP JUMPDEST SWAP1 PUSH1 0x0 SWAP3 JUMPDEST DUP5 DUP5 LT PUSH2 0x3A26 JUMPI POP POP POP POP POP JUMP JUMPDEST PUSH1 0x1 PUSH1 0x20 DUP3 PUSH2 0x3A40 PUSH2 0x3A39 DUP5 SWAP6 DUP8 PUSH2 0x32CE JUMP JUMPDEST SWAP1 DUP9 PUSH2 0x34A1 JUMP JUMPDEST ADD SWAP4 ADD SWAP4 ADD SWAP3 SWAP2 PUSH2 0x3A18 JUMP JUMPDEST SWAP1 PUSH2 0x3DE SWAP3 SWAP2 PUSH2 0x39FF JUMP JUMPDEST PUSH2 0x3DE SWAP2 SWAP1 PUSH2 0x2B07 SWAP1 PUSH2 0x220 SWAP1 PUSH1 0xD SWAP1 PUSH2 0x3A75 DUP2 PUSH2 0x3502 DUP8 DUP1 PUSH2 0x32CE JUMP JUMPDEST PUSH2 0x3A89 PUSH1 0x1 DUP3 ADD PUSH2 0x3502 PUSH1 0x20 DUP9 ADD DUP9 PUSH2 0x32CE JUMP JUMPDEST PUSH2 0x3A9D PUSH1 0x2 DUP3 ADD PUSH2 0x3502 PUSH1 0x40 DUP9 ADD DUP9 PUSH2 0x32CE JUMP JUMPDEST PUSH2 0x3AB1 PUSH1 0x3 DUP3 ADD PUSH2 0x3502 PUSH1 0x60 DUP9 ADD DUP9 PUSH2 0x32CE JUMP JUMPDEST PUSH2 0x3AF4 PUSH1 0x4 DUP3 ADD PUSH2 0x3ACD PUSH2 0x3AC7 PUSH1 0x80 DUP10 ADD PUSH2 0x34DA JUMP JUMPDEST DUP3 PUSH2 0x2381 JUMP JUMPDEST PUSH2 0x3AE2 PUSH2 0x3ADC PUSH1 0xA0 DUP10 ADD PUSH2 0x34DA JUMP JUMPDEST DUP3 PUSH2 0x35FB JUMP JUMPDEST PUSH2 0x3AEE PUSH1 0xC0 DUP9 ADD PUSH2 0x3612 JUMP JUMPDEST SWAP1 PUSH2 0x362A JUMP JUMPDEST PUSH2 0x3B07 PUSH1 0x5 DUP3 ADD PUSH2 0x2B07 PUSH1 0xE0 DUP9 ADD PUSH2 0x34D0 JUMP JUMPDEST PUSH2 0x3B31 PUSH1 0x6 DUP3 ADD PUSH2 0x3B1E PUSH2 0x3AC7 PUSH2 0x100 DUP10 ADD PUSH2 0x34DA JUMP JUMPDEST PUSH2 0x3B2B PUSH2 0x120 DUP9 ADD PUSH2 0x3641 JUMP JUMPDEST SWAP1 PUSH2 0x365E JUMP JUMPDEST PUSH2 0x3B45 PUSH1 0x7 DUP3 ADD PUSH2 0x2B07 PUSH2 0x140 DUP9 ADD PUSH2 0x34D0 JUMP JUMPDEST PUSH2 0x3B59 PUSH1 0x8 DUP3 ADD PUSH2 0x2B07 PUSH2 0x160 DUP9 ADD PUSH2 0x34D0 JUMP JUMPDEST PUSH2 0x3B74 PUSH1 0x9 DUP3 ADD PUSH2 0x3B6E PUSH2 0x180 DUP9 ADD DUP9 PUSH2 0x3675 JUMP JUMPDEST SWAP2 PUSH2 0x37CB JUMP JUMPDEST PUSH2 0x3B9E PUSH1 0xA DUP3 ADD PUSH2 0x3B8B PUSH2 0x3AC7 PUSH2 0x1A0 DUP10 ADD PUSH2 0x34DA JUMP JUMPDEST PUSH2 0x3B98 PUSH2 0x1C0 DUP9 ADD PUSH2 0x37E0 JUMP JUMPDEST SWAP1 PUSH2 0x37EA JUMP JUMPDEST PUSH2 0x3BB2 PUSH1 0xB DUP3 ADD PUSH2 0x2B07 PUSH2 0x1E0 DUP9 ADD PUSH2 0x34D0 JUMP JUMPDEST PUSH2 0x3BCD PUSH1 0xC DUP3 ADD PUSH2 0x3BC7 PUSH2 0x200 DUP9 ADD DUP9 PUSH2 0x3675 JUMP JUMPDEST SWAP2 PUSH2 0x3A4C JUMP JUMPDEST ADD SWAP3 ADD PUSH2 0x34D0 JUMP JUMPDEST SWAP1 PUSH2 0x3DE SWAP2 PUSH2 0x3A57 JUMP JUMPDEST PUSH1 0x20 DUP2 ADD SWAP3 SWAP2 PUSH2 0x3DE SWAP2 SWAP1 PUSH2 0x8C3 JUMP JUMPDEST SWAP1 SWAP4 SWAP3 SWAP2 PUSH1 0x0 PUSH2 0x3C08 PUSH2 0x3C01 DUP3 PUSH2 0x1E8D JUMP JUMPDEST DUP5 GT PUSH2 0x3213 JUMP JUMPDEST PUSH1 0x1 SWAP5 PUSH2 0x3C14 DUP7 PUSH2 0x8B0 JUMP JUMPDEST PUSH2 0x3C1D DUP7 PUSH2 0x8B0 JUMP JUMPDEST EQ PUSH2 0x3D4D JUMPI JUMPDEST PUSH2 0x3C2B PUSH2 0x6117 JUMP JUMPDEST SWAP7 PUSH2 0x3C37 DUP9 PUSH1 0xB PUSH2 0x2093 JUMP JUMPDEST SWAP1 PUSH2 0x3C44 DUP10 DUP6 DUP5 ADD PUSH2 0x2A47 JUMP JUMPDEST CALLER DUP1 SWAP9 DUP4 ADD SWAP1 PUSH2 0x3C53 SWAP2 PUSH2 0x1B71 JUMP JUMPDEST PUSH2 0x3C60 DUP7 PUSH1 0x2 DUP5 ADD PUSH2 0x2A47 JUMP JUMPDEST PUSH2 0x3C6D SWAP1 PUSH1 0x3 DUP4 ADD PUSH2 0x35E4 JUMP JUMPDEST PUSH1 0xF ADD SWAP3 PUSH2 0x3C7B SWAP1 DUP5 PUSH2 0x3BD5 JUMP JUMPDEST PUSH2 0x3C88 DUP6 PUSH1 0x4 DUP6 ADD PUSH2 0x362A JUMP JUMPDEST PUSH2 0x3C95 SWAP1 PUSH1 0x5 DUP5 ADD PUSH2 0x2A47 JUMP JUMPDEST PUSH1 0x6 DUP3 ADD PUSH2 0x3CA3 DUP3 DUP3 PUSH2 0x2381 JUMP JUMPDEST PUSH2 0x3CAC DUP3 PUSH2 0x19F1 JUMP JUMPDEST PUSH2 0x3CB5 SWAP2 PUSH2 0x365E JUMP JUMPDEST PUSH2 0x3CBE SWAP1 PUSH2 0x1E8D JUMP JUMPDEST PUSH2 0x3CCA SWAP2 PUSH1 0x7 ADD PUSH2 0x2A47 JUMP JUMPDEST PUSH32 0x7BDB5FDA3C85BC6AD44EE77339210335F0D676769E9D0684D59F0848871D2A1F SWAP3 PUSH2 0x3CF5 DUP6 PUSH2 0x1E8D JUMP JUMPDEST SWAP4 PUSH2 0x3D00 DUP6 SWAP3 PUSH2 0x1B68 JUMP JUMPDEST SWAP3 PUSH2 0x3D0A PUSH1 0x40 MLOAD SWAP1 JUMP JUMPDEST SWAP1 DUP2 MSTORE PUSH1 0x20 SWAP1 LOG3 PUSH32 0x67D4C4FC54B59B0C047B4BB8EDBBF1EC91DE3457C643770B0DC36791E9966E13 SWAP1 PUSH2 0x3D3C PUSH1 0x40 MLOAD SWAP1 JUMP JUMPDEST PUSH2 0x3D47 DUP2 SWAP3 DUP3 PUSH2 0x3BDF JUMP JUMPDEST SUB SWAP1 LOG2 SWAP1 JUMP JUMPDEST PUSH2 0x3D60 PUSH2 0x3D59 DUP4 PUSH2 0x1E8D JUMP JUMPDEST DUP3 GT PUSH2 0x325F JUMP JUMPDEST PUSH2 0x3C23 JUMP JUMPDEST SWAP1 PUSH2 0x3D77 SWAP2 PUSH2 0x3D72 PUSH2 0x4579 JUMP JUMPDEST PUSH2 0x41EF JUMP JUMPDEST PUSH2 0x3DE PUSH2 0x45AB JUMP JUMPDEST ISZERO PUSH2 0x3D86 JUMPI JUMP JUMPDEST PUSH1 0x40 MLOAD PUSH3 0x461BCD PUSH1 0xE5 SHL DUP2 MSTORE PUSH1 0x20 PUSH1 0x4 DUP3 ADD MSTORE PUSH1 0xC PUSH1 0x24 DUP3 ADD MSTORE PUSH12 0x139BDD08199BDC881C995B9D PUSH1 0xA2 SHL PUSH1 0x44 DUP3 ADD MSTORE PUSH1 0x64 SWAP1 REVERT JUMPDEST ISZERO PUSH2 0x3DC1 JUMPI JUMP JUMPDEST PUSH1 0x40 MLOAD PUSH3 0x461BCD PUSH1 0xE5 SHL DUP2 MSTORE PUSH1 0x20 PUSH1 0x4 DUP3 ADD MSTORE PUSH1 0x10 PUSH1 0x24 DUP3 ADD MSTORE PUSH16 0x10DD5C9C995B9D1B1E481C995B9D1959 PUSH1 0x82 SHL PUSH1 0x44 DUP3 ADD MSTORE PUSH1 0x64 SWAP1 REVERT JUMPDEST ISZERO PUSH2 0x3E00 JUMPI JUMP JUMPDEST PUSH1 0x40 MLOAD PUSH3 0x461BCD PUSH1 0xE5 SHL DUP2 MSTORE PUSH1 0x20 PUSH1 0x4 DUP3 ADD MSTORE PUSH1 0x10 PUSH1 0x24 DUP3 ADD MSTORE PUSH16 0x26B0B935B2B21030B99039BA37B632B7 PUSH1 0x81 SHL PUSH1 0x44 DUP3 ADD MSTORE PUSH1 0x64 SWAP1 REVERT JUMPDEST ISZERO PUSH2 0x3E3F JUMPI JUMP JUMPDEST PUSH1 0x40 MLOAD PUSH3 0x461BCD PUSH1 0xE5 SHL DUP2 MSTORE PUSH1 0x20 PUSH1 0x4 DUP3 ADD MSTORE PUSH1 0x11 PUSH1 0x24 DUP3 ADD MSTORE PUSH17 0x155CD95C881B9BDD081D995C9A599A5959 PUSH1 0x7A SHL PUSH1 0x44 DUP3 ADD MSTORE PUSH1 0x64 SWAP1 REVERT JUMPDEST SWAP2 SWAP1 DUP3 ADD DUP1 SWAP3 GT PUSH2 0x36F1 JUMPI JUMP JUMPDEST ISZERO PUSH2 0x3E8C JUMPI JUMP JUMPDEST PUSH1 0x40 MLOAD PUSH3 0x461BCD PUSH1 0xE5 SHL DUP2 MSTORE PUSH1 0x20 PUSH1 0x4 DUP3 ADD MSTORE PUSH1 0x14 PUSH1 0x24 DUP3 ADD MSTORE PUSH20 0x125B9CDD59999A58DA595B9D081C185E5B595B9D PUSH1 0x62 SHL PUSH1 0x44 DUP3 ADD MSTORE PUSH1 0x64 SWAP1 REVERT JUMPDEST PUSH1 0x1 SWAP1 PUSH1 0x0 NOT DUP2 EQ PUSH2 0x3ED8 JUMPI ADD SWAP1 JUMP JUMPDEST PUSH2 0x4B3 PUSH2 0x36C7 JUMP JUMPDEST PUSH2 0x3F4 PUSH2 0x160 PUSH2 0xC96 JUMP JUMPDEST SWAP1 PUSH2 0x404 SWAP1 PUSH2 0x1797 JUMP JUMPDEST PUSH2 0x3EFF PUSH1 0xB PUSH2 0x1E9A JUMP JUMPDEST PUSH11 0x109A5AD9481C995B9D185B PUSH1 0xAA SHL PUSH1 0x20 DUP3 ADD MSTORE SWAP1 JUMP JUMPDEST PUSH2 0x3F4 PUSH2 0x3EF5 JUMP JUMPDEST PUSH2 0x3F4 SWAP1 MLOAD PUSH2 0x792 JUMP JUMPDEST PUSH2 0x3F4 SWAP1 MLOAD PUSH2 0x1797 JUMP JUMPDEST SWAP1 PUSH2 0x360B PUSH2 0x3F4 PUSH2 0x1B88 SWAP3 PUSH2 0x17A1 JUMP JUMPDEST SWAP1 PUSH3 0x10000 PUSH1 0x1 PUSH1 0xB0 SHL SUB SWAP1 PUSH1 0x10 SHL PUSH2 0x1B41 JUMP JUMPDEST SWAP1 PUSH2 0x3F66 PUSH2 0x3F4 PUSH2 0x1B88 SWAP3 PUSH2 0x1B68 JUMP JUMPDEST DUP3 SLOAD PUSH2 0x3F42 JUMP JUMPDEST SWAP1 PUSH2 0x3F76 DUP2 MLOAD SWAP1 JUMP JUMPDEST SWAP1 PUSH1 0x1 PUSH1 0x1 PUSH1 0x40 SHL SUB DUP3 GT PUSH2 0x4026 JUMPI JUMPDEST PUSH2 0x3F94 DUP3 PUSH2 0x33F5 DUP6 SLOAD PUSH2 0x1D89 JUMP JUMPDEST PUSH1 0x20 SWAP1 PUSH1 0x1F DUP4 GT PUSH1 0x1 EQ PUSH2 0x3FC1 JUMPI PUSH2 0x1B88 SWAP3 SWAP2 PUSH1 0x0 SWAP2 DUP4 PUSH2 0x3FB6 JUMPI POP POP PUSH2 0x33C4 JUMP JUMPDEST ADD MLOAD SWAP1 POP CODESIZE DUP1 PUSH2 0x3417 JUMP JUMPDEST PUSH1 0x1F NOT DUP4 AND SWAP2 PUSH2 0x3FD6 DUP6 PUSH1 0x0 MSTORE PUSH1 0x20 PUSH1 0x0 KECCAK256 SWAP1 JUMP JUMPDEST SWAP3 PUSH1 0x0 JUMPDEST DUP2 DUP2 LT PUSH2 0x400E JUMPI POP SWAP2 PUSH1 0x2 SWAP4 SWAP2 DUP6 PUSH1 0x1 SWAP7 SWAP5 LT PUSH2 0x3FFA JUMPI POP POP POP MUL ADD SWAP1 SSTORE JUMP JUMPDEST ADD MLOAD PUSH1 0x0 NOT PUSH1 0x8 PUSH1 0x1F DUP6 AND MUL SHR NOT AND PUSH2 0x3472 JUMP JUMPDEST SWAP2 SWAP4 PUSH1 0x20 PUSH1 0x1 DUP2 SWAP3 DUP8 DUP8 ADD MLOAD DUP2 SSTORE ADD SWAP6 ADD SWAP3 ADD PUSH2 0x3FDA JUMP JUMPDEST PUSH2 0x402E PUSH2 0xC51 JUMP JUMPDEST PUSH2 0x3F86 JUMP JUMPDEST SWAP1 PUSH2 0x3DE SWAP2 PUSH2 0x3F6D JUMP JUMPDEST PUSH2 0x3DE SWAP2 SWAP1 PUSH2 0x4108 SWAP1 PUSH2 0x140 SWAP1 PUSH1 0x8 SWAP1 PUSH2 0x4059 DUP2 PUSH2 0x2B07 DUP8 MLOAD SWAP1 JUMP JUMPDEST PUSH2 0x406B PUSH1 0x1 DUP3 ADD PUSH2 0x2B07 PUSH1 0x20 DUP9 ADD MLOAD SWAP1 JUMP JUMPDEST PUSH2 0x40B0 PUSH1 0x2 DUP3 ADD PUSH2 0x4087 PUSH2 0x4081 PUSH1 0x40 DUP10 ADD PUSH2 0x3F1E JUMP JUMPDEST DUP3 PUSH2 0x34C0 JUMP JUMPDEST PUSH2 0x409C PUSH2 0x4096 PUSH1 0x60 DUP10 ADD PUSH2 0x3F28 JUMP JUMPDEST DUP3 PUSH2 0x3F32 JUMP JUMPDEST PUSH1 0x80 DUP8 ADD MLOAD PUSH1 0x1 PUSH1 0x1 PUSH1 0xA0 SHL SUB AND SWAP1 PUSH2 0x3F56 JUMP JUMPDEST PUSH2 0x40D1 PUSH1 0x3 DUP3 ADD PUSH2 0x40CB PUSH1 0xA0 DUP9 ADD MLOAD PUSH1 0x1 PUSH1 0x1 PUSH1 0xA0 SHL SUB AND SWAP1 JUMP JUMPDEST SWAP1 PUSH2 0x1B71 JUMP JUMPDEST PUSH2 0x40E3 PUSH1 0x4 DUP3 ADD PUSH2 0x2B07 PUSH1 0xC0 DUP9 ADD MLOAD SWAP1 JUMP JUMPDEST PUSH2 0x40F5 PUSH1 0x5 DUP3 ADD PUSH2 0x2B07 PUSH1 0xE0 DUP9 ADD MLOAD SWAP1 JUMP JUMPDEST PUSH2 0x410E PUSH1 0x6 DUP3 ADD PUSH2 0x4108 PUSH2 0x100 DUP9 ADD MLOAD SWAP1 JUMP JUMPDEST SWAP1 PUSH2 0x4033 JUMP JUMPDEST PUSH2 0x4123 PUSH1 0x7 DUP3 ADD PUSH2 0x35DE PUSH2 0x120 DUP9 ADD MLOAD ISZERO ISZERO SWAP1 JUMP JUMPDEST ADD SWAP3 ADD MLOAD SWAP1 JUMP JUMPDEST SWAP1 PUSH2 0x3DE SWAP2 PUSH2 0x403D JUMP JUMPDEST POP PUSH4 0x4E487B71 PUSH1 0xE0 SHL PUSH1 0x0 MSTORE PUSH1 0x32 PUSH1 0x4 MSTORE PUSH1 0x24 PUSH1 0x0 REVERT JUMPDEST PUSH2 0x416B PUSH1 0x1 SWAP2 PUSH2 0x4159 DUP2 SLOAD SWAP1 JUMP JUMPDEST DUP5 LT ISZERO PUSH2 0x4174 JUMPI PUSH1 0x0 MSTORE PUSH1 0x20 PUSH1 0x0 KECCAK256 SWAP1 JUMP JUMPDEST SWAP2 MUL ADD SWAP1 PUSH1 0x0 SWAP1 JUMP JUMPDEST PUSH2 0x1DB6 PUSH2 0x4134 JUMP JUMPDEST SWAP1 PUSH2 0x419F PUSH2 0x3DE SWAP3 DUP1 SLOAD SWAP1 PUSH1 0x1 PUSH1 0x40 SHL DUP3 LT ISZERO PUSH2 0x41A5 JUMPI JUMPDEST PUSH1 0x1 DUP3 ADD DUP2 SSTORE PUSH2 0x414B JUMP JUMPDEST SWAP1 PUSH2 0x3332 JUMP JUMPDEST PUSH2 0x41AD PUSH2 0xC51 JUMP JUMPDEST PUSH2 0x4194 JUMP JUMPDEST SWAP1 DUP2 MSTORE PUSH1 0x40 DUP2 ADD SWAP3 SWAP2 PUSH2 0x3DE SWAP2 PUSH1 0x20 ADD MSTORE JUMP JUMPDEST SWAP2 PUSH1 0x20 PUSH2 0x3DE SWAP3 SWAP5 SWAP4 PUSH2 0x41E0 PUSH1 0x40 DUP3 ADD SWAP7 PUSH1 0x0 DUP4 ADD SWAP1 PUSH2 0x7A5 JUMP JUMPDEST ADD SWAP1 PUSH1 0x1 PUSH1 0x1 PUSH1 0xA0 SHL SUB AND SWAP1 MSTORE JUMP JUMPDEST PUSH2 0x41F8 DUP2 PUSH2 0x320A JUMP JUMPDEST PUSH1 0x13 DUP2 ADD SWAP1 PUSH1 0xF DUP2 ADD PUSH2 0x420A DUP4 PUSH2 0x2DFB JUMP JUMPDEST SWAP3 PUSH2 0x4229 PUSH1 0x1 SWAP5 PUSH2 0x4223 PUSH2 0x421D DUP8 PUSH2 0x8B0 JUMP JUMPDEST SWAP2 PUSH2 0x8B0 JUMP JUMPDEST EQ PUSH2 0x3D7F JUMP JUMPDEST PUSH2 0x4250 PUSH2 0x424B PUSH2 0x28D0 PUSH1 0x6 DUP6 ADD SWAP4 PUSH2 0x210A PUSH2 0x4246 PUSH2 0x28D0 DUP8 PUSH2 0x20E0 JUMP JUMPDEST PUSH2 0x3DBA JUMP JUMPDEST PUSH2 0x3DF9 JUMP JUMPDEST PUSH2 0x425C PUSH1 0xA DUP4 ADD PUSH2 0x20E0 JUMP JUMPDEST PUSH2 0x44FC JUMPI JUMPDEST DUP6 PUSH2 0x426E PUSH1 0x5 DUP5 ADD PUSH2 0x1CB1 JUMP JUMPDEST SWAP1 PUSH2 0x4278 SWAP2 PUSH2 0x36DE JUMP JUMPDEST SWAP6 PUSH2 0x4285 PUSH1 0x8 DUP5 ADD PUSH2 0x1CB1 JUMP JUMPDEST CALLVALUE SWAP1 PUSH2 0x4291 SWAP1 DUP10 PUSH2 0x3E78 JUMP JUMPDEST GT ISZERO PUSH2 0x429C SWAP1 PUSH2 0x3E85 JUMP JUMPDEST PUSH2 0x42A6 PUSH1 0xA PUSH2 0x1CB1 JUMP JUMPDEST PUSH2 0x42AF SWAP1 PUSH2 0x3EC8 JUMP JUMPDEST SWAP4 PUSH2 0x42BB DUP6 PUSH1 0xA PUSH2 0x2A47 JUMP JUMPDEST DUP6 CALLER SWAP2 ADD SWAP3 PUSH2 0x42D1 DUP5 SLOAD PUSH1 0x1 PUSH1 0x1 PUSH1 0xA0 SHL SUB AND SWAP1 JUMP JUMPDEST SWAP5 TIMESTAMP SWAP2 PUSH1 0x0 SWAP7 PUSH2 0x42DF PUSH2 0x3EE0 JUMP JUMPDEST SWAP1 PUSH2 0x42EA DUP11 DUP11 DUP5 ADD MSTORE JUMP JUMPDEST PUSH2 0x42F5 DUP13 PUSH1 0x20 DUP5 ADD MSTORE JUMP JUMPDEST PUSH2 0x4302 DUP12 PUSH1 0x40 DUP5 ADD PUSH2 0x2CBC JUMP JUMPDEST PUSH2 0x430F DUP12 PUSH1 0x60 DUP5 ADD PUSH2 0x3EEB JUMP JUMPDEST PUSH1 0x1 PUSH1 0x1 PUSH1 0xA0 SHL SUB DUP7 AND PUSH1 0x80 DUP4 ADD MSTORE PUSH1 0x1 PUSH1 0x1 PUSH1 0xA0 SHL SUB AND PUSH1 0xA0 DUP3 ADD MSTORE PUSH2 0x4337 DUP13 PUSH1 0xC0 DUP4 ADD MSTORE JUMP JUMPDEST PUSH2 0x4342 DUP5 PUSH1 0xE0 DUP4 ADD MSTORE JUMP JUMPDEST PUSH2 0x434A PUSH2 0x3F16 JUMP JUMPDEST PUSH2 0x100 DUP3 ADD MSTORE DUP8 ISZERO ISZERO PUSH2 0x120 DUP3 ADD MSTORE PUSH2 0x4361 PUSH2 0x1EB6 JUMP JUMPDEST PUSH2 0x140 DUP3 ADD MSTORE PUSH2 0x4372 DUP10 PUSH1 0x13 PUSH2 0x2093 JUMP JUMPDEST SWAP1 PUSH2 0x437C SWAP2 PUSH2 0x412A JUMP JUMPDEST DUP8 PUSH1 0x14 DUP2 PUSH2 0x438A DUP8 DUP4 PUSH2 0x1C92 JUMP JUMPDEST SWAP1 PUSH2 0x4394 SWAP2 PUSH2 0x417C JUMP JUMPDEST DUP8 SLOAD PUSH1 0x1 PUSH1 0x1 PUSH1 0xA0 SHL SUB AND PUSH2 0x43A8 SWAP2 PUSH2 0x1C92 JUMP JUMPDEST SWAP1 PUSH2 0x43B2 SWAP2 PUSH2 0x417C JUMP JUMPDEST DUP4 PUSH2 0x43BD DUP11 DUP4 PUSH2 0x2381 JUMP JUMPDEST PUSH2 0x43C6 SWAP2 PUSH2 0x365E JUMP JUMPDEST PUSH2 0x43D2 PUSH3 0x15180 PUSH2 0x1E8D JUMP JUMPDEST PUSH2 0x43DC SWAP1 DUP6 PUSH2 0x36DE JUMP JUMPDEST PUSH2 0x43E6 SWAP1 DUP4 PUSH2 0x3E78 JUMP JUMPDEST PUSH2 0x43F2 SWAP2 PUSH1 0x7 ADD PUSH2 0x2A47 JUMP JUMPDEST DUP2 PUSH2 0x43FE DUP10 PUSH1 0x11 PUSH2 0x2093 JUMP JUMPDEST SWAP1 PUSH2 0x4408 SWAP2 PUSH2 0x1C92 JUMP JUMPDEST SWAP1 PUSH2 0x4412 SWAP2 PUSH2 0x417C JUMP JUMPDEST DUP3 SLOAD PUSH1 0x1 PUSH1 0x1 PUSH1 0xA0 SHL SUB AND PUSH2 0x4426 SWAP1 PUSH2 0x1B68 JUMP JUMPDEST PUSH2 0x442F SWAP1 PUSH2 0x1B68 JUMP JUMPDEST SWAP7 DUP5 DUP1 DUP1 DUP1 DUP13 DUP1 ISZERO SWAP13 PUSH2 0x44A6 SWAP11 PUSH2 0x447E SWAP15 PUSH2 0x44F3 JUMPI JUMPDEST CALL ISZERO PUSH2 0x44E6 JUMPI JUMPDEST PUSH2 0x4476 PUSH32 0xFB3232F7D0F99292ECF3D4FDA4D4CB1BE33F6418DB95F43818AB53203CFD468B SWAP2 PUSH2 0x1E8D JUMP JUMPDEST SWAP8 DUP9 SWAP3 PUSH2 0x1B68 JUMP JUMPDEST SWAP9 DUP10 SWAP4 PUSH2 0x4496 PUSH2 0x448D PUSH1 0x40 MLOAD SWAP1 JUMP JUMPDEST SWAP3 DUP4 SWAP3 DUP4 PUSH2 0x41B2 JUMP JUMPDEST SUB SWAP1 LOG3 SLOAD PUSH1 0x1 PUSH1 0x1 PUSH1 0xA0 SHL SUB AND SWAP1 JUMP JUMPDEST PUSH2 0x44D0 PUSH32 0x956C30BD2866F35F10C562D4D1DA7F87808EED3D7817DCA81B52ACD1B2C637F1 SWAP3 PUSH2 0x1E8D JUMP JUMPDEST SWAP3 PUSH2 0x2327 PUSH2 0x44DD PUSH1 0x40 MLOAD SWAP1 JUMP JUMPDEST SWAP3 DUP4 SWAP3 DUP4 PUSH2 0x41C5 JUMP JUMPDEST PUSH2 0x44EE PUSH2 0x249A JUMP JUMPDEST PUSH2 0x444C JUMP JUMPDEST POP PUSH2 0x8FC PUSH2 0x4445 JUMP JUMPDEST PUSH2 0x4514 PUSH2 0x450F PUSH1 0x6 PUSH2 0x2DC9 CALLER PUSH1 0x12 PUSH2 0x1C92 JUMP JUMPDEST PUSH2 0x3E38 JUMP JUMPDEST PUSH2 0x4261 JUMP JUMPDEST SWAP1 PUSH2 0x3DE SWAP2 PUSH2 0x3D65 JUMP JUMPDEST PUSH2 0x3F4 PUSH1 0x2 PUSH2 0x1E8D JUMP JUMPDEST ISZERO PUSH2 0x4534 JUMPI JUMP JUMPDEST PUSH1 0x40 MLOAD PUSH3 0x461BCD PUSH1 0xE5 SHL DUP2 MSTORE PUSH1 0x20 PUSH1 0x4 DUP3 ADD MSTORE PUSH1 0x1F PUSH1 0x24 DUP3 ADD MSTORE PUSH32 0x5265656E7472616E637947756172643A207265656E7472616E742063616C6C00 PUSH1 0x44 DUP3 ADD MSTORE PUSH1 0x64 SWAP1 REVERT JUMPDEST PUSH2 0x3DE PUSH2 0x4586 PUSH1 0x6 PUSH2 0x1CB1 JUMP JUMPDEST PUSH2 0x459A PUSH2 0x4591 PUSH2 0x4523 JUMP JUMPDEST SWAP2 DUP3 EQ ISZERO PUSH2 0x452D JUMP JUMPDEST PUSH1 0x6 PUSH2 0x2A47 JUMP JUMPDEST PUSH2 0x3F4 PUSH1 0x1 PUSH2 0x1E8D JUMP JUMPDEST PUSH2 0x3DE PUSH2 0x459A PUSH2 0x45A1 JUMP JUMPDEST ISZERO PUSH2 0x45BD JUMPI JUMP JUMPDEST PUSH1 0x40 MLOAD PUSH3 0x461BCD PUSH1 0xE5 SHL DUP2 MSTORE PUSH1 0x20 PUSH1 0x4 DUP3 ADD MSTORE PUSH1 0x12 PUSH1 0x24 DUP3 ADD MSTORE PUSH18 0x109A5AD9481A5CC81B9BDD081C995B9D1959 PUSH1 0x72 SHL PUSH1 0x44 DUP3 ADD MSTORE PUSH1 0x64 SWAP1 REVERT JUMPDEST ISZERO PUSH2 0x45FE JUMPI JUMP JUMPDEST PUSH1 0x40 MLOAD PUSH3 0x461BCD PUSH1 0xE5 SHL DUP2 MSTORE PUSH1 0x20 PUSH1 0x4 DUP3 ADD MSTORE PUSH1 0xE PUSH1 0x24 DUP3 ADD MSTORE PUSH14 0x139BDD08185D5D1A1BDC9A5E9959 PUSH1 0x92 SHL PUSH1 0x44 DUP3 ADD MSTORE PUSH1 0x64 SWAP1 REVERT JUMPDEST ISZERO PUSH2 0x463B JUMPI JUMP JUMPDEST PUSH1 0x40 MLOAD PUSH3 0x461BCD PUSH1 0xE5 SHL DUP2 MSTORE PUSH1 0x20 PUSH1 0x4 DUP3 ADD MSTORE PUSH1 0x17 PUSH1 0x24 DUP3 ADD MSTORE PUSH32 0x52656E74616C20706572696F64206E6F7420656E646564000000000000000000 PUSH1 0x44 DUP3 ADD MSTORE PUSH1 0x64 SWAP1 REVERT JUMPDEST PUSH2 0x4725 PUSH2 0x468C DUP3 PUSH2 0x320A JUMP JUMPDEST PUSH2 0x4720 PUSH1 0xF DUP3 ADD PUSH2 0x46DD PUSH1 0x6 DUP3 ADD SWAP4 PUSH2 0x46AC PUSH2 0x46A7 DUP7 PUSH2 0x20E0 JUMP JUMPDEST PUSH2 0x45B6 JUMP JUMPDEST PUSH2 0x46C4 PUSH2 0x52F PUSH1 0x1 CALLER SWAP4 ADD SLOAD PUSH1 0x1 PUSH1 0x1 PUSH1 0xA0 SHL SUB AND SWAP1 JUMP JUMPDEST PUSH1 0x1 PUSH1 0x1 PUSH1 0xA0 SHL SUB DUP3 AND EQ SWAP1 DUP2 ISZERO PUSH2 0x4752 JUMPI JUMPDEST POP PUSH2 0x45F7 JUMP JUMPDEST PUSH1 0x7 ADD PUSH2 0x46FA TIMESTAMP PUSH2 0x46F3 PUSH2 0x1F15 PUSH2 0x3F4 DUP6 PUSH2 0x1CB1 JUMP JUMPDEST LT ISZERO PUSH2 0x4634 JUMP JUMPDEST PUSH2 0x2B07 PUSH1 0x0 PUSH2 0x4709 DUP2 DUP7 PUSH2 0x2381 JUMP JUMPDEST PUSH2 0x471B PUSH2 0x4715 DUP3 PUSH2 0x19F1 JUMP JUMPDEST DUP7 PUSH2 0x365E JUMP JUMPDEST PUSH2 0x1E8D JUMP JUMPDEST PUSH2 0x2E1B JUMP JUMPDEST PUSH2 0x1BD7 PUSH2 0x1BD1 PUSH32 0xF9BBD47D9659083AA5B016FFD346ACA413549AACE523513F610200AEED1E1DD4 SWAP4 PUSH2 0x1E8D JUMP JUMPDEST SWAP1 POP PUSH2 0x4763 PUSH2 0x1A89 PUSH2 0x52F DUP8 PUSH2 0x2E1B JUMP JUMPDEST EQ CODESIZE PUSH2 0x46D7 JUMP JUMPDEST PUSH1 0x40 DUP1 DUP3 MSTORE PUSH2 0x3F4 SWAP4 SWAP2 SWAP3 PUSH2 0x4781 SWAP2 DUP5 ADD SWAP1 PUSH2 0x489 JUMP JUMPDEST SWAP2 PUSH1 0x20 DUP2 DUP5 SUB SWAP2 ADD MSTORE PUSH2 0x489 JUMP JUMPDEST SWAP3 CALLER SWAP3 SWAP2 PUSH2 0x47D3 SWAP2 SWAP1 PUSH1 0x3 SWAP1 PUSH2 0x47C0 PUSH2 0x47AC PUSH2 0x3F4 DUP9 PUSH1 0x12 PUSH2 0x1C92 JUMP JUMPDEST SWAP2 PUSH2 0x47B7 DUP10 DUP5 PUSH2 0x4033 JUMP JUMPDEST PUSH1 0x1 DUP4 ADD PUSH2 0x4033 JUMP JUMPDEST PUSH2 0x47CD DUP6 PUSH1 0x2 DUP4 ADD PUSH2 0x4033 JUMP JUMPDEST ADD PUSH2 0x4033 JUMP JUMPDEST PUSH2 0x47FD PUSH32 0x6EB3A1C6A4675BA92D44E090515B1CEEA358F26565D2854DF0C99C3F5EAF9850 SWAP3 PUSH2 0x1B68 JUMP JUMPDEST SWAP3 PUSH2 0x4813 PUSH2 0x480A PUSH1 0x40 MLOAD SWAP1 JUMP JUMPDEST SWAP3 DUP4 SWAP3 DUP4 PUSH2 0x476A JUMP JUMPDEST SUB SWAP1 LOG2 JUMP JUMPDEST PUSH2 0x3DE SWAP1 PUSH2 0x4824 PUSH2 0x1A68 JUMP JUMPDEST PUSH2 0x483C PUSH1 0x1 PUSH1 0x6 PUSH2 0x4836 DUP5 PUSH1 0x12 PUSH2 0x1C92 JUMP JUMPDEST ADD PUSH2 0x2381 JUMP JUMPDEST PUSH2 0x4866 PUSH32 0xA6625D2D26E786E2F473111BEA4B2FCDBBF1863D883A2359989CE3A103D2972A SWAP2 PUSH2 0x1B68 JUMP JUMPDEST SWAP1 PUSH2 0x4870 PUSH1 0x40 MLOAD SWAP1 JUMP JUMPDEST DUP1 DUP1 PUSH2 0x4813 JUMP JUMPDEST PUSH2 0x3DE SWAP1 PUSH2 0x4818 JUMP JUMPDEST ISZERO PUSH2 0x4887 JUMPI JUMP JUMPDEST PUSH1 0x40 MLOAD PUSH3 0x461BCD PUSH1 0xE5 SHL DUP2 MSTORE PUSH1 0x20 PUSH1 0x4 DUP3 ADD MSTORE PUSH1 0x12 PUSH1 0x24 DUP3 ADD MSTORE PUSH18 0x2737BA103A3432903134B5B29037BBB732B9 PUSH1 0x71 SHL PUSH1 0x44 DUP3 ADD MSTORE PUSH1 0x64 SWAP1 REVERT JUMPDEST SWAP3 SWAP2 PUSH1 0x20 PUSH2 0x48DE PUSH2 0x3DE SWAP4 PUSH1 0x40 DUP8 ADD SWAP1 DUP8 DUP3 SUB PUSH1 0x0 DUP10 ADD MSTORE PUSH2 0x489 JUMP JUMPDEST SWAP5 ADD MSTORE JUMP JUMPDEST PUSH2 0x491E PUSH1 0x9 PUSH1 0xF PUSH2 0x48F3 DUP5 PUSH2 0x320A JUMP JUMPDEST PUSH2 0x4919 PUSH2 0x490A PUSH1 0x1 DUP4 ADD SLOAD PUSH1 0x1 PUSH1 0x1 PUSH1 0xA0 SHL SUB AND SWAP1 JUMP JUMPDEST PUSH2 0x4913 CALLER PUSH2 0x1A89 JUMP JUMPDEST EQ PUSH2 0x4880 JUMP JUMPDEST ADD ADD SWAP1 JUMP JUMPDEST PUSH2 0x4929 TIMESTAMP DUP1 SWAP3 PUSH2 0x417C JUMP JUMPDEST PUSH2 0x4953 PUSH32 0xBEB5421E5F84E7E8A5CB8D83D85E1460BFCA8F34DE4A49ED3B39F629A93B9FAF SWAP3 PUSH2 0x1E8D JUMP JUMPDEST SWAP3 PUSH2 0x4813 PUSH2 0x4960 PUSH1 0x40 MLOAD SWAP1 JUMP JUMPDEST SWAP3 DUP4 SWAP3 DUP4 PUSH2 0x48C1 JUMP JUMPDEST PUSH2 0x4998 DUP3 PUSH1 0x8 PUSH1 0xF PUSH2 0x497A DUP6 PUSH2 0x320A JUMP JUMPDEST PUSH2 0x4991 PUSH2 0x490A PUSH1 0x1 DUP4 ADD SLOAD PUSH1 0x1 PUSH1 0x1 PUSH1 0xA0 SHL SUB AND SWAP1 JUMP JUMPDEST ADD ADD PUSH2 0x2A47 JUMP JUMPDEST PUSH2 0x4813 PUSH2 0x49C5 PUSH32 0xC2663C5AE35A0C1178B32C0B261B64322CFBC9D22CC8BE0398A154656D52D341 SWAP3 PUSH2 0x1E8D JUMP JUMPDEST SWAP3 PUSH2 0x10E4 PUSH1 0x40 MLOAD SWAP1 JUMP JUMPDEST PUSH2 0x3F4 SWAP1 PUSH1 0x10 SHR PUSH2 0x52F JUMP JUMPDEST PUSH2 0x3F4 SWAP1 SLOAD PUSH2 0x49CF JUMP JUMPDEST ISZERO PUSH2 0x49EC JUMPI JUMP JUMPDEST PUSH1 0x40 MLOAD PUSH3 0x461BCD PUSH1 0xE5 SHL DUP2 MSTORE PUSH1 0x20 PUSH1 0x4 DUP3 ADD MSTORE PUSH1 0x1B PUSH1 0x24 DUP3 ADD MSTORE PUSH32 0x4E6F7420696E766F6C76656420696E207472616E73616374696F6E0000000000 PUSH1 0x44 DUP3 ADD MSTORE PUSH1 0x64 SWAP1 REVERT JUMPDEST ISZERO PUSH2 0x4A38 JUMPI JUMP JUMPDEST PUSH1 0x40 MLOAD PUSH3 0x461BCD PUSH1 0xE5 SHL DUP2 MSTORE PUSH1 0x20 PUSH1 0x4 DUP3 ADD MSTORE PUSH1 0x19 PUSH1 0x24 DUP3 ADD MSTORE PUSH32 0x5472616E73616374696F6E206E6F7420636F6D706C6574656400000000000000 PUSH1 0x44 DUP3 ADD MSTORE PUSH1 0x64 SWAP1 REVERT JUMPDEST PUSH2 0x4A8B PUSH2 0x3F4 DUP3 PUSH1 0x13 PUSH2 0x2093 JUMP JUMPDEST SWAP1 PUSH2 0x4AEB CALLER SWAP3 PUSH2 0x4ABE PUSH1 0x2 DUP3 ADD SWAP2 PUSH2 0x4AA5 PUSH2 0x52F DUP5 PUSH2 0x49DB JUMP JUMPDEST PUSH1 0x1 PUSH1 0x1 PUSH1 0xA0 SHL SUB DUP8 AND EQ SWAP1 DUP2 ISZERO PUSH2 0x4B25 JUMPI JUMPDEST POP PUSH2 0x49E5 JUMP JUMPDEST PUSH2 0x4AE3 PUSH2 0x4ACA DUP3 PUSH2 0x2DE5 JUMP JUMPDEST PUSH2 0x4ADD PUSH2 0x4AD7 PUSH1 0x1 PUSH2 0x1797 JUMP JUMPDEST SWAP2 PUSH2 0x1797 JUMP JUMPDEST EQ PUSH2 0x4A31 JUMP JUMPDEST PUSH1 0x3 SWAP1 PUSH2 0x3F32 JUMP JUMPDEST PUSH2 0x1BE4 PUSH2 0x4B1B PUSH2 0x23FE PUSH32 0x1B84372106D77C6DAEA0DDA35BBC0229D10A83F58EC899092884925193682341 SWAP4 PUSH2 0x1E8D JUMP JUMPDEST SWAP4 PUSH2 0x4E9 PUSH1 0x40 MLOAD SWAP1 JUMP JUMPDEST PUSH1 0x3 ADD SLOAD PUSH2 0x4B3C SWAP2 POP PUSH1 0x1 PUSH1 0x1 PUSH1 0xA0 SHL SUB AND PUSH2 0x52F JUMP JUMPDEST PUSH1 0x1 PUSH1 0x1 PUSH1 0xA0 SHL SUB DUP7 AND EQ CODESIZE PUSH2 0x4AB8 JUMP JUMPDEST PUSH1 0xF SWAP1 PUSH2 0x4B81 PUSH2 0x4B5C DUP3 PUSH2 0x320A JUMP JUMPDEST PUSH2 0x4B73 PUSH2 0x490A PUSH1 0x1 DUP4 ADD SLOAD PUSH1 0x1 PUSH1 0x1 PUSH1 0xA0 SHL SUB AND SWAP1 JUMP JUMPDEST PUSH1 0x4 PUSH1 0x1 SWAP5 DUP6 SWAP3 ADD ADD PUSH2 0x2381 JUMP JUMPDEST PUSH2 0x4813 PUSH2 0x4BAE PUSH32 0x31C7437140229C226A4ACAED438F62C68DA03165F12E02A33D2754C8632461EB SWAP3 PUSH2 0x1E8D JUMP JUMPDEST SWAP3 PUSH2 0x429 PUSH1 0x40 MLOAD SWAP1 JUMP JUMPDEST ISZERO PUSH2 0x4BBF JUMPI JUMP JUMPDEST PUSH1 0x40 MLOAD PUSH3 0x461BCD PUSH1 0xE5 SHL DUP2 MSTORE PUSH1 0x20 PUSH1 0x4 DUP3 ADD MSTORE PUSH1 0x1C PUSH1 0x24 DUP3 ADD MSTORE PUSH32 0x42696B65206973206E6F74206D61726B65642061732073746F6C656E00000000 PUSH1 0x44 DUP3 ADD MSTORE PUSH1 0x64 SWAP1 REVERT JUMPDEST PUSH1 0x4 PUSH1 0xF PUSH2 0x4C11 DUP4 PUSH2 0x320A JUMP JUMPDEST PUSH2 0x4C28 PUSH2 0x490A PUSH1 0x1 DUP4 ADD SLOAD PUSH1 0x1 PUSH1 0x1 PUSH1 0xA0 SHL SUB AND SWAP1 JUMP JUMPDEST ADD ADD SWAP1 PUSH2 0x4C3C PUSH2 0x4C37 DUP4 PUSH2 0x20E0 JUMP JUMPDEST PUSH2 0x4BB8 JUMP JUMPDEST PUSH2 0x4B81 PUSH1 0x0 DUP1 SWAP4 PUSH2 0x2381 JUMP JUMPDEST SWAP1 PUSH2 0x4C68 PUSH2 0x490A PUSH1 0x1 PUSH2 0x4C5A DUP6 PUSH2 0x320A JUMP JUMPDEST ADD SLOAD PUSH1 0x1 PUSH1 0x1 PUSH1 0xA0 SHL SUB AND SWAP1 JUMP JUMPDEST PUSH2 0x4C77 DUP2 PUSH2 0x22CF DUP5 PUSH1 0xF PUSH2 0x2093 JUMP JUMPDEST PUSH2 0x1BD7 PUSH2 0x1BD1 PUSH32 0x2C507BD5F7CE8A766341B3B97146350A897966B95B50AA0F7DB93AD6DD579167 SWAP4 PUSH2 0x1E8D JUMP JUMPDEST ISZERO PUSH2 0x4CAB JUMPI JUMP JUMPDEST PUSH1 0x40 MLOAD PUSH3 0x461BCD PUSH1 0xE5 SHL DUP2 MSTORE PUSH1 0x20 PUSH1 0x4 DUP3 ADD MSTORE PUSH1 0x17 PUSH1 0x24 DUP3 ADD MSTORE PUSH32 0x42696B6520697320616C726561647920696E7375726564000000000000000000 PUSH1 0x44 DUP3 ADD MSTORE PUSH1 0x64 SWAP1 REVERT JUMPDEST PUSH1 0x4 PUSH1 0xF PUSH2 0x4CFD DUP4 PUSH2 0x320A JUMP JUMPDEST PUSH2 0x4D14 PUSH2 0x490A PUSH1 0x1 DUP4 ADD SLOAD PUSH1 0x1 PUSH1 0x1 PUSH1 0xA0 SHL SUB AND SWAP1 JUMP JUMPDEST ADD ADD SWAP1 PUSH2 0x4D2B PUSH2 0x4D26 PUSH2 0x28D0 DUP5 PUSH2 0x2DE5 JUMP JUMPDEST PUSH2 0x4CA4 JUMP JUMPDEST PUSH2 0x4D37 PUSH1 0x1 DUP1 SWAP4 PUSH2 0x35FB JUMP JUMPDEST PUSH2 0x4813 PUSH2 0x4BAE PUSH32 0x897CCBA9AD8D1AC8A46CA954E71E2470F4BC81CCC69CA1D61F40210156C64E67 SWAP3 PUSH2 0x1E8D JUMP JUMPDEST ISZERO PUSH2 0x4D6B JUMPI JUMP JUMPDEST PUSH1 0x40 MLOAD PUSH3 0x461BCD PUSH1 0xE5 SHL DUP2 MSTORE PUSH1 0x20 PUSH1 0x4 DUP3 ADD MSTORE PUSH1 0x1E PUSH1 0x24 DUP3 ADD MSTORE PUSH32 0x526174696E67206D757374206265206265747765656E203120616E6420350000 PUSH1 0x44 DUP3 ADD MSTORE PUSH1 0x64 SWAP1 REVERT JUMPDEST ISZERO PUSH2 0x4DB7 JUMPI JUMP JUMPDEST PUSH1 0x40 MLOAD PUSH3 0x461BCD PUSH1 0xE5 SHL DUP2 MSTORE PUSH1 0x20 PUSH1 0x4 DUP3 ADD MSTORE PUSH1 0x17 PUSH1 0x24 DUP3 ADD MSTORE PUSH32 0x436F6D6D656E742063616E6E6F7420626520656D707479000000000000000000 PUSH1 0x44 DUP3 ADD MSTORE PUSH1 0x64 SWAP1 REVERT JUMPDEST PUSH1 0x0 JUMPDEST DUP3 DUP2 LT PUSH2 0x4E0B JUMPI POP POP POP JUMP JUMPDEST PUSH1 0x60 DUP3 DUP3 ADD MSTORE PUSH1 0x20 ADD PUSH2 0x4DFF JUMP JUMPDEST SWAP1 PUSH2 0x3DE PUSH2 0x4E2F PUSH2 0x4E29 DUP5 PUSH2 0x2ECF JUMP JUMPDEST SWAP4 PUSH2 0x2EAB JUMP JUMPDEST PUSH1 0x1F NOT ADD PUSH1 0x20 DUP5 ADD PUSH2 0x4DFC JUMP JUMPDEST SWAP1 PUSH2 0x3DE PUSH2 0x25E1 PUSH2 0x4E29 DUP5 PUSH2 0x2ECF JUMP JUMPDEST PUSH2 0x3F4 PUSH2 0x120 PUSH2 0xC96 JUMP JUMPDEST PUSH2 0x416B PUSH1 0x9 SWAP2 PUSH2 0x4159 DUP2 SLOAD SWAP1 JUMP JUMPDEST PUSH2 0x4E90 PUSH2 0x4E84 PUSH2 0x4E73 DUP5 MLOAD SWAP1 JUMP JUMPDEST SWAP4 PUSH2 0x4E7E DUP6 DUP6 PUSH2 0x39D6 JUMP JUMPDEST PUSH1 0x20 ADD SWAP1 JUMP JUMPDEST SWAP2 PUSH1 0x0 MSTORE PUSH1 0x20 PUSH1 0x0 KECCAK256 SWAP1 JUMP JUMPDEST PUSH1 0x0 SWAP2 JUMPDEST DUP4 DUP4 LT PUSH2 0x4EA1 JUMPI POP POP POP POP JUMP JUMPDEST PUSH1 0x1 PUSH1 0x20 DUP3 PUSH2 0x4EB8 PUSH2 0x4EB2 DUP5 SWAP6 MLOAD SWAP1 JUMP JUMPDEST DUP7 PUSH2 0x4033 JUMP JUMPDEST ADD SWAP3 ADD SWAP3 ADD SWAP2 SWAP1 PUSH2 0x4E94 JUMP JUMPDEST SWAP1 PUSH2 0x3DE SWAP2 PUSH2 0x4E65 JUMP JUMPDEST PUSH1 0x1 PUSH2 0x4EF8 PUSH2 0x2E34 PUSH2 0x4EDE DUP6 MLOAD SWAP1 JUMP JUMPDEST SWAP5 PUSH1 0x1 PUSH1 0x1 PUSH1 0x40 SHL SUB DUP7 GT PUSH2 0x4F28 JUMPI JUMPDEST PUSH2 0x4E7E DUP7 DUP7 PUSH2 0x3739 JUMP JUMPDEST SWAP3 DIV SWAP2 PUSH1 0x0 JUMPDEST DUP4 DUP2 LT PUSH2 0x4F0B JUMPI POP POP POP POP JUMP JUMPDEST PUSH1 0x1 SWAP1 PUSH1 0x20 PUSH2 0x4F1B PUSH2 0x3F4 DUP7 MLOAD SWAP1 JUMP JUMPDEST SWAP5 ADD SWAP4 DUP2 DUP5 ADD SSTORE ADD PUSH2 0x4EFE JUMP JUMPDEST PUSH2 0x4F30 PUSH2 0xC51 JUMP JUMPDEST PUSH2 0x4EEE JUMP JUMPDEST SWAP1 PUSH2 0x3DE SWAP2 PUSH2 0x4ECE JUMP JUMPDEST PUSH2 0x3DE SWAP2 SWAP1 PUSH2 0x4FEA SWAP1 PUSH2 0x100 SWAP1 PUSH1 0x8 SWAP1 PUSH2 0x4F64 DUP2 PUSH2 0x40CB DUP8 MLOAD PUSH1 0x1 PUSH1 0x1 PUSH1 0xA0 SHL SUB AND SWAP1 JUMP JUMPDEST PUSH2 0x4F76 PUSH1 0x1 DUP3 ADD PUSH2 0x2B07 PUSH1 0x20 DUP9 ADD MLOAD SWAP1 JUMP JUMPDEST PUSH2 0x4F88 PUSH1 0x2 DUP3 ADD PUSH2 0x2B07 PUSH1 0x40 DUP9 ADD MLOAD SWAP1 JUMP JUMPDEST PUSH2 0x4F9A PUSH1 0x3 DUP3 ADD PUSH2 0x4108 PUSH1 0x60 DUP9 ADD MLOAD SWAP1 JUMP JUMPDEST PUSH2 0x4FAC PUSH1 0x4 DUP3 ADD PUSH2 0x2B07 PUSH1 0x80 DUP9 ADD MLOAD SWAP1 JUMP JUMPDEST PUSH2 0x4FBE PUSH1 0x5 DUP3 ADD PUSH2 0x2B07 PUSH1 0xA0 DUP9 ADD MLOAD SWAP1 JUMP JUMPDEST PUSH2 0x4FD2 PUSH1 0x6 DUP3 ADD PUSH2 0x35DE PUSH1 0xC0 DUP9 ADD MLOAD ISZERO ISZERO SWAP1 JUMP JUMPDEST PUSH2 0x4123 PUSH1 0x7 DUP3 ADD PUSH2 0x4FE4 PUSH1 0xE0 DUP9 ADD MLOAD SWAP1 JUMP JUMPDEST SWAP1 PUSH2 0x4EC4 JUMP JUMPDEST SWAP1 PUSH2 0x4F35 JUMP JUMPDEST PUSH2 0x3DE SWAP3 SWAP2 ISZERO PUSH2 0x4F3F JUMPI PUSH2 0x5002 PUSH2 0x32B7 JUMP JUMPDEST PUSH2 0x4F3F JUMP JUMPDEST SWAP1 PUSH2 0x502A PUSH2 0x3DE SWAP3 DUP1 SLOAD SWAP1 PUSH1 0x1 PUSH1 0x40 SHL DUP3 LT ISZERO PUSH2 0x5030 JUMPI JUMPDEST PUSH1 0x1 DUP3 ADD DUP2 SSTORE PUSH2 0x4E57 JUMP JUMPDEST SWAP1 PUSH2 0x4FF0 JUMP JUMPDEST PUSH2 0x5038 PUSH2 0xC51 JUMP JUMPDEST PUSH2 0x501F JUMP JUMPDEST SWAP1 DUP2 MSTORE PUSH1 0x40 PUSH1 0x20 DUP3 ADD DUP2 SWAP1 MSTORE PUSH2 0x3F4 SWAP3 SWAP2 ADD SWAP1 PUSH2 0x489 JUMP JUMPDEST PUSH1 0x1 SWAP2 PUSH2 0x5061 DUP4 PUSH2 0x1E8D JUMP JUMPDEST DUP2 LT ISZERO DUP1 PUSH2 0x51BD JUMPI JUMPDEST PUSH2 0x5073 SWAP1 PUSH2 0x4D64 JUMP JUMPDEST DUP4 MLOAD SWAP3 PUSH1 0x0 SWAP4 PUSH2 0x5082 DUP6 PUSH2 0x1E8D JUMP JUMPDEST LT PUSH2 0x508C SWAP1 PUSH2 0x4DB0 JUMP JUMPDEST CALLER SWAP4 TIMESTAMP PUSH2 0x5098 DUP3 PUSH2 0x1E8D JUMP JUMPDEST SWAP2 PUSH2 0x50A2 DUP4 PUSH2 0x4E19 JUMP JUMPDEST SWAP1 PUSH2 0x50AC DUP5 PUSH2 0x4E3C JUMP JUMPDEST SWAP3 PUSH2 0x50B5 PUSH2 0x4E4C JUMP JUMPDEST PUSH1 0x1 PUSH1 0x1 PUSH1 0xA0 SHL SUB DUP11 AND DUP4 DUP3 ADD MSTORE SWAP5 PUSH2 0x50CF DUP10 PUSH1 0x20 DUP9 ADD MSTORE JUMP JUMPDEST PUSH2 0x50DA DUP9 PUSH1 0x40 DUP9 ADD MSTORE JUMP JUMPDEST PUSH1 0x60 DUP7 ADD DUP12 SWAP1 MSTORE PUSH1 0x80 DUP7 ADD MSTORE PUSH1 0xA0 DUP6 ADD MSTORE ISZERO ISZERO PUSH1 0xC0 DUP5 ADD MSTORE PUSH1 0xE0 DUP4 ADD MSTORE PUSH2 0x100 DUP3 ADD MSTORE PUSH2 0x5108 DUP5 PUSH1 0xC PUSH2 0x2093 JUMP JUMPDEST SWAP1 PUSH2 0x5112 SWAP2 PUSH2 0x5007 JUMP JUMPDEST DUP3 PUSH2 0x511E DUP6 PUSH1 0xD PUSH2 0x1C92 JUMP JUMPDEST SWAP1 PUSH2 0x5128 SWAP2 PUSH2 0x417C JUMP JUMPDEST PUSH2 0x5133 DUP4 PUSH1 0xE PUSH2 0x2093 JUMP JUMPDEST SWAP1 DUP2 ADD DUP3 PUSH2 0x5140 DUP3 PUSH2 0x1CB1 JUMP JUMPDEST SWAP1 PUSH2 0x514A SWAP2 PUSH2 0x3E78 JUMP JUMPDEST PUSH2 0x5153 SWAP2 PUSH2 0x2A47 JUMP JUMPDEST PUSH1 0x2 ADD PUSH2 0x515F DUP2 PUSH2 0x1CB1 JUMP JUMPDEST PUSH2 0x5168 SWAP1 PUSH2 0x3EC8 JUMP JUMPDEST PUSH2 0x5171 SWAP2 PUSH2 0x2A47 JUMP JUMPDEST PUSH32 0x4BEB3FAED0901F48C8EAA53DB80247F723DDEB08676B6BADB9EE2F191D1AC2DF SWAP2 PUSH2 0x519C SWAP1 PUSH2 0x1E8D JUMP JUMPDEST SWAP3 PUSH2 0x51A6 SWAP1 PUSH2 0x1B68 JUMP JUMPDEST SWAP4 PUSH2 0x51B0 PUSH1 0x40 MLOAD SWAP1 JUMP JUMPDEST SWAP2 DUP3 SWAP2 PUSH2 0x1BE4 SWAP2 DUP4 PUSH2 0x503D JUMP JUMPDEST POP PUSH2 0x5073 PUSH2 0x51CB PUSH1 0x5 PUSH2 0x1E8D JUMP JUMPDEST DUP3 GT ISZERO SWAP1 POP PUSH2 0x506A JUMP JUMPDEST ISZERO PUSH2 0x51DC JUMPI JUMP JUMPDEST PUSH1 0x40 MLOAD PUSH3 0x461BCD PUSH1 0xE5 SHL DUP2 MSTORE PUSH1 0x20 PUSH1 0x4 DUP3 ADD MSTORE PUSH1 0x15 PUSH1 0x24 DUP3 ADD MSTORE PUSH21 0x14995D9A595DC8191BD95CC81B9BDD08195E1A5CDD PUSH1 0x5A SHL PUSH1 0x44 DUP3 ADD MSTORE PUSH1 0x64 SWAP1 REVERT JUMPDEST ISZERO PUSH2 0x5220 JUMPI JUMP JUMPDEST PUSH1 0x40 MLOAD PUSH3 0x461BCD PUSH1 0xE5 SHL DUP2 MSTORE PUSH1 0x20 PUSH1 0x4 DUP3 ADD MSTORE PUSH1 0x19 PUSH1 0x24 DUP3 ADD MSTORE PUSH32 0x416C7265616479206C696B656420746869732072657669657700000000000000 PUSH1 0x44 DUP3 ADD MSTORE PUSH1 0x64 SWAP1 REVERT JUMPDEST SWAP1 PUSH1 0xC SWAP1 PUSH2 0x5287 PUSH2 0x5280 PUSH2 0x3F4 PUSH2 0x527C DUP7 DUP7 PUSH2 0x2093 JUMP JUMPDEST SLOAD SWAP1 JUMP JUMPDEST DUP3 LT PUSH2 0x51D5 JUMP JUMPDEST PUSH2 0x5308 PUSH1 0x4 PUSH2 0x5301 DUP4 PUSH2 0x52D5 DUP8 PUSH1 0x10 SWAP8 PUSH2 0x28FA PUSH2 0x52A8 DUP6 PUSH2 0x28FA DUP6 DUP14 PUSH2 0x2093 JUMP JUMPDEST SWAP10 PUSH2 0x52C3 PUSH2 0x52BE PUSH2 0x28D0 PUSH2 0x210A CALLER SWAP15 DUP16 SWAP1 PUSH2 0x1C92 JUMP JUMPDEST PUSH2 0x5219 JUMP JUMPDEST PUSH2 0x52ED DUP9 PUSH2 0x52DA DUP9 PUSH2 0x52D5 DUP9 DUP9 PUSH2 0x2093 JUMP JUMPDEST PUSH2 0x4E57 JUMP JUMPDEST POP ADD PUSH2 0x2B07 PUSH2 0x52E8 DUP3 PUSH2 0x1CB1 JUMP JUMPDEST PUSH2 0x3EC8 JUMP JUMPDEST PUSH2 0x23C9 DUP12 PUSH2 0x2105 DUP9 PUSH2 0x28FA DUP9 PUSH1 0x1 SWAP7 PUSH2 0x2093 JUMP JUMPDEST POP ADD PUSH2 0x1CB1 JUMP JUMPDEST SWAP3 PUSH2 0x2327 PUSH2 0x293F PUSH2 0x2939 PUSH2 0x533C PUSH32 0xC58DEAE63C2D94E1502A392380F59901DC4CD3C3BBC40308B6189DECF09671D5 SWAP5 PUSH2 0x1E8D JUMP JUMPDEST SWAP5 PUSH2 0x1E8D JUMP JUMPDEST ISZERO PUSH2 0x5349 JUMPI JUMP JUMPDEST PUSH1 0x40 MLOAD PUSH3 0x461BCD PUSH1 0xE5 SHL DUP2 MSTORE PUSH1 0x20 PUSH1 0x4 DUP3 ADD MSTORE PUSH1 0x1F PUSH1 0x24 DUP3 ADD MSTORE PUSH32 0x43616E6E6F74206368616E67652074797065207768696C652072656E74656400 PUSH1 0x44 DUP3 ADD MSTORE PUSH1 0x64 SWAP1 REVERT JUMPDEST SWAP1 SWAP2 DUP3 PUSH1 0x4 PUSH2 0x53F2 SWAP3 PUSH1 0xF PUSH2 0x53A2 DUP7 PUSH2 0x320A JUMP JUMPDEST PUSH2 0x53B9 PUSH2 0x490A PUSH1 0x1 DUP4 ADD SLOAD PUSH1 0x1 PUSH1 0x1 PUSH1 0xA0 SHL SUB AND SWAP1 JUMP JUMPDEST ADD SWAP1 PUSH2 0x53D2 PUSH2 0x53CD PUSH2 0x28D0 PUSH1 0x6 DUP6 ADD PUSH2 0x20E0 JUMP JUMPDEST PUSH2 0x5342 JUMP JUMPDEST PUSH2 0x53DC PUSH1 0x1 PUSH2 0x8B0 JUMP JUMPDEST PUSH2 0x53E5 DUP6 PUSH2 0x8B0 JUMP JUMPDEST EQ PUSH2 0x5432 JUMPI JUMPDEST POP ADD PUSH2 0x362A JUMP JUMPDEST PUSH2 0x4813 PUSH2 0x541F PUSH32 0x67D4C4FC54B59B0C047B4BB8EDBBF1EC91DE3457C643770B0DC36791E9966E13 SWAP3 PUSH2 0x1E8D JUMP JUMPDEST SWAP3 PUSH2 0x5429 PUSH1 0x40 MLOAD SWAP1 JUMP JUMPDEST SWAP2 DUP3 SWAP2 DUP3 PUSH2 0x3BDF JUMP JUMPDEST PUSH2 0x544C SWAP1 PUSH2 0x5443 PUSH2 0x3D59 PUSH1 0x0 PUSH2 0x1E8D JUMP JUMPDEST PUSH1 0x5 DUP4 ADD PUSH2 0x2A47 JUMP JUMPDEST CODESIZE PUSH2 0x53EB JUMP JUMPDEST ISZERO PUSH2 0x5459 JUMPI JUMP JUMPDEST PUSH1 0x40 MLOAD PUSH3 0x461BCD PUSH1 0xE5 SHL DUP2 MSTORE PUSH1 0x20 PUSH1 0x4 DUP3 ADD MSTORE PUSH1 0x14 PUSH1 0x24 DUP3 ADD MSTORE PUSH20 0x4E6F7420612072656E74616C206C697374696E67 PUSH1 0x60 SHL PUSH1 0x44 DUP3 ADD MSTORE PUSH1 0x64 SWAP1 REVERT JUMPDEST ISZERO PUSH2 0x549C JUMPI JUMP JUMPDEST PUSH1 0x40 MLOAD PUSH3 0x461BCD PUSH1 0xE5 SHL DUP2 MSTORE DUP1 PUSH2 0x1A64 PUSH1 0x4 DUP3 ADD PUSH1 0x20 DUP1 DUP3 MSTORE DUP2 DUP2 ADD MSTORE PUSH32 0x43616E6E6F7420757064617465207072696365207768696C652072656E746564 PUSH1 0x40 DUP3 ADD MSTORE PUSH1 0x60 ADD SWAP1 JUMP JUMPDEST PUSH2 0x555A DUP3 PUSH1 0x5 PUSH1 0xF PUSH2 0x54F6 DUP6 PUSH2 0x320A JUMP JUMPDEST PUSH2 0x550D PUSH2 0x490A PUSH1 0x1 DUP4 ADD SLOAD PUSH1 0x1 PUSH1 0x1 PUSH1 0xA0 SHL SUB AND SWAP1 JUMP JUMPDEST ADD PUSH2 0x5530 PUSH2 0x551D PUSH1 0x4 DUP4 ADD PUSH2 0x2DFB JUMP JUMPDEST PUSH2 0x552A PUSH2 0x421D PUSH1 0x1 PUSH2 0x8B0 JUMP JUMPDEST EQ PUSH2 0x5452 JUMP JUMPDEST PUSH2 0x553D PUSH2 0x3C01 PUSH1 0x0 PUSH2 0x1E8D JUMP JUMPDEST PUSH2 0x5554 PUSH2 0x554F PUSH2 0x28D0 PUSH1 0x6 DUP5 ADD PUSH2 0x20E0 JUMP JUMPDEST PUSH2 0x5495 JUMP JUMPDEST ADD PUSH2 0x2A47 JUMP JUMPDEST PUSH2 0x4813 PUSH2 0x49C5 PUSH32 0xA396B937EACB736072F5B3D5D325CF506BF4A7D5FC645BBBEB1A58ED6E8D70E2 SWAP3 PUSH2 0x1E8D JUMP JUMPDEST PUSH2 0x55CC DUP3 PUSH1 0x2 PUSH2 0x5596 DUP5 PUSH2 0x320A JUMP JUMPDEST PUSH2 0x55AD PUSH2 0x490A PUSH1 0x1 DUP4 ADD SLOAD PUSH1 0x1 PUSH1 0x1 PUSH1 0xA0 SHL SUB AND SWAP1 JUMP JUMPDEST PUSH2 0x55BA PUSH2 0x3C01 PUSH1 0x0 PUSH2 0x1E8D JUMP JUMPDEST PUSH2 0x5554 PUSH2 0x554F PUSH2 0x28D0 PUSH1 0x15 DUP5 ADD PUSH2 0x20E0 JUMP JUMPDEST PUSH2 0x4813 PUSH2 0x49C5 PUSH32 0x945C1C4E99AA89F648FBFE3DF471B916F719E16D960FCEC0737D4D56BD696838 SWAP3 PUSH2 0x1E8D JUMP JUMPDEST ISZERO PUSH2 0x5600 JUMPI JUMP JUMPDEST PUSH1 0x40 MLOAD PUSH3 0x461BCD PUSH1 0xE5 SHL DUP2 MSTORE PUSH1 0x20 PUSH1 0x4 DUP3 ADD MSTORE PUSH1 0x24 DUP1 DUP3 ADD MSTORE PUSH32 0x596F752063616E206F6E6C792064656C65746520796F7572206F776E20726576 PUSH1 0x44 DUP3 ADD MSTORE PUSH4 0x69657773 PUSH1 0xE0 SHL PUSH1 0x64 DUP3 ADD MSTORE PUSH1 0x84 SWAP1 REVERT JUMPDEST SWAP2 SWAP1 DUP3 SUB SWAP2 DUP3 GT PUSH2 0x36F1 JUMPI JUMP JUMPDEST PUSH1 0x1 SWAP1 DUP1 ISZERO PUSH2 0x566B JUMPI SUB SWAP1 JUMP JUMPDEST PUSH2 0x2A39 PUSH2 0x36C7 JUMP JUMPDEST PUSH2 0x3F4 SWAP1 SLOAD PUSH2 0x1D89 JUMP JUMPDEST SWAP1 DUP1 DUP3 EQ PUSH2 0x575A JUMPI PUSH2 0x568E DUP2 PUSH2 0x5673 JUMP JUMPDEST SWAP1 PUSH1 0x1 PUSH1 0x1 PUSH1 0x40 SHL SUB DUP3 GT PUSH2 0x574D JUMPI JUMPDEST PUSH2 0x56AC DUP3 PUSH2 0x33F5 DUP6 SLOAD PUSH2 0x1D89 JUMP JUMPDEST PUSH1 0x0 SWAP1 PUSH1 0x1F DUP4 GT PUSH1 0x1 EQ PUSH2 0x56D9 JUMPI PUSH2 0x1B88 SWAP3 SWAP2 PUSH1 0x0 SWAP2 DUP4 PUSH2 0x56CE JUMPI POP POP PUSH2 0x33C4 JUMP JUMPDEST ADD SLOAD SWAP1 POP CODESIZE DUP1 PUSH2 0x3417 JUMP JUMPDEST SWAP1 PUSH2 0x56EE PUSH1 0x1F NOT DUP5 AND SWAP3 PUSH1 0x0 MSTORE PUSH1 0x20 PUSH1 0x0 KECCAK256 SWAP1 JUMP JUMPDEST SWAP1 PUSH2 0x56FE DUP6 PUSH1 0x0 MSTORE PUSH1 0x20 PUSH1 0x0 KECCAK256 SWAP1 JUMP JUMPDEST SWAP3 DUP2 JUMPDEST DUP2 DUP2 LT PUSH2 0x5735 JUMPI POP SWAP2 PUSH1 0x2 SWAP4 SWAP2 DUP6 PUSH1 0x1 SWAP7 SWAP5 LT PUSH2 0x5721 JUMPI POP POP POP MUL ADD SWAP1 SSTORE JUMP JUMPDEST ADD SLOAD PUSH1 0x0 NOT PUSH1 0x8 PUSH1 0x1F DUP6 AND MUL SHR NOT AND PUSH2 0x3472 JUMP JUMPDEST SWAP2 SWAP4 PUSH1 0x1 DUP1 PUSH1 0x20 SWAP3 DUP8 DUP8 ADD SLOAD DUP2 SSTORE ADD SWAP6 ADD SWAP3 ADD PUSH2 0x5701 JUMP JUMPDEST PUSH2 0x5755 PUSH2 0xC51 JUMP JUMPDEST PUSH2 0x569E JUMP JUMPDEST POP POP JUMP JUMPDEST SWAP1 PUSH2 0x3DE SWAP2 PUSH2 0x567D JUMP JUMPDEST DUP2 DUP2 EQ PUSH2 0x575A JUMPI PUSH2 0x5788 PUSH2 0x4E84 PUSH2 0x577D DUP5 SLOAD SWAP1 JUMP JUMPDEST SWAP4 PUSH2 0x1DB6 DUP6 DUP6 PUSH2 0x39D6 JUMP JUMPDEST PUSH1 0x0 SWAP2 JUMPDEST DUP4 DUP4 LT PUSH2 0x5799 JUMPI POP POP POP POP JUMP JUMPDEST PUSH1 0x1 DUP1 DUP3 PUSH2 0x57A8 DUP3 SWAP5 DUP7 PUSH2 0x575E JUMP JUMPDEST ADD SWAP3 ADD SWAP3 ADD SWAP2 SWAP1 PUSH2 0x578C JUMP JUMPDEST SWAP1 PUSH2 0x3DE SWAP2 PUSH2 0x5768 JUMP JUMPDEST DUP2 DUP2 EQ PUSH2 0x575A JUMPI PUSH1 0x1 PUSH2 0x57EF PUSH2 0x2E34 PUSH2 0x57D5 DUP6 SLOAD SWAP1 JUMP JUMPDEST SWAP5 PUSH1 0x1 PUSH1 0x1 PUSH1 0x40 SHL SUB DUP7 GT PUSH2 0x5823 JUMPI JUMPDEST PUSH2 0x1DB6 DUP7 DUP7 PUSH2 0x3739 JUMP JUMPDEST SWAP3 DIV SWAP2 DUP2 SLOAD SWAP2 PUSH1 0x0 SWAP3 JUMPDEST DUP5 DUP5 LT PUSH2 0x5807 JUMPI POP POP POP POP POP JUMP JUMPDEST PUSH1 0x1 PUSH2 0x5811 DUP2 SWAP3 SWAP1 JUMP JUMPDEST SWAP3 ADD SWAP4 DUP5 SLOAD SWAP3 DUP2 DUP6 ADD SSTORE ADD SWAP3 SWAP1 PUSH2 0x57F9 JUMP JUMPDEST PUSH2 0x582B PUSH2 0xC51 JUMP JUMPDEST PUSH2 0x57E5 JUMP JUMPDEST SWAP1 PUSH2 0x3DE SWAP2 PUSH2 0x57BE JUMP JUMPDEST SWAP1 DUP1 DUP3 SUB PUSH2 0x5846 JUMPI POP POP JUMP JUMPDEST PUSH2 0x3DE SWAP2 PUSH1 0x8 SWAP1 DUP2 SWAP1 PUSH2 0x5864 DUP2 PUSH2 0x40CB DUP7 SLOAD PUSH1 0x1 PUSH1 0x1 PUSH1 0xA0 SHL SUB AND SWAP1 JUMP JUMPDEST PUSH2 0x5877 PUSH1 0x1 DUP3 ADD PUSH2 0x2B07 PUSH1 0x1 DUP8 ADD PUSH2 0x1CB1 JUMP JUMPDEST PUSH2 0x588A PUSH1 0x2 DUP3 ADD PUSH2 0x2B07 PUSH1 0x2 DUP8 ADD PUSH2 0x1CB1 JUMP JUMPDEST PUSH2 0x589B PUSH1 0x3 DUP3 ADD PUSH1 0x3 DUP7 ADD SWAP1 PUSH2 0x575E JUMP JUMPDEST PUSH2 0x58AE PUSH1 0x4 DUP3 ADD PUSH2 0x2B07 PUSH1 0x4 DUP8 ADD PUSH2 0x1CB1 JUMP JUMPDEST PUSH2 0x58C1 PUSH1 0x5 DUP3 ADD PUSH2 0x2B07 PUSH1 0x5 DUP8 ADD PUSH2 0x1CB1 JUMP JUMPDEST PUSH2 0x58D4 PUSH1 0x6 DUP3 ADD PUSH2 0x35DE PUSH1 0x6 DUP8 ADD PUSH2 0x20E0 JUMP JUMPDEST PUSH2 0x58E5 PUSH1 0x7 DUP3 ADD PUSH1 0x7 DUP7 ADD SWAP1 PUSH2 0x57B4 JUMP JUMPDEST ADD SWAP2 ADD SWAP1 PUSH2 0x5830 JUMP JUMPDEST PUSH2 0x3DE SWAP3 SWAP2 ISZERO PUSH2 0x583A JUMPI PUSH2 0x5900 PUSH2 0x32B7 JUMP JUMPDEST PUSH2 0x583A JUMP JUMPDEST POP PUSH4 0x4E487B71 PUSH1 0xE0 SHL PUSH1 0x0 MSTORE PUSH1 0x31 PUSH1 0x4 MSTORE PUSH1 0x24 PUSH1 0x0 REVERT JUMPDEST PUSH1 0x0 PUSH2 0x3DE SWAP2 PUSH2 0x39D6 JUMP JUMPDEST PUSH2 0x3DE SWAP2 ISZERO PUSH2 0x591C JUMPI PUSH2 0x5938 PUSH2 0x32B7 JUMP JUMPDEST PUSH2 0x591C JUMP JUMPDEST PUSH1 0x0 PUSH2 0x3DE SWAP2 PUSH2 0x3739 JUMP JUMPDEST PUSH2 0x3DE SWAP2 ISZERO PUSH2 0x593D JUMPI PUSH2 0x5959 PUSH2 0x32B7 JUMP JUMPDEST PUSH2 0x593D JUMP JUMPDEST PUSH1 0x0 DUP1 DUP3 SSTORE PUSH2 0x3DE SWAP2 PUSH1 0x8 SWAP1 PUSH2 0x5977 DUP4 PUSH1 0x1 DUP4 ADD PUSH2 0x334B JUMP JUMPDEST PUSH2 0x5984 DUP4 PUSH1 0x2 DUP4 ADD PUSH2 0x334B JUMP JUMPDEST PUSH2 0x5991 DUP4 PUSH1 0x3 DUP4 ADD PUSH2 0x397B JUMP JUMPDEST PUSH2 0x599E DUP4 PUSH1 0x4 DUP4 ADD PUSH2 0x334B JUMP JUMPDEST PUSH2 0x59AB DUP4 PUSH1 0x5 DUP4 ADD PUSH2 0x334B JUMP JUMPDEST DUP3 PUSH1 0x6 DUP3 ADD SSTORE PUSH2 0x59BE DUP4 PUSH1 0x7 DUP4 ADD PUSH2 0x5927 JUMP JUMPDEST ADD PUSH2 0x5948 JUMP JUMPDEST PUSH2 0x3DE SWAP2 ISZERO PUSH2 0x595E JUMPI PUSH2 0x59D5 PUSH2 0x32B7 JUMP JUMPDEST PUSH2 0x595E JUMP JUMPDEST PUSH1 0x1 PUSH2 0x59E4 DUP3 SLOAD SWAP1 JUMP JUMPDEST DUP1 ISZERO PUSH2 0x5A03 JUMPI JUMPDEST SUB SWAP1 PUSH2 0x5A00 PUSH2 0x59FA DUP4 DUP4 PUSH2 0x4E57 JUMP JUMPDEST SWAP1 PUSH2 0x59C4 JUMP JUMPDEST SSTORE JUMP JUMPDEST PUSH2 0x5A0B PUSH2 0x5905 JUMP JUMPDEST PUSH2 0x59EB JUMP JUMPDEST PUSH1 0xC SWAP3 SWAP2 PUSH2 0x5A27 PUSH2 0x5280 PUSH2 0x3F4 PUSH2 0x527C DUP6 DUP9 PUSH2 0x2093 JUMP JUMPDEST PUSH2 0x5A5B PUSH2 0x5A4C PUSH1 0x0 PUSH2 0x5A3D DUP5 PUSH2 0x52D5 DUP8 DUP11 PUSH2 0x2093 JUMP JUMPDEST POP ADD SLOAD PUSH1 0x1 PUSH1 0x1 PUSH1 0xA0 SHL SUB AND SWAP1 JUMP JUMPDEST PUSH2 0x5A55 CALLER PUSH2 0x1A89 JUMP JUMPDEST EQ PUSH2 0x55F9 JUMP JUMPDEST PUSH2 0x5AAB PUSH1 0x2 PUSH2 0x5A6E PUSH2 0x3F4 DUP6 PUSH1 0xE PUSH2 0x2093 JUMP JUMPDEST PUSH2 0x5A99 PUSH2 0x5A83 DUP4 PUSH2 0x5301 DUP8 PUSH2 0x52D5 DUP11 DUP14 PUSH2 0x2093 JUMP JUMPDEST PUSH2 0x2B07 PUSH1 0x1 DUP5 ADD SWAP2 PUSH2 0x5A94 DUP4 PUSH2 0x1CB1 JUMP JUMPDEST PUSH2 0x5651 JUMP JUMPDEST ADD PUSH2 0x2B07 PUSH2 0x5AA6 DUP3 PUSH2 0x1CB1 JUMP JUMPDEST PUSH2 0x565E JUMP JUMPDEST DUP1 JUMPDEST PUSH2 0x5ABA PUSH2 0x527C DUP5 DUP8 PUSH2 0x2093 JUMP JUMPDEST PUSH2 0x5AD2 PUSH2 0x3F4 PUSH1 0x1 SWAP3 PUSH2 0x5ACC DUP5 PUSH2 0x1E8D JUMP JUMPDEST SWAP1 PUSH2 0x5651 JUMP JUMPDEST DUP3 LT ISZERO PUSH2 0x5B1A JUMPI SWAP1 PUSH2 0x52E8 PUSH2 0x5B00 PUSH2 0x5B15 SWAP4 PUSH2 0x5AFA PUSH2 0x5AF4 PUSH2 0x2314 DUP10 DUP13 PUSH2 0x2093 JUMP JUMPDEST DUP6 PUSH2 0x3E78 JUMP JUMPDEST SWAP1 PUSH2 0x4E57 JUMP JUMPDEST POP PUSH2 0x5B0F DUP4 PUSH2 0x52D5 DUP9 DUP12 PUSH2 0x2093 JUMP JUMPDEST SWAP1 PUSH2 0x58EE JUMP JUMPDEST PUSH2 0x5AAD JUMP JUMPDEST POP POP SWAP1 SWAP2 SWAP3 PUSH2 0x5B2F PUSH2 0x3F4 DUP5 PUSH2 0x5B34 SWAP4 PUSH2 0x2093 JUMP JUMPDEST PUSH2 0x59DA JUMP JUMPDEST PUSH2 0x1BD7 PUSH2 0x5B61 PUSH32 0xFE09911B3EC9652EF94A11286713BD397F2FB090F28C62303451D8040FF62C62 SWAP4 PUSH2 0x1E8D JUMP JUMPDEST SWAP2 PUSH2 0x1E8D JUMP JUMPDEST PUSH1 0x0 JUMPDEST DUP3 DUP2 LT PUSH2 0x5B76 JUMPI POP POP POP JUMP JUMPDEST PUSH1 0x20 SWAP1 PUSH2 0x5B81 PUSH2 0x2CB4 JUMP JUMPDEST DUP2 DUP5 ADD MSTORE ADD PUSH2 0x5B6A JUMP JUMPDEST SWAP1 PUSH2 0x3DE PUSH2 0x5B9B PUSH2 0x4E29 DUP5 PUSH2 0x2ECF JUMP JUMPDEST PUSH1 0x1F NOT ADD PUSH1 0x20 DUP5 ADD PUSH2 0x5B67 JUMP JUMPDEST SWAP1 PUSH1 0x20 DUP1 SWAP2 PUSH2 0x5BB5 DUP5 MLOAD SWAP1 JUMP JUMPDEST DUP2 LT ISZERO PUSH2 0x5BC3 JUMPI JUMPDEST MUL ADD ADD SWAP1 JUMP JUMPDEST PUSH2 0x5BCB PUSH2 0x4134 JUMP JUMPDEST PUSH2 0x5BBD JUMP JUMPDEST PUSH2 0x5BE2 PUSH2 0x5BDD PUSH1 0x8 PUSH2 0x1CB1 JUMP JUMPDEST PUSH2 0x5B8B JUMP JUMPDEST PUSH1 0x1 DUP1 PUSH2 0x5BEE DUP2 PUSH2 0x1E8D JUMP JUMPDEST SWAP1 JUMPDEST PUSH2 0x5BF9 JUMPI POP POP SWAP1 JUMP JUMPDEST PUSH2 0x5C06 PUSH2 0x3F4 PUSH1 0x8 PUSH2 0x1CB1 JUMP JUMPDEST DUP2 GT PUSH2 0x5C55 JUMPI PUSH2 0x5C4F DUP2 PUSH2 0x5C49 PUSH2 0x5C1D DUP6 SWAP5 PUSH2 0x320A JUMP JUMPDEST PUSH2 0x5C38 PUSH2 0x5C32 PUSH2 0x5C2C DUP8 PUSH2 0x1E8D JUMP JUMPDEST DUP6 PUSH2 0x5651 JUMP JUMPDEST SWAP2 PUSH2 0x31E7 JUMP JUMPDEST PUSH2 0x5C42 DUP3 DUP10 PUSH2 0x5BA8 JUMP JUMPDEST MSTORE DUP7 PUSH2 0x5BA8 JUMP JUMPDEST POP PUSH2 0x3EC8 JUMP JUMPDEST SWAP1 PUSH2 0x5BF0 JUMP JUMPDEST POP POP SWAP1 JUMP JUMPDEST SWAP1 PUSH2 0x3DE PUSH2 0x5D05 PUSH1 0x8 PUSH2 0x5C6B PUSH2 0x4E4C JUMP JUMPDEST SWAP5 PUSH2 0x5C8D PUSH2 0x5C80 DUP3 SLOAD PUSH1 0x1 PUSH1 0x1 PUSH1 0xA0 SHL SUB AND SWAP1 JUMP JUMPDEST PUSH1 0x1 PUSH1 0x1 PUSH1 0xA0 SHL SUB AND DUP8 MSTORE JUMP JUMPDEST PUSH2 0x5C9C PUSH2 0x2CF7 PUSH1 0x1 DUP4 ADD PUSH2 0x1CB1 JUMP JUMPDEST PUSH2 0x5CAB PUSH2 0x2D0D PUSH1 0x2 DUP4 ADD PUSH2 0x1CB1 JUMP JUMPDEST PUSH2 0x5CBA PUSH2 0x2D23 PUSH1 0x3 DUP4 ADD PUSH2 0x1E4F JUMP JUMPDEST PUSH2 0x5CC9 PUSH2 0x2D39 PUSH1 0x4 DUP4 ADD PUSH2 0x1CB1 JUMP JUMPDEST PUSH2 0x5CD8 PUSH2 0x2D4F PUSH1 0x5 DUP4 ADD PUSH2 0x1CB1 JUMP JUMPDEST PUSH2 0x5CF0 PUSH2 0x5CE7 PUSH1 0x6 DUP4 ADD PUSH2 0x20E0 JUMP JUMPDEST ISZERO ISZERO PUSH1 0xC0 DUP9 ADD MSTORE JUMP JUMPDEST PUSH2 0x5CFF PUSH2 0x2FD2 PUSH1 0x7 DUP4 ADD PUSH2 0x2EDC JUMP JUMPDEST ADD PUSH2 0x2E87 JUMP JUMPDEST PUSH2 0x100 DUP5 ADD MSTORE JUMP JUMPDEST PUSH2 0x3F4 SWAP1 PUSH2 0x5C5A JUMP JUMPDEST SWAP1 PUSH2 0x5D1F DUP3 SLOAD SWAP1 JUMP JUMPDEST PUSH2 0x5D28 DUP2 PUSH2 0x2ECF JUMP JUMPDEST SWAP3 PUSH2 0x5D3C PUSH1 0x20 DUP6 ADD SWAP2 PUSH1 0x0 MSTORE PUSH1 0x20 PUSH1 0x0 KECCAK256 SWAP1 JUMP JUMPDEST PUSH1 0x0 SWAP2 JUMPDEST DUP4 DUP4 LT PUSH2 0x5D4D JUMPI POP POP POP POP JUMP JUMPDEST PUSH1 0x9 PUSH1 0x20 PUSH1 0x1 SWAP3 PUSH2 0x5D5D DUP6 PUSH2 0x5D0D JUMP JUMPDEST DUP2 MSTORE ADD SWAP3 ADD SWAP3 ADD SWAP2 SWAP1 PUSH2 0x5D40 JUMP JUMPDEST PUSH2 0x3F4 SWAP1 PUSH2 0x5D16 JUMP JUMPDEST PUSH2 0x5D8B PUSH2 0x3F4 SWAP2 PUSH2 0x5D83 PUSH1 0x60 SWAP1 JUMP JUMPDEST POP PUSH1 0xC PUSH2 0x2093 JUMP JUMPDEST PUSH2 0x5D6B JUMP JUMPDEST PUSH2 0x3F4 SWAP1 PUSH2 0x2E87 JUMP JUMPDEST PUSH2 0x3F4 SWAP2 PUSH2 0x2105 PUSH2 0x5DB4 SWAP3 PUSH2 0x5DAC PUSH1 0x60 SWAP1 JUMP JUMPDEST POP PUSH1 0x11 PUSH2 0x2093 JUMP JUMPDEST PUSH2 0x5D90 JUMP JUMPDEST SWAP2 PUSH2 0x2105 PUSH2 0x210A SWAP3 PUSH2 0x28FA PUSH2 0x3F4 SWAP6 PUSH2 0x5DD0 PUSH1 0x0 SWAP1 JUMP JUMPDEST POP PUSH1 0x10 PUSH2 0x2093 JUMP JUMPDEST PUSH2 0x5DB4 PUSH2 0x3F4 SWAP2 PUSH2 0x5DE7 PUSH1 0x60 SWAP1 JUMP JUMPDEST POP PUSH1 0xD PUSH2 0x1C92 JUMP JUMPDEST PUSH2 0x5DF7 PUSH2 0x3EE0 JUMP JUMPDEST SWAP1 PUSH1 0x0 DUP3 MSTORE PUSH1 0x20 DUP1 DUP1 DUP1 DUP1 DUP1 DUP1 DUP1 DUP1 DUP1 DUP1 DUP13 ADD PUSH1 0x0 DUP2 MSTORE ADD PUSH1 0x0 DUP2 MSTORE ADD PUSH1 0x0 DUP2 MSTORE ADD PUSH1 0x0 DUP2 MSTORE ADD PUSH1 0x0 DUP2 MSTORE ADD PUSH1 0x0 DUP2 MSTORE ADD PUSH1 0x0 DUP2 MSTORE ADD PUSH1 0x60 DUP2 MSTORE ADD PUSH1 0x0 DUP2 MSTORE ADD PUSH1 0x60 SWAP1 MSTORE POP JUMP JUMPDEST PUSH2 0x3F4 PUSH2 0x5DEF JUMP JUMPDEST PUSH1 0x0 JUMPDEST DUP3 DUP2 LT PUSH2 0x5E55 JUMPI POP POP POP JUMP JUMPDEST PUSH1 0x20 SWAP1 PUSH2 0x5E60 PUSH2 0x5E3E JUMP JUMPDEST DUP2 DUP5 ADD MSTORE ADD PUSH2 0x5E49 JUMP JUMPDEST SWAP1 PUSH2 0x3DE PUSH2 0x5E7A PUSH2 0x4E29 DUP5 PUSH2 0x2ECF JUMP JUMPDEST PUSH1 0x1F NOT ADD PUSH1 0x20 DUP5 ADD PUSH2 0x5E46 JUMP JUMPDEST SWAP1 PUSH2 0x3DE PUSH2 0x5F76 PUSH1 0x8 PUSH2 0x5E98 PUSH2 0x3EE0 JUMP JUMPDEST SWAP5 PUSH2 0x5EA5 PUSH2 0x2CE4 DUP3 PUSH2 0x1CB1 JUMP JUMPDEST PUSH2 0x5EB4 PUSH2 0x2CF7 PUSH1 0x1 DUP4 ADD PUSH2 0x1CB1 JUMP JUMPDEST PUSH2 0x5ECC PUSH2 0x5EC3 PUSH1 0x2 DUP4 ADD PUSH2 0x20E0 JUMP JUMPDEST PUSH1 0x40 DUP9 ADD PUSH2 0x2CBC JUMP JUMPDEST PUSH2 0x5EE4 PUSH2 0x5EDB PUSH1 0x2 DUP4 ADD PUSH2 0x2DE5 JUMP JUMPDEST PUSH1 0x60 DUP9 ADD PUSH2 0x3EEB JUMP JUMPDEST PUSH2 0x5F03 PUSH2 0x5EF3 PUSH1 0x2 DUP4 ADD PUSH2 0x49DB JUMP JUMPDEST PUSH1 0x1 PUSH1 0x1 PUSH1 0xA0 SHL SUB AND PUSH1 0x80 DUP9 ADD MSTORE JUMP JUMPDEST PUSH2 0x5F2A PUSH2 0x5F1A PUSH1 0x3 DUP4 ADD SLOAD PUSH1 0x1 PUSH1 0x1 PUSH1 0xA0 SHL SUB AND SWAP1 JUMP JUMPDEST PUSH1 0x1 PUSH1 0x1 PUSH1 0xA0 SHL SUB AND PUSH1 0xA0 DUP9 ADD MSTORE JUMP JUMPDEST PUSH2 0x5F39 PUSH2 0x2D65 PUSH1 0x4 DUP4 ADD PUSH2 0x1CB1 JUMP JUMPDEST PUSH2 0x5F48 PUSH2 0x2FD2 PUSH1 0x5 DUP4 ADD PUSH2 0x1CB1 JUMP JUMPDEST PUSH2 0x5F57 PUSH2 0x2D93 PUSH1 0x6 DUP4 ADD PUSH2 0x1E4F JUMP JUMPDEST PUSH2 0x5F70 PUSH2 0x5F66 PUSH1 0x7 DUP4 ADD PUSH2 0x20E0 JUMP JUMPDEST ISZERO ISZERO PUSH2 0x120 DUP9 ADD MSTORE JUMP JUMPDEST ADD PUSH2 0x1E4F JUMP JUMPDEST PUSH2 0x140 DUP5 ADD MSTORE JUMP JUMPDEST PUSH2 0x3F4 SWAP1 PUSH2 0x5E87 JUMP JUMPDEST PUSH2 0x3F4 PUSH2 0x5F9E SWAP2 PUSH2 0x5F96 PUSH1 0x60 SWAP1 JUMP JUMPDEST POP PUSH1 0x14 PUSH2 0x1C92 JUMP JUMPDEST PUSH2 0x5FAE PUSH2 0x5FA9 DUP3 SLOAD SWAP1 JUMP JUMPDEST PUSH2 0x5E6A JUMP JUMPDEST SWAP1 PUSH2 0x5FB9 PUSH1 0x0 PUSH2 0x1E8D JUMP JUMPDEST PUSH2 0x5FC4 PUSH2 0x3F4 DUP4 SLOAD SWAP1 JUMP JUMPDEST DUP2 LT ISZERO PUSH2 0x5C55 JUMPI PUSH2 0x600A SWAP1 PUSH2 0x5FF5 PUSH2 0x5FF0 PUSH1 0x13 PUSH2 0x5FEA PUSH2 0x5FE4 DUP6 DUP9 PUSH2 0x414B JUMP JUMPDEST SWAP1 PUSH2 0x12B7 JUMP JUMPDEST SWAP1 PUSH2 0x2093 JUMP JUMPDEST PUSH2 0x5F7E JUMP JUMPDEST PUSH2 0x5FFF DUP3 DUP7 PUSH2 0x5BA8 JUMP JUMPDEST MSTORE PUSH2 0x5C49 DUP2 DUP6 PUSH2 0x5BA8 JUMP JUMPDEST PUSH2 0x5FB9 JUMP JUMPDEST PUSH1 0x0 PUSH2 0x601A DUP2 PUSH2 0x1E8D JUMP JUMPDEST SWAP1 DUP2 PUSH1 0x1 DUP1 SWAP3 PUSH2 0x6029 DUP3 PUSH2 0x1E8D JUMP JUMPDEST SWAP2 JUMPDEST PUSH2 0x6037 JUMPI JUMPDEST POP POP POP POP SWAP1 JUMP JUMPDEST PUSH2 0x6044 PUSH2 0x3F4 PUSH1 0x8 PUSH2 0x1CB1 JUMP JUMPDEST DUP3 GT PUSH2 0x60C4 JUMPI DUP2 PUSH2 0x605A PUSH2 0x3F4 DUP7 SWAP5 PUSH1 0xE PUSH2 0x2093 JUMP JUMPDEST PUSH1 0x2 DUP2 ADD SWAP1 PUSH2 0x6068 DUP3 PUSH2 0x1CB1 JUMP JUMPDEST PUSH2 0x6074 PUSH2 0x1F15 DUP7 PUSH2 0x1E8D JUMP JUMPDEST GT PUSH2 0x608B JUMPI JUMPDEST POP POP PUSH2 0x6085 SWAP1 PUSH2 0x3EC8 JUMP JUMPDEST SWAP2 PUSH2 0x602B JUMP JUMPDEST PUSH2 0x609E PUSH2 0x60A4 SWAP4 SWAP5 SWAP6 PUSH2 0x2680 SWAP3 ADD PUSH2 0x1CB1 JUMP JUMPDEST SWAP2 PUSH2 0x1CB1 JUMP JUMPDEST DUP4 DUP2 GT PUSH2 0x60B6 JUMPI JUMPDEST SWAP1 DUP2 DUP6 SWAP4 SWAP3 PUSH2 0x607A JUMP JUMPDEST SWAP1 SWAP5 POP SWAP2 POP DUP4 PUSH2 0x6085 PUSH2 0x60AC JUMP JUMPDEST PUSH2 0x6030 JUMP JUMPDEST PUSH2 0x3F4 SWAP1 PUSH2 0x2CC6 JUMP JUMPDEST PUSH1 0x3 PUSH2 0x60E3 PUSH2 0x3F4 SWAP3 PUSH2 0x31FF PUSH2 0x2BC2 JUMP JUMPDEST ADD PUSH2 0x60C9 JUMP JUMPDEST PUSH2 0x3F4 SWAP1 PUSH2 0x2F30 JUMP JUMPDEST PUSH1 0xF PUSH2 0x6103 PUSH2 0x3F4 SWAP3 PUSH2 0x31FF PUSH2 0x2C5C JUMP JUMPDEST ADD PUSH2 0x60E9 JUMP JUMPDEST PUSH2 0x3F4 PUSH2 0x3F4 SWAP2 PUSH1 0xB PUSH2 0x2093 JUMP JUMPDEST PUSH2 0x6124 PUSH2 0x52E8 PUSH1 0x8 PUSH2 0x1CB1 JUMP JUMPDEST PUSH2 0x3F4 DUP2 PUSH1 0x8 PUSH2 0x2A47 JUMP INVALID LOG2 PUSH5 0x6970667358 0x22 SLT KECCAK256 ADDRESS SWAP3 SWAP14 MOD 0xBF STOP PC 0xC1 0xEC DIV 0xEF SGT 0xEF SLOAD SWAP13 XOR POP 0xFB 0xD9 SWAP12 0xF7 0xB8 0xBA CREATE PUSH32 0xCB386B3441D44364736F6C634300081100330000000000000000000000000000 "},"methodIdentifiers":{"addMaintenance(uint256,string)":"e5a54e8f","addReview(uint256,uint256,string)":"3e9e27aa","approve(address,uint256)":"095ea7b3","balanceOf(address)":"70a08231","bikeIndex()":"fbe7b215","deleteReview(uint256,uint256)":"24d41a03","endRental(uint256)":"97491d6f","getAllBikes()":"38025500","getApproved(uint256)":"081812fc","getBikeDetails(uint256)":"fee618f6","getBikeMetadata(uint256)":"cdc31ac2","getBikeView(uint256)":"774c0cda","getHighestRatedProduct()":"a3007b1f","getProductReviews(uint256)":"46a4237b","getRentalHistory(uint256,address)":"acfc78fa","getUserReviews(address)":"18d0e8b2","getUserTransactions(address)":"ef925399","hasLikedReview(uint256,uint256,address)":"4f26c4a1","insureBike(uint256)":"efaf9d19","isApprovedForAll(address,address)":"e985e9c5","likeReview(uint256,uint256)":"b114d461","listBike(uint256,(string,string,string,string,string,string,string,uint8,uint256,uint256,string,bool),(string,string,string,string,bool,bool,uint8,uint256,bool,address,uint256,uint256,uint256[],bool,uint8,uint256,string[],uint256),uint8,uint256)":"58560ea5","markAsStolen(uint256)":"56bc082e","name()":"06fdde03","owner()":"8da5cb5b","ownerOf(uint256)":"6352211e","raiseDispute(uint256,string)":"5aef573c","registerTracker(uint256,address)":"79e0efe1","renounceOwnership()":"715018a6","rentBike(uint256,uint256)":"a786de18","reviewsCounter()":"844ce562","safeTransferFrom(address,address,uint256)":"42842e0e","safeTransferFrom(address,address,uint256,bytes)":"b88d4fde","setApprovalForAll(address,bool)":"a22cb465","supportsInterface(bytes4)":"01ffc9a7","symbol()":"95d89b41","tokenURI(uint256)":"c87b56dd","transferFrom(address,address,uint256)":"23b872dd","transferOwnership(address)":"f2fde38b","unflagBikeAsStolen(uint256)":"9e3699eb","updateListingType(uint256,uint8,uint256)":"d07b4460","updatePrice(uint256,uint256)":"82367b2d","updateProfile(string,string,string,string)":"9483f25c","updateRentalPrice(uint256,uint256)":"90abcd98","updateSecurityDeposit(uint256,uint256)":"e3511b2c","verifyUser(address)":"4d813120"}}}}}