{"contracts/KlunkazStorage.sol":{"KlunkazStorage":{"abi":[{"inputs":[],"name":"bikeIndex","outputs":[{"internalType":"uint256","name":"","type":"uint256"}],"stateMutability":"view","type":"function"},{"inputs":[],"name":"reviewsCounter","outputs":[{"internalType":"uint256","name":"","type":"uint256"}],"stateMutability":"view","type":"function"}],"evm":{"bytecode":{"linkReferences":{},"object":"60806040523461001b575b60405161010e610029823961010e90f35b610023600080fd5b61000a56fe608060405260043610156016575b6014600080fd5b005b60003560e01c8063844ce5621460395763fbe7b21503600d57603560b6565b600d565b506035607c565b6000910312604a57565b6051600080fd5b565b605d916008021c81565b90565b90605d91546053565b605d600060016060565b90815260200190565b503460a2575b608b3660046040565b609e60936069565b604051918291826073565b0390f35b60a9600080fd5b6082565b605d6000806060565b503460cd575b60c53660046040565b609e609360ad565b60d4600080fd5b60bc56fea2646970667358221220c20b21edfabbe4acbfe2592848001d197af914de10cbc20b54d05234bb61947f64736f6c63430008110033","opcodes":"PUSH1 0x80 PUSH1 0x40 MSTORE CALLVALUE PUSH2 0x1B JUMPI JUMPDEST PUSH1 0x40 MLOAD PUSH2 0x10E PUSH2 0x29 DUP3 CODECOPY PUSH2 0x10E SWAP1 RETURN JUMPDEST PUSH2 0x23 PUSH1 0x0 DUP1 REVERT JUMPDEST PUSH2 0xA JUMP INVALID PUSH1 0x80 PUSH1 0x40 MSTORE PUSH1 0x4 CALLDATASIZE LT ISZERO PUSH1 0x16 JUMPI JUMPDEST PUSH1 0x14 PUSH1 0x0 DUP1 REVERT JUMPDEST STOP JUMPDEST PUSH1 0x0 CALLDATALOAD PUSH1 0xE0 SHR DUP1 PUSH4 0x844CE562 EQ PUSH1 0x39 JUMPI PUSH4 0xFBE7B215 SUB PUSH1 0xD JUMPI PUSH1 0x35 PUSH1 0xB6 JUMP JUMPDEST PUSH1 0xD JUMP JUMPDEST POP PUSH1 0x35 PUSH1 0x7C JUMP JUMPDEST PUSH1 0x0 SWAP2 SUB SLT PUSH1 0x4A JUMPI JUMP JUMPDEST PUSH1 0x51 PUSH1 0x0 DUP1 REVERT JUMPDEST JUMP JUMPDEST PUSH1 0x5D SWAP2 PUSH1 0x8 MUL SHR DUP2 JUMP JUMPDEST SWAP1 JUMP JUMPDEST SWAP1 PUSH1 0x5D SWAP2 SLOAD PUSH1 0x53 JUMP JUMPDEST PUSH1 0x5D PUSH1 0x0 PUSH1 0x1 PUSH1 0x60 JUMP JUMPDEST SWAP1 DUP2 MSTORE PUSH1 0x20 ADD SWAP1 JUMP JUMPDEST POP CALLVALUE PUSH1 0xA2 JUMPI JUMPDEST PUSH1 0x8B CALLDATASIZE PUSH1 0x4 PUSH1 0x40 JUMP JUMPDEST PUSH1 0x9E PUSH1 0x93 PUSH1 0x69 JUMP JUMPDEST PUSH1 0x40 MLOAD SWAP2 DUP3 SWAP2 DUP3 PUSH1 0x73 JUMP JUMPDEST SUB SWAP1 RETURN JUMPDEST PUSH1 0xA9 PUSH1 0x0 DUP1 REVERT JUMPDEST PUSH1 0x82 JUMP JUMPDEST PUSH1 0x5D PUSH1 0x0 DUP1 PUSH1 0x60 JUMP JUMPDEST POP CALLVALUE PUSH1 0xCD JUMPI JUMPDEST PUSH1 0xC5 CALLDATASIZE PUSH1 0x4 PUSH1 0x40 JUMP JUMPDEST PUSH1 0x9E PUSH1 0x93 PUSH1 0xAD JUMP JUMPDEST PUSH1 0xD4 PUSH1 0x0 DUP1 REVERT JUMPDEST PUSH1 0xBC JUMP INVALID LOG2 PUSH5 0x6970667358 0x22 SLT KECCAK256 0xC2 SIGNEXTEND 0x21 0xED STATICCALL 0xBB 0xE4 0xAC 0xBF 0xE2 MSIZE 0x28 BASEFEE STOP SAR NOT PUSH27 0xF914DE10CBC20B54D05234BB61947F64736F6C6343000811003300 "},"methodIdentifiers":{"bikeIndex()":"fbe7b215","reviewsCounter()":"844ce562"}}}}}