{
  "_format": "hh-sol-artifact-1",
  "contractName": "KlunkazMain",
  "sourceName": "contracts/KlunkazMain.sol",
  "abi": [
    {
      "anonymous": false,
      "inputs": [
        {
          "indexed": true,
          "internalType": "address",
          "name": "owner",
          "type": "address"
        },
        {
          "indexed": true,
          "internalType": "address",
          "name": "approved",
          "type": "address"
        },
        {
          "indexed": true,
          "internalType": "uint256",
          "name": "tokenId",
          "type": "uint256"
        }
      ],
      "name": "Approval",
      "type": "event"
    },
    {
      "anonymous": false,
      "inputs": [
        {
          "indexed": true,
          "internalType": "address",
          "name": "owner",
          "type": "address"
        },
        {
          "indexed": true,
          "internalType": "address",
          "name": "operator",
          "type": "address"
        },
        {
          "indexed": false,
          "internalType": "bool",
          "name": "approved",
          "type": "bool"
        }
      ],
      "name": "ApprovalForAll",
      "type": "event"
    },
    {
      "anonymous": false,
      "inputs": [
        {
          "indexed": true,
          "internalType": "uint256",
          "name": "id",
          "type": "uint256"
        },
        {
          "indexed": false,
          "internalType": "bool",
          "name": "isInsured",
          "type": "bool"
        }
      ],
      "name": "BikeInsuranceUpdated",
      "type": "event"
    },
    {
      "anonymous": false,
      "inputs": [
        {
          "indexed": true,
          "internalType": "uint256",
          "name": "id",
          "type": "uint256"
        },
        {
          "indexed": true,
          "internalType": "address",
          "name": "owner",
          "type": "address"
        },
        {
          "indexed": false,
          "internalType": "uint256",
          "name": "price",
          "type": "uint256"
        }
      ],
      "name": "BikeListed",
      "type": "event"
    },
    {
      "anonymous": false,
      "inputs": [
        {
          "indexed": true,
          "internalType": "uint256",
          "name": "bikeId",
          "type": "uint256"
        },
        {
          "indexed": true,
          "internalType": "address",
          "name": "renter",
          "type": "address"
        },
        {
          "indexed": false,
          "internalType": "uint256",
          "name": "duration",
          "type": "uint256"
        },
        {
          "indexed": false,
          "internalType": "uint256",
          "name": "totalPrice",
          "type": "uint256"
        }
      ],
      "name": "BikeRented",
      "type": "event"
    },
    {
      "anonymous": false,
      "inputs": [
        {
          "indexed": true,
          "internalType": "uint256",
          "name": "id",
          "type": "uint256"
        },
        {
          "indexed": true,
          "internalType": "address",
          "name": "oldOwner",
          "type": "address"
        },
        {
          "indexed": true,
          "internalType": "address",
          "name": "newOwner",
          "type": "address"
        },
        {
          "indexed": false,
          "internalType": "uint256",
          "name": "price",
          "type": "uint256"
        }
      ],
      "name": "BikeResold",
      "type": "event"
    },
    {
      "anonymous": false,
      "inputs": [
        {
          "indexed": true,
          "internalType": "uint256",
          "name": "id",
          "type": "uint256"
        },
        {
          "indexed": true,
          "internalType": "address",
          "name": "oldOwner",
          "type": "address"
        },
        {
          "indexed": true,
          "internalType": "address",
          "name": "newOwner",
          "type": "address"
        },
        {
          "indexed": false,
          "internalType": "uint256",
          "name": "price",
          "type": "uint256"
        }
      ],
      "name": "BikeSold",
      "type": "event"
    },
    {
      "anonymous": false,
      "inputs": [
        {
          "indexed": true,
          "internalType": "uint256",
          "name": "id",
          "type": "uint256"
        },
        {
          "indexed": false,
          "internalType": "bool",
          "name": "isStolen",
          "type": "bool"
        }
      ],
      "name": "BikeStatusUpdated",
      "type": "event"
    },
    {
      "anonymous": false,
      "inputs": [
        {
          "indexed": true,
          "internalType": "uint256",
          "name": "transactionId",
          "type": "uint256"
        },
        {
          "indexed": true,
          "internalType": "address",
          "name": "by",
          "type": "address"
        },
        {
          "indexed": false,
          "internalType": "string",
          "name": "reason",
          "type": "string"
        }
      ],
      "name": "DisputeRaised",
      "type": "event"
    },
    {
      "anonymous": false,
      "inputs": [
        {
          "indexed": true,
          "internalType": "uint256",
          "name": "bikeId",
          "type": "uint256"
        },
        {
          "indexed": false,
          "internalType": "enum Types.ListingType",
          "name": "listingType",
          "type": "uint8"
        }
      ],
      "name": "ListingTypeUpdated",
      "type": "event"
    },
    {
      "anonymous": false,
      "inputs": [
        {
          "indexed": true,
          "internalType": "uint256",
          "name": "bikeId",
          "type": "uint256"
        },
        {
          "indexed": false,
          "internalType": "string",
          "name": "details",
          "type": "string"
        },
        {
          "indexed": false,
          "internalType": "uint256",
          "name": "timestamp",
          "type": "uint256"
        }
      ],
      "name": "MaintenanceAdded",
      "type": "event"
    },
    {
      "anonymous": false,
      "inputs": [
        {
          "indexed": true,
          "internalType": "address",
          "name": "previousOwner",
          "type": "address"
        },
        {
          "indexed": true,
          "internalType": "address",
          "name": "newOwner",
          "type": "address"
        }
      ],
      "name": "OwnershipTransferred",
      "type": "event"
    },
    {
      "anonymous": false,
      "inputs": [
        {
          "indexed": true,
          "internalType": "uint256",
          "name": "bikeId",
          "type": "uint256"
        },
        {
          "indexed": false,
          "internalType": "uint256",
          "name": "newPrice",
          "type": "uint256"
        }
      ],
      "name": "PriceUpdated",
      "type": "event"
    },
    {
      "anonymous": false,
      "inputs": [
        {
          "indexed": true,
          "internalType": "address",
          "name": "user",
          "type": "address"
        },
        {
          "indexed": false,
          "internalType": "string",
          "name": "name",
          "type": "string"
        },
        {
          "indexed": false,
          "internalType": "string",
          "name": "location",
          "type": "string"
        }
      ],
      "name": "ProfileUpdated",
      "type": "event"
    },
    {
      "anonymous": false,
      "inputs": [
        {
          "indexed": true,
          "internalType": "uint256",
          "name": "bikeId",
          "type": "uint256"
        },
        {
          "indexed": true,
          "internalType": "address",
          "name": "renter",
          "type": "address"
        }
      ],
      "name": "RentalEnded",
      "type": "event"
    },
    {
      "anonymous": false,
      "inputs": [
        {
          "indexed": true,
          "internalType": "uint256",
          "name": "bikeId",
          "type": "uint256"
        },
        {
          "indexed": false,
          "internalType": "uint256",
          "name": "newPrice",
          "type": "uint256"
        }
      ],
      "name": "RentalPriceUpdated",
      "type": "event"
    },
    {
      "anonymous": false,
      "inputs": [
        {
          "indexed": true,
          "internalType": "uint256",
          "name": "productId",
          "type": "uint256"
        },
        {
          "indexed": true,
          "internalType": "address",
          "name": "reviewer",
          "type": "address"
        },
        {
          "indexed": false,
          "internalType": "uint256",
          "name": "rating",
          "type": "uint256"
        },
        {
          "indexed": false,
          "internalType": "string",
          "name": "comment",
          "type": "string"
        }
      ],
      "name": "ReviewAdded",
      "type": "event"
    },
    {
      "anonymous": false,
      "inputs": [
        {
          "indexed": true,
          "internalType": "uint256",
          "name": "productId",
          "type": "uint256"
        },
        {
          "indexed": true,
          "internalType": "uint256",
          "name": "reviewIndex",
          "type": "uint256"
        }
      ],
      "name": "ReviewDeleted",
      "type": "event"
    },
    {
      "anonymous": false,
      "inputs": [
        {
          "indexed": true,
          "internalType": "uint256",
          "name": "productId",
          "type": "uint256"
        },
        {
          "indexed": true,
          "internalType": "uint256",
          "name": "reviewIndex",
          "type": "uint256"
        },
        {
          "indexed": true,
          "internalType": "address",
          "name": "liker",
          "type": "address"
        },
        {
          "indexed": false,
          "internalType": "uint256",
          "name": "likes",
          "type": "uint256"
        }
      ],
      "name": "ReviewLiked",
      "type": "event"
    },
    {
      "anonymous": false,
      "inputs": [
        {
          "indexed": true,
          "internalType": "uint256",
          "name": "bikeId",
          "type": "uint256"
        },
        {
          "indexed": false,
          "internalType": "uint256",
          "name": "amount",
          "type": "uint256"
        }
      ],
      "name": "SecurityDepositUpdated",
      "type": "event"
    },
    {
      "anonymous": false,
      "inputs": [
        {
          "indexed": true,
          "internalType": "uint256",
          "name": "bikeId",
          "type": "uint256"
        },
        {
          "indexed": true,
          "internalType": "address",
          "name": "deviceAddress",
          "type": "address"
        }
      ],
      "name": "TrackerRegistered",
      "type": "event"
    },
    {
      "anonymous": false,
      "inputs": [
        {
          "indexed": true,
          "internalType": "uint256",
          "name": "transactionId",
          "type": "uint256"
        },
        {
          "indexed": true,
          "internalType": "uint256",
          "name": "bikeId",
          "type": "uint256"
        },
        {
          "indexed": false,
          "internalType": "enum Types.TransactionType",
          "name": "transactionType",
          "type": "uint8"
        },
        {
          "indexed": true,
          "internalType": "address",
          "name": "from",
          "type": "address"
        },
        {
          "indexed": false,
          "internalType": "address",
          "name": "to",
          "type": "address"
        }
      ],
      "name": "TransactionCreated",
      "type": "event"
    },
    {
      "anonymous": false,
      "inputs": [
        {
          "indexed": true,
          "internalType": "address",
          "name": "from",
          "type": "address"
        },
        {
          "indexed": true,
          "internalType": "address",
          "name": "to",
          "type": "address"
        },
        {
          "indexed": true,
          "internalType": "uint256",
          "name": "tokenId",
          "type": "uint256"
        }
      ],
      "name": "Transfer",
      "type": "event"
    },
    {
      "anonymous": false,
      "inputs": [
        {
          "indexed": true,
          "internalType": "address",
          "name": "user",
          "type": "address"
        }
      ],
      "name": "UserVerified",
      "type": "event"
    },
    {
      "inputs": [
        {
          "internalType": "uint256",
          "name": "bikeId",
          "type": "uint256"
        },
        {
          "internalType": "string",
          "name": "details",
          "type": "string"
        }
      ],
      "name": "addMaintenance",
      "outputs": [],
      "stateMutability": "nonpayable",
      "type": "function"
    },
    {
      "inputs": [
        {
          "internalType": "uint256",
          "name": "productId",
          "type": "uint256"
        },
        {
          "internalType": "uint256",
          "name": "rating",
          "type": "uint256"
        },
        {
          "internalType": "string",
          "name": "comment",
          "type": "string"
        }
      ],
      "name": "addReview",
      "outputs": [],
      "stateMutability": "nonpayable",
      "type": "function"
    },
    {
      "inputs": [
        {
          "internalType": "address",
          "name": "to",
          "type": "address"
        },
        {
          "internalType": "uint256",
          "name": "tokenId",
          "type": "uint256"
        }
      ],
      "name": "approve",
      "outputs": [],
      "stateMutability": "nonpayable",
      "type": "function"
    },
    {
      "inputs": [
        {
          "internalType": "address",
          "name": "owner",
          "type": "address"
        }
      ],
      "name": "balanceOf",
      "outputs": [
        {
          "internalType": "uint256",
          "name": "",
          "type": "uint256"
        }
      ],
      "stateMutability": "view",
      "type": "function"
    },
    {
      "inputs": [],
      "name": "bikeIndex",
      "outputs": [
        {
          "internalType": "uint256",
          "name": "",
          "type": "uint256"
        }
      ],
      "stateMutability": "view",
      "type": "function"
    },
    {
      "inputs": [
        {
          "internalType": "uint256",
          "name": "productId",
          "type": "uint256"
        },
        {
          "internalType": "uint256",
          "name": "reviewIndex",
          "type": "uint256"
        }
      ],
      "name": "deleteReview",
      "outputs": [],
      "stateMutability": "nonpayable",
      "type": "function"
    },
    {
      "inputs": [
        {
          "internalType": "uint256",
          "name": "bikeId",
          "type": "uint256"
        }
      ],
      "name": "endRental",
      "outputs": [],
      "stateMutability": "nonpayable",
      "type": "function"
    },
    {
      "inputs": [],
      "name": "getAllBikes",
      "outputs": [
        {
          "components": [
            {
              "internalType": "uint256",
              "name": "productID",
              "type": "uint256"
            },
            {
              "internalType": "address",
              "name": "owner",
              "type": "address"
            },
            {
              "internalType": "uint256",
              "name": "price",
              "type": "uint256"
            },
            {
              "components": [
                {
                  "internalType": "string",
                  "name": "bikeBrand",
                  "type": "string"
                },
                {
                  "internalType": "string",
                  "name": "bikeTitle",
                  "type": "string"
                },
                {
                  "internalType": "string",
                  "name": "bikeSize",
                  "type": "string"
                },
                {
                  "internalType": "string",
                  "name": "bikeColor",
                  "type": "string"
                },
                {
                  "internalType": "string",
                  "name": "bikeFrame",
                  "type": "string"
                },
                {
                  "internalType": "string",
                  "name": "bikeFork",
                  "type": "string"
                },
                {
                  "internalType": "string",
                  "name": "bikeShock",
                  "type": "string"
                },
                {
                  "internalType": "enum Types.BikeCondition",
                  "name": "condition",
                  "type": "uint8"
                },
                {
                  "internalType": "uint256",
                  "name": "manufactureYear",
                  "type": "uint256"
                },
                {
                  "internalType": "uint256",
                  "name": "lastServiceDate",
                  "type": "uint256"
                },
                {
                  "internalType": "string",
                  "name": "serialNumber",
                  "type": "string"
                },
                {
                  "internalType": "bool",
                  "name": "hasWarranty",
                  "type": "bool"
                }
              ],
              "internalType": "struct Types.BikeDetails",
              "name": "details",
              "type": "tuple"
            },
            {
              "components": [
                {
                  "internalType": "string",
                  "name": "category",
                  "type": "string"
                },
                {
                  "internalType": "string",
                  "name": "images",
                  "type": "string"
                },
                {
                  "internalType": "string",
                  "name": "bikeAddress",
                  "type": "string"
                },
                {
                  "internalType": "string",
                  "name": "bikeFeatures",
                  "type": "string"
                },
                {
                  "internalType": "bool",
                  "name": "isStolen",
                  "type": "bool"
                },
                {
                  "internalType": "bool",
                  "name": "isInsured",
                  "type": "bool"
                },
                {
                  "internalType": "enum Types.ListingType",
                  "name": "listingType",
                  "type": "uint8"
                },
                {
                  "internalType": "uint256",
                  "name": "rentalPrice",
                  "type": "uint256"
                },
                {
                  "internalType": "bool",
                  "name": "isRented",
                  "type": "bool"
                },
                {
                  "internalType": "address",
                  "name": "currentRenter",
                  "type": "address"
                },
                {
                  "internalType": "uint256",
                  "name": "rentalEndTime",
                  "type": "uint256"
                },
                {
                  "internalType": "uint256",
                  "name": "securityDeposit",
                  "type": "uint256"
                },
                {
                  "internalType": "uint256[]",
                  "name": "maintenanceHistory",
                  "type": "uint256[]"
                },
                {
                  "internalType": "bool",
                  "name": "requiresVerification",
                  "type": "bool"
                },
                {
                  "internalType": "enum Types.RentalDuration",
                  "name": "preferredRentalDuration",
                  "type": "uint8"
                },
                {
                  "internalType": "uint256",
                  "name": "insuranceExpiryDate",
                  "type": "uint256"
                },
                {
                  "internalType": "string[]",
                  "name": "modifications",
                  "type": "string[]"
                },
                {
                  "internalType": "uint256",
                  "name": "totalRentals",
                  "type": "uint256"
                }
              ],
              "internalType": "struct Types.BikeMetadata",
              "name": "metadata",
              "type": "tuple"
            },
            {
              "internalType": "address[]",
              "name": "reviewers",
              "type": "address[]"
            },
            {
              "internalType": "string[]",
              "name": "reviews",
              "type": "string[]"
            },
            {
              "internalType": "uint256",
              "name": "createdAt",
              "type": "uint256"
            },
            {
              "internalType": "uint256",
              "name": "lastUpdated",
              "type": "uint256"
            },
            {
              "internalType": "uint256",
              "name": "viewCount",
              "type": "uint256"
            }
          ],
          "internalType": "struct Types.Bike[]",
          "name": "",
          "type": "tuple[]"
        }
      ],
      "stateMutability": "view",
      "type": "function"
    },
    {
      "inputs": [
        {
          "internalType": "uint256",
          "name": "tokenId",
          "type": "uint256"
        }
      ],
      "name": "getApproved",
      "outputs": [
        {
          "internalType": "address",
          "name": "",
          "type": "address"
        }
      ],
      "stateMutability": "view",
      "type": "function"
    },
    {
      "inputs": [
        {
          "internalType": "uint256",
          "name": "bikeId",
          "type": "uint256"
        }
      ],
      "name": "getBikeDetails",
      "outputs": [
        {
          "components": [
            {
              "internalType": "string",
              "name": "bikeBrand",
              "type": "string"
            },
            {
              "internalType": "string",
              "name": "bikeTitle",
              "type": "string"
            },
            {
              "internalType": "string",
              "name": "bikeSize",
              "type": "string"
            },
            {
              "internalType": "string",
              "name": "bikeColor",
              "type": "string"
            },
            {
              "internalType": "string",
              "name": "bikeFrame",
              "type": "string"
            },
            {
              "internalType": "string",
              "name": "bikeFork",
              "type": "string"
            },
            {
              "internalType": "string",
              "name": "bikeShock",
              "type": "string"
            },
            {
              "internalType": "enum Types.BikeCondition",
              "name": "condition",
              "type": "uint8"
            },
            {
              "internalType": "uint256",
              "name": "manufactureYear",
              "type": "uint256"
            },
            {
              "internalType": "uint256",
              "name": "lastServiceDate",
              "type": "uint256"
            },
            {
              "internalType": "string",
              "name": "serialNumber",
              "type": "string"
            },
            {
              "internalType": "bool",
              "name": "hasWarranty",
              "type": "bool"
            }
          ],
          "internalType": "struct Types.BikeDetails",
          "name": "",
          "type": "tuple"
        }
      ],
      "stateMutability": "view",
      "type": "function"
    },
    {
      "inputs": [
        {
          "internalType": "uint256",
          "name": "bikeId",
          "type": "uint256"
        }
      ],
      "name": "getBikeMetadata",
      "outputs": [
        {
          "components": [
            {
              "internalType": "string",
              "name": "category",
              "type": "string"
            },
            {
              "internalType": "string",
              "name": "images",
              "type": "string"
            },
            {
              "internalType": "string",
              "name": "bikeAddress",
              "type": "string"
            },
            {
              "internalType": "string",
              "name": "bikeFeatures",
              "type": "string"
            },
            {
              "internalType": "bool",
              "name": "isStolen",
              "type": "bool"
            },
            {
              "internalType": "bool",
              "name": "isInsured",
              "type": "bool"
            },
            {
              "internalType": "enum Types.ListingType",
              "name": "listingType",
              "type": "uint8"
            },
            {
              "internalType": "uint256",
              "name": "rentalPrice",
              "type": "uint256"
            },
            {
              "internalType": "bool",
              "name": "isRented",
              "type": "bool"
            },
            {
              "internalType": "address",
              "name": "currentRenter",
              "type": "address"
            },
            {
              "internalType": "uint256",
              "name": "rentalEndTime",
              "type": "uint256"
            },
            {
              "internalType": "uint256",
              "name": "securityDeposit",
              "type": "uint256"
            },
            {
              "internalType": "uint256[]",
              "name": "maintenanceHistory",
              "type": "uint256[]"
            },
            {
              "internalType": "bool",
              "name": "requiresVerification",
              "type": "bool"
            },
            {
              "internalType": "enum Types.RentalDuration",
              "name": "preferredRentalDuration",
              "type": "uint8"
            },
            {
              "internalType": "uint256",
              "name": "insuranceExpiryDate",
              "type": "uint256"
            },
            {
              "internalType": "string[]",
              "name": "modifications",
              "type": "string[]"
            },
            {
              "internalType": "uint256",
              "name": "totalRentals",
              "type": "uint256"
            }
          ],
          "internalType": "struct Types.BikeMetadata",
          "name": "",
          "type": "tuple"
        }
      ],
      "stateMutability": "view",
      "type": "function"
    },
    {
      "inputs": [
        {
          "internalType": "uint256",
          "name": "id",
          "type": "uint256"
        }
      ],
      "name": "getBikeView",
      "outputs": [
        {
          "components": [
            {
              "internalType": "uint256",
              "name": "productID",
              "type": "uint256"
            },
            {
              "internalType": "address",
              "name": "owner",
              "type": "address"
            },
            {
              "internalType": "uint256",
              "name": "price",
              "type": "uint256"
            },
            {
              "components": [
                {
                  "internalType": "string",
                  "name": "bikeBrand",
                  "type": "string"
                },
                {
                  "internalType": "string",
                  "name": "bikeTitle",
                  "type": "string"
                },
                {
                  "internalType": "string",
                  "name": "bikeSize",
                  "type": "string"
                },
                {
                  "internalType": "string",
                  "name": "bikeColor",
                  "type": "string"
                },
                {
                  "internalType": "string",
                  "name": "bikeFrame",
                  "type": "string"
                },
                {
                  "internalType": "string",
                  "name": "bikeFork",
                  "type": "string"
                },
                {
                  "internalType": "string",
                  "name": "bikeShock",
                  "type": "string"
                },
                {
                  "internalType": "enum Types.BikeCondition",
                  "name": "condition",
                  "type": "uint8"
                },
                {
                  "internalType": "uint256",
                  "name": "manufactureYear",
                  "type": "uint256"
                },
                {
                  "internalType": "uint256",
                  "name": "lastServiceDate",
                  "type": "uint256"
                },
                {
                  "internalType": "string",
                  "name": "serialNumber",
                  "type": "string"
                },
                {
                  "internalType": "bool",
                  "name": "hasWarranty",
                  "type": "bool"
                }
              ],
              "internalType": "struct Types.BikeDetails",
              "name": "details",
              "type": "tuple"
            },
            {
              "components": [
                {
                  "internalType": "string",
                  "name": "category",
                  "type": "string"
                },
                {
                  "internalType": "string",
                  "name": "images",
                  "type": "string"
                },
                {
                  "internalType": "string",
                  "name": "bikeAddress",
                  "type": "string"
                },
                {
                  "internalType": "string",
                  "name": "bikeFeatures",
                  "type": "string"
                },
                {
                  "internalType": "bool",
                  "name": "isStolen",
                  "type": "bool"
                },
                {
                  "internalType": "bool",
                  "name": "isInsured",
                  "type": "bool"
                },
                {
                  "internalType": "enum Types.ListingType",
                  "name": "listingType",
                  "type": "uint8"
                },
                {
                  "internalType": "uint256",
                  "name": "rentalPrice",
                  "type": "uint256"
                },
                {
                  "internalType": "bool",
                  "name": "isRented",
                  "type": "bool"
                },
                {
                  "internalType": "address",
                  "name": "currentRenter",
                  "type": "address"
                },
                {
                  "internalType": "uint256",
                  "name": "rentalEndTime",
                  "type": "uint256"
                },
                {
                  "internalType": "uint256",
                  "name": "securityDeposit",
                  "type": "uint256"
                },
                {
                  "internalType": "uint256[]",
                  "name": "maintenanceHistory",
                  "type": "uint256[]"
                },
                {
                  "internalType": "bool",
                  "name": "requiresVerification",
                  "type": "bool"
                },
                {
                  "internalType": "enum Types.RentalDuration",
                  "name": "preferredRentalDuration",
                  "type": "uint8"
                },
                {
                  "internalType": "uint256",
                  "name": "insuranceExpiryDate",
                  "type": "uint256"
                },
                {
                  "internalType": "string[]",
                  "name": "modifications",
                  "type": "string[]"
                },
                {
                  "internalType": "uint256",
                  "name": "totalRentals",
                  "type": "uint256"
                }
              ],
              "internalType": "struct Types.BikeMetadata",
              "name": "metadata",
              "type": "tuple"
            },
            {
              "internalType": "address[]",
              "name": "reviewers",
              "type": "address[]"
            },
            {
              "internalType": "string[]",
              "name": "reviews",
              "type": "string[]"
            },
            {
              "internalType": "uint256",
              "name": "createdAt",
              "type": "uint256"
            },
            {
              "internalType": "uint256",
              "name": "lastUpdated",
              "type": "uint256"
            },
            {
              "internalType": "uint256",
              "name": "viewCount",
              "type": "uint256"
            }
          ],
          "internalType": "struct Types.Bike",
          "name": "",
          "type": "tuple"
        }
      ],
      "stateMutability": "view",
      "type": "function"
    },
    {
      "inputs": [],
      "name": "getHighestRatedProduct",
      "outputs": [
        {
          "internalType": "uint256",
          "name": "",
          "type": "uint256"
        }
      ],
      "stateMutability": "view",
      "type": "function"
    },
    {
      "inputs": [
        {
          "internalType": "uint256",
          "name": "productId",
          "type": "uint256"
        }
      ],
      "name": "getProductReviews",
      "outputs": [
        {
          "components": [
            {
              "internalType": "address",
              "name": "reviewer",
              "type": "address"
            },
            {
              "internalType": "uint256",
              "name": "productId",
              "type": "uint256"
            },
            {
              "internalType": "uint256",
              "name": "rating",
              "type": "uint256"
            },
            {
              "internalType": "string",
              "name": "comment",
              "type": "string"
            },
            {
              "internalType": "uint256",
              "name": "likes",
              "type": "uint256"
            },
            {
              "internalType": "uint256",
              "name": "timestamp",
              "type": "uint256"
            },
            {
              "internalType": "bool",
              "name": "isVerifiedPurchase",
              "type": "bool"
            },
            {
              "internalType": "string[]",
              "name": "images",
              "type": "string[]"
            },
            {
              "internalType": "uint256[]",
              "name": "helpfulVotes",
              "type": "uint256[]"
            }
          ],
          "internalType": "struct Types.Review[]",
          "name": "",
          "type": "tuple[]"
        }
      ],
      "stateMutability": "view",
      "type": "function"
    },
    {
      "inputs": [
        {
          "internalType": "uint256",
          "name": "bikeId",
          "type": "uint256"
        },
        {
          "internalType": "address",
          "name": "renter",
          "type": "address"
        }
      ],
      "name": "getRentalHistory",
      "outputs": [
        {
          "internalType": "uint256[]",
          "name": "",
          "type": "uint256[]"
        }
      ],
      "stateMutability": "view",
      "type": "function"
    },
    {
      "inputs": [
        {
          "internalType": "address",
          "name": "user",
          "type": "address"
        }
      ],
      "name": "getUserReviews",
      "outputs": [
        {
          "internalType": "uint256[]",
          "name": "",
          "type": "uint256[]"
        }
      ],
      "stateMutability": "view",
      "type": "function"
    },
    {
      "inputs": [
        {
          "internalType": "address",
          "name": "user",
          "type": "address"
        }
      ],
      "name": "getUserTransactions",
      "outputs": [
        {
          "components": [
            {
              "internalType": "uint256",
              "name": "transactionId",
              "type": "uint256"
            },
            {
              "internalType": "uint256",
              "name": "bikeId",
              "type": "uint256"
            },
            {
              "internalType": "enum Types.TransactionType",
              "name": "transactionType",
              "type": "uint8"
            },
            {
              "internalType": "enum Types.TransactionStatus",
              "name": "status",
              "type": "uint8"
            },
            {
              "internalType": "address",
              "name": "from",
              "type": "address"
            },
            {
              "internalType": "address",
              "name": "to",
              "type": "address"
            },
            {
              "internalType": "uint256",
              "name": "amount",
              "type": "uint256"
            },
            {
              "internalType": "uint256",
              "name": "timestamp",
              "type": "uint256"
            },
            {
              "internalType": "string",
              "name": "details",
              "type": "string"
            },
            {
              "internalType": "bool",
              "name": "isRefunded",
              "type": "bool"
            },
            {
              "internalType": "string",
              "name": "disputeReason",
              "type": "string"
            }
          ],
          "internalType": "struct Types.Transaction[]",
          "name": "",
          "type": "tuple[]"
        }
      ],
      "stateMutability": "view",
      "type": "function"
    },
    {
      "inputs": [
        {
          "internalType": "uint256",
          "name": "productId",
          "type": "uint256"
        },
        {
          "internalType": "uint256",
          "name": "reviewIndex",
          "type": "uint256"
        },
        {
          "internalType": "address",
          "name": "user",
          "type": "address"
        }
      ],
      "name": "hasLikedReview",
      "outputs": [
        {
          "internalType": "bool",
          "name": "",
          "type": "bool"
        }
      ],
      "stateMutability": "view",
      "type": "function"
    },
    {
      "inputs": [
        {
          "internalType": "uint256",
          "name": "bikeId",
          "type": "uint256"
        }
      ],
      "name": "insureBike",
      "outputs": [],
      "stateMutability": "payable",
      "type": "function"
    },
    {
      "inputs": [
        {
          "internalType": "address",
          "name": "owner",
          "type": "address"
        },
        {
          "internalType": "address",
          "name": "operator",
          "type": "address"
        }
      ],
      "name": "isApprovedForAll",
      "outputs": [
        {
          "internalType": "bool",
          "name": "",
          "type": "bool"
        }
      ],
      "stateMutability": "view",
      "type": "function"
    },
    {
      "inputs": [
        {
          "internalType": "uint256",
          "name": "productId",
          "type": "uint256"
        },
        {
          "internalType": "uint256",
          "name": "reviewIndex",
          "type": "uint256"
        }
      ],
      "name": "likeReview",
      "outputs": [],
      "stateMutability": "nonpayable",
      "type": "function"
    },
    {
      "inputs": [
        {
          "internalType": "uint256",
          "name": "price",
          "type": "uint256"
        },
        {
          "components": [
            {
              "internalType": "string",
              "name": "bikeBrand",
              "type": "string"
            },
            {
              "internalType": "string",
              "name": "bikeTitle",
              "type": "string"
            },
            {
              "internalType": "string",
              "name": "bikeSize",
              "type": "string"
            },
            {
              "internalType": "string",
              "name": "bikeColor",
              "type": "string"
            },
            {
              "internalType": "string",
              "name": "bikeFrame",
              "type": "string"
            },
            {
              "internalType": "string",
              "name": "bikeFork",
              "type": "string"
            },
            {
              "internalType": "string",
              "name": "bikeShock",
              "type": "string"
            },
            {
              "internalType": "enum Types.BikeCondition",
              "name": "condition",
              "type": "uint8"
            },
            {
              "internalType": "uint256",
              "name": "manufactureYear",
              "type": "uint256"
            },
            {
              "internalType": "uint256",
              "name": "lastServiceDate",
              "type": "uint256"
            },
            {
              "internalType": "string",
              "name": "serialNumber",
              "type": "string"
            },
            {
              "internalType": "bool",
              "name": "hasWarranty",
              "type": "bool"
            }
          ],
          "internalType": "struct Types.BikeDetails",
          "name": "details",
          "type": "tuple"
        },
        {
          "components": [
            {
              "internalType": "string",
              "name": "category",
              "type": "string"
            },
            {
              "internalType": "string",
              "name": "images",
              "type": "string"
            },
            {
              "internalType": "string",
              "name": "bikeAddress",
              "type": "string"
            },
            {
              "internalType": "string",
              "name": "bikeFeatures",
              "type": "string"
            },
            {
              "internalType": "bool",
              "name": "isStolen",
              "type": "bool"
            },
            {
              "internalType": "bool",
              "name": "isInsured",
              "type": "bool"
            },
            {
              "internalType": "enum Types.ListingType",
              "name": "listingType",
              "type": "uint8"
            },
            {
              "internalType": "uint256",
              "name": "rentalPrice",
              "type": "uint256"
            },
            {
              "internalType": "bool",
              "name": "isRented",
              "type": "bool"
            },
            {
              "internalType": "address",
              "name": "currentRenter",
              "type": "address"
            },
            {
              "internalType": "uint256",
              "name": "rentalEndTime",
              "type": "uint256"
            },
            {
              "internalType": "uint256",
              "name": "securityDeposit",
              "type": "uint256"
            },
            {
              "internalType": "uint256[]",
              "name": "maintenanceHistory",
              "type": "uint256[]"
            },
            {
              "internalType": "bool",
              "name": "requiresVerification",
              "type": "bool"
            },
            {
              "internalType": "enum Types.RentalDuration",
              "name": "preferredRentalDuration",
              "type": "uint8"
            },
            {
              "internalType": "uint256",
              "name": "insuranceExpiryDate",
              "type": "uint256"
            },
            {
              "internalType": "string[]",
              "name": "modifications",
              "type": "string[]"
            },
            {
              "internalType": "uint256",
              "name": "totalRentals",
              "type": "uint256"
            }
          ],
          "internalType": "struct Types.BikeMetadata",
          "name": "metadata",
          "type": "tuple"
        },
        {
          "internalType": "enum Types.ListingType",
          "name": "listingType",
          "type": "uint8"
        },
        {
          "internalType": "uint256",
          "name": "rentalPrice",
          "type": "uint256"
        }
      ],
      "name": "listBike",
      "outputs": [
        {
          "internalType": "uint256",
          "name": "",
          "type": "uint256"
        }
      ],
      "stateMutability": "nonpayable",
      "type": "function"
    },
    {
      "inputs": [
        {
          "internalType": "uint256",
          "name": "bikeId",
          "type": "uint256"
        }
      ],
      "name": "markAsStolen",
      "outputs": [],
      "stateMutability": "nonpayable",
      "type": "function"
    },
    {
      "inputs": [],
      "name": "name",
      "outputs": [
        {
          "internalType": "string",
          "name": "",
          "type": "string"
        }
      ],
      "stateMutability": "view",
      "type": "function"
    },
    {
      "inputs": [],
      "name": "owner",
      "outputs": [
        {
          "internalType": "address",
          "name": "",
          "type": "address"
        }
      ],
      "stateMutability": "view",
      "type": "function"
    },
    {
      "inputs": [
        {
          "internalType": "uint256",
          "name": "tokenId",
          "type": "uint256"
        }
      ],
      "name": "ownerOf",
      "outputs": [
        {
          "internalType": "address",
          "name": "",
          "type": "address"
        }
      ],
      "stateMutability": "view",
      "type": "function"
    },
    {
      "inputs": [
        {
          "internalType": "uint256",
          "name": "transactionId",
          "type": "uint256"
        },
        {
          "internalType": "string",
          "name": "reason",
          "type": "string"
        }
      ],
      "name": "raiseDispute",
      "outputs": [],
      "stateMutability": "nonpayable",
      "type": "function"
    },
    {
      "inputs": [
        {
          "internalType": "uint256",
          "name": "bikeId",
          "type": "uint256"
        },
        {
          "internalType": "address",
          "name": "deviceAddress",
          "type": "address"
        }
      ],
      "name": "registerTracker",
      "outputs": [],
      "stateMutability": "nonpayable",
      "type": "function"
    },
    {
      "inputs": [],
      "name": "renounceOwnership",
      "outputs": [],
      "stateMutability": "nonpayable",
      "type": "function"
    },
    {
      "inputs": [
        {
          "internalType": "uint256",
          "name": "bikeId",
          "type": "uint256"
        },
        {
          "internalType": "uint256",
          "name": "durationInDays",
          "type": "uint256"
        }
      ],
      "name": "rentBike",
      "outputs": [],
      "stateMutability": "payable",
      "type": "function"
    },
    {
      "inputs": [],
      "name": "reviewsCounter",
      "outputs": [
        {
          "internalType": "uint256",
          "name": "",
          "type": "uint256"
        }
      ],
      "stateMutability": "view",
      "type": "function"
    },
    {
      "inputs": [
        {
          "internalType": "address",
          "name": "from",
          "type": "address"
        },
        {
          "internalType": "address",
          "name": "to",
          "type": "address"
        },
        {
          "internalType": "uint256",
          "name": "tokenId",
          "type": "uint256"
        }
      ],
      "name": "safeTransferFrom",
      "outputs": [],
      "stateMutability": "nonpayable",
      "type": "function"
    },
    {
      "inputs": [
        {
          "internalType": "address",
          "name": "from",
          "type": "address"
        },
        {
          "internalType": "address",
          "name": "to",
          "type": "address"
        },
        {
          "internalType": "uint256",
          "name": "tokenId",
          "type": "uint256"
        },
        {
          "internalType": "bytes",
          "name": "data",
          "type": "bytes"
        }
      ],
      "name": "safeTransferFrom",
      "outputs": [],
      "stateMutability": "nonpayable",
      "type": "function"
    },
    {
      "inputs": [
        {
          "internalType": "address",
          "name": "operator",
          "type": "address"
        },
        {
          "internalType": "bool",
          "name": "approved",
          "type": "bool"
        }
      ],
      "name": "setApprovalForAll",
      "outputs": [],
      "stateMutability": "nonpayable",
      "type": "function"
    },
    {
      "inputs": [
        {
          "internalType": "bytes4",
          "name": "interfaceId",
          "type": "bytes4"
        }
      ],
      "name": "supportsInterface",
      "outputs": [
        {
          "internalType": "bool",
          "name": "",
          "type": "bool"
        }
      ],
      "stateMutability": "view",
      "type": "function"
    },
    {
      "inputs": [],
      "name": "symbol",
      "outputs": [
        {
          "internalType": "string",
          "name": "",
          "type": "string"
        }
      ],
      "stateMutability": "view",
      "type": "function"
    },
    {
      "inputs": [
        {
          "internalType": "uint256",
          "name": "tokenId",
          "type": "uint256"
        }
      ],
      "name": "tokenURI",
      "outputs": [
        {
          "internalType": "string",
          "name": "",
          "type": "string"
        }
      ],
      "stateMutability": "view",
      "type": "function"
    },
    {
      "inputs": [
        {
          "internalType": "address",
          "name": "from",
          "type": "address"
        },
        {
          "internalType": "address",
          "name": "to",
          "type": "address"
        },
        {
          "internalType": "uint256",
          "name": "tokenId",
          "type": "uint256"
        }
      ],
      "name": "transferFrom",
      "outputs": [],
      "stateMutability": "nonpayable",
      "type": "function"
    },
    {
      "inputs": [
        {
          "internalType": "address",
          "name": "newOwner",
          "type": "address"
        }
      ],
      "name": "transferOwnership",
      "outputs": [],
      "stateMutability": "nonpayable",
      "type": "function"
    },
    {
      "inputs": [
        {
          "internalType": "uint256",
          "name": "bikeId",
          "type": "uint256"
        }
      ],
      "name": "unflagBikeAsStolen",
      "outputs": [],
      "stateMutability": "nonpayable",
      "type": "function"
    },
    {
      "inputs": [
        {
          "internalType": "uint256",
          "name": "bikeId",
          "type": "uint256"
        },
        {
          "internalType": "enum Types.ListingType",
          "name": "newListingType",
          "type": "uint8"
        },
        {
          "internalType": "uint256",
          "name": "rentalPrice",
          "type": "uint256"
        }
      ],
      "name": "updateListingType",
      "outputs": [],
      "stateMutability": "nonpayable",
      "type": "function"
    },
    {
      "inputs": [
        {
          "internalType": "uint256",
          "name": "bikeId",
          "type": "uint256"
        },
        {
          "internalType": "uint256",
          "name": "newPrice",
          "type": "uint256"
        }
      ],
      "name": "updatePrice",
      "outputs": [],
      "stateMutability": "nonpayable",
      "type": "function"
    },
    {
      "inputs": [
        {
          "internalType": "string",
          "name": "name",
          "type": "string"
        },
        {
          "internalType": "string",
          "name": "email",
          "type": "string"
        },
        {
          "internalType": "string",
          "name": "location",
          "type": "string"
        },
        {
          "internalType": "string",
          "name": "bio",
          "type": "string"
        }
      ],
      "name": "updateProfile",
      "outputs": [],
      "stateMutability": "nonpayable",
      "type": "function"
    },
    {
      "inputs": [
        {
          "internalType": "uint256",
          "name": "bikeId",
          "type": "uint256"
        },
        {
          "internalType": "uint256",
          "name": "newPrice",
          "type": "uint256"
        }
      ],
      "name": "updateRentalPrice",
      "outputs": [],
      "stateMutability": "nonpayable",
      "type": "function"
    },
    {
      "inputs": [
        {
          "internalType": "uint256",
          "name": "bikeId",
          "type": "uint256"
        },
        {
          "internalType": "uint256",
          "name": "amount",
          "type": "uint256"
        }
      ],
      "name": "updateSecurityDeposit",
      "outputs": [],
      "stateMutability": "nonpayable",
      "type": "function"
    },
    {
      "inputs": [
        {
          "internalType": "address",
          "name": "user",
          "type": "address"
        }
      ],
      "name": "verifyUser",
      "outputs": [],
      "stateMutability": "nonpayable",
      "type": "function"
    }
  ],
  "bytecode": "0x60806040523462000027575b6200001562000036565b604051616165620004da823961616590f35b62000030600080fd5b6200000b565b6200004062000147565b565b50634e487b7160e01b600052604160045260246000fd5b90601f01601f191681019081106001600160401b038211176200007b57604052565b6200008562000042565b604052565b90620000406200009960405190565b928362000059565b602090620000c2906001600160401b038111620000c657601f01601f191690565b0190565b620000d062000042565b601f01601f191690565b90620000f0620000ea83620000a1565b6200008a565b918252565b620001016007620000da565b6625b63ab735b0bd60c91b602082015290565b6200011e620000f5565b90565b6200012d6004620000da565b634b4c4e4b60e01b602082015290565b6200011e62000121565b620000406200015562000114565b6200015f6200013d565b6200004091906200017091620001c7565b620000403362000477565b6200011e6200011e6200011e9290565b6200011e60016200017b565b90600019905b9181191691161790565b90620001bb6200011e620001c3926200017b565b825462000197565b9055565b90620001d391620003e7565b62000040620001e16200018b565b6006620001a7565b50634e487b7160e01b600052602260045260246000fd5b906001600283049216801562000227575b60208310146200021d57565b62000040620001e9565b91607f169162000211565b9160001960089290920291821b911b6200019d565b91906200025c6200011e620001c3936200017b565b90835462000232565b620000409160009162000247565b8181106200027f575050565b806200028f600060019362000265565b0162000273565b9190601f8111620002a657505050565b620002ba6200004093600052602060002090565b906020601f840181900483019310620002de575b6020601f90910104019062000273565b9091508190620002ce565b90620002f3815190565b906001600160401b038211620003cb575b6200031c8262000315855462000200565b8562000296565b602090601f83116001146200035b57620001c39291600091836200034f575b5050600019600883021c1916906002021790565b0151905038806200033b565b601f198316916200037185600052602060002090565b9260005b818110620003b25750916002939185600196941062000398575b50505002019055565b01516000196008601f8516021c191690553880806200038f565b9193602060018192878701518155019501920162000375565b620003d562000042565b62000304565b906200004091620002e9565b90620003f962000040926000620003db565b6001620003db565b6200011e905b6001600160a01b031690565b6200011e905462000401565b906001600160a01b03906200019d565b6200011e9062000407906001600160a01b031682565b6200011e906200042f565b6200011e9062000445565b906200046f6200011e620001c39262000450565b82546200041f565b62000483600762000413565b90620004918160076200045b565b620004c8620004c17f8be0079c531659141344cd1fd0a4f28419497f9722a3daafe3b4186f6b6457e09362000450565b9162000450565b91620004d360405190565b600090a356fe60806040526004361015610018575b610016600080fd5b005b60003560e01c806301ffc9a7146103b057806306fdde03146103a7578063081812fc1461039e578063095ea7b31461039557806318d0e8b21461038c57806323b872dd1461038357806324d41a031461037a57806338025500146103715780633e9e27aa1461036857806342842e0e1461035f57806346a4237b146103565780634d8131201461034d5780634f26c4a11461034457806356bc082e1461033b57806358560ea5146103325780635aef573c146103295780636352211e1461032057806370a0823114610317578063715018a61461030e578063774c0cda1461030557806379e0efe1146102fc57806382367b2d146102f3578063844ce562146102ea5780638da5cb5b146102e157806390abcd98146102d85780639483f25c146102cf57806395d89b41146102c657806397491d6f146102bd5780639e3699eb146102b4578063a22cb465146102ab578063a3007b1f146102a2578063a786de1814610299578063acfc78fa14610290578063b114d46114610287578063b88d4fde1461027e578063c87b56dd14610275578063cdc31ac21461026c578063d07b446014610263578063e3511b2c1461025a578063e5a54e8f14610251578063e985e9c514610248578063ef9253991461023f578063efaf9d1914610236578063f2fde38b1461022d578063fbe7b215146102245763fee618f60361000e5761021f61199e565b61000e565b5061021f611963565b5061021f611930565b5061021f61191c565b5061021f6118e6565b5061021f611762565b5061021f611712565b5061021f6116ea565b5061021f6116c2565b5061021f611657565b5061021f61161c565b5061021f6115f1565b5061021f611588565b5061021f61155d565b5061021f611548565b5061021f61151e565b5061021f6114f6565b5061021f611489565b5061021f611462565b5061021f611438565b5061021f61140d565b5061021f61132c565b5061021f6112f8565b5061021f6112ce565b5061021f611284565b5061021f61125c565b5061021f6111f5565b5061021f6111bd565b5061021f611193565b5061021f611169565b5061021f611141565b5061021f6110bf565b5061021f610fc3565b5061021f610f98565b5061021f610f33565b5061021f610efd565b5061021f610dc2565b5061021f610d9a565b5061021f610c1b565b5061021f610741565b5061021f6106f1565b5061021f61067d565b5061021f6105cc565b5061021f61053b565b5061021f6104c8565b5061021f610408565b600080fd5b6001600160e01b031981165b036103b957565b905035906103de826103be565b565b906103f4916020818303126103f7576103d1565b90565b6103ff600080fd5b6103d1565b9052565b503461043c575b6104386104256104203660046103e0565b611be9565b6040515b91829182901515815260200190565b0390f35b610444600080fd5b61040f565b600091031261045457565b6103de600080fd5b60005b83811061046f5750506000910152565b818101518382015260200161045f565b601f01601f191690565b6104aa61047f6020936104b39361049e815190565b80835293849260200190565b9586910161045c565b0190565b60208082526103f492910190610489565b50346104f2575b6104da366004610449565b6104386104e5611e79565b6040515b918291826104b7565b6104fa600080fd5b6104cf565b806103ca565b905035906103de826104ff565b906103f491602081830312156105055761052a600080fd5b610505565b6001600160a01b031690565b5034610572575b610438610558610553366004610512565b61209d565b604051918291826001600160a01b03909116815260200190565b61057a600080fd5b610542565b6001600160a01b0381166103ca565b905035906103de8261057f565b91906103f4906040848203126105bf575b6105b6818561058e565b93602001610505565b6105c7600080fd5b6105ac565b50346105ec575b6105e76105e136600461059b565b90612032565b604051005b6105f4600080fd5b6105d3565b906103f4916020818303121561058e57610611600080fd5b61058e565b9061063661062f610625845190565b8084529260200190565b9260200190565b9060005b8181106106475750505090565b90919261066461065d6001928651815260200190565b9460200190565b92910161063a565b60208082526103f492910190610616565b50346106a6575b61043861069a6106953660046105f9565b615dd8565b6040519182918261066c565b6106ae600080fd5b610684565b90916060828403126106e4575b6103f46106cd848461058e565b936106db816020860161058e565b93604001610505565b6106ec600080fd5b6106c0565b503461070c575b6105e76107063660046106b3565b91612171565b610714600080fd5b6106f8565b91906103f490604084820312610734575b6105b68185610505565b61073c600080fd5b61072a565b503461075c575b6105e7610756366004610719565b90615a10565b610764600080fd5b610748565b50634e487b7160e01b600052602160045260246000fd5b6005111561078a57565b6103de610769565b906103de82610780565b6103f490610792565b6104049061079c565b906103f4906101608061089c61085461084261083061081e61080c6107fa6107e88c60006101808d019101518c6000818403910152610489565b60208d01518b820360208d0152610489565b60408c01518a820360408c0152610489565b60608b015189820360608b0152610489565b60808a015188820360808a0152610489565b60a089015187820360a0890152610489565b60c088015186820360c0880152610489565b61086660e088015160e08701906107a5565b610877610100880151610100870152565b610888610120880151610120870152565b610140870151858203610140870152610489565b9401511515910152565b6002111561078a57565b906103de826108a6565b6103f4906108b0565b610404906108ba565b6003111561078a57565b906103de826108cc565b6103f4906108d6565b610404906108e0565b906103f491610489565b90610912610908835190565b8083529160200190565b90816109246020830284019460200190565b926000915b83831061093857505050505090565b9091929394602061095b610954838560019503875289516108f2565b9760200190565b9301930191939290610929565b906103f49061022080610aa6610a606109d06109be6109ac61099a610240890160008c01518a820360008c0152610489565b60208b015189820360208b0152610489565b60408a015188820360408a0152610489565b60608901518782036060890152610489565b60808881015115159087015260a0888101511515908701526109fa60c089015160c08801906108c3565b610a0960e089015160e0880152565b61010088810151151590870152610120808901516001600160a01b031690870152610a3b610140890151610140880152565b610a4c610160890151610160880152565b610180880151868203610180880152610616565b6101a087810151151590860152610a816101c08801516101c08701906108e9565b610a926101e08801516101e0870152565b6102008701518582036102008701526108fc565b940151910152565b90610abd61062f610625845190565b9060005b818110610ace5750505090565b909192610aed61065d60019286516001600160a01b0316815260200190565b929101610ac1565b805182526020808201516001600160a01b031690830152906103f49061012080610b7d610b6b610b59610b476101408701610b3560408b015160408a0152565b60608a015188820360608a01526107ae565b60808901518782036080890152610968565b60a088015186820360a0880152610aae565b60c087015185820360c08701526108fc565b94610b8d60e082015160e0860152565b610b9e610100820151610100860152565b0151910152565b906103f491610af5565b90610bbb610908835190565b9081610bcd6020830284019460200190565b926000915b838310610be157505050505090565b90919293946020610bfd61095483856001950387528951610ba5565b9301930191939290610bd2565b60208082526103f492910190610baf565b5034610c44575b610c2d366004610449565b610438610c38615bd0565b60405191829182610c0a565b610c4c600080fd5b610c22565b50634e487b7160e01b600052604160045260246000fd5b90601f01601f191681019081106001600160401b03821117610c8957604052565b610c91610c51565b604052565b906103de610ca360405190565b9283610c68565b6104b36020916001600160401b038111610cc857601f01601f191690565b61047f610c51565b90826000939282370152565b9291906103de91610cf4610cef83610caa565b610c96565b9482865260208601918382011115610cd057610d0e600080fd5b610cd0565b906103f49181601f82011215610d2f575b602081359101610cdc565b610d37600080fd5b610d24565b9091606082840312610d8d575b6103f4610d568484610505565b93610d648160208601610505565b936040810135906001600160401b038211610d80575b01610d13565b610d88600080fd5b610d7a565b610d95600080fd5b610d49565b5034610db5575b6105e7610daf366004610d3c565b91615055565b610dbd600080fd5b610da1565b5034610ddd575b6105e7610dd73660046106b3565b9161218e565b610de5600080fd5b610dc9565b80516001600160a01b031682526103f491610100610e75610e396101208401610e1860208701516020870152565b610e2760408701516040870152565b60608601518582036060870152610489565b610e4860808601516080860152565b610e5760a086015160a0860152565b60c08581015115159085015260e085015184820360e08601526108fc565b92015190610100818403910152610616565b906103f491610dea565b90610e9d610908835190565b9081610eaf6020830284019460200190565b926000915b838310610ec357505050505090565b90919293946020610edf61095483856001950387528951610e87565b9301930191939290610eb4565b60208082526103f492910190610e91565b5034610f26575b610438610f1a610f15366004610512565b615d74565b60405191829182610eec565b610f2e600080fd5b610f04565b5034610f4d575b6105e7610f483660046105f9565b614877565b610f55600080fd5b610f3a565b9091606082840312610f8b575b6103f4610f748484610505565b93610f828160208601610505565b9360400161058e565b610f93600080fd5b610f67565b5034610fb6575b610438610425610fb0366004610f5a565b91615db9565b610fbe600080fd5b610f9f565b5034610fdd575b6105e7610fd8366004610512565b614b4d565b610fe5600080fd5b610fca565b9081610180910312610ff95790565b6103f4600080fd5b9081610240910312610ff95790565b600211156103b957565b905035906103de82611010565b919060a0838203126110b2575b61103e8184610505565b9261105e8260208301356001600160401b0381116110a5575b8301610fea565b926103f46110818460408501356001600160401b038111611098575b8501611001565b9361108f816060860161101a565b93608001610505565b6110a0600080fd5b61107a565b6110ad600080fd5b611057565b6110ba600080fd5b611034565b50346110f1575b6104386110e06110d7366004611027565b93929092613bef565b6040515b9182918290815260200190565b6110f9600080fd5b6110c6565b91906103f490604084820312611134575b6111198185610505565b936020810135906001600160401b038211610d805701610d13565b61113c600080fd5b61110f565b503461115c575b6105e76111563660046110fe565b90614a7d565b611164600080fd5b611148565b5034611186575b610438610558611181366004610512565b611d44565b61118e600080fd5b611170565b50346111b0575b6104386110e06111ab3660046105f9565b611cbb565b6111b8600080fd5b61119a565b50346111d7575b6111cf366004610449565b6105e7611a0c565b6111df600080fd5b6111c4565b60208082526103f492910190610af5565b503461121e575b61043861121261120d366004610512565b6131f0565b604051918291826111e4565b611226600080fd5b6111fc565b91906103f49060408482031261124f575b6112468185610505565b9360200161058e565b611257600080fd5b61123c565b5034611277575b6105e761127136600461122b565b90614c48565b61127f600080fd5b611263565b503461129f575b6105e7611299366004610719565b90615587565b6112a7600080fd5b61128b565b6103f4916008021c81565b906103f491546112ac565b6103f4600060096112b7565b50346112eb575b6112e0366004610449565b6104386110e06112c2565b6112f3600080fd5b6112d5565b503461131f575b61130a366004610449565b6104386105586007546001600160a01b031690565b611327600080fd5b6112ff565b5034611347575b6105e7611341366004610719565b906154e5565b61134f600080fd5b611333565b608081830312611400575b61137b8282356001600160401b0381116113f3575b8301610d13565b926103f461139e8460208501356001600160401b0381116113e6575b8501610d13565b936113be8160408601356001600160401b0381116113d9575b8601610d13565b936060810135906001600160401b038211610d805701610d13565b6113e1600080fd5b6113b7565b6113ee600080fd5b611397565b6113fb600080fd5b611374565b611408600080fd5b61135f565b503461142b575b6105e7611422366004611354565b9291909161478f565b611433600080fd5b611414565b5034611455575b61144a366004610449565b6104386104e5611e83565b61145d600080fd5b61143f565b503461147c575b6105e7611477366004610512565b614680565b611484600080fd5b611469565b50346114a3575b6105e761149e366004610512565b614c04565b6114ab600080fd5b611490565b8015156103ca565b905035906103de826114b0565b91906103f4906040848203126114e9575b6114e0818561058e565b936020016114b8565b6114f1600080fd5b6114d6565b5034611511575b6105e761150b3660046114c5565b906120ca565b611519600080fd5b6114fd565b503461153b575b611530366004610449565b6104386110e061600f565b611543600080fd5b611525565b506105e7611557366004610719565b90614519565b503461157b575b61043861069a61157536600461122b565b90615d99565b611583600080fd5b611564565b50346115a3575b6105e761159d366004610719565b90615265565b6115ab600080fd5b61158f565b6080818303126115e4575b6115c5828261058e565b926103f46115d6846020850161058e565b936113be8160408601610505565b6115ec600080fd5b6115bb565b503461160f575b6105e76116063660046115b0565b9291909161219e565b611617600080fd5b6115f8565b5034611639575b6104386104e5611634366004610512565b611ef3565b611641600080fd5b611623565b60208082526103f492910190610968565b5034611680575b61043861167461166f366004610512565b6160f2565b60405191829182611646565b611688600080fd5b61165e565b90916060828403126116b5575b6103f46116a78484610505565b936106db816020860161101a565b6116bd600080fd5b61169a565b50346116dd575b6105e76116d736600461168d565b9161538e565b6116e5600080fd5b6116c9565b5034611705575b6105e76116ff366004610719565b90614969565b61170d600080fd5b6116f1565b503461172d575b6105e76117273660046110fe565b906148e3565b611735600080fd5b611719565b91906103f490604084820312611755575b611246818561058e565b61175d600080fd5b61174b565b5034611780575b61043861042561177a36600461173a565b906120ea565b611788600080fd5b611769565b6004111561078a57565b906103de8261178d565b6103f490611797565b610404906117a1565b805182526103f49161014061185161016083016117d560208601516020860152565b6117e7604086015160408601906107a5565b6117f9606086015160608601906117aa565b6080858101516001600160a01b03169085015260a0858101516001600160a01b03169085015261182e60c086015160c0860152565b61183d60e086015160e0860152565b610100850151848203610100860152610489565b6101208085015115159084015292015190610140818403910152610489565b906103f4916117b3565b90611886610908835190565b90816118986020830284019460200190565b926000915b8383106118ac57505050505090565b909192939460206118c861095483856001950387528951611870565b930193019193929061189d565b60208082526103f49291019061187a565b503461190f575b6104386119036118fe3660046105f9565b615f87565b604051918291826118d5565b611917600080fd5b6118ed565b506105e761192b366004610512565b614cf0565b503461194a575b6105e76119453660046105f9565b611b2d565b611952600080fd5b611937565b6103f4600060086112b7565b5034611980575b611975366004610449565b6104386110e0611957565b611988600080fd5b61196a565b60208082526103f4929101906107ae565b50346119c7575b6104386119bb6119b6366004610512565b6160d2565b6040519182918261198d565b6119cf600080fd5b6119a5565b6119dc611a68565b6103de6119fa565b61052f6103f46103f49290565b6103f4906119e4565b6103de611a0760006119f1565b611b8c565b6103de6119d4565b15611a1b57565b60405162461bcd60e51b815280611a64600482016020808252818101527f4f776e61626c653a2063616c6c6572206973206e6f7420746865206f776e6572604082015260600190565b0390fd5b6103de611a7d6007546001600160a01b031690565b611a96611a893361052f565b916001600160a01b031690565b14611a14565b6103de90611aa8611a68565b611b08565b15611ab457565b60405162461bcd60e51b815260206004820152602660248201527f4f776e61626c653a206e6577206f776e657220697320746865207a65726f206160448201526564647265737360d01b6064820152608490fd5b6103de90611a07611b1c61052f60006119f1565b6001600160a01b0383161415611aad565b6103de90611a9c565b906001600160a01b03905b9181191691161790565b6103f49061052f906001600160a01b031682565b6103f490611b4b565b6103f490611b5f565b90611b816103f4611b8892611b68565b8254611b36565b9055565b6007546001600160a01b031690611ba4816007611b71565b611bd7611bd17f8be0079c531659141344cd1fd0a4f28419497f9722a3daafe3b4186f6b6457e093611b68565b91611b68565b91611be160405190565b80805b0390a3565b6380ac58cd60e01b6001600160e01b0319821614908115611c19575b8115611c0f575090565b6103f491506126a7565b6001600160e01b03198116635b5e139f60e01b149150611c05565b15611c3b57565b60405162461bcd60e51b815260206004820152602960248201527f4552433732313a2061646472657373207a65726f206973206e6f7420612076616044820152683634b21037bbb732b960b91b6064820152608490fd5b90611c9c90611b68565b600052602052604060002090565b6103f49081565b6103f49054611caa565b611cf36103f491611cca600090565b50611cec611cdb61052f60006119f1565b6001600160a01b0383161415611c34565b6003611c92565b611cb1565b15611cff57565b60405162461bcd60e51b815260206004820152601860248201527f4552433732313a20696e76616c696420746f6b656e20494400000000000000006044820152606490fd5b611d519060005b5061223e565b6103f4611d6161052f60006119f1565b6001600160a01b0383161415611cf8565b50634e487b7160e01b600052602260045260246000fd5b9060016002830492168015611dac575b6020831014611da457565b6103de611d72565b91607f1691611d99565b600052602060002090565b80546000939291611dde611dd483611d89565b8085529360200190565b9160018116908115611e305750600114611df757505050565b611e0a9192939450600052602060002090565b916000925b818410611e1c5750500190565b805484840152602090930192600101611e0f565b92949550505060ff1916825215156020020190565b906103f491611dc1565b906103de611e6992611e6060405190565b93848092611e45565b0383610c68565b6103f490611e4f565b6103f46000611e70565b6103f46001611e70565b6103f46103f46103f49290565b90611ea7610cef83610caa565b918252565b6103f46000611e9a565b6103f4611eac565b6104b3611ed692602092611ed0815190565b94859290565b9384910161045c565b611eed906103f49392611ebe565b90611ebe565b611efc8161240e565b611f04611f62565b8051600090611f19611f1583611e8d565b9190565b11159050611f58576103f4611f4c91611f346103f49461261b565b90611f3e60405190565b938492602084019283611edf565b90810382520382610c68565b50506103f4611eb6565b6103f4611eb6565b15611f7157565b60405162461bcd60e51b815260206004820152602160248201527f4552433732313a20617070726f76616c20746f2063757272656e74206f776e656044820152603960f91b6064820152608490fd5b15611fc757565b60405162461bcd60e51b815260206004820152603d60248201527f4552433732313a20617070726f76652063616c6c6572206973206e6f7420746f60448201527f6b656e206f776e6572206f7220617070726f76656420666f7220616c6c0000006064820152608490fd5b906103de9161207d61204383611d44565b6120616001600160a01b0382166001600160a01b0385161415611f6a565b336001600160a01b0382168114918215612082575b5050611fc0565b6122bf565b61208c92506120ea565b3880612076565b90611c9c90611e8d565b6120bd6103f4916120ac600090565b506120b68161240e565b6004612093565b546001600160a01b031690565b6103de919033612398565b6103f4905b60ff1690565b6103f490546120d5565b6103f49161210561210a926120fd600090565b506005611c92565b611c92565b6120e0565b1561211657565b60405162461bcd60e51b815260206004820152602d60248201527f4552433732313a2063616c6c6572206973206e6f7420746f6b656e206f776e6560448201526c1c881bdc88185c1c1c9bdd9959609a1b6064820152608490fd5b6103de9291906121896121848433612255565b61210f565b6128a7565b90916103de9261219c611eb6565b925b6103de939291906121b26121848433612255565b61221f565b156121be57565b6040515b62461bcd60e51b815260206004820152603260248201527f4552433732313a207472616e7366657220746f206e6f6e20455243373231526560448201527131b2b4bb32b91034b6b83632b6b2b73a32b960711b6064820152608490fd5b916103de9391612239936122348383836128a7565b6124c6565b6121b7565b6120bd6103f49161224d600090565b506002612093565b61225e82611d44565b916001600160a01b0383166001600160a01b038316149283156122ab575b50821561228857505090565b6122a791925061229a611a899161209d565b926001600160a01b031690565b1490565b6122b891935082906120ea565b913861227c565b906122d4826122cf836004612093565b611b71565b6122dd81611d44565b9161231a61231461230e7f8c5be1e5ebec7d5bd14f71427d1e84f3dd0314c0f7b2291e5b200ac8c7c3b92595611b68565b92611b68565b92611e8d565b9261232460405190565b80805b0390a4565b1561233357565b60405162461bcd60e51b815260206004820152601960248201527f4552433732313a20617070726f766520746f2063616c6c6572000000000000006044820152606490fd5b9060ff90611b41565b906123916103f4611b8892151590565b8254612378565b6123b66001600160a01b0383166001600160a01b038316141561232c565b6123ce836123c984612105856005611c92565b612381565b611be46124046123fe7f17307eab39ab6107e8899845ad3d59bd9653f200f220920489ca2b5937696c3193611b68565b93611b68565b9361042960405190565b61241a6103de9161241f565b611cf8565b61242a906000611d4b565b61243a611a8961052f60006119f1565b141590565b905051906103de826103be565b906103f4916020818303121561243f57612464600080fd5b61243f565b6001600160a01b0391821681529116602082015260408101919091526080606082018190526103f492910190610489565b506040513d6000823e3d90fd5b3d156124c1576124b63d611e9a565b903d6000602084013e565b606090565b929091906124d3836125b4565b156125ab5761251860006124f06124eb602096611b68565b611b68565b9261252363150b7a02916125013390565b9661250b60405190565b998a988997889660e01b90565b865260048601612469565b03925af16000918161257b575b506125615761253d6124a7565b805161254c611f156000611e8d565b03612559576040516121c2565b805190602001fd5b6122a7630a85bd0160e11b5b916001600160e01b03191690565b61259d91925060203d81116125a4575b6125958183610c68565b81019061244c565b9038612530565b503d61258b565b50505050600190565b3b6125c2611f156000611e8d565b1190565b369037565b906103de6125e16125db84611e9a565b93610caa565b601f1901602084016125c6565b50634e487b7160e01b600052601260045260246000fd5b811561260f570490565b6126176125ee565b0490565b612624816126b7565b906126346001926104b384611e8d565b918061263f846125cb565b936020018401905b612652575b50505090565b6126869060001901926f181899199a1a9b1b9c1cb0b131b232b360811b600a82061a8453612680600a611e8d565b90612605565b9081612695611f156000611e8d565b146126a257909181612647565b61264c565b6122a76301ffc9a760e01b61256d565b6126c16000611e8d565b907a184f03e93ff9f4daa797ed6e38ed64bf6a1f0100000000000000006126e781611e8d565b821015612839575b506d04ee2d6d415b85acef810000000061270881611e8d565b821015612817575b50662386f26fc1000061272281611e8d565b8210156127f5575b506305f5e10061273981611e8d565b8210156127d3575b5061271061274e81611e8d565b8210156127b1575b50606461276281611e8d565b82101561278f575b50612778611f15600a611e8d565b10156127815790565b6103f4906104b36001611e8d565b6127aa9161268061279f92611e8d565b916104b36002611e8d565b903861276a565b6127cc916126806127c192611e8d565b916104b36004611e8d565b9038612756565b6127ee916126806127e392611e8d565b916104b36008611e8d565b9038612741565b6128109161268061280592611e8d565b916104b36010611e8d565b903861272a565b6128329161268061282792611e8d565b916104b36020611e8d565b9038612710565b6128549161268061284992611e8d565b916104b36040611e8d565b90386126ef565b1561286257565b60405162461bcd60e51b815260206004820152601c60248201527f43616e6e6f74207472616e73666572207768696c652072656e746564000000006044820152606490fd5b61290560026128ff85600b6128d96128d46128d06006600f6128c98787612093565b01016120e0565b1590565b61285b565b6128e4828888612a5e565b6128fa8760016128f48585612093565b01611b71565b612093565b01611cb1565b9261232761293f6129396129397f795a7cd0147ddd0af2300c79dd7f62f6e26226534db92eab141cd37d3f49286694611e8d565b94611b68565b946110e460405190565b1561295057565b60405162461bcd60e51b815260206004820152602560248201527f4552433732313a207472616e736665722066726f6d20696e636f72726563742060448201526437bbb732b960d91b6064820152608490fd5b156129aa57565b60405162461bcd60e51b8152602060048201526024808201527f4552433732313a207472616e7366657220746f20746865207a65726f206164646044820152637265737360e01b6064820152608490fd5b916001600160a01b0360089290920291821b911b611b41565b9190612a256103f4611b8893611b68565b9083546129fb565b6103de91600091612a14565b0390565b9060001990611b41565b90612a576103f4611b8892611e8d565b8254612a3d565b9190612a84612a6c83611d44565b612a7e6001600160a01b038616611a89565b14612949565b612ad76000612aa9612a9861052f836119f1565b6001600160a01b03851614156129a3565b612ac7612ab585611d44565b612a7e6001600160a01b038816611a89565b612ad2846004612093565b612a2d565b612b17612ae46001611e8d565b612b07612b0d846003612105612afa8a83611c92565b612b0787612a3983611cb1565b90612a47565b916104b383611cb1565b612b26816122cf846002612093565b61231a61231461230e7fddf252ad1be2c89b69c2b068fc378daa952ba7f163c4a11628f55a4df523b3ef95611b68565b6103f4610140610c96565b6103f4610180610c96565b612b74612b61565b9060608252602080808080808080808080808d0160608152016060815201606081520160608152016060815201606081520160008152016000815201600081520160605b8152016000905250565b6103f4612b6c565b6103f4610240610c96565b612bdd612bca565b9060608252602082016060815260200160608152602001606081526020016000815260200160008152602001600081526020016000815260200160008152602001600081526020016000815260200160008152602001606081526020016000815260200160008152602001600081526020016060815260200160009052565b6103f4612bd5565b612c6c612b56565b906000825260208080808080808080808b0160008152016000815201612c90612bc2565b815201612c9b612c5c565b8152016060815201606081520160008152016000612bb8565b6103f4612c64565b9061040490610792565b906103de612dcf600b612cd7612b61565b94612ce8612ce482611e4f565b8752565b612cfe612cf760018301611e4f565b6020880152565b612d14612d0d60028301611e4f565b6040880152565b612d2a612d2360038301611e4f565b6060880152565b612d40612d3960048301611e4f565b6080880152565b612d56612d4f60058301611e4f565b60a0880152565b612d6c612d6560068301611e4f565b60c0880152565b612d84612d7b600783016120e0565b60e08801612cbc565b612d9b612d9360088301611cb1565b610100880152565b612db2612daa60098301611cb1565b610120880152565b612dc9612dc1600a8301611e4f565b610140880152565b016120e0565b1515610160840152565b6103f49060081c6120da565b6103f49054612dd9565b6103f49060101c6120da565b6103f49054612def565b90610404906108b0565b6103f49060081c61052f565b6103f49054612e0f565b90612e40612e34610625845490565b92600052602060002090565b9060005b818110612e515750505090565b909192612e75612e6e600192612e6687611cb1565b815260200190565b9460010190565b929101612e44565b906103f491612e25565b906103de611e6992612e9860405190565b93848092612e7d565b90610404906108d6565b602080916001600160401b038111612ec257020190565b612eca610c51565b020190565b90611ea7610cef83612eab565b90612ee5825490565b612eee81612ecf565b92612f026020850191600052602060002090565b6000915b838310612f135750505050565b600160208192612f2285611e70565b815201920192019190612f06565b906103de6130af600d612f41612bca565b94612f4e612ce482611e4f565b612f5d612cf760018301611e4f565b612f6c612d0d60028301611e4f565b612f7b612d2360038301611e4f565b612f93612f8a600483016120e0565b15156080880152565b612fab612fa260048301612de5565b151560a0880152565b612fc3612fba60048301612dfb565b60c08801612e05565b612fd9612fd260058301611cb1565b60e0880152565b612ff2612fe8600683016120e0565b1515610100880152565b61301261300160068301612e1b565b6001600160a01b0316610120880152565b613021612dc160078301611cb1565b61303861303060088301611cb1565b610160880152565b61304f61304760098301612e87565b610180880152565b61306861305e600a83016120e0565b15156101a0880152565b613081613077600a8301612de5565b6101c08801612ea1565b613098613090600b8301611cb1565b6101e0880152565b6128ff6130a7600c8301612edc565b610200880152565b610220840152565b906130c6612e34610625845490565b9060005b8181106130d75750505090565b909192613105612e6e6001926130f487546001600160a01b031690565b6001600160a01b0316815260200190565b9291016130ca565b906103f4916130b7565b906103de611e699261312860405190565b9384809261310d565b906103de6131df6021613142612b56565b9461314f612ce482611cb1565b61317661316660018301546001600160a01b031690565b6001600160a01b03166020880152565b613185612d0d60028301611cb1565b613194612d2360038301612cc6565b6131a3612d39600f8301612f30565b6131b2612d4f601d8301613117565b6131c1612d65601e8301612edc565b6131d0612fd2601f8301611cb1565b6128ff612d9360208301611cb1565b610120840152565b6103f490613131565b6132056103f4916131ff612cb4565b5061320a565b6131e7565b6103f490616109565b1561321a57565b60405162461bcd60e51b815260206004820152601c60248201527f5072696365206d7573742062652067726561746572207468616e2030000000006044820152606490fd5b1561326657565b60405162461bcd60e51b815260206004820152602360248201527f52656e74616c207072696365206d75737420626520677265617465722074686160448201526206e20360ec1b6064820152608490fd5b50634e487b7160e01b600052600060045260246000fd5b903590601e193682900301821215613311575b0160208135916001600160401b038311613304575b019136829003831361045457565b61330c600080fd5b6132f6565b613319600080fd5b6132e1565b9160001960089290920291821b911b611b41565b91906133436103f4611b8893611e8d565b90835461331e565b6103de91600091613332565b818110613362575050565b80613370600060019361334b565b01613357565b9190601f811161338557505050565b6133976103de93600052602060002090565b906020601f8401819004830193106133ba575b6020601f909101045b0190613357565b90915081906133aa565b600019600883021c1916906002021790565b91906001600160401b038211613494575b6133fb826133f58554611d89565b85613376565b600090601f831160011461342957611b8892916000918361341e575b50506133c4565b013590503880613417565b601f1983169161343e85600052602060002090565b92815b81811061347c57509160029391856001969410613462575b50505002019055565b0135600019601f84166008021c19165b9055388080613459565b91936020600181928787013581550195019201613441565b61349c610c51565b6133e7565b906103de92916133d6565b600511156103b957565b356103f4816134ac565b906123916103f4611b889261079c565b356103f4816104ff565b356103f4816114b0565b6103de91906135de9061016090600b906135088161350287806132ce565b916134a1565b61351c6001820161350260208801886132ce565b6135306002820161350260408801886132ce565b6135446003820161350260608801886132ce565b6135586004820161350260808801886132ce565b61356c6005820161350260a08801886132ce565b6135806006820161350260c08801886132ce565b6135996007820161359360e088016134b6565b906134c0565b6135ad60088201612b0761010088016134d0565b6135c160098201612b0761012088016134d0565b6135d6600a82016135026101408801886132ce565b0192016134da565b90612381565b906103de916134e4565b9061ff009060081b611b41565b9061360b6103f4611b8892151590565b82546135ee565b356103f481611010565b9062ff00009060101b611b41565b9061363a6103f4611b88926108ba565b825461361c565b356103f48161057f565b90610100600160a81b039060081b611b41565b9061366e6103f4611b8892611b68565b825461364b565b903590601e1936829003018212156136ba575b0160208135916001600160401b0383116136ad575b0191602082023603831361045457565b6136b5600080fd5b61369d565b6136c2600080fd5b613688565b50634e487b7160e01b600052601160045260246000fd5b818102929181159184041417156136f157565b6103de6136c7565b9061370c90600019906020036008021c90565b8154169055565b909182811061372157505050565b6103de929061372f90612e34565b9081019101613357565b906103de91600160401b8211613755575b805490828155613713565b61375d610c51565b61374a565b909161378d612e3461377360019390565b946001600160401b0386116137be575b6103f48686613739565b92049160005b8381106137a05750505050565b60019060206137b16103f4866134d0565b9401938184015501613793565b6137c6610c51565b613783565b906103de9291613762565b600311156103b957565b356103f4816137d6565b9061360b6103f4611b88926108e0565b9060009161381861381082600052602060002090565b9283546133c4565b905555565b919290602082101561387557601f841160011461383f57611b889293506133c4565b50906138706103de93600161386761385c85600052602060002090565b92601f602091010490565b82019101613357565b6137fa565b506138ae829361388c600194600052602060002090565b6133b36020601f860104820192601f8616806138b6575b50601f602091010490565b600202179055565b6138c2908886036136f9565b386138a3565b929091602090600160401b831161391d575b10156139115760208110156138f257611b88916133c4565b60019160ff191661390884600052602060002090565b55600202019055565b60019150600202019055565b613925610c51565b6138da565b90815461393681611d89565b9081831161395f575b81831061394d575b50505050565b6139569361381d565b38808080613947565b61396b838383876138c8565b61393f565b60006103de9161392a565b6103de91156139705761398c6132b7565b613970565b81811061399c575050565b806139aa600060019361397b565b01613991565b90918281106139be57505050565b6103de92906139cc90612e34565b9081019101613991565b906103de91600160401b82116139f2575b8054908281556139b0565b6139fa610c51565b6139e7565b90613a0a83836139d6565b613a1381612e34565b906000925b848410613a26575050505050565b6001602082613a40613a398495876132ce565b90886134a1565b01930193019291613a18565b906103de92916139ff565b6103de9190612b079061022090600d90613a758161350287806132ce565b613a896001820161350260208801886132ce565b613a9d6002820161350260408801886132ce565b613ab16003820161350260608801886132ce565b613af460048201613acd613ac7608089016134da565b82612381565b613ae2613adc60a089016134da565b826135fb565b613aee60c08801613612565b9061362a565b613b0760058201612b0760e088016134d0565b613b3160068201613b1e613ac761010089016134da565b613b2b6101208801613641565b9061365e565b613b4560078201612b0761014088016134d0565b613b5960088201612b0761016088016134d0565b613b7460098201613b6e610180880188613675565b916137cb565b613b9e600a8201613b8b613ac76101a089016134da565b613b986101c088016137e0565b906137ea565b613bb2600b8201612b076101e088016134d0565b613bcd600c8201613bc7610200880188613675565b91613a4c565b0192016134d0565b906103de91613a57565b6020810192916103de91906108c3565b909392916000613c08613c0182611e8d565b8411613213565b600194613c14866108b0565b613c1d866108b0565b14613d4d575b613c2b616117565b96613c3788600b612093565b90613c4489858401612a47565b338098830190613c5391611b71565b613c608660028401612a47565b613c6d90600383016135e4565b600f0192613c7b9084613bd5565b613c88856004850161362a565b613c959060058401612a47565b60068201613ca38282612381565b613cac826119f1565b613cb59161365e565b613cbe90611e8d565b613cca91600701612a47565b7f7bdb5fda3c85bc6ad44ee77339210335f0d676769e9d0684d59f0848871d2a1f92613cf585611e8d565b93613d008592611b68565b92613d0a60405190565b908152602090a37f67d4c4fc54b59b0c047b4bb8edbbf1ec91de3457c643770b0dc36791e9966e1390613d3c60405190565b613d47819282613bdf565b0390a290565b613d60613d5983611e8d565b821161325f565b613c23565b90613d7791613d72614579565b6141ef565b6103de6145ab565b15613d8657565b60405162461bcd60e51b815260206004820152600c60248201526b139bdd08199bdc881c995b9d60a21b6044820152606490fd5b15613dc157565b60405162461bcd60e51b815260206004820152601060248201526f10dd5c9c995b9d1b1e481c995b9d195960821b6044820152606490fd5b15613e0057565b60405162461bcd60e51b815260206004820152601060248201526f26b0b935b2b21030b99039ba37b632b760811b6044820152606490fd5b15613e3f57565b60405162461bcd60e51b8152602060048201526011602482015270155cd95c881b9bdd081d995c9a599a5959607a1b6044820152606490fd5b919082018092116136f157565b15613e8c57565b60405162461bcd60e51b8152602060048201526014602482015273125b9cdd59999a58da595b9d081c185e5b595b9d60621b6044820152606490fd5b6001906000198114613ed8570190565b6104b36136c7565b6103f4610160610c96565b9061040490611797565b613eff600b611e9a565b6a109a5ad9481c995b9d185b60aa1b602082015290565b6103f4613ef5565b6103f49051610792565b6103f49051611797565b9061360b6103f4611b88926117a1565b9062010000600160b01b039060101b611b41565b90613f666103f4611b8892611b68565b8254613f42565b90613f76815190565b906001600160401b038211614026575b613f94826133f58554611d89565b602090601f8311600114613fc157611b88929160009183613fb65750506133c4565b015190503880613417565b601f19831691613fd685600052602060002090565b9260005b81811061400e57509160029391856001969410613ffa5750505002019055565b01516000196008601f8516021c1916613472565b91936020600181928787015181550195019201613fda565b61402e610c51565b613f86565b906103de91613f6d565b6103de9190614108906101409060089061405981612b07875190565b61406b60018201612b07602088015190565b6140b06002820161408761408160408901613f1e565b826134c0565b61409c61409660608901613f28565b82613f32565b60808701516001600160a01b031690613f56565b6140d1600382016140cb60a08801516001600160a01b031690565b90611b71565b6140e360048201612b0760c088015190565b6140f560058201612b0760e088015190565b61410e6006820161410861010088015190565b90614033565b614123600782016135de610120880151151590565b0192015190565b906103de9161403d565b50634e487b7160e01b600052603260045260246000fd5b61416b600191614159815490565b84101561417457600052602060002090565b91020190600090565b611db6614134565b9061419f6103de92805490600160401b8210156141a5575b60018201815561414b565b90613332565b6141ad610c51565b614194565b9081526040810192916103de9160200152565b9160206103de9294936141e0604082019660008301906107a5565b01906001600160a01b03169052565b6141f88161320a565b6013810190600f810161420a83612dfb565b9261422960019461422361421d876108b0565b916108b0565b14613d7f565b61425061424b6128d0600685019361210a6142466128d0876120e0565b613dba565b613df9565b61425c600a83016120e0565b6144fc575b8561426e60058401611cb1565b90614278916136de565b9561428560088401611cb1565b34906142919089613e78565b111561429c90613e85565b6142a6600a611cb1565b6142af90613ec8565b936142bb85600a612a47565b85339101926142d184546001600160a01b031690565b9442916000966142df613ee0565b906142ea8a8a840152565b6142f58c6020840152565b6143028b60408401612cbc565b61430f8b60608401613eeb565b6001600160a01b03861660808301526001600160a01b031660a08201526143378c60c0830152565b6143428460e0830152565b61434a613f16565b610100820152871515610120820152614361611eb6565b610140820152614372896013612093565b9061437c9161412a565b8760148161438a8783611c92565b906143949161417c565b87546001600160a01b03166143a891611c92565b906143b29161417c565b836143bd8a83612381565b6143c69161365e565b6143d262015180611e8d565b6143dc90856136de565b6143e69083613e78565b6143f291600701612a47565b816143fe896011612093565b9061440891611c92565b906144129161417c565b82546001600160a01b031661442690611b68565b61442f90611b68565b96848080808c80159c6144a69a61447e9e6144f3575bf1156144e6575b6144767ffb3232f7d0f99292ecf3d4fda4d4cb1be33f6418db95f43818ab53203cfd468b91611e8d565b978892611b68565b98899361449661448d60405190565b928392836141b2565b0390a3546001600160a01b031690565b6144d07f956c30bd2866f35f10c562d4d1da7f87808eed3d7817dca81b52acd1b2c637f192611e8d565b926123276144dd60405190565b928392836141c5565b6144ee61249a565b61444c565b506108fc614445565b61451461450f6006612dc9336012611c92565b613e38565b614261565b906103de91613d65565b6103f46002611e8d565b1561453457565b60405162461bcd60e51b815260206004820152601f60248201527f5265656e7472616e637947756172643a207265656e7472616e742063616c6c006044820152606490fd5b6103de6145866006611cb1565b61459a614591614523565b9182141561452d565b6006612a47565b6103f46001611e8d565b6103de61459a6145a1565b156145bd57565b60405162461bcd60e51b8152602060048201526012602482015271109a5ad9481a5cc81b9bdd081c995b9d195960721b6044820152606490fd5b156145fe57565b60405162461bcd60e51b815260206004820152600e60248201526d139bdd08185d5d1a1bdc9a5e995960921b6044820152606490fd5b1561463b57565b60405162461bcd60e51b815260206004820152601760248201527f52656e74616c20706572696f64206e6f7420656e6465640000000000000000006044820152606490fd5b61472561468c8261320a565b614720600f82016146dd60068201936146ac6146a7866120e0565b6145b6565b6146c461052f6001339301546001600160a01b031690565b6001600160a01b03821614908115614752575b506145f7565b6007016146fa426146f3611f156103f485611cb1565b1015614634565b612b0760006147098186612381565b61471b614715826119f1565b8661365e565b611e8d565b612e1b565b611bd7611bd17ff9bbd47d9659083aa5b016ffd346aca413549aace523513f610200aeed1e1dd493611e8d565b9050614763611a8961052f87612e1b565b14386146d7565b60408082526103f493919261478191840190610489565b916020818403910152610489565b923392916147d391906003906147c06147ac6103f4886012611c92565b916147b78984614033565b60018301614033565b6147cd8560028301614033565b01614033565b6147fd7f6eb3a1c6a4675ba92d44e090515b1ceea358f26565d2854df0c99c3f5eaf985092611b68565b9261481361480a60405190565b9283928361476a565b0390a2565b6103de90614824611a68565b61483c60016006614836846012611c92565b01612381565b6148667fa6625d2d26e786e2f473111bea4b2fcdbbf1863d883a2359989ce3a103d2972a91611b68565b9061487060405190565b8080614813565b6103de90614818565b1561488757565b60405162461bcd60e51b81526020600482015260126024820152712737ba103a3432903134b5b29037bbb732b960711b6044820152606490fd5b929160206148de6103de9360408701908782036000890152610489565b940152565b61491e6009600f6148f38461320a565b61491961490a60018301546001600160a01b031690565b61491333611a89565b14614880565b010190565b61492942809261417c565b6149537fbeb5421e5f84e7e8a5cb8d83d85e1460bfca8f34de4a49ed3b39f629a93b9faf92611e8d565b9261481361496060405190565b928392836148c1565b614998826008600f61497a8561320a565b61499161490a60018301546001600160a01b031690565b0101612a47565b6148136149c57fc2663c5ae35a0c1178b32c0b261b64322cfbc9d22cc8be0398a154656d52d34192611e8d565b926110e460405190565b6103f49060101c61052f565b6103f490546149cf565b156149ec57565b60405162461bcd60e51b815260206004820152601b60248201527f4e6f7420696e766f6c76656420696e207472616e73616374696f6e00000000006044820152606490fd5b15614a3857565b60405162461bcd60e51b815260206004820152601960248201527f5472616e73616374696f6e206e6f7420636f6d706c65746564000000000000006044820152606490fd5b614a8b6103f4826013612093565b90614aeb3392614abe6002820191614aa561052f846149db565b6001600160a01b03871614908115614b25575b506149e5565b614ae3614aca82612de5565b614add614ad76001611797565b91611797565b14614a31565b600390613f32565b611be4614b1b6123fe7f1b84372106d77c6daea0dda35bbc0229d10a83f58ec89909288492519368234193611e8d565b936104e960405190565b60030154614b3c91506001600160a01b031661052f565b6001600160a01b0386161438614ab8565b600f90614b81614b5c8261320a565b614b7361490a60018301546001600160a01b031690565b600460019485920101612381565b614813614bae7f31c7437140229c226a4acaed438f62c68da03165f12e02a33d2754c8632461eb92611e8d565b9261042960405190565b15614bbf57565b60405162461bcd60e51b815260206004820152601c60248201527f42696b65206973206e6f74206d61726b65642061732073746f6c656e000000006044820152606490fd5b6004600f614c118361320a565b614c2861490a60018301546001600160a01b031690565b010190614c3c614c37836120e0565b614bb8565b614b8160008093612381565b90614c6861490a6001614c5a8561320a565b01546001600160a01b031690565b614c77816122cf84600f612093565b611bd7611bd17f2c507bd5f7ce8a766341b3b97146350a897966b95b50aa0f7db93ad6dd57916793611e8d565b15614cab57565b60405162461bcd60e51b815260206004820152601760248201527f42696b6520697320616c726561647920696e73757265640000000000000000006044820152606490fd5b6004600f614cfd8361320a565b614d1461490a60018301546001600160a01b031690565b010190614d2b614d266128d084612de5565b614ca4565b614d37600180936135fb565b614813614bae7f897ccba9ad8d1ac8a46ca954e71e2470f4bc81ccc69ca1d61f40210156c64e6792611e8d565b15614d6b57565b60405162461bcd60e51b815260206004820152601e60248201527f526174696e67206d757374206265206265747765656e203120616e64203500006044820152606490fd5b15614db757565b60405162461bcd60e51b815260206004820152601760248201527f436f6d6d656e742063616e6e6f7420626520656d7074790000000000000000006044820152606490fd5b60005b828110614e0b57505050565b606082820152602001614dff565b906103de614e2f614e2984612ecf565b93612eab565b601f190160208401614dfc565b906103de6125e1614e2984612ecf565b6103f4610120610c96565b61416b600991614159815490565b614e90614e84614e73845190565b93614e7e85856139d6565b60200190565b91600052602060002090565b6000915b838310614ea15750505050565b6001602082614eb8614eb284955190565b86614033565b01920192019190614e94565b906103de91614e65565b6001614ef8612e34614ede855190565b946001600160401b038611614f28575b614e7e8686613739565b92049160005b838110614f0b5750505050565b6001906020614f1b6103f4865190565b9401938184015501614efe565b614f30610c51565b614eee565b906103de91614ece565b6103de9190614fea9061010090600890614f64816140cb87516001600160a01b031690565b614f7660018201612b07602088015190565b614f8860028201612b07604088015190565b614f9a60038201614108606088015190565b614fac60048201612b07608088015190565b614fbe60058201612b0760a088015190565b614fd2600682016135de60c0880151151590565b61412360078201614fe460e088015190565b90614ec4565b90614f35565b6103de929115614f3f576150026132b7565b614f3f565b9061502a6103de92805490600160401b821015615030575b600182018155614e57565b90614ff0565b615038610c51565b61501f565b9081526040602082018190526103f492910190610489565b60019161506183611e8d565b811015806151bd575b61507390614d64565b83519260009361508285611e8d565b1061508c90614db0565b33934261509882611e8d565b916150a283614e19565b906150ac84614e3c565b926150b5614e4c565b6001600160a01b038a1683820152946150cf896020880152565b6150da886040880152565b606086018b9052608086015260a0850152151560c084015260e083015261010082015261510884600c612093565b9061511291615007565b8261511e85600d611c92565b906151289161417c565b61513383600e612093565b9081018261514082611cb1565b9061514a91613e78565b61515391612a47565b60020161515f81611cb1565b61516890613ec8565b61517191612a47565b7f4beb3faed0901f48c8eaa53db80247f723ddeb08676b6badb9ee2f191d1ac2df9161519c90611e8d565b926151a690611b68565b936151b060405190565b918291611be4918361503d565b506150736151cb6005611e8d565b821115905061506a565b156151dc57565b60405162461bcd60e51b815260206004820152601560248201527414995d9a595dc8191bd95cc81b9bdd08195e1a5cdd605a1b6044820152606490fd5b1561522057565b60405162461bcd60e51b815260206004820152601960248201527f416c7265616479206c696b6564207468697320726576696577000000000000006044820152606490fd5b90600c906152876152806103f461527c8686612093565b5490565b82106151d5565b6153086004615301836152d5876010976128fa6152a8856128fa858d612093565b996152c36152be6128d061210a339e8f90611c92565b615219565b6152ed886152da886152d58888612093565b614e57565b5001612b076152e882611cb1565b613ec8565b6123c98b612105886128fa88600196612093565b5001611cb1565b9261232761293f61293961533c7fc58deae63c2d94e1502a392380f59901dc4cd3c3bbc40308b6189decf09671d594611e8d565b94611e8d565b1561534957565b60405162461bcd60e51b815260206004820152601f60248201527f43616e6e6f74206368616e67652074797065207768696c652072656e746564006044820152606490fd5b90918260046153f292600f6153a28661320a565b6153b961490a60018301546001600160a01b031690565b01906153d26153cd6128d0600685016120e0565b615342565b6153dc60016108b0565b6153e5856108b0565b14615432575b500161362a565b61481361541f7f67d4c4fc54b59b0c047b4bb8edbbf1ec91de3457c643770b0dc36791e9966e1392611e8d565b9261542960405190565b91829182613bdf565b61544c90615443613d596000611e8d565b60058301612a47565b386153eb565b1561545957565b60405162461bcd60e51b81526020600482015260146024820152734e6f7420612072656e74616c206c697374696e6760601b6044820152606490fd5b1561549c57565b60405162461bcd60e51b815280611a64600482016020808252818101527f43616e6e6f7420757064617465207072696365207768696c652072656e746564604082015260600190565b61555a826005600f6154f68561320a565b61550d61490a60018301546001600160a01b031690565b0161553061551d60048301612dfb565b61552a61421d60016108b0565b14615452565b61553d613c016000611e8d565b61555461554f6128d0600684016120e0565b615495565b01612a47565b6148136149c57fa396b937eacb736072f5b3d5d325cf506bf4a7d5fc645bbbeb1a58ed6e8d70e292611e8d565b6155cc8260026155968461320a565b6155ad61490a60018301546001600160a01b031690565b6155ba613c016000611e8d565b61555461554f6128d0601584016120e0565b6148136149c57f945c1c4e99aa89f648fbfe3df471b916f719e16d960fcec0737d4d56bd69683892611e8d565b1561560057565b60405162461bcd60e51b8152602060048201526024808201527f596f752063616e206f6e6c792064656c65746520796f7572206f776e207265766044820152636965777360e01b6064820152608490fd5b919082039182116136f157565b600190801561566b570390565b612a396136c7565b6103f49054611d89565b9080821461575a5761568e81615673565b906001600160401b03821161574d575b6156ac826133f58554611d89565b600090601f83116001146156d957611b889291600091836156ce5750506133c4565b015490503880613417565b906156ee601f19841692600052602060002090565b906156fe85600052602060002090565b92815b818110615735575091600293918560019694106157215750505002019055565b01546000196008601f8516021c1916613472565b91936001806020928787015481550195019201615701565b615755610c51565b61569e565b5050565b906103de9161567d565b81811461575a57615788614e8461577d845490565b93611db685856139d6565b6000915b8383106157995750505050565b600180826157a882948661575e565b0192019201919061578c565b906103de91615768565b81811461575a5760016157ef612e346157d5855490565b946001600160401b038611615823575b611db68686613739565b9204918154916000925b848410615807575050505050565b6001615811819290565b920193845492818501550192906157f9565b61582b610c51565b6157e5565b906103de916157be565b90808203615846575050565b6103de916008908190615864816140cb86546001600160a01b031690565b61587760018201612b0760018701611cb1565b61588a60028201612b0760028701611cb1565b61589b60038201600386019061575e565b6158ae60048201612b0760048701611cb1565b6158c160058201612b0760058701611cb1565b6158d4600682016135de600687016120e0565b6158e56007820160078601906157b4565b01910190615830565b6103de92911561583a576159006132b7565b61583a565b50634e487b7160e01b600052603160045260246000fd5b60006103de916139d6565b6103de911561591c576159386132b7565b61591c565b60006103de91613739565b6103de911561593d576159596132b7565b61593d565b60008082556103de91600890615977836001830161334b565b615984836002830161334b565b615991836003830161397b565b61599e836004830161334b565b6159ab836005830161334b565b8260068201556159be8360078301615927565b01615948565b6103de911561595e576159d56132b7565b61595e565b60016159e4825490565b8015615a03575b0390615a006159fa8383614e57565b906159c4565b55565b615a0b615905565b6159eb565b600c9291615a276152806103f461527c8588612093565b615a5b615a4c6000615a3d846152d5878a612093565b5001546001600160a01b031690565b615a5533611a89565b146155f9565b615aab6002615a6e6103f485600e612093565b615a99615a8383615301876152d58a8d612093565b612b076001840191615a9483611cb1565b615651565b01612b07615aa682611cb1565b61565e565b805b615aba61527c8487612093565b615ad26103f4600192615acc84611e8d565b90615651565b821015615b1a57906152e8615b00615b1593615afa615af4612314898c612093565b85613e78565b90614e57565b50615b0f836152d5888b612093565b906158ee565b615aad565b5050909192615b2f6103f484615b3493612093565b6159da565b611bd7615b617ffe09911b3ec9652ef94a11286713bd397f2fb090f28c62303451d8040ff62c6293611e8d565b91611e8d565b60005b828110615b7657505050565b602090615b81612cb4565b8184015201615b6a565b906103de615b9b614e2984612ecf565b601f190160208401615b67565b9060208091615bb5845190565b811015615bc3575b02010190565b615bcb614134565b615bbd565b615be2615bdd6008611cb1565b615b8b565b600180615bee81611e8d565b905b615bf957505090565b615c066103f46008611cb1565b8111615c5557615c4f81615c49615c1d859461320a565b615c38615c32615c2c87611e8d565b85615651565b916131e7565b615c428289615ba8565b5286615ba8565b50613ec8565b90615bf0565b505090565b906103de615d056008615c6b614e4c565b94615c8d615c8082546001600160a01b031690565b6001600160a01b03168752565b615c9c612cf760018301611cb1565b615cab612d0d60028301611cb1565b615cba612d2360038301611e4f565b615cc9612d3960048301611cb1565b615cd8612d4f60058301611cb1565b615cf0615ce7600683016120e0565b151560c0880152565b615cff612fd260078301612edc565b01612e87565b610100840152565b6103f490615c5a565b90615d1f825490565b615d2881612ecf565b92615d3c6020850191600052602060002090565b6000915b838310615d4d5750505050565b60096020600192615d5d85615d0d565b815201920192019190615d40565b6103f490615d16565b615d8b6103f491615d83606090565b50600c612093565b615d6b565b6103f490612e87565b6103f491612105615db492615dac606090565b506011612093565b615d90565b9161210561210a926128fa6103f495615dd0600090565b506010612093565b615db46103f491615de7606090565b50600d611c92565b615df7613ee0565b90600082526020808080808080808080808c016000815201600081520160008152016000815201600081520160008152016000815201606081520160008152016060905250565b6103f4615def565b60005b828110615e5557505050565b602090615e60615e3e565b8184015201615e49565b906103de615e7a614e2984612ecf565b601f190160208401615e46565b906103de615f766008615e98613ee0565b94615ea5612ce482611cb1565b615eb4612cf760018301611cb1565b615ecc615ec3600283016120e0565b60408801612cbc565b615ee4615edb60028301612de5565b60608801613eeb565b615f03615ef3600283016149db565b6001600160a01b03166080880152565b615f2a615f1a60038301546001600160a01b031690565b6001600160a01b031660a0880152565b615f39612d6560048301611cb1565b615f48612fd260058301611cb1565b615f57612d9360068301611e4f565b615f70615f66600783016120e0565b1515610120880152565b01611e4f565b610140840152565b6103f490615e87565b6103f4615f9e91615f96606090565b506014611c92565b615fae615fa9825490565b615e6a565b90615fb96000611e8d565b615fc46103f4835490565b811015615c555761600a90615ff5615ff06013615fea615fe4858861414b565b906112b7565b90612093565b615f7e565b615fff8286615ba8565b52615c498185615ba8565b615fb9565b600061601a81611e8d565b90816001809261602982611e8d565b915b616037575b5050505090565b6160446103f46008611cb1565b82116160c4578161605a6103f48694600e612093565b600281019061606882611cb1565b616074611f1586611e8d565b1161608b575b505061608590613ec8565b9161602b565b61609e6160a49394956126809201611cb1565b91611cb1565b8381116160b6575b908185939261607a565b9094509150836160856160ac565b616030565b6103f490612cc6565b60036160e36103f4926131ff612bc2565b016160c9565b6103f490612f30565b600f6161036103f4926131ff612c5c565b016160e9565b6103f46103f491600b612093565b6161246152e86008611cb1565b6103f4816008612a4756fea264697066735822122030929d06bf0058c1ec04ef13ef549c1850fbd99bf7b8baf07fcb386b3441d44364736f6c63430008110033",
  "linkReferences": {},
  "deployedLinkReferences": {}
}