{
  "_format": "hh-sol-artifact-1",
  "contractName": "KlunkazStorage",
  "sourceName": "contracts/KlunkazStorage.sol",
  "abi": [
    {
      "inputs": [],
      "name": "bikeIndex",
      "outputs": [
        {
          "internalType": "uint256",
          "name": "",
          "type": "uint256"
        }
      ],
      "stateMutability": "view",
      "type": "function"
    },
    {
      "inputs": [],
      "name": "reviewsCounter",
      "outputs": [
        {
          "internalType": "uint256",
          "name": "",
          "type": "uint256"
        }
      ],
      "stateMutability": "view",
      "type": "function"
    }
  ],
  "bytecode": "0x60806040523461001b575b60405161010e610029823961010e90f35b610023600080fd5b61000a56fe608060405260043610156016575b6014600080fd5b005b60003560e01c8063844ce5621460395763fbe7b21503600d57603560b6565b600d565b506035607c565b6000910312604a57565b6051600080fd5b565b605d916008021c81565b90565b90605d91546053565b605d600060016060565b90815260200190565b503460a2575b608b3660046040565b609e60936069565b604051918291826073565b0390f35b60a9600080fd5b6082565b605d6000806060565b503460cd575b60c53660046040565b609e609360ad565b60d4600080fd5b60bc56fea2646970667358221220c20b21edfabbe4acbfe2592848001d197af914de10cbc20b54d05234bb61947f64736f6c63430008110033",
  "linkReferences": {},
  "deployedLinkReferences": {}
}