{
  "_format": "hh-sol-artifact-1",
  "contractName": "Klunkaz",
  "sourceName": "contracts/Klunkaz.sol",
  "abi": [
    {
      "inputs": [],
      "stateMutability": "nonpayable",
      "type": "constructor"
    },
    {
      "anonymous": false,
      "inputs": [
        {
          "indexed": true,
          "internalType": "address",
          "name": "owner",
          "type": "address"
        },
        {
          "indexed": true,
          "internalType": "address",
          "name": "approved",
          "type": "address"
        },
        {
          "indexed": true,
          "internalType": "uint256",
          "name": "tokenId",
          "type": "uint256"
        }
      ],
      "name": "Approval",
      "type": "event"
    },
    {
      "anonymous": false,
      "inputs": [
        {
          "indexed": true,
          "internalType": "address",
          "name": "owner",
          "type": "address"
        },
        {
          "indexed": true,
          "internalType": "address",
          "name": "operator",
          "type": "address"
        },
        {
          "indexed": false,
          "internalType": "bool",
          "name": "approved",
          "type": "bool"
        }
      ],
      "name": "ApprovalForAll",
      "type": "event"
    },
    {
      "anonymous": false,
      "inputs": [
        {
          "indexed": true,
          "internalType": "uint256",
          "name": "id",
          "type": "uint256"
        },
        {
          "indexed": false,
          "internalType": "bool",
          "name": "isInsured",
          "type": "bool"
        }
      ],
      "name": "BikeInsuranceUpdated",
      "type": "event"
    },
    {
      "anonymous": false,
      "inputs": [
        {
          "indexed": true,
          "internalType": "uint256",
          "name": "id",
          "type": "uint256"
        },
        {
          "indexed": true,
          "internalType": "address",
          "name": "owner",
          "type": "address"
        },
        {
          "indexed": false,
          "internalType": "uint256",
          "name": "price",
          "type": "uint256"
        }
      ],
      "name": "BikeListed",
      "type": "event"
    },
    {
      "anonymous": false,
      "inputs": [
        {
          "indexed": true,
          "internalType": "uint256",
          "name": "id",
          "type": "uint256"
        },
        {
          "indexed": true,
          "internalType": "address",
          "name": "oldOwner",
          "type": "address"
        },
        {
          "indexed": true,
          "internalType": "address",
          "name": "newOwner",
          "type": "address"
        },
        {
          "indexed": false,
          "internalType": "uint256",
          "name": "price",
          "type": "uint256"
        }
      ],
      "name": "BikeResold",
      "type": "event"
    },
    {
      "anonymous": false,
      "inputs": [
        {
          "indexed": true,
          "internalType": "uint256",
          "name": "id",
          "type": "uint256"
        },
        {
          "indexed": true,
          "internalType": "address",
          "name": "oldOwner",
          "type": "address"
        },
        {
          "indexed": true,
          "internalType": "address",
          "name": "newOwner",
          "type": "address"
        },
        {
          "indexed": false,
          "internalType": "uint256",
          "name": "price",
          "type": "uint256"
        }
      ],
      "name": "BikeSold",
      "type": "event"
    },
    {
      "anonymous": false,
      "inputs": [
        {
          "indexed": true,
          "internalType": "uint256",
          "name": "id",
          "type": "uint256"
        },
        {
          "indexed": false,
          "internalType": "bool",
          "name": "isStolen",
          "type": "bool"
        }
      ],
      "name": "BikeStatusUpdated",
      "type": "event"
    },
    {
      "anonymous": false,
      "inputs": [
        {
          "indexed": true,
          "internalType": "address",
          "name": "previousOwner",
          "type": "address"
        },
        {
          "indexed": true,
          "internalType": "address",
          "name": "newOwner",
          "type": "address"
        }
      ],
      "name": "OwnershipTransferred",
      "type": "event"
    },
    {
      "anonymous": false,
      "inputs": [
        {
          "indexed": true,
          "internalType": "uint256",
          "name": "bikeId",
          "type": "uint256"
        },
        {
          "indexed": false,
          "internalType": "uint256",
          "name": "newPrice",
          "type": "uint256"
        }
      ],
      "name": "PriceUpdated",
      "type": "event"
    },
    {
      "anonymous": false,
      "inputs": [
        {
          "indexed": true,
          "internalType": "uint256",
          "name": "productId",
          "type": "uint256"
        },
        {
          "indexed": true,
          "internalType": "address",
          "name": "reviewer",
          "type": "address"
        },
        {
          "indexed": false,
          "internalType": "uint256",
          "name": "rating",
          "type": "uint256"
        },
        {
          "indexed": false,
          "internalType": "string",
          "name": "comment",
          "type": "string"
        }
      ],
      "name": "ReviewAdded",
      "type": "event"
    },
    {
      "anonymous": false,
      "inputs": [
        {
          "indexed": true,
          "internalType": "uint256",
          "name": "productId",
          "type": "uint256"
        },
        {
          "indexed": true,
          "internalType": "uint256",
          "name": "reviewIndex",
          "type": "uint256"
        }
      ],
      "name": "ReviewDeleted",
      "type": "event"
    },
    {
      "anonymous": false,
      "inputs": [
        {
          "indexed": true,
          "internalType": "uint256",
          "name": "productId",
          "type": "uint256"
        },
        {
          "indexed": true,
          "internalType": "uint256",
          "name": "reviewIndex",
          "type": "uint256"
        },
        {
          "indexed": true,
          "internalType": "address",
          "name": "liker",
          "type": "address"
        },
        {
          "indexed": false,
          "internalType": "uint256",
          "name": "likes",
          "type": "uint256"
        }
      ],
      "name": "ReviewLiked",
      "type": "event"
    },
    {
      "anonymous": false,
      "inputs": [
        {
          "indexed": true,
          "internalType": "uint256",
          "name": "bikeId",
          "type": "uint256"
        },
        {
          "indexed": true,
          "internalType": "address",
          "name": "deviceAddress",
          "type": "address"
        }
      ],
      "name": "TrackerRegistered",
      "type": "event"
    },
    {
      "anonymous": false,
      "inputs": [
        {
          "indexed": true,
          "internalType": "address",
          "name": "from",
          "type": "address"
        },
        {
          "indexed": true,
          "internalType": "address",
          "name": "to",
          "type": "address"
        },
        {
          "indexed": true,
          "internalType": "uint256",
          "name": "tokenId",
          "type": "uint256"
        }
      ],
      "name": "Transfer",
      "type": "event"
    },
    {
      "inputs": [
        {
          "internalType": "uint256",
          "name": "productId",
          "type": "uint256"
        },
        {
          "internalType": "uint256",
          "name": "rating",
          "type": "uint256"
        },
        {
          "internalType": "string",
          "name": "comment",
          "type": "string"
        }
      ],
      "name": "addReview",
      "outputs": [],
      "stateMutability": "nonpayable",
      "type": "function"
    },
    {
      "inputs": [
        {
          "internalType": "address",
          "name": "to",
          "type": "address"
        },
        {
          "internalType": "uint256",
          "name": "tokenId",
          "type": "uint256"
        }
      ],
      "name": "approve",
      "outputs": [],
      "stateMutability": "nonpayable",
      "type": "function"
    },
    {
      "inputs": [
        {
          "internalType": "address",
          "name": "owner",
          "type": "address"
        }
      ],
      "name": "balanceOf",
      "outputs": [
        {
          "internalType": "uint256",
          "name": "",
          "type": "uint256"
        }
      ],
      "stateMutability": "view",
      "type": "function"
    },
    {
      "inputs": [],
      "name": "bikeIndex",
      "outputs": [
        {
          "internalType": "uint256",
          "name": "",
          "type": "uint256"
        }
      ],
      "stateMutability": "view",
      "type": "function"
    },
    {
      "inputs": [
        {
          "internalType": "uint256",
          "name": "productId",
          "type": "uint256"
        },
        {
          "internalType": "uint256",
          "name": "reviewIndex",
          "type": "uint256"
        }
      ],
      "name": "deleteReview",
      "outputs": [],
      "stateMutability": "nonpayable",
      "type": "function"
    },
    {
      "inputs": [
        {
          "internalType": "uint256",
          "name": "tokenId",
          "type": "uint256"
        }
      ],
      "name": "getApproved",
      "outputs": [
        {
          "internalType": "address",
          "name": "",
          "type": "address"
        }
      ],
      "stateMutability": "view",
      "type": "function"
    },
    {
      "inputs": [
        {
          "internalType": "uint256",
          "name": "id",
          "type": "uint256"
        }
      ],
      "name": "getBike",
      "outputs": [
        {
          "components": [
            {
              "internalType": "uint256",
              "name": "productID",
              "type": "uint256"
            },
            {
              "internalType": "address",
              "name": "owner",
              "type": "address"
            },
            {
              "internalType": "uint256",
              "name": "price",
              "type": "uint256"
            },
            {
              "components": [
                {
                  "internalType": "string",
                  "name": "bikeBrand",
                  "type": "string"
                },
                {
                  "internalType": "string",
                  "name": "bikeTitle",
                  "type": "string"
                },
                {
                  "internalType": "string",
                  "name": "bikeSize",
                  "type": "string"
                },
                {
                  "internalType": "string",
                  "name": "bikeColor",
                  "type": "string"
                },
                {
                  "internalType": "string",
                  "name": "bikeFrame",
                  "type": "string"
                },
                {
                  "internalType": "string",
                  "name": "bikeFork",
                  "type": "string"
                },
                {
                  "internalType": "string",
                  "name": "bikeShock",
                  "type": "string"
                }
              ],
              "internalType": "struct Klunkaz.BikeDetails",
              "name": "details",
              "type": "tuple"
            },
            {
              "components": [
                {
                  "internalType": "string",
                  "name": "category",
                  "type": "string"
                },
                {
                  "internalType": "string",
                  "name": "images",
                  "type": "string"
                },
                {
                  "internalType": "string",
                  "name": "bikeAddress",
                  "type": "string"
                },
                {
                  "internalType": "string",
                  "name": "bikeFeatures",
                  "type": "string"
                },
                {
                  "internalType": "bool",
                  "name": "isStolen",
                  "type": "bool"
                },
                {
                  "internalType": "bool",
                  "name": "isInsured",
                  "type": "bool"
                }
              ],
              "internalType": "struct Klunkaz.BikeMetadata",
              "name": "metadata",
              "type": "tuple"
            },
            {
              "internalType": "address[]",
              "name": "reviewers",
              "type": "address[]"
            },
            {
              "internalType": "string[]",
              "name": "reviews",
              "type": "string[]"
            }
          ],
          "internalType": "struct Klunkaz.Bike",
          "name": "",
          "type": "tuple"
        }
      ],
      "stateMutability": "view",
      "type": "function"
    },
    {
      "inputs": [
        {
          "internalType": "uint256",
          "name": "bikeId",
          "type": "uint256"
        }
      ],
      "name": "getBikeDetails",
      "outputs": [
        {
          "components": [
            {
              "internalType": "string",
              "name": "bikeBrand",
              "type": "string"
            },
            {
              "internalType": "string",
              "name": "bikeTitle",
              "type": "string"
            },
            {
              "internalType": "string",
              "name": "bikeSize",
              "type": "string"
            },
            {
              "internalType": "string",
              "name": "bikeColor",
              "type": "string"
            },
            {
              "internalType": "string",
              "name": "bikeFrame",
              "type": "string"
            },
            {
              "internalType": "string",
              "name": "bikeFork",
              "type": "string"
            },
            {
              "internalType": "string",
              "name": "bikeShock",
              "type": "string"
            }
          ],
          "internalType": "struct Klunkaz.BikeDetails",
          "name": "",
          "type": "tuple"
        }
      ],
      "stateMutability": "view",
      "type": "function"
    },
    {
      "inputs": [
        {
          "internalType": "uint256",
          "name": "bikeId",
          "type": "uint256"
        }
      ],
      "name": "getBikeMetadata",
      "outputs": [
        {
          "components": [
            {
              "internalType": "string",
              "name": "category",
              "type": "string"
            },
            {
              "internalType": "string",
              "name": "images",
              "type": "string"
            },
            {
              "internalType": "string",
              "name": "bikeAddress",
              "type": "string"
            },
            {
              "internalType": "string",
              "name": "bikeFeatures",
              "type": "string"
            },
            {
              "internalType": "bool",
              "name": "isStolen",
              "type": "bool"
            },
            {
              "internalType": "bool",
              "name": "isInsured",
              "type": "bool"
            }
          ],
          "internalType": "struct Klunkaz.BikeMetadata",
          "name": "",
          "type": "tuple"
        }
      ],
      "stateMutability": "view",
      "type": "function"
    },
    {
      "inputs": [],
      "name": "getHighestRatedProduct",
      "outputs": [
        {
          "internalType": "uint256",
          "name": "",
          "type": "uint256"
        }
      ],
      "stateMutability": "view",
      "type": "function"
    },
    {
      "inputs": [
        {
          "internalType": "uint256",
          "name": "productId",
          "type": "uint256"
        }
      ],
      "name": "getProductReviews",
      "outputs": [
        {
          "components": [
            {
              "internalType": "address",
              "name": "reviewer",
              "type": "address"
            },
            {
              "internalType": "uint256",
              "name": "productId",
              "type": "uint256"
            },
            {
              "internalType": "uint256",
              "name": "rating",
              "type": "uint256"
            },
            {
              "internalType": "string",
              "name": "comment",
              "type": "string"
            },
            {
              "internalType": "uint256",
              "name": "likes",
              "type": "uint256"
            },
            {
              "internalType": "uint256",
              "name": "timestamp",
              "type": "uint256"
            }
          ],
          "internalType": "struct Klunkaz.Review[]",
          "name": "",
          "type": "tuple[]"
        }
      ],
      "stateMutability": "view",
      "type": "function"
    },
    {
      "inputs": [
        {
          "internalType": "address",
          "name": "user",
          "type": "address"
        }
      ],
      "name": "getUserReviews",
      "outputs": [
        {
          "internalType": "uint256[]",
          "name": "",
          "type": "uint256[]"
        }
      ],
      "stateMutability": "view",
      "type": "function"
    },
    {
      "inputs": [
        {
          "internalType": "uint256",
          "name": "productId",
          "type": "uint256"
        },
        {
          "internalType": "uint256",
          "name": "reviewIndex",
          "type": "uint256"
        },
        {
          "internalType": "address",
          "name": "user",
          "type": "address"
        }
      ],
      "name": "hasLikedReview",
      "outputs": [
        {
          "internalType": "bool",
          "name": "",
          "type": "bool"
        }
      ],
      "stateMutability": "view",
      "type": "function"
    },
    {
      "inputs": [
        {
          "internalType": "uint256",
          "name": "bikeId",
          "type": "uint256"
        }
      ],
      "name": "insureBike",
      "outputs": [],
      "stateMutability": "payable",
      "type": "function"
    },
    {
      "inputs": [
        {
          "internalType": "address",
          "name": "owner",
          "type": "address"
        },
        {
          "internalType": "address",
          "name": "operator",
          "type": "address"
        }
      ],
      "name": "isApprovedForAll",
      "outputs": [
        {
          "internalType": "bool",
          "name": "",
          "type": "bool"
        }
      ],
      "stateMutability": "view",
      "type": "function"
    },
    {
      "inputs": [
        {
          "internalType": "uint256",
          "name": "productId",
          "type": "uint256"
        },
        {
          "internalType": "uint256",
          "name": "reviewIndex",
          "type": "uint256"
        }
      ],
      "name": "likeReview",
      "outputs": [],
      "stateMutability": "nonpayable",
      "type": "function"
    },
    {
      "inputs": [
        {
          "internalType": "uint256",
          "name": "price",
          "type": "uint256"
        },
        {
          "components": [
            {
              "internalType": "string",
              "name": "bikeBrand",
              "type": "string"
            },
            {
              "internalType": "string",
              "name": "bikeTitle",
              "type": "string"
            },
            {
              "internalType": "string",
              "name": "bikeSize",
              "type": "string"
            },
            {
              "internalType": "string",
              "name": "bikeColor",
              "type": "string"
            },
            {
              "internalType": "string",
              "name": "bikeFrame",
              "type": "string"
            },
            {
              "internalType": "string",
              "name": "bikeFork",
              "type": "string"
            },
            {
              "internalType": "string",
              "name": "bikeShock",
              "type": "string"
            }
          ],
          "internalType": "struct Klunkaz.BikeDetails",
          "name": "details",
          "type": "tuple"
        },
        {
          "components": [
            {
              "internalType": "string",
              "name": "category",
              "type": "string"
            },
            {
              "internalType": "string",
              "name": "images",
              "type": "string"
            },
            {
              "internalType": "string",
              "name": "bikeAddress",
              "type": "string"
            },
            {
              "internalType": "string",
              "name": "bikeFeatures",
              "type": "string"
            },
            {
              "internalType": "bool",
              "name": "isStolen",
              "type": "bool"
            },
            {
              "internalType": "bool",
              "name": "isInsured",
              "type": "bool"
            }
          ],
          "internalType": "struct Klunkaz.BikeMetadata",
          "name": "metadata",
          "type": "tuple"
        }
      ],
      "name": "listBike",
      "outputs": [
        {
          "internalType": "uint256",
          "name": "",
          "type": "uint256"
        }
      ],
      "stateMutability": "nonpayable",
      "type": "function"
    },
    {
      "inputs": [
        {
          "internalType": "uint256",
          "name": "bikeId",
          "type": "uint256"
        }
      ],
      "name": "markAsStolen",
      "outputs": [],
      "stateMutability": "nonpayable",
      "type": "function"
    },
    {
      "inputs": [],
      "name": "name",
      "outputs": [
        {
          "internalType": "string",
          "name": "",
          "type": "string"
        }
      ],
      "stateMutability": "view",
      "type": "function"
    },
    {
      "inputs": [],
      "name": "owner",
      "outputs": [
        {
          "internalType": "address",
          "name": "",
          "type": "address"
        }
      ],
      "stateMutability": "view",
      "type": "function"
    },
    {
      "inputs": [
        {
          "internalType": "uint256",
          "name": "tokenId",
          "type": "uint256"
        }
      ],
      "name": "ownerOf",
      "outputs": [
        {
          "internalType": "address",
          "name": "",
          "type": "address"
        }
      ],
      "stateMutability": "view",
      "type": "function"
    },
    {
      "inputs": [
        {
          "internalType": "uint256",
          "name": "bikeId",
          "type": "uint256"
        },
        {
          "internalType": "address",
          "name": "deviceAddress",
          "type": "address"
        }
      ],
      "name": "registerTracker",
      "outputs": [],
      "stateMutability": "nonpayable",
      "type": "function"
    },
    {
      "inputs": [],
      "name": "renounceOwnership",
      "outputs": [],
      "stateMutability": "nonpayable",
      "type": "function"
    },
    {
      "inputs": [],
      "name": "reviewsCounter",
      "outputs": [
        {
          "internalType": "uint256",
          "name": "",
          "type": "uint256"
        }
      ],
      "stateMutability": "view",
      "type": "function"
    },
    {
      "inputs": [
        {
          "internalType": "address",
          "name": "from",
          "type": "address"
        },
        {
          "internalType": "address",
          "name": "to",
          "type": "address"
        },
        {
          "internalType": "uint256",
          "name": "tokenId",
          "type": "uint256"
        }
      ],
      "name": "safeTransferFrom",
      "outputs": [],
      "stateMutability": "nonpayable",
      "type": "function"
    },
    {
      "inputs": [
        {
          "internalType": "address",
          "name": "from",
          "type": "address"
        },
        {
          "internalType": "address",
          "name": "to",
          "type": "address"
        },
        {
          "internalType": "uint256",
          "name": "tokenId",
          "type": "uint256"
        },
        {
          "internalType": "bytes",
          "name": "data",
          "type": "bytes"
        }
      ],
      "name": "safeTransferFrom",
      "outputs": [],
      "stateMutability": "nonpayable",
      "type": "function"
    },
    {
      "inputs": [
        {
          "internalType": "address",
          "name": "operator",
          "type": "address"
        },
        {
          "internalType": "bool",
          "name": "approved",
          "type": "bool"
        }
      ],
      "name": "setApprovalForAll",
      "outputs": [],
      "stateMutability": "nonpayable",
      "type": "function"
    },
    {
      "inputs": [
        {
          "internalType": "bytes4",
          "name": "interfaceId",
          "type": "bytes4"
        }
      ],
      "name": "supportsInterface",
      "outputs": [
        {
          "internalType": "bool",
          "name": "",
          "type": "bool"
        }
      ],
      "stateMutability": "view",
      "type": "function"
    },
    {
      "inputs": [],
      "name": "symbol",
      "outputs": [
        {
          "internalType": "string",
          "name": "",
          "type": "string"
        }
      ],
      "stateMutability": "view",
      "type": "function"
    },
    {
      "inputs": [
        {
          "internalType": "uint256",
          "name": "tokenId",
          "type": "uint256"
        }
      ],
      "name": "tokenURI",
      "outputs": [
        {
          "internalType": "string",
          "name": "",
          "type": "string"
        }
      ],
      "stateMutability": "view",
      "type": "function"
    },
    {
      "inputs": [
        {
          "internalType": "address",
          "name": "from",
          "type": "address"
        },
        {
          "internalType": "address",
          "name": "to",
          "type": "address"
        },
        {
          "internalType": "uint256",
          "name": "tokenId",
          "type": "uint256"
        }
      ],
      "name": "transferFrom",
      "outputs": [],
      "stateMutability": "nonpayable",
      "type": "function"
    },
    {
      "inputs": [
        {
          "internalType": "address",
          "name": "newOwner",
          "type": "address"
        }
      ],
      "name": "transferOwnership",
      "outputs": [],
      "stateMutability": "nonpayable",
      "type": "function"
    },
    {
      "inputs": [
        {
          "internalType": "uint256",
          "name": "bikeId",
          "type": "uint256"
        }
      ],
      "name": "unflagBikeAsStolen",
      "outputs": [],
      "stateMutability": "nonpayable",
      "type": "function"
    },
    {
      "inputs": [
        {
          "internalType": "uint256",
          "name": "bikeId",
          "type": "uint256"
        },
        {
          "internalType": "uint256",
          "name": "newPrice",
          "type": "uint256"
        }
      ],
      "name": "updatePrice",
      "outputs": [],
      "stateMutability": "nonpayable",
      "type": "function"
    }
  ],
  "bytecode": "0x60806040523480156200001157600080fd5b506040518060400160405280600781526020016625b63ab735b0bd60c91b815250604051806040016040528060048152602001634b4c4e4b60e01b81525081600090816200006091906200017f565b5060016200006f82826200017f565b5050600160065550620000823362000088565b6200024b565b600780546001600160a01b038381166001600160a01b0319831681179093556040519116919082907f8be0079c531659141344cd1fd0a4f28419497f9722a3daafe3b4186f6b6457e090600090a35050565b634e487b7160e01b600052604160045260246000fd5b600181811c908216806200010557607f821691505b6020821081036200012657634e487b7160e01b600052602260045260246000fd5b50919050565b601f8211156200017a57600081815260208120601f850160051c81016020861015620001555750805b601f850160051c820191505b81811015620001765782815560010162000161565b5050505b505050565b81516001600160401b038111156200019b576200019b620000da565b620001b381620001ac8454620000f0565b846200012c565b602080601f831160018114620001eb5760008415620001d25750858301515b600019600386901b1c1916600185901b17855562000176565b600085815260208120601f198616915b828110156200021c57888601518255948401946001909101908401620001fb565b50858210156200023b5787850151600019600388901b60f8161c191681555b5050505050600190811b01905550565b614251806200025b6000396000f3fe6080604052600436106101f95760003560e01c8063844ce5621161010d578063b88d4fde116100a0578063e985e9c51161006f578063e985e9c514610611578063efaf9d1914610631578063f2fde38b14610644578063fbe7b21514610664578063fee618f61461067a57600080fd5b8063b88d4fde14610584578063c21bca47146105a4578063c87b56dd146105c4578063cdc31ac2146105e457600080fd5b8063a22cb465116100dc578063a22cb46514610502578063a3007b1f14610522578063aafbbe0314610537578063b114d4611461056457600080fd5b8063844ce562146104995780638da5cb5b146104af57806395d89b41146104cd5780639e3699eb146104e257600080fd5b806342842e0e116101905780636352211e1161015f5780636352211e146103f657806370a0823114610416578063715018a61461044457806379e0efe11461045957806382367b2d1461047957600080fd5b806342842e0e1461033c57806346a4237b1461035c5780634f26c4a11461038957806356bc082e146103d657600080fd5b806318d0e8b2116101cc57806318d0e8b2146102af57806323b872dd146102dc57806324d41a03146102fc5780633e9e27aa1461031c57600080fd5b806301ffc9a7146101fe57806306fdde0314610233578063081812fc14610255578063095ea7b31461028d575b600080fd5b34801561020a57600080fd5b5061021e6102193660046131ff565b6106a7565b60405190151581526020015b60405180910390f35b34801561023f57600080fd5b506102486106f9565b60405161022a919061326c565b34801561026157600080fd5b5061027561027036600461327f565b61078b565b6040516001600160a01b03909116815260200161022a565b34801561029957600080fd5b506102ad6102a83660046132b4565b6107b2565b005b3480156102bb57600080fd5b506102cf6102ca3660046132de565b6108cc565b60405161022a91906132f9565b3480156102e857600080fd5b506102ad6102f736600461333d565b610938565b34801561030857600080fd5b506102ad610317366004613379565b610969565b34801561032857600080fd5b506102ad610337366004613427565b610c5b565b34801561034857600080fd5b506102ad61035736600461333d565b610e60565b34801561036857600080fd5b5061037c61037736600461327f565b610e7b565b60405161022a919061348b565b34801561039557600080fd5b5061021e6103a4366004613537565b6000928352600d602090815260408085209385529281528284206001600160a01b039290921684525290205460ff1690565b3480156103e257600080fd5b506102ad6103f136600461327f565b610fbe565b34801561040257600080fd5b5061027561041136600461327f565b611047565b34801561042257600080fd5b506104366104313660046132de565b6110a7565b60405190815260200161022a565b34801561045057600080fd5b506102ad61112d565b34801561046557600080fd5b506102ad61047436600461356c565b611141565b34801561048557600080fd5b506102ad610494366004613379565b6111ca565b3480156104a557600080fd5b50610436600f5481565b3480156104bb57600080fd5b506007546001600160a01b0316610275565b3480156104d957600080fd5b5061024861129e565b3480156104ee57600080fd5b506102ad6104fd36600461327f565b6112ad565b34801561050e57600080fd5b506102ad61051d3660046135a6565b611388565b34801561052e57600080fd5b50610436611397565b34801561054357600080fd5b5061055761055236600461327f565b611402565b60405161022a91906137b9565b34801561057057600080fd5b506102ad61057f366004613379565b611c1d565b34801561059057600080fd5b506102ad61059f366004613855565b611dc6565b3480156105b057600080fd5b506104366105bf3660046138d1565b611dfe565b3480156105d057600080fd5b506102486105df36600461327f565b611f02565b3480156105f057600080fd5b506106046105ff36600461327f565b611f76565b60405161022a919061394d565b34801561061d57600080fd5b5061021e61062c366004613960565b61223d565b6102ad61063f36600461327f565b61226b565b34801561065057600080fd5b506102ad61065f3660046132de565b612357565b34801561067057600080fd5b50610436600e5481565b34801561068657600080fd5b5061069a61069536600461327f565b6123d0565b60405161022a919061398a565b60006001600160e01b031982166380ac58cd60e01b14806106d857506001600160e01b03198216635b5e139f60e01b145b806106f357506301ffc9a760e01b6001600160e01b03198316145b92915050565b6060600080546107089061399d565b80601f01602080910402602001604051908101604052809291908181526020018280546107349061399d565b80156107815780601f1061075657610100808354040283529160200191610781565b820191906000526020600020905b81548152906001019060200180831161076457829003601f168201915b5050505050905090565b600061079682612830565b506000908152600460205260409020546001600160a01b031690565b60006107bd82611047565b9050806001600160a01b0316836001600160a01b03160361082f5760405162461bcd60e51b815260206004820152602160248201527f4552433732313a20617070726f76616c20746f2063757272656e74206f776e656044820152603960f91b60648201526084015b60405180910390fd5b336001600160a01b038216148061084b575061084b813361223d565b6108bd5760405162461bcd60e51b815260206004820152603d60248201527f4552433732313a20617070726f76652063616c6c6572206973206e6f7420746f60448201527f6b656e206f776e6572206f7220617070726f76656420666f7220616c6c0000006064820152608401610826565b6108c7838361288f565b505050565b6001600160a01b0381166000908152600a602090815260409182902080548351818402810184019094528084526060939283018282801561092c57602002820191906000526020600020905b815481526020019060010190808311610918575b50505050509050919050565b61094233826128fd565b61095e5760405162461bcd60e51b8152600401610826906139d7565b6108c783838361295c565b60008281526009602052604090205481106109be5760405162461bcd60e51b815260206004820152601560248201527414995d9a595dc8191bd95cc81b9bdd08195e1a5cdd605a1b6044820152606401610826565b60008281526009602052604090208054339190839081106109e1576109e1613a24565b60009182526020909120600690910201546001600160a01b031614610a545760405162461bcd60e51b8152602060048201526024808201527f596f752063616e206f6e6c792064656c65746520796f7572206f776e207265766044820152636965777360e01b6064820152608401610826565b805b600083815260096020526040902054610a7190600190613a50565b811015610b4e576000838152600960205260409020610a91826001613a63565b81548110610aa157610aa1613a24565b9060005260206000209060060201600960008581526020019081526020016000208281548110610ad357610ad3613a24565b60009182526020909120825460069092020180546001600160a01b0319166001600160a01b039092169190911781556001808301549082015560028083015490820155600380820190610b2890840182613ad9565b506004828101549082015560059182015491015580610b4681613bb4565b915050610a56565b506000828152600960205260409020805480610b6c57610b6c613bcd565b60008281526020812060066000199093019283020180546001600160a01b0319168155600181018290556002810182905590610bab60038301826130e5565b5060006004820181905560059091018190559155828152600b602090815260408083206009909252909120805483908110610be857610be8613a24565b906000526020600020906006020160020154816001016000828254610c0d9190613a50565b9091555050600281018054906000610c2483613be3565b9091555050604051829084907ffe09911b3ec9652ef94a11286713bd397f2fb090f28c62303451d8040ff62c6290600090a3505050565b60018210158015610c6d575060058211155b610cb95760405162461bcd60e51b815260206004820152601e60248201527f526174696e67206d757374206265206265747765656e203120616e64203500006044820152606401610826565b6000815111610d0a5760405162461bcd60e51b815260206004820152601760248201527f436f6d6d656e742063616e6e6f7420626520656d7074790000000000000000006044820152606401610826565b6040805160c0810182523381526020808201868152828401868152606084018681526000608086018190524260a08701528981526009855295862080546001808201835591885294909620855160069095020180546001600160a01b0319166001600160a01b03909516949094178455915194830194909455925160028201559151909182916003820190610d9f9082613bfa565b506080820151600482015560a090910151600590910155336000908152600a6020908152604080832080546001818101835591855283852001889055878452600b9092528220908101805491928692610df9908490613a63565b9091555050600281018054906000610e1083613bb4565b9190505550336001600160a01b0316857f4beb3faed0901f48c8eaa53db80247f723ddeb08676b6badb9ee2f191d1ac2df8686604051610e51929190613cae565b60405180910390a35050505050565b6108c783838360405180602001604052806000815250611dc6565b606060096000838152602001908152602001600020805480602002602001604051908101604052809291908181526020016000905b82821015610fb35760008481526020908190206040805160c0810182526006860290920180546001600160a01b03168352600181015493830193909352600283015490820152600382018054919291606084019190610f0e9061399d565b80601f0160208091040260200160405190810160405280929190818152602001828054610f3a9061399d565b8015610f875780601f10610f5c57610100808354040283529160200191610f87565b820191906000526020600020905b815481529060010190602001808311610f6a57829003601f168201915b505050505081526020016004820154815260200160058201548152505081526020019060010190610eb0565b505050509050919050565b33610fc882611047565b6001600160a01b031614610fee5760405162461bcd60e51b815260040161082690613cc7565b600081815260086020908152604091829020600e01805460ff19166001908117909155915191825282917f31c7437140229c226a4acaed438f62c68da03165f12e02a33d2754c8632461eb91015b60405180910390a250565b6000818152600260205260408120546001600160a01b0316806106f35760405162461bcd60e51b8152602060048201526018602482015277115490cdcc8c4e881a5b9d985b1a59081d1bdad95b88125160421b6044820152606401610826565b60006001600160a01b0382166111115760405162461bcd60e51b815260206004820152602960248201527f4552433732313a2061646472657373207a65726f206973206e6f7420612076616044820152683634b21037bbb732b960b91b6064820152608401610826565b506001600160a01b031660009081526003602052604090205490565b6111356129dd565b61113f6000612a37565b565b3361114b83611047565b6001600160a01b0316146111715760405162461bcd60e51b815260040161082690613cc7565b6000828152600c602052604080822080546001600160a01b0319166001600160a01b0385169081179091559051909184917f2c507bd5f7ce8a766341b3b97146350a897966b95b50aa0f7db93ad6dd5791679190a35050565b336111d483611047565b6001600160a01b0316146111fa5760405162461bcd60e51b815260040161082690613cc7565b6000811161124a5760405162461bcd60e51b815260206004820152601c60248201527f5072696365206d7573742062652067726561746572207468616e2030000000006044820152606401610826565b600082815260086020526040908190206002018290555182907f945c1c4e99aa89f648fbfe3df471b916f719e16d960fcec0737d4d56bd696838906112929084815260200190565b60405180910390a25050565b6060600180546107089061399d565b336112b782611047565b6001600160a01b0316146112dd5760405162461bcd60e51b815260040161082690613cc7565b6000818152600860205260409020600e015460ff1661133e5760405162461bcd60e51b815260206004820152601c60248201527f42696b65206973206e6f74206d61726b65642061732073746f6c656e000000006044820152606401610826565b6000818152600860209081526040808320600e01805460ff191690555191825282917f31c7437140229c226a4acaed438f62c68da03165f12e02a33d2754c8632461eb910161103c565b611393338383612a89565b5050565b6000808060015b600e5481116113fb576000818152600b602052604090206002810154156113e8576000816002015482600101546113d59190613cf3565b9050848111156113e6578094508293505b505b50806113f381613bb4565b91505061139e565b5092915050565b61140a61311f565b600082815260086020908152604091829020825160e080820185528254825260018301546001600160a01b0316938201939093526002820154818501528351928301909352600381018054919260608501929091908290829061146c9061399d565b80601f01602080910402602001604051908101604052809291908181526020018280546114989061399d565b80156114e55780601f106114ba576101008083540402835291602001916114e5565b820191906000526020600020905b8154815290600101906020018083116114c857829003601f168201915b505050505081526020016001820180546114fe9061399d565b80601f016020809104026020016040519081016040528092919081815260200182805461152a9061399d565b80156115775780601f1061154c57610100808354040283529160200191611577565b820191906000526020600020905b81548152906001019060200180831161155a57829003601f168201915b505050505081526020016002820180546115909061399d565b80601f01602080910402602001604051908101604052809291908181526020018280546115bc9061399d565b80156116095780601f106115de57610100808354040283529160200191611609565b820191906000526020600020905b8154815290600101906020018083116115ec57829003601f168201915b505050505081526020016003820180546116229061399d565b80601f016020809104026020016040519081016040528092919081815260200182805461164e9061399d565b801561169b5780601f106116705761010080835404028352916020019161169b565b820191906000526020600020905b81548152906001019060200180831161167e57829003601f168201915b505050505081526020016004820180546116b49061399d565b80601f01602080910402602001604051908101604052809291908181526020018280546116e09061399d565b801561172d5780601f106117025761010080835404028352916020019161172d565b820191906000526020600020905b81548152906001019060200180831161171057829003601f168201915b505050505081526020016005820180546117469061399d565b80601f01602080910402602001604051908101604052809291908181526020018280546117729061399d565b80156117bf5780601f10611794576101008083540402835291602001916117bf565b820191906000526020600020905b8154815290600101906020018083116117a257829003601f168201915b505050505081526020016006820180546117d89061399d565b80601f01602080910402602001604051908101604052809291908181526020018280546118049061399d565b80156118515780601f1061182657610100808354040283529160200191611851565b820191906000526020600020905b81548152906001019060200180831161183457829003601f168201915b5050505050815250508152602001600a82016040518060c001604052908160008201805461187e9061399d565b80601f01602080910402602001604051908101604052809291908181526020018280546118aa9061399d565b80156118f75780601f106118cc576101008083540402835291602001916118f7565b820191906000526020600020905b8154815290600101906020018083116118da57829003601f168201915b505050505081526020016001820180546119109061399d565b80601f016020809104026020016040519081016040528092919081815260200182805461193c9061399d565b80156119895780601f1061195e57610100808354040283529160200191611989565b820191906000526020600020905b81548152906001019060200180831161196c57829003601f168201915b505050505081526020016002820180546119a29061399d565b80601f01602080910402602001604051908101604052809291908181526020018280546119ce9061399d565b8015611a1b5780601f106119f057610100808354040283529160200191611a1b565b820191906000526020600020905b8154815290600101906020018083116119fe57829003601f168201915b50505050508152602001600382018054611a349061399d565b80601f0160208091040260200160405190810160405280929190818152602001828054611a609061399d565b8015611aad5780601f10611a8257610100808354040283529160200191611aad565b820191906000526020600020905b815481529060010190602001808311611a9057829003601f168201915b50505091835250506004919091015460ff8082161515602080850191909152610100909204161515604092830152918352600f84018054825181850281018501909352808352938301939192909190830182828015611b3557602002820191906000526020600020905b81546001600160a01b03168152600190910190602001808311611b17575b5050505050815260200160108201805480602002602001604051908101604052809291908181526020016000905b82821015611c0f578382906000526020600020018054611b829061399d565b80601f0160208091040260200160405190810160405280929190818152602001828054611bae9061399d565b8015611bfb5780601f10611bd057610100808354040283529160200191611bfb565b820191906000526020600020905b815481529060010190602001808311611bde57829003601f168201915b505050505081526020019060010190611b63565b505050915250909392505050565b6000828152600960205260409020548110611c725760405162461bcd60e51b815260206004820152601560248201527414995d9a595dc8191bd95cc81b9bdd08195e1a5cdd605a1b6044820152606401610826565b6000828152600d60209081526040808320848452825280832033845290915290205460ff1615611ce45760405162461bcd60e51b815260206004820152601960248201527f416c7265616479206c696b6564207468697320726576696577000000000000006044820152606401610826565b6000828152600960205260409020805482908110611d0457611d04613a24565b600091825260208220600460069092020101805491611d2283613bb4565b90915550506000828152600d60209081526040808320848452825280832033808552908352818420805460ff1916600117905585845260099092529091208054839185917fc58deae63c2d94e1502a392380f59901dc4cd3c3bbc40308b6189decf09671d5919084908110611d9957611d99613a24565b906000526020600020906006020160040154604051611dba91815260200190565b60405180910390a45050565b611dd033836128fd565b611dec5760405162461bcd60e51b8152600401610826906139d7565b611df884848484612b57565b50505050565b6000808411611e4f5760405162461bcd60e51b815260206004820152601c60248201527f5072696365206d7573742062652067726561746572207468616e2030000000006044820152606401610826565b6000600e60008154611e6090613bb4565b918290555060008181526008602052604090208181556001810180546001600160a01b03191633179055600281018790559091508460038201611ea38282613e1d565b50849050600a8201611eb58282613f98565b905050611ec23383612b8a565b604051868152339083907f7bdb5fda3c85bc6ad44ee77339210335f0d676769e9d0684d59f0848871d2a1f9060200160405180910390a350949350505050565b6060611f0d82612830565b6000611f2460408051602081019091526000815290565b90506000815111611f445760405180602001604052806000815250611f6f565b80611f4e84612d15565b604051602001611f5f9291906140fb565b6040516020818303038152906040525b9392505050565b611fb36040518060c00160405280606081526020016060815260200160608152602001606081526020016000151581526020016000151581525090565b60008281526008602052604090819020815160c08101909252600a01805482908290611fde9061399d565b80601f016020809104026020016040519081016040528092919081815260200182805461200a9061399d565b80156120575780601f1061202c57610100808354040283529160200191612057565b820191906000526020600020905b81548152906001019060200180831161203a57829003601f168201915b505050505081526020016001820180546120709061399d565b80601f016020809104026020016040519081016040528092919081815260200182805461209c9061399d565b80156120e95780601f106120be576101008083540402835291602001916120e9565b820191906000526020600020905b8154815290600101906020018083116120cc57829003601f168201915b505050505081526020016002820180546121029061399d565b80601f016020809104026020016040519081016040528092919081815260200182805461212e9061399d565b801561217b5780601f106121505761010080835404028352916020019161217b565b820191906000526020600020905b81548152906001019060200180831161215e57829003601f168201915b505050505081526020016003820180546121949061399d565b80601f01602080910402602001604051908101604052809291908181526020018280546121c09061399d565b801561220d5780601f106121e25761010080835404028352916020019161220d565b820191906000526020600020905b8154815290600101906020018083116121f057829003601f168201915b50505091835250506004919091015460ff8082161515602084015261010090910416151560409091015292915050565b6001600160a01b03918216600090815260056020908152604080832093909416825291909152205460ff1690565b3361227582611047565b6001600160a01b03161461229b5760405162461bcd60e51b815260040161082690613cc7565b6000818152600860205260409020600e0154610100900460ff16156123025760405162461bcd60e51b815260206004820152601760248201527f42696b6520697320616c726561647920696e73757265640000000000000000006044820152606401610826565b60008181526008602052604090819020600e01805461ff0019166101001790555181907f897ccba9ad8d1ac8a46ca954e71e2470f4bc81ccc69ca1d61f40210156c64e679061103c9060011515815260200190565b61235f6129dd565b6001600160a01b0381166123c45760405162461bcd60e51b815260206004820152602660248201527f4f776e61626c653a206e6577206f776e657220697320746865207a65726f206160448201526564647265737360d01b6064820152608401610826565b6123cd81612a37565b50565b6124106040518060e00160405280606081526020016060815260200160608152602001606081526020016060815260200160608152602001606081525090565b60008281526008602052604090819020815160e0810190925260030180548290829061243b9061399d565b80601f01602080910402602001604051908101604052809291908181526020018280546124679061399d565b80156124b45780601f10612489576101008083540402835291602001916124b4565b820191906000526020600020905b81548152906001019060200180831161249757829003601f168201915b505050505081526020016001820180546124cd9061399d565b80601f01602080910402602001604051908101604052809291908181526020018280546124f99061399d565b80156125465780601f1061251b57610100808354040283529160200191612546565b820191906000526020600020905b81548152906001019060200180831161252957829003601f168201915b5050505050815260200160028201805461255f9061399d565b80601f016020809104026020016040519081016040528092919081815260200182805461258b9061399d565b80156125d85780601f106125ad576101008083540402835291602001916125d8565b820191906000526020600020905b8154815290600101906020018083116125bb57829003601f168201915b505050505081526020016003820180546125f19061399d565b80601f016020809104026020016040519081016040528092919081815260200182805461261d9061399d565b801561266a5780601f1061263f5761010080835404028352916020019161266a565b820191906000526020600020905b81548152906001019060200180831161264d57829003601f168201915b505050505081526020016004820180546126839061399d565b80601f01602080910402602001604051908101604052809291908181526020018280546126af9061399d565b80156126fc5780601f106126d1576101008083540402835291602001916126fc565b820191906000526020600020905b8154815290600101906020018083116126df57829003601f168201915b505050505081526020016005820180546127159061399d565b80601f01602080910402602001604051908101604052809291908181526020018280546127419061399d565b801561278e5780601f106127635761010080835404028352916020019161278e565b820191906000526020600020905b81548152906001019060200180831161277157829003601f168201915b505050505081526020016006820180546127a79061399d565b80601f01602080910402602001604051908101604052809291908181526020018280546127d39061399d565b80156128205780601f106127f557610100808354040283529160200191612820565b820191906000526020600020905b81548152906001019060200180831161280357829003601f168201915b5050505050815250509050919050565b6000818152600260205260409020546001600160a01b03166123cd5760405162461bcd60e51b8152602060048201526018602482015277115490cdcc8c4e881a5b9d985b1a59081d1bdad95b88125160421b6044820152606401610826565b600081815260046020526040902080546001600160a01b0319166001600160a01b03841690811790915581906128c482611047565b6001600160a01b03167f8c5be1e5ebec7d5bd14f71427d1e84f3dd0314c0f7b2291e5b200ac8c7c3b92560405160405180910390a45050565b60008061290983611047565b9050806001600160a01b0316846001600160a01b031614806129305750612930818561223d565b806129545750836001600160a01b03166129498461078b565b6001600160a01b0316145b949350505050565b612967838383612da8565b6000818152600860209081526040918290206001810180546001600160a01b0319166001600160a01b03878116918217909255600290920154935193845290929086169184917f795a7cd0147ddd0af2300c79dd7f62f6e26226534db92eab141cd37d3f492866910160405180910390a4505050565b6007546001600160a01b0316331461113f5760405162461bcd60e51b815260206004820181905260248201527f4f776e61626c653a2063616c6c6572206973206e6f7420746865206f776e65726044820152606401610826565b600780546001600160a01b038381166001600160a01b0319831681179093556040519116919082907f8be0079c531659141344cd1fd0a4f28419497f9722a3daafe3b4186f6b6457e090600090a35050565b816001600160a01b0316836001600160a01b031603612aea5760405162461bcd60e51b815260206004820152601960248201527f4552433732313a20617070726f766520746f2063616c6c6572000000000000006044820152606401610826565b6001600160a01b03838116600081815260056020908152604080832094871680845294825291829020805460ff191686151590811790915591519182527f17307eab39ab6107e8899845ad3d59bd9653f200f220920489ca2b5937696c31910160405180910390a3505050565b612b6284848461295c565b612b6e84848484612f0c565b611df85760405162461bcd60e51b81526004016108269061412a565b6001600160a01b038216612be05760405162461bcd60e51b815260206004820181905260248201527f4552433732313a206d696e7420746f20746865207a65726f20616464726573736044820152606401610826565b6000818152600260205260409020546001600160a01b031615612c455760405162461bcd60e51b815260206004820152601c60248201527f4552433732313a20746f6b656e20616c7265616479206d696e746564000000006044820152606401610826565b6000818152600260205260409020546001600160a01b031615612caa5760405162461bcd60e51b815260206004820152601c60248201527f4552433732313a20746f6b656e20616c7265616479206d696e746564000000006044820152606401610826565b6001600160a01b038216600081815260036020908152604080832080546001019055848352600290915280822080546001600160a01b0319168417905551839291907fddf252ad1be2c89b69c2b068fc378daa952ba7f163c4a11628f55a4df523b3ef908290a45050565b60606000612d228361300d565b600101905060008167ffffffffffffffff811115612d4257612d4261339b565b6040519080825280601f01601f191660200182016040528015612d6c576020820181803683370190505b5090508181016020015b600019016f181899199a1a9b1b9c1cb0b131b232b360811b600a86061a8153600a8504945084612d7657509392505050565b826001600160a01b0316612dbb82611047565b6001600160a01b031614612de15760405162461bcd60e51b81526004016108269061417c565b6001600160a01b038216612e435760405162461bcd60e51b8152602060048201526024808201527f4552433732313a207472616e7366657220746f20746865207a65726f206164646044820152637265737360e01b6064820152608401610826565b826001600160a01b0316612e5682611047565b6001600160a01b031614612e7c5760405162461bcd60e51b81526004016108269061417c565b600081815260046020908152604080832080546001600160a01b03199081169091556001600160a01b0387811680865260038552838620805460001901905590871680865283862080546001019055868652600290945282852080549092168417909155905184937fddf252ad1be2c89b69c2b068fc378daa952ba7f163c4a11628f55a4df523b3ef91a4505050565b60006001600160a01b0384163b1561300257604051630a85bd0160e11b81526001600160a01b0385169063150b7a0290612f509033908990889088906004016141c1565b6020604051808303816000875af1925050508015612f8b575060408051601f3d908101601f19168201909252612f88918101906141fe565b60015b612fe8573d808015612fb9576040519150601f19603f3d011682016040523d82523d6000602084013e612fbe565b606091505b508051600003612fe05760405162461bcd60e51b81526004016108269061412a565b805181602001fd5b6001600160e01b031916630a85bd0160e11b149050612954565b506001949350505050565b60008072184f03e93ff9f4daa797ed6e38ed64bf6a1f0160401b831061304c5772184f03e93ff9f4daa797ed6e38ed64bf6a1f0160401b830492506040015b6d04ee2d6d415b85acef81000000008310613078576d04ee2d6d415b85acef8100000000830492506020015b662386f26fc10000831061309657662386f26fc10000830492506010015b6305f5e10083106130ae576305f5e100830492506008015b61271083106130c257612710830492506004015b606483106130d4576064830492506002015b600a83106106f35760010192915050565b5080546130f19061399d565b6000825580601f10613101575050565b601f0160209004906000526020600020908101906123cd91906131d0565b6040518060e001604052806000815260200160006001600160a01b03168152602001600081526020016131886040518060e00160405280606081526020016060815260200160608152602001606081526020016060815260200160608152602001606081525090565b81526040805160c081018252606080825260208281018290529282018190528082015260006080820181905260a0820152910190815260200160608152602001606081525090565b5b808211156131e557600081556001016131d1565b5090565b6001600160e01b0319811681146123cd57600080fd5b60006020828403121561321157600080fd5b8135611f6f816131e9565b60005b8381101561323757818101518382015260200161321f565b50506000910152565b6000815180845261325881602086016020860161321c565b601f01601f19169290920160200192915050565b602081526000611f6f6020830184613240565b60006020828403121561329157600080fd5b5035919050565b80356001600160a01b03811681146132af57600080fd5b919050565b600080604083850312156132c757600080fd5b6132d083613298565b946020939093013593505050565b6000602082840312156132f057600080fd5b611f6f82613298565b6020808252825182820181905260009190848201906040850190845b8181101561333157835183529284019291840191600101613315565b50909695505050505050565b60008060006060848603121561335257600080fd5b61335b84613298565b925061336960208501613298565b9150604084013590509250925092565b6000806040838503121561338c57600080fd5b50508035926020909101359150565b634e487b7160e01b600052604160045260246000fd5b600067ffffffffffffffff808411156133cc576133cc61339b565b604051601f8501601f19908116603f011681019082821181831017156133f4576133f461339b565b8160405280935085815286868601111561340d57600080fd5b858560208301376000602087830101525050509392505050565b60008060006060848603121561343c57600080fd5b8335925060208401359150604084013567ffffffffffffffff81111561346157600080fd5b8401601f8101861361347257600080fd5b613481868235602084016133b1565b9150509250925092565b60006020808301818452808551808352604092508286019150828160051b87010184880160005b8381101561352957888303603f19018552815180516001600160a01b031684528781015188850152868101518785015260608082015160c082870181905291906134fe83880182613240565b6080858101519089015260a094850151949097019390935250505093860193908601906001016134b2565b509098975050505050505050565b60008060006060848603121561354c57600080fd5b833592506020840135915061356360408501613298565b90509250925092565b6000806040838503121561357f57600080fd5b8235915061358f60208401613298565b90509250929050565b80151581146123cd57600080fd5b600080604083850312156135b957600080fd5b6135c283613298565b915060208301356135d281613598565b809150509250929050565b6000815160e084526135f260e0850182613240565b90506020830151848203602086015261360b8282613240565b915050604083015184820360408601526136258282613240565b9150506060830151848203606086015261363f8282613240565b915050608083015184820360808601526136598282613240565b91505060a083015184820360a08601526136738282613240565b91505060c083015184820360c086015261368d8282613240565b95945050505050565b6000815160c084526136ab60c0850182613240565b9050602083015184820360208601526136c48282613240565b915050604083015184820360408601526136de8282613240565b915050606083015184820360608601526136f88282613240565b91505060808301511515608085015260a0830151151560a08501528091505092915050565b600081518084526020808501945080840160005b838110156137565781516001600160a01b031687529582019590820190600101613731565b509495945050505050565b600082825180855260208086019550808260051b84010181860160005b848110156137ac57601f1986840301895261379a838351613240565b9884019892509083019060010161377e565b5090979650505050505050565b602081528151602082015260018060a01b036020830151166040820152604082015160608201526000606083015160e060808401526137fc6101008401826135dd565b90506080840151601f19808584030160a086015261381a8383613696565b925060a08601519150808584030160c0860152613837838361371d565b925060c08601519150808584030160e08601525061368d8282613761565b6000806000806080858703121561386b57600080fd5b61387485613298565b935061388260208601613298565b925060408501359150606085013567ffffffffffffffff8111156138a557600080fd5b8501601f810187136138b657600080fd5b6138c5878235602084016133b1565b91505092959194509250565b6000806000606084860312156138e657600080fd5b83359250602084013567ffffffffffffffff8082111561390557600080fd5b9085019060e0828803121561391957600080fd5b9092506040850135908082111561392f57600080fd5b50840160c0818703121561394257600080fd5b809150509250925092565b602081526000611f6f6020830184613696565b6000806040838503121561397357600080fd5b61397c83613298565b915061358f60208401613298565b602081526000611f6f60208301846135dd565b600181811c908216806139b157607f821691505b6020821081036139d157634e487b7160e01b600052602260045260246000fd5b50919050565b6020808252602d908201527f4552433732313a2063616c6c6572206973206e6f7420746f6b656e206f776e6560408201526c1c881bdc88185c1c1c9bdd9959609a1b606082015260800190565b634e487b7160e01b600052603260045260246000fd5b634e487b7160e01b600052601160045260246000fd5b818103818111156106f3576106f3613a3a565b808201808211156106f3576106f3613a3a565b601f8211156108c757600081815260208120601f850160051c81016020861015613a9d5750805b601f850160051c820191505b81811015613abc57828155600101613aa9565b505050505050565b600019600383901b1c191660019190911b1790565b818103613ae4575050565b613aee825461399d565b67ffffffffffffffff811115613b0657613b0661339b565b613b1a81613b14845461399d565b84613a76565b6000601f821160018114613b485760008315613b365750848201545b613b408482613ac4565b855550613bad565b600085815260209020601f19841690600086815260209020845b83811015613b825782860154825560019586019590910190602001613b62565b5085831015613ba05781850154600019600388901b60f8161c191681555b50505060018360011b0184555b5050505050565b600060018201613bc657613bc6613a3a565b5060010190565b634e487b7160e01b600052603160045260246000fd5b600081613bf257613bf2613a3a565b506000190190565b815167ffffffffffffffff811115613c1457613c1461339b565b613c2281613b14845461399d565b602080601f831160018114613c515760008415613c3f5750858301515b613c498582613ac4565b865550613abc565b600085815260208120601f198616915b82811015613c8057888601518255948401946001909101908401613c61565b5085821015613c9e5787850151600019600388901b60f8161c191681555b5050505050600190811b01905550565b8281526040602082015260006129546040830184613240565b6020808252601290820152712737ba103a3432903134b5b29037bbb732b960711b604082015260600190565b600082613d1057634e487b7160e01b600052601260045260246000fd5b500490565b6000808335601e19843603018112613d2c57600080fd5b83018035915067ffffffffffffffff821115613d4757600080fd5b602001915036819003821315613d5c57600080fd5b9250929050565b67ffffffffffffffff831115613d7b57613d7b61339b565b613d8f83613d89835461399d565b83613a76565b6000601f841160018114613dbd5760008515613dab5750838201355b613db58682613ac4565b845550613bad565b600083815260209020601f19861690835b82811015613dee5786850135825560209485019460019092019101613dce565b5086821015613e0b5760001960f88860031b161c19848701351681555b505060018560011b0183555050505050565b613e278283613d15565b67ffffffffffffffff811115613e3f57613e3f61339b565b613e5381613e4d855461399d565b85613a76565b6000601f821160018114613e815760008315613e6f5750838201355b613e798482613ac4565b865550613edb565b600085815260209020601f19841690835b82811015613eb25786850135825560209485019460019092019101613e92565b5084821015613ecf5760001960f88660031b161c19848701351681555b505060018360011b0185555b50505050613eec6020830183613d15565b613efa818360018601613d63565b5050613f096040830183613d15565b613f17818360028601613d63565b5050613f266060830183613d15565b613f34818360038601613d63565b5050613f436080830183613d15565b613f51818360048601613d63565b5050613f6060a0830183613d15565b613f6e818360058601613d63565b5050613f7d60c0830183613d15565b611df8818360068601613d63565b600081356106f381613598565b613fa28283613d15565b67ffffffffffffffff811115613fba57613fba61339b565b613fc881613e4d855461399d565b6000601f821160018114613ff65760008315613fe45750838201355b613fee8482613ac4565b865550614050565b600085815260209020601f19841690835b828110156140275786850135825560209485019460019092019101614007565b50848210156140445760001960f88660031b161c19848701351681555b505060018360011b0185555b505050506140616020830183613d15565b61406f818360018601613d63565b505061407e6040830183613d15565b61408c818360028601613d63565b505061409b6060830183613d15565b6140a9818360038601613d63565b5050600481016140d26140be60808501613f8b565b825490151560ff1660ff1991909116178255565b6108c76140e160a08501613f8b565b82805461ff00191691151560081b61ff0016919091179055565b6000835161410d81846020880161321c565b83519083019061412181836020880161321c565b01949350505050565b60208082526032908201527f4552433732313a207472616e7366657220746f206e6f6e20455243373231526560408201527131b2b4bb32b91034b6b83632b6b2b73a32b960711b606082015260800190565b60208082526025908201527f4552433732313a207472616e736665722066726f6d20696e636f72726563742060408201526437bbb732b960d91b606082015260800190565b6001600160a01b03858116825284166020820152604081018390526080606082018190526000906141f490830184613240565b9695505050505050565b60006020828403121561421057600080fd5b8151611f6f816131e956fea26469706673582212203097f7468da3f68c329c2de32511b6406572a8f5c500974412ebd1d468cfa93364736f6c63430008110033",
  "linkReferences": {},
  "deployedLinkReferences": {}
}